{
  "contractName": "Admin",
  "abi": [
    {
      "inputs": [
        {
          "internalType": "address",
          "name": "_admin",
          "type": "address"
        }
      ],
      "stateMutability": "nonpayable",
      "type": "constructor"
    },
    {
      "inputs": [],
      "name": "admin",
      "outputs": [
        {
          "internalType": "address",
          "name": "",
          "type": "address"
        }
      ],
      "stateMutability": "view",
      "type": "function"
    },
    {
      "inputs": [
        {
          "internalType": "address",
          "name": "_account",
          "type": "address"
        }
      ],
      "name": "isAdmin",
      "outputs": [
        {
          "internalType": "bool",
          "name": "",
          "type": "bool"
        }
      ],
      "stateMutability": "view",
      "type": "function"
    }
  ],
  "bytecode": "0x608060405234801561001057600080fd5b50604051610343380380610343833981810160405281019061003291906100db565b806000806101000a81548173ffffffffffffffffffffffffffffffffffffffff021916908373ffffffffffffffffffffffffffffffffffffffff16021790555050610108565b600080fd5b600073ffffffffffffffffffffffffffffffffffffffff82169050919050565b60006100a88261007d565b9050919050565b6100b88161009d565b81146100c357600080fd5b50565b6000815190506100d5816100af565b92915050565b6000602082840312156100f1576100f0610078565b5b60006100ff848285016100c6565b91505092915050565b61022c806101176000396000f3fe608060405234801561001057600080fd5b50600436106100365760003560e01c806324d7806c1461003b578063f851a4401461006b575b600080fd5b61005560048036038101906100509190610169565b610089565b60405161006291906101b1565b60405180910390f35b6100736100e2565b60405161008091906101db565b60405180910390f35b60008060009054906101000a900473ffffffffffffffffffffffffffffffffffffffff1673ffffffffffffffffffffffffffffffffffffffff168273ffffffffffffffffffffffffffffffffffffffff16149050919050565b60008054906101000a900473ffffffffffffffffffffffffffffffffffffffff1681565b600080fd5b600073ffffffffffffffffffffffffffffffffffffffff82169050919050565b60006101368261010b565b9050919050565b6101468161012b565b811461015157600080fd5b50565b6000813590506101638161013d565b92915050565b60006020828403121561017f5761017e610106565b5b600061018d84828501610154565b91505092915050565b60008115159050919050565b6101ab81610196565b82525050565b60006020820190506101c660008301846101a2565b92915050565b6101d58161012b565b82525050565b60006020820190506101f060008301846101cc565b9291505056fea26469706673582212206cdafb363c4fee1e760c4978d1818fb7a1adb8724259f8f70217bbf4c699f4d964736f6c63430008110033",
  "immutableReferences": {},
  "source": "// SPDX-License-Identifier: MIT\npragma solidity ^0.8.0;\ncontract Admin{\n  address public admin;\n  \n  constructor(address _admin){\n    admin = _admin;\n  }\n\n  function isAdmin(address _account) public view returns (bool){\n    return _account == admin;\n  }\n  \n  modifier onlyAdmin{\n    require(msg.sender == admin);\n    _;\n  }\n}",
  "sourcePath": "/Users/nkpaladugu/Library/CloudStorage/OneDrive-Personal/Tech/IIITH/Capstone/fpochain/web/contracts/Admin.sol",
  "compiler": {
    "name": "solc",
    "version": "0.8.17+commit.8df45f5f.Emscripten.clang"
  },
  "schemaVersion": "3.4.10",
  "updatedAt": "2022-09-25T07:43:28.676Z",
  "devdoc": {
    "kind": "dev",
    "methods": {},
    "version": 1
  },
  "userdoc": {
    "kind": "user",
    "methods": {},
    "version": 1
  }
}