{
  "contractName": "Farmer",
  "abi": [
    {
      "inputs": [],
      "stateMutability": "nonpayable",
      "type": "constructor"
    },
    {
      "inputs": [
        {
          "internalType": "address",
          "name": "",
          "type": "address"
        },
        {
          "internalType": "uint256",
          "name": "",
          "type": "uint256"
        }
      ],
      "name": "_farmerRawProducts",
      "outputs": [
        {
          "internalType": "string",
          "name": "",
          "type": "string"
        }
      ],
      "stateMutability": "view",
      "type": "function"
    },
    {
      "inputs": [
        {
          "internalType": "string",
          "name": "",
          "type": "string"
        },
        {
          "internalType": "uint256",
          "name": "",
          "type": "uint256"
        }
      ],
      "name": "_rawProductFarmers",
      "outputs": [
        {
          "internalType": "address",
          "name": "",
          "type": "address"
        }
      ],
      "stateMutability": "view",
      "type": "function"
    },
    {
      "inputs": [],
      "name": "admin",
      "outputs": [
        {
          "internalType": "address",
          "name": "",
          "type": "address"
        }
      ],
      "stateMutability": "view",
      "type": "function"
    },
    {
      "inputs": [
        {
          "internalType": "address",
          "name": "_id",
          "type": "address"
        }
      ],
      "name": "get",
      "outputs": [
        {
          "components": [
            {
              "internalType": "address",
              "name": "id",
              "type": "address"
            },
            {
              "internalType": "string",
              "name": "name",
              "type": "string"
            },
            {
              "internalType": "string",
              "name": "location",
              "type": "string"
            },
            {
              "internalType": "string",
              "name": "role",
              "type": "string"
            },
            {
              "internalType": "bool",
              "name": "isVerified",
              "type": "bool"
            }
          ],
          "internalType": "struct Stakeholder.stakeholder",
          "name": "",
          "type": "tuple"
        }
      ],
      "stateMutability": "view",
      "type": "function"
    },
    {
      "inputs": [],
      "name": "getAddresses",
      "outputs": [
        {
          "internalType": "address[]",
          "name": "",
          "type": "address[]"
        }
      ],
      "stateMutability": "view",
      "type": "function"
    },
    {
      "inputs": [
        {
          "internalType": "address",
          "name": "_id",
          "type": "address"
        }
      ],
      "name": "getRole",
      "outputs": [
        {
          "internalType": "string",
          "name": "",
          "type": "string"
        }
      ],
      "stateMutability": "view",
      "type": "function"
    },
    {
      "inputs": [
        {
          "internalType": "address",
          "name": "_account",
          "type": "address"
        }
      ],
      "name": "isAdmin",
      "outputs": [
        {
          "internalType": "bool",
          "name": "",
          "type": "bool"
        }
      ],
      "stateMutability": "view",
      "type": "function"
    },
    {
      "inputs": [
        {
          "internalType": "address",
          "name": "_owner",
          "type": "address"
        },
        {
          "internalType": "address",
          "name": "_operator",
          "type": "address"
        }
      ],
      "name": "isApprovedForAll",
      "outputs": [
        {
          "internalType": "bool",
          "name": "",
          "type": "bool"
        }
      ],
      "stateMutability": "view",
      "type": "function"
    },
    {
      "inputs": [
        {
          "internalType": "address",
          "name": "_id",
          "type": "address"
        }
      ],
      "name": "isVerified",
      "outputs": [
        {
          "internalType": "bool",
          "name": "",
          "type": "bool"
        }
      ],
      "stateMutability": "view",
      "type": "function"
    },
    {
      "inputs": [
        {
          "internalType": "string",
          "name": "_name",
          "type": "string"
        },
        {
          "internalType": "string",
          "name": "_location",
          "type": "string"
        },
        {
          "internalType": "string",
          "name": "_role",
          "type": "string"
        }
      ],
      "name": "register",
      "outputs": [
        {
          "internalType": "bool",
          "name": "",
          "type": "bool"
        }
      ],
      "stateMutability": "nonpayable",
      "type": "function"
    },
    {
      "inputs": [
        {
          "internalType": "address",
          "name": "_operator",
          "type": "address"
        },
        {
          "internalType": "bool",
          "name": "_approved",
          "type": "bool"
        }
      ],
      "name": "setApprovalForAll",
      "outputs": [
        {
          "internalType": "bool",
          "name": "",
          "type": "bool"
        }
      ],
      "stateMutability": "nonpayable",
      "type": "function"
    },
    {
      "inputs": [
        {
          "internalType": "address",
          "name": "_from",
          "type": "address"
        },
        {
          "internalType": "address",
          "name": "_to",
          "type": "address"
        },
        {
          "internalType": "uint256",
          "name": "_productId",
          "type": "uint256"
        }
      ],
      "name": "transferFrom",
      "outputs": [
        {
          "internalType": "bool",
          "name": "",
          "type": "bool"
        }
      ],
      "stateMutability": "nonpayable",
      "type": "function"
    },
    {
      "inputs": [
        {
          "internalType": "address",
          "name": "_id",
          "type": "address"
        }
      ],
      "name": "verify",
      "outputs": [
        {
          "internalType": "bool",
          "name": "",
          "type": "bool"
        }
      ],
      "stateMutability": "nonpayable",
      "type": "function"
    },
    {
      "inputs": [
        {
          "internalType": "string",
          "name": "_name",
          "type": "string"
        },
        {
          "internalType": "string",
          "name": "_location",
          "type": "string"
        },
        {
          "internalType": "string",
          "name": "_role",
          "type": "string"
        },
        {
          "internalType": "string[]",
          "name": "_rawProducts",
          "type": "string[]"
        }
      ],
      "name": "registerFarmer",
      "outputs": [
        {
          "internalType": "bool",
          "name": "",
          "type": "bool"
        }
      ],
      "stateMutability": "nonpayable",
      "type": "function"
    },
    {
      "inputs": [
        {
          "internalType": "string",
          "name": "_rawProduct",
          "type": "string"
        }
      ],
      "name": "addRawProduct",
      "outputs": [
        {
          "internalType": "bool",
          "name": "",
          "type": "bool"
        }
      ],
      "stateMutability": "nonpayable",
      "type": "function"
    },
    {
      "inputs": [
        {
          "internalType": "address",
          "name": "_id",
          "type": "address"
        }
      ],
      "name": "getFarmer",
      "outputs": [
        {
          "components": [
            {
              "internalType": "address",
              "name": "id",
              "type": "address"
            },
            {
              "internalType": "string",
              "name": "name",
              "type": "string"
            },
            {
              "internalType": "string",
              "name": "location",
              "type": "string"
            },
            {
              "internalType": "string",
              "name": "role",
              "type": "string"
            },
            {
              "internalType": "bool",
              "name": "isVerified",
              "type": "bool"
            }
          ],
          "internalType": "struct Stakeholder.stakeholder",
          "name": "farmer",
          "type": "tuple"
        },
        {
          "internalType": "string[]",
          "name": "rawProducts",
          "type": "string[]"
        }
      ],
      "stateMutability": "view",
      "type": "function"
    },
    {
      "inputs": [
        {
          "internalType": "string",
          "name": "_rawProduct",
          "type": "string"
        }
      ],
      "name": "getRawProductFarmers",
      "outputs": [
        {
          "internalType": "address[]",
          "name": "",
          "type": "address[]"
        }
      ],
      "stateMutability": "view",
      "type": "function"
    }
  ],
  "bytecode": "0x608060405234801561001057600080fd5b5033806000806101000a81548173ffffffffffffffffffffffffffffffffffffffff021916908373ffffffffffffffffffffffffffffffffffffffff160217905550506131a5806100626000396000f3fe608060405234801561001057600080fd5b506004361061010b5760003560e01c8063880f8fd7116100a2578063b9209e3311610071578063b9209e331461033e578063c2bc2efc1461036e578063e7609c161461039e578063e985e9c5146103cf578063f851a440146103ff5761010b565b8063880f8fd714610290578063a22cb465146102c0578063a39fac12146102f0578063af8f44cc1461030e5761010b565b8063518cc0b3116100de578063518cc0b3146101d057806363a9c3d7146102005780637bb08f33146102305780638531358f146102605761010b565b806323b872dd1461011057806324d7806c1461014057806344276733146101705780634cd08d03146101a0575b600080fd5b61012a60048036038101906101259190611e22565b61041d565b6040516101379190611e90565b60405180910390f35b61015a60048036038101906101559190611eab565b6106ce565b6040516101679190611e90565b60405180910390f35b61018a60048036038101906101859190611eab565b610727565b6040516101979190611f68565b60405180910390f35b6101ba60048036038101906101b591906120bf565b6107fb565b6040516101c79190611e90565b60405180910390f35b6101ea60048036038101906101e59190612166565b610a66565b6040516101f79190611f68565b60405180910390f35b61021a60048036038101906102159190611eab565b610b1f565b6040516102279190611e90565b60405180910390f35b61024a6004803603810190610245919061228c565b610bdd565b6040516102579190611e90565b60405180910390f35b61027a60048036038101906102759190612363565b610f56565b60405161028791906123ce565b60405180910390f35b6102aa60048036038101906102a591906123e9565b610fba565b6040516102b79190611e90565b60405180910390f35b6102da60048036038101906102d5919061245e565b611210565b6040516102e79190611e90565b60405180910390f35b6102f861138d565b604051610305919061255c565b60405180910390f35b610328600480360381019061032391906123e9565b61141b565b604051610335919061255c565b60405180910390f35b61035860048036038101906103539190611eab565b6114c7565b6040516103659190611e90565b60405180910390f35b61038860048036038101906103839190611eab565b611520565b604051610395919061265b565b60405180910390f35b6103b860048036038101906103b39190611eab565b61190b565b6040516103c692919061273f565b60405180910390f35b6103e960048036038101906103e49190612776565b611ba1565b6040516103f69190611e90565b60405180910390f35b610407611c35565b60405161041491906123ce565b60405180910390f35b600083826000600260008473ffffffffffffffffffffffffffffffffffffffff1673ffffffffffffffffffffffffffffffffffffffff168152602001908152602001600020600083815260200190815260200160002060009054906101000a900460ff169050600061048f8433611ba1565b806104c557508373ffffffffffffffffffffffffffffffffffffffff163373ffffffffffffffffffffffffffffffffffffffff16145b90508180156104d15750805b610510576040517f08c379a000000000000000000000000000000000000000000000000000000000815260040161050790612828565b60405180910390fd5b8673ffffffffffffffffffffffffffffffffffffffff168873ffffffffffffffffffffffffffffffffffffffff160361057e576040517f08c379a0000000000000000000000000000000000000000000000000000000008152600401610575906128ba565b60405180910390fd5b600073ffffffffffffffffffffffffffffffffffffffff168773ffffffffffffffffffffffffffffffffffffffff16036105ed576040517f08c379a00000000000000000000000000000000000000000000000000000000081526004016105e49061294c565b60405180910390fd5b6000600260008a73ffffffffffffffffffffffffffffffffffffffff1673ffffffffffffffffffffffffffffffffffffffff168152602001908152602001600020600088815260200190815260200160002060006101000a81548160ff0219169083151502179055506001600260008973ffffffffffffffffffffffffffffffffffffffff1673ffffffffffffffffffffffffffffffffffffffff168152602001908152602001600020600088815260200190815260200160002060006101000a81548160ff02191690831515021790555060019450505050509392505050565b60008060009054906101000a900473ffffffffffffffffffffffffffffffffffffffff1673ffffffffffffffffffffffffffffffffffffffff168273ffffffffffffffffffffffffffffffffffffffff16149050919050565b6060600160008373ffffffffffffffffffffffffffffffffffffffff1673ffffffffffffffffffffffffffffffffffffffff16815260200190815260200160002060030180546107769061299b565b80601f01602080910402602001604051908101604052809291908181526020018280546107a29061299b565b80156107ef5780601f106107c4576101008083540402835291602001916107ef565b820191906000526020600020905b8154815290600101906020018083116107d257829003601f168201915b50505050509050919050565b60008073ffffffffffffffffffffffffffffffffffffffff16600160003373ffffffffffffffffffffffffffffffffffffffff1673ffffffffffffffffffffffffffffffffffffffff16815260200190815260200160002060000160009054906101000a900473ffffffffffffffffffffffffffffffffffffffff1673ffffffffffffffffffffffffffffffffffffffff16146108cd576040517f08c379a00000000000000000000000000000000000000000000000000000000081526004016108c490612a3e565b60405180910390fd5b6040518060a001604052803373ffffffffffffffffffffffffffffffffffffffff16815260200185815260200184815260200183815260200160001515815250600160003373ffffffffffffffffffffffffffffffffffffffff1673ffffffffffffffffffffffffffffffffffffffff16815260200190815260200160002060008201518160000160006101000a81548173ffffffffffffffffffffffffffffffffffffffff021916908373ffffffffffffffffffffffffffffffffffffffff16021790555060208201518160010190816109a89190612c0a565b5060408201518160020190816109be9190612c0a565b5060608201518160030190816109d49190612c0a565b5060808201518160040160006101000a81548160ff0219169083151502179055509050506004339080600181540180825580915050600190039060005260206000200160009091909190916101000a81548173ffffffffffffffffffffffffffffffffffffffff021916908373ffffffffffffffffffffffffffffffffffffffff160217905550600190509392505050565b60056020528160005260406000208181548110610a8257600080fd5b90600052602060002001600091509150508054610a9e9061299b565b80601f0160208091040260200160405190810160405280929190818152602001828054610aca9061299b565b8015610b175780601f10610aec57610100808354040283529160200191610b17565b820191906000526020600020905b815481529060010190602001808311610afa57829003601f168201915b505050505081565b60008060009054906101000a900473ffffffffffffffffffffffffffffffffffffffff1673ffffffffffffffffffffffffffffffffffffffff163373ffffffffffffffffffffffffffffffffffffffff1614610b7a57600080fd5b60018060008473ffffffffffffffffffffffffffffffffffffffff1673ffffffffffffffffffffffffffffffffffffffff16815260200190815260200160002060040160006101000a81548160ff02191690831515021790555060019050919050565b60008073ffffffffffffffffffffffffffffffffffffffff16600160003373ffffffffffffffffffffffffffffffffffffffff1673ffffffffffffffffffffffffffffffffffffffff16815260200190815260200160002060000160009054906101000a900473ffffffffffffffffffffffffffffffffffffffff1673ffffffffffffffffffffffffffffffffffffffff1614610caf576040517f08c379a0000000000000000000000000000000000000000000000000000000008152600401610ca690612d4e565b60405180910390fd5b6040518060a001604052803373ffffffffffffffffffffffffffffffffffffffff16815260200186815260200185815260200184815260200160001515815250600160003373ffffffffffffffffffffffffffffffffffffffff1673ffffffffffffffffffffffffffffffffffffffff16815260200190815260200160002060008201518160000160006101000a81548173ffffffffffffffffffffffffffffffffffffffff021916908373ffffffffffffffffffffffffffffffffffffffff1602179055506020820151816001019081610d8a9190612c0a565b506040820151816002019081610da09190612c0a565b506060820151816003019081610db69190612c0a565b5060808201518160040160006101000a81548160ff02191690831515021790555090505081600560003373ffffffffffffffffffffffffffffffffffffffff1673ffffffffffffffffffffffffffffffffffffffff1681526020019081526020016000209080519060200190610e2d929190611c59565b5060005b8251811015610ee6576006838281518110610e4f57610e4e612d6e565b5b6020026020010151604051610e649190612dd9565b9081526020016040518091039020339080600181540180825580915050600190039060005260206000200160009091909190916101000a81548173ffffffffffffffffffffffffffffffffffffffff021916908373ffffffffffffffffffffffffffffffffffffffff1602179055508080610ede90612e1f565b915050610e31565b506004339080600181540180825580915050600190039060005260206000200160009091909190916101000a81548173ffffffffffffffffffffffffffffffffffffffff021916908373ffffffffffffffffffffffffffffffffffffffff16021790555060019050949350505050565b6006828051602081018201805184825260208301602085012081835280955050505050508181548110610f8857600080fd5b906000526020600020016000915091509054906101000a900473ffffffffffffffffffffffffffffffffffffffff1681565b6000806000905060005b600560003373ffffffffffffffffffffffffffffffffffffffff1673ffffffffffffffffffffffffffffffffffffffff168152602001908152602001600020805490508110156110d3578360405160200161101f9190612dd9565b60405160208183030381529060405280519060200120600560003373ffffffffffffffffffffffffffffffffffffffff1673ffffffffffffffffffffffffffffffffffffffff168152602001908152602001600020828154811061108657611085612d6e565b5b906000526020600020016040516020016110a09190612eea565b60405160208183030381529060405280519060200120036110c057600191505b80806110cb90612e1f565b915050610fc4565b508015611115576040517f08c379a000000000000000000000000000000000000000000000000000000000815260040161110c90612f73565b60405180910390fd5b600560003373ffffffffffffffffffffffffffffffffffffffff1673ffffffffffffffffffffffffffffffffffffffff168152602001908152602001600020839080600181540180825580915050600190039060005260206000200160009091909190915090816111869190612c0a565b506006836040516111979190612dd9565b9081526020016040518091039020339080600181540180825580915050600190039060005260206000200160009091909190916101000a81548173ffffffffffffffffffffffffffffffffffffffff021916908373ffffffffffffffffffffffffffffffffffffffff1602179055506001915050919050565b60008273ffffffffffffffffffffffffffffffffffffffff163373ffffffffffffffffffffffffffffffffffffffff1603611280576040517f08c379a000000000000000000000000000000000000000000000000000000000815260040161127790613005565b60405180910390fd5b600073ffffffffffffffffffffffffffffffffffffffff168373ffffffffffffffffffffffffffffffffffffffff16036112ef576040517f08c379a00000000000000000000000000000000000000000000000000000000081526004016112e6906130bd565b60405180910390fd5b81600360003373ffffffffffffffffffffffffffffffffffffffff1673ffffffffffffffffffffffffffffffffffffffff16815260200190815260200160002060008573ffffffffffffffffffffffffffffffffffffffff1673ffffffffffffffffffffffffffffffffffffffff16815260200190815260200160002060006101000a81548160ff0219169083151502179055506001905092915050565b6060600480548060200260200160405190810160405280929190818152602001828054801561141157602002820191906000526020600020905b8160009054906101000a900473ffffffffffffffffffffffffffffffffffffffff1673ffffffffffffffffffffffffffffffffffffffff16815260200190600101908083116113c7575b5050505050905090565b606060068260405161142d9190612dd9565b90815260200160405180910390208054806020026020016040519081016040528092919081815260200182805480156114bb57602002820191906000526020600020905b8160009054906101000a900473ffffffffffffffffffffffffffffffffffffffff1673ffffffffffffffffffffffffffffffffffffffff1681526020019060010190808311611471575b50505050509050919050565b6000600160008373ffffffffffffffffffffffffffffffffffffffff1673ffffffffffffffffffffffffffffffffffffffff16815260200190815260200160002060040160009054906101000a900460ff169050919050565b611528611cb2565b81600160003373ffffffffffffffffffffffffffffffffffffffff1673ffffffffffffffffffffffffffffffffffffffff16815260200190815260200160002060000160009054906101000a900473ffffffffffffffffffffffffffffffffffffffff1673ffffffffffffffffffffffffffffffffffffffff168173ffffffffffffffffffffffffffffffffffffffff1614806116535750600073ffffffffffffffffffffffffffffffffffffffff16600160003373ffffffffffffffffffffffffffffffffffffffff1673ffffffffffffffffffffffffffffffffffffffff16815260200190815260200160002060000160009054906101000a900473ffffffffffffffffffffffffffffffffffffffff1673ffffffffffffffffffffffffffffffffffffffff16145b611692576040517f08c379a00000000000000000000000000000000000000000000000000000000081526004016116899061314f565b60405180910390fd5b600160008473ffffffffffffffffffffffffffffffffffffffff1673ffffffffffffffffffffffffffffffffffffffff1681526020019081526020016000206040518060a00160405290816000820160009054906101000a900473ffffffffffffffffffffffffffffffffffffffff1673ffffffffffffffffffffffffffffffffffffffff1673ffffffffffffffffffffffffffffffffffffffff1681526020016001820180546117429061299b565b80601f016020809104026020016040519081016040528092919081815260200182805461176e9061299b565b80156117bb5780601f10611790576101008083540402835291602001916117bb565b820191906000526020600020905b81548152906001019060200180831161179e57829003601f168201915b505050505081526020016002820180546117d49061299b565b80601f01602080910402602001604051908101604052809291908181526020018280546118009061299b565b801561184d5780601f106118225761010080835404028352916020019161184d565b820191906000526020600020905b81548152906001019060200180831161183057829003601f168201915b505050505081526020016003820180546118669061299b565b80601f01602080910402602001604051908101604052809291908181526020018280546118929061299b565b80156118df5780601f106118b4576101008083540402835291602001916118df565b820191906000526020600020905b8154815290600101906020018083116118c257829003601f168201915b505050505081526020016004820160009054906101000a900460ff161515151581525050915050919050565b611913611cb2565b606082600160003373ffffffffffffffffffffffffffffffffffffffff1673ffffffffffffffffffffffffffffffffffffffff16815260200190815260200160002060000160009054906101000a900473ffffffffffffffffffffffffffffffffffffffff1673ffffffffffffffffffffffffffffffffffffffff168173ffffffffffffffffffffffffffffffffffffffff161480611a405750600073ffffffffffffffffffffffffffffffffffffffff16600160003373ffffffffffffffffffffffffffffffffffffffff1673ffffffffffffffffffffffffffffffffffffffff16815260200190815260200160002060000160009054906101000a900473ffffffffffffffffffffffffffffffffffffffff1673ffffffffffffffffffffffffffffffffffffffff16145b611a7f576040517f08c379a0000000000000000000000000000000000000000000000000000000008152600401611a769061314f565b60405180910390fd5b611a8884611520565b9250600560008573ffffffffffffffffffffffffffffffffffffffff1673ffffffffffffffffffffffffffffffffffffffff168152602001908152602001600020805480602002602001604051908101604052809291908181526020016000905b82821015611b95578382906000526020600020018054611b089061299b565b80601f0160208091040260200160405190810160405280929190818152602001828054611b349061299b565b8015611b815780601f10611b5657610100808354040283529160200191611b81565b820191906000526020600020905b815481529060010190602001808311611b6457829003601f168201915b505050505081526020019060010190611ae9565b50505050915050915091565b6000600360008473ffffffffffffffffffffffffffffffffffffffff1673ffffffffffffffffffffffffffffffffffffffff16815260200190815260200160002060008373ffffffffffffffffffffffffffffffffffffffff1673ffffffffffffffffffffffffffffffffffffffff16815260200190815260200160002060009054906101000a900460ff16905092915050565b60008054906101000a900473ffffffffffffffffffffffffffffffffffffffff1681565b828054828255906000526020600020908101928215611ca1579160200282015b82811115611ca0578251829081611c909190612c0a565b5091602001919060010190611c79565b5b509050611cae9190611cf9565b5090565b6040518060a00160405280600073ffffffffffffffffffffffffffffffffffffffff1681526020016060815260200160608152602001606081526020016000151581525090565b5b80821115611d195760008181611d109190611d1d565b50600101611cfa565b5090565b508054611d299061299b565b6000825580601f10611d3b5750611d5a565b601f016020900490600052602060002090810190611d599190611d5d565b5b50565b5b80821115611d76576000816000905550600101611d5e565b5090565b6000604051905090565b600080fd5b600080fd5b600073ffffffffffffffffffffffffffffffffffffffff82169050919050565b6000611db982611d8e565b9050919050565b611dc981611dae565b8114611dd457600080fd5b50565b600081359050611de681611dc0565b92915050565b6000819050919050565b611dff81611dec565b8114611e0a57600080fd5b50565b600081359050611e1c81611df6565b92915050565b600080600060608486031215611e3b57611e3a611d84565b5b6000611e4986828701611dd7565b9350506020611e5a86828701611dd7565b9250506040611e6b86828701611e0d565b9150509250925092565b60008115159050919050565b611e8a81611e75565b82525050565b6000602082019050611ea56000830184611e81565b92915050565b600060208284031215611ec157611ec0611d84565b5b6000611ecf84828501611dd7565b91505092915050565b600081519050919050565b600082825260208201905092915050565b60005b83811015611f12578082015181840152602081019050611ef7565b60008484015250505050565b6000601f19601f8301169050919050565b6000611f3a82611ed8565b611f448185611ee3565b9350611f54818560208601611ef4565b611f5d81611f1e565b840191505092915050565b60006020820190508181036000830152611f828184611f2f565b905092915050565b600080fd5b600080fd5b7f4e487b7100000000000000000000000000000000000000000000000000000000600052604160045260246000fd5b611fcc82611f1e565b810181811067ffffffffffffffff82111715611feb57611fea611f94565b5b80604052505050565b6000611ffe611d7a565b905061200a8282611fc3565b919050565b600067ffffffffffffffff82111561202a57612029611f94565b5b61203382611f1e565b9050602081019050919050565b82818337600083830152505050565b600061206261205d8461200f565b611ff4565b90508281526020810184848401111561207e5761207d611f8f565b5b612089848285612040565b509392505050565b600082601f8301126120a6576120a5611f8a565b5b81356120b684826020860161204f565b91505092915050565b6000806000606084860312156120d8576120d7611d84565b5b600084013567ffffffffffffffff8111156120f6576120f5611d89565b5b61210286828701612091565b935050602084013567ffffffffffffffff81111561212357612122611d89565b5b61212f86828701612091565b925050604084013567ffffffffffffffff8111156121505761214f611d89565b5b61215c86828701612091565b9150509250925092565b6000806040838503121561217d5761217c611d84565b5b600061218b85828601611dd7565b925050602061219c85828601611e0d565b9150509250929050565b600067ffffffffffffffff8211156121c1576121c0611f94565b5b602082029050602081019050919050565b600080fd5b60006121ea6121e5846121a6565b611ff4565b9050808382526020820190506020840283018581111561220d5761220c6121d2565b5b835b8181101561225457803567ffffffffffffffff81111561223257612231611f8a565b5b80860161223f8982612091565b8552602085019450505060208101905061220f565b5050509392505050565b600082601f83011261227357612272611f8a565b5b81356122838482602086016121d7565b91505092915050565b600080600080608085870312156122a6576122a5611d84565b5b600085013567ffffffffffffffff8111156122c4576122c3611d89565b5b6122d087828801612091565b945050602085013567ffffffffffffffff8111156122f1576122f0611d89565b5b6122fd87828801612091565b935050604085013567ffffffffffffffff81111561231e5761231d611d89565b5b61232a87828801612091565b925050606085013567ffffffffffffffff81111561234b5761234a611d89565b5b6123578782880161225e565b91505092959194509250565b6000806040838503121561237a57612379611d84565b5b600083013567ffffffffffffffff81111561239857612397611d89565b5b6123a485828601612091565b92505060206123b585828601611e0d565b9150509250929050565b6123c881611dae565b82525050565b60006020820190506123e360008301846123bf565b92915050565b6000602082840312156123ff576123fe611d84565b5b600082013567ffffffffffffffff81111561241d5761241c611d89565b5b61242984828501612091565b91505092915050565b61243b81611e75565b811461244657600080fd5b50565b60008135905061245881612432565b92915050565b6000806040838503121561247557612474611d84565b5b600061248385828601611dd7565b925050602061249485828601612449565b9150509250929050565b600081519050919050565b600082825260208201905092915050565b6000819050602082019050919050565b6124d381611dae565b82525050565b60006124e583836124ca565b60208301905092915050565b6000602082019050919050565b60006125098261249e565b61251381856124a9565b935061251e836124ba565b8060005b8381101561254f57815161253688826124d9565b9750612541836124f1565b925050600181019050612522565b5085935050505092915050565b6000602082019050818103600083015261257681846124fe565b905092915050565b600082825260208201905092915050565b600061259a82611ed8565b6125a4818561257e565b93506125b4818560208601611ef4565b6125bd81611f1e565b840191505092915050565b6125d181611e75565b82525050565b600060a0830160008301516125ef60008601826124ca565b5060208301518482036020860152612607828261258f565b91505060408301518482036040860152612621828261258f565b9150506060830151848203606086015261263b828261258f565b915050608083015161265060808601826125c8565b508091505092915050565b6000602082019050818103600083015261267581846125d7565b905092915050565b600081519050919050565b600082825260208201905092915050565b6000819050602082019050919050565b60006126b5838361258f565b905092915050565b6000602082019050919050565b60006126d58261267d565b6126df8185612688565b9350836020820285016126f185612699565b8060005b8581101561272d578484038952815161270e85826126a9565b9450612719836126bd565b925060208a019950506001810190506126f5565b50829750879550505050505092915050565b6000604082019050818103600083015261275981856125d7565b9050818103602083015261276d81846126ca565b90509392505050565b6000806040838503121561278d5761278c611d84565b5b600061279b85828601611dd7565b92505060206127ac85828601611dd7565b9150509250929050565b7f4f6e6c79206f776e6572206f7220617070726f7665642063616e20616363657360008201527f7320746869732066756e6374696f6e0000000000000000000000000000000000602082015250565b6000612812602f83611ee3565b915061281d826127b6565b604082019050919050565b6000602082019050818103600083015261284181612805565b9050919050565b7f5374616b65686f6c6465723a3a7472616e7366657246726f6d3a2043616e6e6f60008201527f74207472616e7366657220746f2073656c660000000000000000000000000000602082015250565b60006128a4603283611ee3565b91506128af82612848565b604082019050919050565b600060208201905081810360008301526128d381612897565b9050919050565b7f5374616b65686f6c6465723a3a7472616e7366657246726f6d3a2043616e6e6f60008201527f74207472616e7366657220746f206e756c6c2061646472657373000000000000602082015250565b6000612936603a83611ee3565b9150612941826128da565b604082019050919050565b6000602082019050818103600083015261296581612929565b9050919050565b7f4e487b7100000000000000000000000000000000000000000000000000000000600052602260045260246000fd5b600060028204905060018216806129b357607f821691505b6020821081036129c6576129c561296c565b5b50919050565b7f5374616b65686f6c6465723a3a72656769737465723a205374616b65686f6c6460008201527f657220616c726561647920726567697374657265640000000000000000000000602082015250565b6000612a28603583611ee3565b9150612a33826129cc565b604082019050919050565b60006020820190508181036000830152612a5781612a1b565b9050919050565b60008190508160005260206000209050919050565b60006020601f8301049050919050565b600082821b905092915050565b600060088302612ac07fffffffffffffffffffffffffffffffffffffffffffffffffffffffffffffffff82612a83565b612aca8683612a83565b95508019841693508086168417925050509392505050565b6000819050919050565b6000612b07612b02612afd84611dec565b612ae2565b611dec565b9050919050565b6000819050919050565b612b2183612aec565b612b35612b2d82612b0e565b848454612a90565b825550505050565b600090565b612b4a612b3d565b612b55818484612b18565b505050565b5b81811015612b7957612b6e600082612b42565b600181019050612b5b565b5050565b601f821115612bbe57612b8f81612a5e565b612b9884612a73565b81016020851015612ba7578190505b612bbb612bb385612a73565b830182612b5a565b50505b505050565b600082821c905092915050565b6000612be160001984600802612bc3565b1980831691505092915050565b6000612bfa8383612bd0565b9150826002028217905092915050565b612c1382611ed8565b67ffffffffffffffff811115612c2c57612c2b611f94565b5b612c36825461299b565b612c41828285612b7d565b600060209050601f831160018114612c745760008415612c62578287015190505b612c6c8582612bee565b865550612cd4565b601f198416612c8286612a5e565b60005b82811015612caa57848901518255600182019150602085019450602081019050612c85565b86831015612cc75784890151612cc3601f891682612bd0565b8355505b6001600288020188555050505b505050505050565b7f4661726d65723a3a72656769737465724661726d65723a204661726d6572206160008201527f6c72656164792072656769737465726564000000000000000000000000000000602082015250565b6000612d38603183611ee3565b9150612d4382612cdc565b604082019050919050565b60006020820190508181036000830152612d6781612d2b565b9050919050565b7f4e487b7100000000000000000000000000000000000000000000000000000000600052603260045260246000fd5b600081905092915050565b6000612db382611ed8565b612dbd8185612d9d565b9350612dcd818560208601611ef4565b80840191505092915050565b6000612de58284612da8565b915081905092915050565b7f4e487b7100000000000000000000000000000000000000000000000000000000600052601160045260246000fd5b6000612e2a82611dec565b91507fffffffffffffffffffffffffffffffffffffffffffffffffffffffffffffffff8203612e5c57612e5b612df0565b5b600182019050919050565b60008154612e748161299b565b612e7e8186612d9d565b94506001821660008114612e995760018114612eae57612ee1565b60ff1983168652811515820286019350612ee1565b612eb785612a5e565b60005b83811015612ed957815481890152600182019150602081019050612eba565b838801955050505b50505092915050565b6000612ef68284612e67565b915081905092915050565b7f4661726d65723a3a61646452617750726f647563743a205261772070726f647560008201527f637420616c726561647920616464656400000000000000000000000000000000602082015250565b6000612f5d603083611ee3565b9150612f6882612f01565b604082019050919050565b60006020820190508181036000830152612f8c81612f50565b9050919050565b7f5374616b65686f6c6465723a3a736574417070726f76616c466f72416c6c3a2060008201527f43616e6e6f742073657420617070726f76616c20666f722073656c6600000000602082015250565b6000612fef603c83611ee3565b9150612ffa82612f93565b604082019050919050565b6000602082019050818103600083015261301e81612fe2565b9050919050565b7f5374616b65686f6c6465723a3a736574417070726f76616c466f72416c6c3a2060008201527f43616e6e6f742073657420617070726f76616c20666f72206e756c6c2061646460208201527f7265737300000000000000000000000000000000000000000000000000000000604082015250565b60006130a7604483611ee3565b91506130b282613025565b606082019050919050565b600060208201905081810360008301526130d68161309a565b9050919050565b7f4f6e6c79207374616b65686f6c6465722063616e20616363657373207468697360008201527f2066756e6374696f6e0000000000000000000000000000000000000000000000602082015250565b6000613139602983611ee3565b9150613144826130dd565b604082019050919050565b600060208201905081810360008301526131688161312c565b905091905056fea264697066735822122031e03a8952769a6ca15af49a90d1175fbd36f269fb3a91075a40068621fc490764736f6c63430008110033",
  "immutableReferences": {},
  "source": "// SPDX-License-Identifier: MIT\npragma solidity ^0.8.0;\nimport './Stakeholder.sol';\ncontract Farmer is Stakeholder {\n  mapping(address => string[]) public _farmerRawProducts;\n  mapping(string => address[]) public _rawProductFarmers;\n\n  constructor() Stakeholder() {}\n\n  function registerFarmer(\n    string memory _name, \n    string memory _location, \n    string memory _role,\n    string[] memory _rawProducts\n  ) public returns (bool) {\n    require (_stakeholders[msg.sender].id ==  address(0), \"Farmer::registerFarmer: Farmer already registered\");\n    _stakeholders[msg.sender] = stakeholder(msg.sender, _name, _location, _role, false);\n    _farmerRawProducts[msg.sender] = _rawProducts;\n    for (uint i = 0; i < _rawProducts.length; i++) {\n      _rawProductFarmers[_rawProducts[i]].push(msg.sender);\n    }\n    _stakeholderAddresses.push(msg.sender);\n    return true;\n  }\n\n  function addRawProduct(string memory _rawProduct) public returns (bool) {\n    bool productAlreadyAdded = false;\n    for (uint i = 0; i < _farmerRawProducts[msg.sender].length; i++) {\n      if (keccak256(abi.encodePacked((_farmerRawProducts[msg.sender][i]))) == keccak256(abi.encodePacked((_rawProduct)))) {\n        productAlreadyAdded = true;\n      }\n    }\n    require(!productAlreadyAdded, \"Farmer::addRawProduct: Raw product already added\");\n    _farmerRawProducts[msg.sender].push(_rawProduct);\n    _rawProductFarmers[_rawProduct].push(msg.sender);\n    return true;\n  }\n\n  function getFarmer(address _id) public view onlyStakeholder(_id) returns(\n    stakeholder memory farmer,\n    string[] memory rawProducts\n  ){\n    farmer = super.get(_id);\n    rawProducts = _farmerRawProducts[_id];\n  }\n\n  function getRawProductFarmers(string memory _rawProduct) public view returns (address[] memory) {\n    return _rawProductFarmers[_rawProduct];\n  }\n\n}",
  "sourcePath": "/Users/nkpaladugu/Library/CloudStorage/OneDrive-Personal/Tech/IIITH/Capstone/fpochain/web/contracts/Farmer.sol",
  "compiler": {
    "name": "solc",
    "version": "0.8.17+commit.8df45f5f.Emscripten.clang"
  },
  "schemaVersion": "3.4.10",
  "updatedAt": "2022-09-25T07:43:28.679Z",
  "devdoc": {
    "kind": "dev",
    "methods": {},
    "version": 1
  },
  "userdoc": {
    "kind": "user",
    "methods": {},
    "version": 1
  }
}