{
  "contractName": "FpoAggregatorEcosys",
  "abi": [
    {
      "inputs": [],
      "stateMutability": "nonpayable",
      "type": "constructor"
    },
    {
      "anonymous": false,
      "inputs": [
        {
          "indexed": true,
          "internalType": "address",
          "name": "account",
          "type": "address"
        },
        {
          "indexed": true,
          "internalType": "address",
          "name": "operator",
          "type": "address"
        },
        {
          "indexed": false,
          "internalType": "bool",
          "name": "approved",
          "type": "bool"
        }
      ],
      "name": "ApprovalForAll",
      "type": "event"
    },
    {
      "anonymous": false,
      "inputs": [
        {
          "indexed": true,
          "internalType": "address",
          "name": "itemId",
          "type": "address"
        },
        {
          "indexed": false,
          "internalType": "string",
          "name": "produceType",
          "type": "string"
        },
        {
          "indexed": false,
          "internalType": "string",
          "name": "quantity",
          "type": "string"
        }
      ],
      "name": "NewAgriItemAdded",
      "type": "event"
    },
    {
      "anonymous": false,
      "inputs": [
        {
          "indexed": true,
          "internalType": "uint256",
          "name": "spid",
          "type": "uint256"
        },
        {
          "indexed": true,
          "internalType": "address",
          "name": "spaddress",
          "type": "address"
        },
        {
          "indexed": false,
          "internalType": "string",
          "name": "roleType",
          "type": "string"
        },
        {
          "indexed": false,
          "internalType": "string",
          "name": "name",
          "type": "string"
        }
      ],
      "name": "NewServiceProviderOnboarded",
      "type": "event"
    },
    {
      "anonymous": false,
      "inputs": [
        {
          "indexed": false,
          "internalType": "address",
          "name": "account",
          "type": "address"
        }
      ],
      "name": "Paused",
      "type": "event"
    },
    {
      "anonymous": false,
      "inputs": [
        {
          "indexed": true,
          "internalType": "bytes32",
          "name": "role",
          "type": "bytes32"
        },
        {
          "indexed": true,
          "internalType": "bytes32",
          "name": "previousAdminRole",
          "type": "bytes32"
        },
        {
          "indexed": true,
          "internalType": "bytes32",
          "name": "newAdminRole",
          "type": "bytes32"
        }
      ],
      "name": "RoleAdminChanged",
      "type": "event"
    },
    {
      "anonymous": false,
      "inputs": [
        {
          "indexed": true,
          "internalType": "bytes32",
          "name": "role",
          "type": "bytes32"
        },
        {
          "indexed": true,
          "internalType": "address",
          "name": "account",
          "type": "address"
        },
        {
          "indexed": true,
          "internalType": "address",
          "name": "sender",
          "type": "address"
        }
      ],
      "name": "RoleGranted",
      "type": "event"
    },
    {
      "anonymous": false,
      "inputs": [
        {
          "indexed": true,
          "internalType": "bytes32",
          "name": "role",
          "type": "bytes32"
        },
        {
          "indexed": true,
          "internalType": "address",
          "name": "account",
          "type": "address"
        },
        {
          "indexed": true,
          "internalType": "address",
          "name": "sender",
          "type": "address"
        }
      ],
      "name": "RoleRevoked",
      "type": "event"
    },
    {
      "anonymous": false,
      "inputs": [
        {
          "indexed": true,
          "internalType": "address",
          "name": "operator",
          "type": "address"
        },
        {
          "indexed": true,
          "internalType": "address",
          "name": "from",
          "type": "address"
        },
        {
          "indexed": true,
          "internalType": "address",
          "name": "to",
          "type": "address"
        },
        {
          "indexed": false,
          "internalType": "uint256[]",
          "name": "ids",
          "type": "uint256[]"
        },
        {
          "indexed": false,
          "internalType": "uint256[]",
          "name": "values",
          "type": "uint256[]"
        }
      ],
      "name": "TransferBatch",
      "type": "event"
    },
    {
      "anonymous": false,
      "inputs": [
        {
          "indexed": true,
          "internalType": "address",
          "name": "operator",
          "type": "address"
        },
        {
          "indexed": true,
          "internalType": "address",
          "name": "from",
          "type": "address"
        },
        {
          "indexed": true,
          "internalType": "address",
          "name": "to",
          "type": "address"
        },
        {
          "indexed": false,
          "internalType": "uint256",
          "name": "id",
          "type": "uint256"
        },
        {
          "indexed": false,
          "internalType": "uint256",
          "name": "value",
          "type": "uint256"
        }
      ],
      "name": "TransferSingle",
      "type": "event"
    },
    {
      "anonymous": false,
      "inputs": [
        {
          "indexed": false,
          "internalType": "string",
          "name": "value",
          "type": "string"
        },
        {
          "indexed": true,
          "internalType": "uint256",
          "name": "id",
          "type": "uint256"
        }
      ],
      "name": "URI",
      "type": "event"
    },
    {
      "anonymous": false,
      "inputs": [
        {
          "indexed": false,
          "internalType": "address",
          "name": "account",
          "type": "address"
        }
      ],
      "name": "Unpaused",
      "type": "event"
    },
    {
      "inputs": [],
      "name": "DEFAULT_ADMIN_ROLE",
      "outputs": [
        {
          "internalType": "bytes32",
          "name": "",
          "type": "bytes32"
        }
      ],
      "stateMutability": "view",
      "type": "function"
    },
    {
      "inputs": [],
      "name": "MINTER_ROLE",
      "outputs": [
        {
          "internalType": "bytes32",
          "name": "",
          "type": "bytes32"
        }
      ],
      "stateMutability": "view",
      "type": "function"
    },
    {
      "inputs": [],
      "name": "PAUSER_ROLE",
      "outputs": [
        {
          "internalType": "bytes32",
          "name": "",
          "type": "bytes32"
        }
      ],
      "stateMutability": "view",
      "type": "function"
    },
    {
      "inputs": [],
      "name": "URI_SETTER_ROLE",
      "outputs": [
        {
          "internalType": "bytes32",
          "name": "",
          "type": "bytes32"
        }
      ],
      "stateMutability": "view",
      "type": "function"
    },
    {
      "inputs": [
        {
          "internalType": "uint256",
          "name": "",
          "type": "uint256"
        }
      ],
      "name": "agriItems",
      "outputs": [
        {
          "internalType": "address",
          "name": "id",
          "type": "address"
        },
        {
          "internalType": "string",
          "name": "itemtype",
          "type": "string"
        },
        {
          "components": [
            {
              "internalType": "address",
              "name": "id",
              "type": "address"
            },
            {
              "internalType": "enum FpoAggregatorEcosys.RoleType",
              "name": "role",
              "type": "uint8"
            },
            {
              "internalType": "string",
              "name": "name",
              "type": "string"
            }
          ],
          "internalType": "struct FpoAggregatorEcosys.RoleEntity",
          "name": "fpo",
          "type": "tuple"
        },
        {
          "components": [
            {
              "internalType": "address",
              "name": "id",
              "type": "address"
            },
            {
              "internalType": "enum FpoAggregatorEcosys.RoleType",
              "name": "role",
              "type": "uint8"
            },
            {
              "internalType": "string",
              "name": "name",
              "type": "string"
            }
          ],
          "internalType": "struct FpoAggregatorEcosys.RoleEntity",
          "name": "farmer",
          "type": "tuple"
        },
        {
          "components": [
            {
              "internalType": "address",
              "name": "id",
              "type": "address"
            },
            {
              "internalType": "enum FpoAggregatorEcosys.RoleType",
              "name": "role",
              "type": "uint8"
            },
            {
              "internalType": "string",
              "name": "name",
              "type": "string"
            }
          ],
          "internalType": "struct FpoAggregatorEcosys.RoleEntity",
          "name": "certificate",
          "type": "tuple"
        },
        {
          "internalType": "enum FpoAggregatorEcosys.AgriItemStatus",
          "name": "status",
          "type": "uint8"
        },
        {
          "components": [
            {
              "internalType": "address",
              "name": "id",
              "type": "address"
            },
            {
              "internalType": "enum FpoAggregatorEcosys.RoleType",
              "name": "role",
              "type": "uint8"
            },
            {
              "internalType": "string",
              "name": "name",
              "type": "string"
            }
          ],
          "internalType": "struct FpoAggregatorEcosys.RoleEntity",
          "name": "buyer",
          "type": "tuple"
        },
        {
          "internalType": "string",
          "name": "quantity",
          "type": "string"
        },
        {
          "internalType": "string",
          "name": "harvestDate",
          "type": "string"
        },
        {
          "internalType": "string",
          "name": "locLatitude",
          "type": "string"
        },
        {
          "internalType": "string",
          "name": "locaLongitude",
          "type": "string"
        }
      ],
      "stateMutability": "view",
      "type": "function"
    },
    {
      "inputs": [
        {
          "internalType": "address",
          "name": "account",
          "type": "address"
        },
        {
          "internalType": "uint256",
          "name": "id",
          "type": "uint256"
        }
      ],
      "name": "balanceOf",
      "outputs": [
        {
          "internalType": "uint256",
          "name": "",
          "type": "uint256"
        }
      ],
      "stateMutability": "view",
      "type": "function"
    },
    {
      "inputs": [
        {
          "internalType": "address[]",
          "name": "accounts",
          "type": "address[]"
        },
        {
          "internalType": "uint256[]",
          "name": "ids",
          "type": "uint256[]"
        }
      ],
      "name": "balanceOfBatch",
      "outputs": [
        {
          "internalType": "uint256[]",
          "name": "",
          "type": "uint256[]"
        }
      ],
      "stateMutability": "view",
      "type": "function"
    },
    {
      "inputs": [
        {
          "internalType": "address",
          "name": "account",
          "type": "address"
        },
        {
          "internalType": "uint256",
          "name": "id",
          "type": "uint256"
        },
        {
          "internalType": "uint256",
          "name": "value",
          "type": "uint256"
        }
      ],
      "name": "burn",
      "outputs": [],
      "stateMutability": "nonpayable",
      "type": "function"
    },
    {
      "inputs": [
        {
          "internalType": "address",
          "name": "account",
          "type": "address"
        },
        {
          "internalType": "uint256[]",
          "name": "ids",
          "type": "uint256[]"
        },
        {
          "internalType": "uint256[]",
          "name": "values",
          "type": "uint256[]"
        }
      ],
      "name": "burnBatch",
      "outputs": [],
      "stateMutability": "nonpayable",
      "type": "function"
    },
    {
      "inputs": [
        {
          "internalType": "uint256",
          "name": "id",
          "type": "uint256"
        }
      ],
      "name": "exists",
      "outputs": [
        {
          "internalType": "bool",
          "name": "",
          "type": "bool"
        }
      ],
      "stateMutability": "view",
      "type": "function"
    },
    {
      "inputs": [
        {
          "internalType": "bytes32",
          "name": "role",
          "type": "bytes32"
        }
      ],
      "name": "getRoleAdmin",
      "outputs": [
        {
          "internalType": "bytes32",
          "name": "",
          "type": "bytes32"
        }
      ],
      "stateMutability": "view",
      "type": "function"
    },
    {
      "inputs": [
        {
          "internalType": "bytes32",
          "name": "role",
          "type": "bytes32"
        },
        {
          "internalType": "address",
          "name": "account",
          "type": "address"
        }
      ],
      "name": "grantRole",
      "outputs": [],
      "stateMutability": "nonpayable",
      "type": "function"
    },
    {
      "inputs": [
        {
          "internalType": "bytes32",
          "name": "role",
          "type": "bytes32"
        },
        {
          "internalType": "address",
          "name": "account",
          "type": "address"
        }
      ],
      "name": "hasRole",
      "outputs": [
        {
          "internalType": "bool",
          "name": "",
          "type": "bool"
        }
      ],
      "stateMutability": "view",
      "type": "function"
    },
    {
      "inputs": [
        {
          "internalType": "address",
          "name": "account",
          "type": "address"
        },
        {
          "internalType": "address",
          "name": "operator",
          "type": "address"
        }
      ],
      "name": "isApprovedForAll",
      "outputs": [
        {
          "internalType": "bool",
          "name": "",
          "type": "bool"
        }
      ],
      "stateMutability": "view",
      "type": "function"
    },
    {
      "inputs": [],
      "name": "paused",
      "outputs": [
        {
          "internalType": "bool",
          "name": "",
          "type": "bool"
        }
      ],
      "stateMutability": "view",
      "type": "function"
    },
    {
      "inputs": [
        {
          "internalType": "uint256",
          "name": "",
          "type": "uint256"
        }
      ],
      "name": "registeredBanks",
      "outputs": [
        {
          "internalType": "address",
          "name": "id",
          "type": "address"
        },
        {
          "internalType": "enum FpoAggregatorEcosys.RoleType",
          "name": "role",
          "type": "uint8"
        },
        {
          "internalType": "string",
          "name": "name",
          "type": "string"
        }
      ],
      "stateMutability": "view",
      "type": "function"
    },
    {
      "inputs": [
        {
          "internalType": "uint256",
          "name": "",
          "type": "uint256"
        }
      ],
      "name": "registeredCorpBuyer",
      "outputs": [
        {
          "internalType": "address",
          "name": "id",
          "type": "address"
        },
        {
          "internalType": "enum FpoAggregatorEcosys.RoleType",
          "name": "role",
          "type": "uint8"
        },
        {
          "internalType": "string",
          "name": "name",
          "type": "string"
        }
      ],
      "stateMutability": "view",
      "type": "function"
    },
    {
      "inputs": [
        {
          "internalType": "uint256",
          "name": "",
          "type": "uint256"
        }
      ],
      "name": "registeredFPOs",
      "outputs": [
        {
          "internalType": "address",
          "name": "id",
          "type": "address"
        },
        {
          "internalType": "enum FpoAggregatorEcosys.RoleType",
          "name": "role",
          "type": "uint8"
        },
        {
          "internalType": "string",
          "name": "name",
          "type": "string"
        }
      ],
      "stateMutability": "view",
      "type": "function"
    },
    {
      "inputs": [
        {
          "internalType": "uint256",
          "name": "",
          "type": "uint256"
        }
      ],
      "name": "registeredInsurers",
      "outputs": [
        {
          "internalType": "address",
          "name": "id",
          "type": "address"
        },
        {
          "internalType": "enum FpoAggregatorEcosys.RoleType",
          "name": "role",
          "type": "uint8"
        },
        {
          "internalType": "string",
          "name": "name",
          "type": "string"
        }
      ],
      "stateMutability": "view",
      "type": "function"
    },
    {
      "inputs": [
        {
          "internalType": "bytes32",
          "name": "role",
          "type": "bytes32"
        },
        {
          "internalType": "address",
          "name": "account",
          "type": "address"
        }
      ],
      "name": "renounceRole",
      "outputs": [],
      "stateMutability": "nonpayable",
      "type": "function"
    },
    {
      "inputs": [
        {
          "internalType": "bytes32",
          "name": "role",
          "type": "bytes32"
        },
        {
          "internalType": "address",
          "name": "account",
          "type": "address"
        }
      ],
      "name": "revokeRole",
      "outputs": [],
      "stateMutability": "nonpayable",
      "type": "function"
    },
    {
      "inputs": [
        {
          "internalType": "address",
          "name": "from",
          "type": "address"
        },
        {
          "internalType": "address",
          "name": "to",
          "type": "address"
        },
        {
          "internalType": "uint256[]",
          "name": "ids",
          "type": "uint256[]"
        },
        {
          "internalType": "uint256[]",
          "name": "amounts",
          "type": "uint256[]"
        },
        {
          "internalType": "bytes",
          "name": "data",
          "type": "bytes"
        }
      ],
      "name": "safeBatchTransferFrom",
      "outputs": [],
      "stateMutability": "nonpayable",
      "type": "function"
    },
    {
      "inputs": [
        {
          "internalType": "address",
          "name": "from",
          "type": "address"
        },
        {
          "internalType": "address",
          "name": "to",
          "type": "address"
        },
        {
          "internalType": "uint256",
          "name": "id",
          "type": "uint256"
        },
        {
          "internalType": "uint256",
          "name": "amount",
          "type": "uint256"
        },
        {
          "internalType": "bytes",
          "name": "data",
          "type": "bytes"
        }
      ],
      "name": "safeTransferFrom",
      "outputs": [],
      "stateMutability": "nonpayable",
      "type": "function"
    },
    {
      "inputs": [
        {
          "internalType": "address",
          "name": "operator",
          "type": "address"
        },
        {
          "internalType": "bool",
          "name": "approved",
          "type": "bool"
        }
      ],
      "name": "setApprovalForAll",
      "outputs": [],
      "stateMutability": "nonpayable",
      "type": "function"
    },
    {
      "inputs": [
        {
          "internalType": "uint256",
          "name": "id",
          "type": "uint256"
        }
      ],
      "name": "totalSupply",
      "outputs": [
        {
          "internalType": "uint256",
          "name": "",
          "type": "uint256"
        }
      ],
      "stateMutability": "view",
      "type": "function"
    },
    {
      "inputs": [
        {
          "internalType": "uint256",
          "name": "",
          "type": "uint256"
        }
      ],
      "name": "uri",
      "outputs": [
        {
          "internalType": "string",
          "name": "",
          "type": "string"
        }
      ],
      "stateMutability": "view",
      "type": "function"
    },
    {
      "inputs": [
        {
          "internalType": "address",
          "name": "_id",
          "type": "address"
        },
        {
          "internalType": "string",
          "name": "_produceType",
          "type": "string"
        },
        {
          "internalType": "uint256",
          "name": "_quantity",
          "type": "uint256"
        },
        {
          "internalType": "string",
          "name": "_harvestdate",
          "type": "string"
        },
        {
          "internalType": "string",
          "name": "_locLati",
          "type": "string"
        },
        {
          "internalType": "string",
          "name": "_locLongi",
          "type": "string"
        }
      ],
      "name": "addAgriItem",
      "outputs": [],
      "stateMutability": "nonpayable",
      "type": "function"
    },
    {
      "inputs": [
        {
          "internalType": "address",
          "name": "_id",
          "type": "address"
        },
        {
          "internalType": "string",
          "name": "_produceType",
          "type": "string"
        },
        {
          "internalType": "uint256",
          "name": "_quantity",
          "type": "uint256"
        }
      ],
      "name": "buyAgriItem",
      "outputs": [],
      "stateMutability": "nonpayable",
      "type": "function"
    },
    {
      "inputs": [
        {
          "internalType": "address",
          "name": "_id",
          "type": "address"
        },
        {
          "internalType": "string",
          "name": "_roletype",
          "type": "string"
        },
        {
          "internalType": "string",
          "name": "name",
          "type": "string"
        }
      ],
      "name": "addEcoSysPrividers",
      "outputs": [],
      "stateMutability": "nonpayable",
      "type": "function"
    },
    {
      "inputs": [
        {
          "internalType": "string",
          "name": "newuri",
          "type": "string"
        }
      ],
      "name": "setURI",
      "outputs": [],
      "stateMutability": "nonpayable",
      "type": "function"
    },
    {
      "inputs": [],
      "name": "pause",
      "outputs": [],
      "stateMutability": "nonpayable",
      "type": "function"
    },
    {
      "inputs": [],
      "name": "unpause",
      "outputs": [],
      "stateMutability": "nonpayable",
      "type": "function"
    },
    {
      "inputs": [
        {
          "internalType": "address",
          "name": "account",
          "type": "address"
        },
        {
          "internalType": "uint256",
          "name": "id",
          "type": "uint256"
        },
        {
          "internalType": "uint256",
          "name": "quantity",
          "type": "uint256"
        },
        {
          "internalType": "bytes",
          "name": "data",
          "type": "bytes"
        }
      ],
      "name": "mint",
      "outputs": [],
      "stateMutability": "nonpayable",
      "type": "function"
    },
    {
      "inputs": [
        {
          "internalType": "address",
          "name": "to",
          "type": "address"
        },
        {
          "internalType": "uint256[]",
          "name": "ids",
          "type": "uint256[]"
        },
        {
          "internalType": "uint256[]",
          "name": "quantity",
          "type": "uint256[]"
        },
        {
          "internalType": "bytes",
          "name": "data",
          "type": "bytes"
        }
      ],
      "name": "mintBatch",
      "outputs": [],
      "stateMutability": "nonpayable",
      "type": "function"
    },
    {
      "inputs": [
        {
          "internalType": "bytes4",
          "name": "interfaceId",
          "type": "bytes4"
        }
      ],
      "name": "supportsInterface",
      "outputs": [
        {
          "internalType": "bool",
          "name": "",
          "type": "bool"
        }
      ],
      "stateMutability": "view",
      "type": "function"
    }
  ],
  "bytecode": "0x60806040523480156200001157600080fd5b506040518060200160405280600081525062000033816200010060201b60201c565b506000600460006101000a81548160ff021916908315150217905550620000646000801b336200011560201b60201c565b620000967f7804d923f43a17d325d77e781528e0793b2edd9890ab45fc64efd7b4b427744c336200011560201b60201c565b620000c87f65d7a28e3265b37a6474929f336521b332c1681b933f6cb9f3376673440d862a336200011560201b60201c565b620000fa7f9f2df0fed2c77648de5860a4cc508cd0818c85b8b8a1ab4ceeef8d981c8956a6336200011560201b60201c565b620005db565b8060029081620001119190620004f4565b5050565b6200012782826200020760201b60201c565b620002035760016003600084815260200190815260200160002060000160008373ffffffffffffffffffffffffffffffffffffffff1673ffffffffffffffffffffffffffffffffffffffff16815260200190815260200160002060006101000a81548160ff021916908315150217905550620001a86200027260201b60201c565b73ffffffffffffffffffffffffffffffffffffffff168173ffffffffffffffffffffffffffffffffffffffff16837f2f8788117e7eff1d82e926ec794901d17c78024a50270940304540a733656f0d60405160405180910390a45b5050565b60006003600084815260200190815260200160002060000160008373ffffffffffffffffffffffffffffffffffffffff1673ffffffffffffffffffffffffffffffffffffffff16815260200190815260200160002060009054906101000a900460ff16905092915050565b600033905090565b600081519050919050565b7f4e487b7100000000000000000000000000000000000000000000000000000000600052604160045260246000fd5b7f4e487b7100000000000000000000000000000000000000000000000000000000600052602260045260246000fd5b60006002820490506001821680620002fc57607f821691505b602082108103620003125762000311620002b4565b5b50919050565b60008190508160005260206000209050919050565b60006020601f8301049050919050565b600082821b905092915050565b6000600883026200037c7fffffffffffffffffffffffffffffffffffffffffffffffffffffffffffffffff826200033d565b6200038886836200033d565b95508019841693508086168417925050509392505050565b6000819050919050565b6000819050919050565b6000620003d5620003cf620003c984620003a0565b620003aa565b620003a0565b9050919050565b6000819050919050565b620003f183620003b4565b620004096200040082620003dc565b8484546200034a565b825550505050565b600090565b6200042062000411565b6200042d818484620003e6565b505050565b5b8181101562000455576200044960008262000416565b60018101905062000433565b5050565b601f821115620004a4576200046e8162000318565b62000479846200032d565b8101602085101562000489578190505b620004a162000498856200032d565b83018262000432565b50505b505050565b600082821c905092915050565b6000620004c960001984600802620004a9565b1980831691505092915050565b6000620004e48383620004b6565b9150826002028217905092915050565b620004ff826200027a565b67ffffffffffffffff8111156200051b576200051a62000285565b5b620005278254620002e3565b6200053482828562000459565b600060209050601f8311600181146200056c576000841562000557578287015190505b620005638582620004d6565b865550620005d3565b601f1984166200057c8662000318565b60005b82811015620005a6578489015182556001820191506020850194506020810190506200057f565b86831015620005c65784890151620005c2601f891682620004b6565b8355505b6001600288020188555050505b505050505050565b615c6a80620005eb6000396000f3fe608060405234801561001057600080fd5b50600436106102105760003560e01c80636b20c45411610125578063bd85b039116100ad578063db893f3c1161007c578063db893f3c14610641578063e63ab1e914610673578063e985e9c514610691578063f242432a146106c1578063f5298aca146106dd57610210565b8063bd85b039146105bb578063d5391393146105eb578063d547741f14610609578063da3808bf1461062557610210565b806391d14854116100f457806391d14854146105035780639ea03ce714610533578063a217fddf1461054f578063a22cb4651461056d578063b8f3c1491461058957610210565b80636b20c454146104a3578063731133e9146104bf5780637f345710146104db5780638456cb59146104f957610210565b80632eb2c2d6116101a85780634e1273f4116101775780634e1273f4146103b95780634f558e79146103e9578063526cbdb9146104195780635c044437146104535780635c975abb1461048557610210565b80632eb2c2d61461035b5780632f2ff15d1461037757806336568abe146103935780633f4ba83a146103af57610210565b80630e89341c116101e45780630e89341c146102c35780631f7fdffa146102f3578063248a9ca31461030f5780632798989f1461033f57610210565b8062fdd58e1461021557806301ffc9a7146102455780630229d9ba1461027557806302fe5305146102a7575b600080fd5b61022f600480360381019061022a9190613a8a565b6106f9565b60405161023c9190613ad9565b60405180910390f35b61025f600480360381019061025a9190613b4c565b6107c1565b60405161026c9190613b94565b60405180910390f35b61028f600480360381019061028a9190613baf565b6107d3565b60405161029e93929190613cf2565b60405180910390f35b6102c160048036038101906102bc9190613e65565b6108b2565b005b6102dd60048036038101906102d89190613baf565b6108e9565b6040516102ea9190613eae565b60405180910390f35b61030d60048036038101906103089190614039565b61097d565b005b6103296004803603810190610324919061412a565b6109ba565b6040516103369190614166565b60405180910390f35b61035960048036038101906103549190614181565b6109da565b005b6103756004803603810190610370919061420c565b6109df565b005b610391600480360381019061038c91906142db565b610a80565b005b6103ad60048036038101906103a891906142db565b610aa1565b005b6103b7610b24565b005b6103d360048036038101906103ce91906143de565b610b59565b6040516103e09190614514565b60405180910390f35b61040360048036038101906103fe9190613baf565b610c72565b6040516104109190613b94565b60405180910390f35b610433600480360381019061042e9190613baf565b610c86565b60405161044a9b9a99989796959493929190614636565b60405180910390f35b61046d60048036038101906104689190613baf565b611469565b60405161047c93929190613cf2565b60405180910390f35b61048d611548565b60405161049a9190613b94565b60405180910390f35b6104bd60048036038101906104b89190614720565b61155f565b005b6104d960048036038101906104d491906147ab565b6115fc565b005b6104e3611639565b6040516104f09190614166565b60405180910390f35b61050161165d565b005b61051d600480360381019061051891906142db565b611692565b60405161052a9190613b94565b60405180910390f35b61054d6004803603810190610548919061482e565b6116fd565b005b61055761174a565b6040516105649190614166565b60405180910390f35b61058760048036038101906105829190614957565b611751565b005b6105a3600480360381019061059e9190613baf565b611767565b6040516105b293929190613cf2565b60405180910390f35b6105d560048036038101906105d09190613baf565b611846565b6040516105e29190613ad9565b60405180910390f35b6105f3611863565b6040516106009190614166565b60405180910390f35b610623600480360381019061061e91906142db565b611887565b005b61063f600480360381019061063a9190614997565b6118a8565b005b61065b60048036038101906106569190613baf565b6118ad565b60405161066a93929190613cf2565b60405180910390f35b61067b61198c565b6040516106889190614166565b60405180910390f35b6106ab60048036038101906106a69190614a06565b6119b0565b6040516106b89190613b94565b60405180910390f35b6106db60048036038101906106d69190614a46565b611a44565b005b6106f760048036038101906106f29190614add565b611ae5565b005b60008073ffffffffffffffffffffffffffffffffffffffff168373ffffffffffffffffffffffffffffffffffffffff1603610769576040517f08c379a000000000000000000000000000000000000000000000000000000000815260040161076090614ba2565b60405180910390fd5b60008083815260200190815260200160002060008473ffffffffffffffffffffffffffffffffffffffff1673ffffffffffffffffffffffffffffffffffffffff16815260200190815260200160002054905092915050565b60006107cc82611b82565b9050919050565b600a6020528060005260406000206000915090508060000160009054906101000a900473ffffffffffffffffffffffffffffffffffffffff16908060000160149054906101000a900460ff169080600101805461082f90614bf1565b80601f016020809104026020016040519081016040528092919081815260200182805461085b90614bf1565b80156108a85780601f1061087d576101008083540402835291602001916108a8565b820191906000526020600020905b81548152906001019060200180831161088b57829003601f168201915b5050505050905083565b7f7804d923f43a17d325d77e781528e0793b2edd9890ab45fc64efd7b4b427744c6108dc81611bfc565b6108e582611c10565b5050565b6060600280546108f890614bf1565b80601f016020809104026020016040519081016040528092919081815260200182805461092490614bf1565b80156109715780601f1061094657610100808354040283529160200191610971565b820191906000526020600020905b81548152906001019060200180831161095457829003601f168201915b50505050509050919050565b7f9f2df0fed2c77648de5860a4cc508cd0818c85b8b8a1ab4ceeef8d981c8956a66109a781611bfc565b6109b385858585611c23565b5050505050565b600060036000838152602001908152602001600020600101549050919050565b505050565b6109e7611e4f565b73ffffffffffffffffffffffffffffffffffffffff168573ffffffffffffffffffffffffffffffffffffffff161480610a2d5750610a2c85610a27611e4f565b6119b0565b5b610a6c576040517f08c379a0000000000000000000000000000000000000000000000000000000008152600401610a6390614c94565b60405180910390fd5b610a798585858585611e57565b5050505050565b610a89826109ba565b610a9281611bfc565b610a9c8383612178565b505050565b610aa9611e4f565b73ffffffffffffffffffffffffffffffffffffffff168173ffffffffffffffffffffffffffffffffffffffff1614610b16576040517f08c379a0000000000000000000000000000000000000000000000000000000008152600401610b0d90614d26565b60405180910390fd5b610b208282612259565b5050565b7f65d7a28e3265b37a6474929f336521b332c1681b933f6cb9f3376673440d862a610b4e81611bfc565b610b5661233b565b50565b60608151835114610b9f576040517f08c379a0000000000000000000000000000000000000000000000000000000008152600401610b9690614db8565b60405180910390fd5b6000835167ffffffffffffffff811115610bbc57610bbb613d3a565b5b604051908082528060200260200182016040528015610bea5781602001602082028036833780820191505090505b50905060005b8451811015610c6757610c37858281518110610c0f57610c0e614dd8565b5b6020026020010151858381518110610c2a57610c29614dd8565b5b60200260200101516106f9565b828281518110610c4a57610c49614dd8565b5b60200260200101818152505080610c6090614e36565b9050610bf0565b508091505092915050565b600080610c7e83611846565b119050919050565b60066020528060005260406000206000915090508060000160009054906101000a900473ffffffffffffffffffffffffffffffffffffffff1690806001018054610ccf90614bf1565b80601f0160208091040260200160405190810160405280929190818152602001828054610cfb90614bf1565b8015610d485780601f10610d1d57610100808354040283529160200191610d48565b820191906000526020600020905b815481529060010190602001808311610d2b57829003601f168201915b505050505090806002016040518060600160405290816000820160009054906101000a900473ffffffffffffffffffffffffffffffffffffffff1673ffffffffffffffffffffffffffffffffffffffff1673ffffffffffffffffffffffffffffffffffffffff1681526020016000820160149054906101000a900460ff166005811115610dd857610dd7613beb565b5b6005811115610dea57610de9613beb565b5b8152602001600182018054610dfe90614bf1565b80601f0160208091040260200160405190810160405280929190818152602001828054610e2a90614bf1565b8015610e775780601f10610e4c57610100808354040283529160200191610e77565b820191906000526020600020905b815481529060010190602001808311610e5a57829003601f168201915b50505050508152505090806004016040518060600160405290816000820160009054906101000a900473ffffffffffffffffffffffffffffffffffffffff1673ffffffffffffffffffffffffffffffffffffffff1673ffffffffffffffffffffffffffffffffffffffff1681526020016000820160149054906101000a900460ff166005811115610f0b57610f0a613beb565b5b6005811115610f1d57610f1c613beb565b5b8152602001600182018054610f3190614bf1565b80601f0160208091040260200160405190810160405280929190818152602001828054610f5d90614bf1565b8015610faa5780601f10610f7f57610100808354040283529160200191610faa565b820191906000526020600020905b815481529060010190602001808311610f8d57829003601f168201915b50505050508152505090806006016040518060600160405290816000820160009054906101000a900473ffffffffffffffffffffffffffffffffffffffff1673ffffffffffffffffffffffffffffffffffffffff1673ffffffffffffffffffffffffffffffffffffffff1681526020016000820160149054906101000a900460ff16600581111561103e5761103d613beb565b5b60058111156110505761104f613beb565b5b815260200160018201805461106490614bf1565b80601f016020809104026020016040519081016040528092919081815260200182805461109090614bf1565b80156110dd5780601f106110b2576101008083540402835291602001916110dd565b820191906000526020600020905b8154815290600101906020018083116110c057829003601f168201915b505050505081525050908060080160009054906101000a900460ff1690806009016040518060600160405290816000820160009054906101000a900473ffffffffffffffffffffffffffffffffffffffff1673ffffffffffffffffffffffffffffffffffffffff1673ffffffffffffffffffffffffffffffffffffffff1681526020016000820160149054906101000a900460ff16600581111561118457611183613beb565b5b600581111561119657611195613beb565b5b81526020016001820180546111aa90614bf1565b80601f01602080910402602001604051908101604052809291908181526020018280546111d690614bf1565b80156112235780601f106111f857610100808354040283529160200191611223565b820191906000526020600020905b81548152906001019060200180831161120657829003601f168201915b5050505050815250509080600b01805461123c90614bf1565b80601f016020809104026020016040519081016040528092919081815260200182805461126890614bf1565b80156112b55780601f1061128a576101008083540402835291602001916112b5565b820191906000526020600020905b81548152906001019060200180831161129857829003601f168201915b50505050509080600c0180546112ca90614bf1565b80601f01602080910402602001604051908101604052809291908181526020018280546112f690614bf1565b80156113435780601f1061131857610100808354040283529160200191611343565b820191906000526020600020905b81548152906001019060200180831161132657829003601f168201915b50505050509080600d01805461135890614bf1565b80601f016020809104026020016040519081016040528092919081815260200182805461138490614bf1565b80156113d15780601f106113a6576101008083540402835291602001916113d1565b820191906000526020600020905b8154815290600101906020018083116113b457829003601f168201915b50505050509080600e0180546113e690614bf1565b80601f016020809104026020016040519081016040528092919081815260200182805461141290614bf1565b801561145f5780601f106114345761010080835404028352916020019161145f565b820191906000526020600020905b81548152906001019060200180831161144257829003601f168201915b505050505090508b565b60096020528060005260406000206000915090508060000160009054906101000a900473ffffffffffffffffffffffffffffffffffffffff16908060000160149054906101000a900460ff16908060010180546114c590614bf1565b80601f01602080910402602001604051908101604052809291908181526020018280546114f190614bf1565b801561153e5780601f106115135761010080835404028352916020019161153e565b820191906000526020600020905b81548152906001019060200180831161152157829003601f168201915b5050505050905083565b6000600460009054906101000a900460ff16905090565b611567611e4f565b73ffffffffffffffffffffffffffffffffffffffff168373ffffffffffffffffffffffffffffffffffffffff1614806115ad57506115ac836115a7611e4f565b6119b0565b5b6115ec576040517f08c379a00000000000000000000000000000000000000000000000000000000081526004016115e390614c94565b60405180910390fd5b6115f783838361239e565b505050565b7f9f2df0fed2c77648de5860a4cc508cd0818c85b8b8a1ab4ceeef8d981c8956a661162681611bfc565b6116328585858561266c565b5050505050565b7f7804d923f43a17d325d77e781528e0793b2edd9890ab45fc64efd7b4b427744c81565b7f65d7a28e3265b37a6474929f336521b332c1681b933f6cb9f3376673440d862a61168781611bfc565b61168f61281c565b50565b60006003600084815260200190815260200160002060000160008373ffffffffffffffffffffffffffffffffffffffff1673ffffffffffffffffffffffffffffffffffffffff16815260200190815260200160002060009054906101000a900460ff16905092915050565b6000611741876001876040518060400160405280600a81526020017f736f6d65206e6f7465730000000000000000000000000000000000000000000081525061266c565b50505050505050565b6000801b81565b61176361175c611e4f565b838361287f565b5050565b60086020528060005260406000206000915090508060000160009054906101000a900473ffffffffffffffffffffffffffffffffffffffff16908060000160149054906101000a900460ff16908060010180546117c390614bf1565b80601f01602080910402602001604051908101604052809291908181526020018280546117ef90614bf1565b801561183c5780601f106118115761010080835404028352916020019161183c565b820191906000526020600020905b81548152906001019060200180831161181f57829003601f168201915b5050505050905083565b600060056000838152602001908152602001600020549050919050565b7f9f2df0fed2c77648de5860a4cc508cd0818c85b8b8a1ab4ceeef8d981c8956a681565b611890826109ba565b61189981611bfc565b6118a38383612259565b505050565b505050565b60076020528060005260406000206000915090508060000160009054906101000a900473ffffffffffffffffffffffffffffffffffffffff16908060000160149054906101000a900460ff169080600101805461190990614bf1565b80601f016020809104026020016040519081016040528092919081815260200182805461193590614bf1565b80156119825780601f1061195757610100808354040283529160200191611982565b820191906000526020600020905b81548152906001019060200180831161196557829003601f168201915b5050505050905083565b7f65d7a28e3265b37a6474929f336521b332c1681b933f6cb9f3376673440d862a81565b6000600160008473ffffffffffffffffffffffffffffffffffffffff1673ffffffffffffffffffffffffffffffffffffffff16815260200190815260200160002060008373ffffffffffffffffffffffffffffffffffffffff1673ffffffffffffffffffffffffffffffffffffffff16815260200190815260200160002060009054906101000a900460ff16905092915050565b611a4c611e4f565b73ffffffffffffffffffffffffffffffffffffffff168573ffffffffffffffffffffffffffffffffffffffff161480611a925750611a9185611a8c611e4f565b6119b0565b5b611ad1576040517f08c379a0000000000000000000000000000000000000000000000000000000008152600401611ac890614c94565b60405180910390fd5b611ade85858585856129eb565b5050505050565b611aed611e4f565b73ffffffffffffffffffffffffffffffffffffffff168373ffffffffffffffffffffffffffffffffffffffff161480611b335750611b3283611b2d611e4f565b6119b0565b5b611b72576040517f08c379a0000000000000000000000000000000000000000000000000000000008152600401611b6990614c94565b60405180910390fd5b611b7d838383612c86565b505050565b60007f7965db0b000000000000000000000000000000000000000000000000000000007bffffffffffffffffffffffffffffffffffffffffffffffffffffffff1916827bffffffffffffffffffffffffffffffffffffffffffffffffffffffff19161480611bf55750611bf482612ecc565b5b9050919050565b611c0d81611c08611e4f565b612fae565b50565b8060029081611c1f919061502a565b5050565b600073ffffffffffffffffffffffffffffffffffffffff168473ffffffffffffffffffffffffffffffffffffffff1603611c92576040517f08c379a0000000000000000000000000000000000000000000000000000000008152600401611c899061516e565b60405180910390fd5b8151835114611cd6576040517f08c379a0000000000000000000000000000000000000000000000000000000008152600401611ccd90615200565b60405180910390fd5b6000611ce0611e4f565b9050611cf181600087878787613033565b60005b8451811015611daa57838181518110611d1057611d0f614dd8565b5b6020026020010151600080878481518110611d2e57611d2d614dd8565b5b6020026020010151815260200190815260200160002060008873ffffffffffffffffffffffffffffffffffffffff1673ffffffffffffffffffffffffffffffffffffffff1681526020019081526020016000206000828254611d909190615220565b925050819055508080611da290614e36565b915050611cf4565b508473ffffffffffffffffffffffffffffffffffffffff16600073ffffffffffffffffffffffffffffffffffffffff168273ffffffffffffffffffffffffffffffffffffffff167f4a39dc06d4c0dbc64b70af90fd698a233a518aa5d07e595d983b8c0526c8f7fb8787604051611e22929190615254565b60405180910390a4611e3981600087878787613051565b611e4881600087878787613059565b5050505050565b600033905090565b8151835114611e9b576040517f08c379a0000000000000000000000000000000000000000000000000000000008152600401611e9290615200565b60405180910390fd5b600073ffffffffffffffffffffffffffffffffffffffff168473ffffffffffffffffffffffffffffffffffffffff1603611f0a576040517f08c379a0000000000000000000000000000000000000000000000000000000008152600401611f01906152fd565b60405180910390fd5b6000611f14611e4f565b9050611f24818787878787613033565b60005b84518110156120d5576000858281518110611f4557611f44614dd8565b5b602002602001015190506000858381518110611f6457611f63614dd8565b5b60200260200101519050600080600084815260200190815260200160002060008b73ffffffffffffffffffffffffffffffffffffffff1673ffffffffffffffffffffffffffffffffffffffff16815260200190815260200160002054905081811015612005576040517f08c379a0000000000000000000000000000000000000000000000000000000008152600401611ffc9061538f565b60405180910390fd5b81810360008085815260200190815260200160002060008c73ffffffffffffffffffffffffffffffffffffffff1673ffffffffffffffffffffffffffffffffffffffff168152602001908152602001600020819055508160008085815260200190815260200160002060008b73ffffffffffffffffffffffffffffffffffffffff1673ffffffffffffffffffffffffffffffffffffffff16815260200190815260200160002060008282546120ba9190615220565b92505081905550505050806120ce90614e36565b9050611f27565b508473ffffffffffffffffffffffffffffffffffffffff168673ffffffffffffffffffffffffffffffffffffffff168273ffffffffffffffffffffffffffffffffffffffff167f4a39dc06d4c0dbc64b70af90fd698a233a518aa5d07e595d983b8c0526c8f7fb878760405161214c929190615254565b60405180910390a4612162818787878787613051565b612170818787878787613059565b505050505050565b6121828282611692565b6122555760016003600084815260200190815260200160002060000160008373ffffffffffffffffffffffffffffffffffffffff1673ffffffffffffffffffffffffffffffffffffffff16815260200190815260200160002060006101000a81548160ff0219169083151502179055506121fa611e4f565b73ffffffffffffffffffffffffffffffffffffffff168173ffffffffffffffffffffffffffffffffffffffff16837f2f8788117e7eff1d82e926ec794901d17c78024a50270940304540a733656f0d60405160405180910390a45b5050565b6122638282611692565b156123375760006003600084815260200190815260200160002060000160008373ffffffffffffffffffffffffffffffffffffffff1673ffffffffffffffffffffffffffffffffffffffff16815260200190815260200160002060006101000a81548160ff0219169083151502179055506122dc611e4f565b73ffffffffffffffffffffffffffffffffffffffff168173ffffffffffffffffffffffffffffffffffffffff16837ff6391f5c32d9c69d2a47ea670b442974b53935d1edc7fd64eb21e047a839171b60405160405180910390a45b5050565b612343613230565b6000600460006101000a81548160ff0219169083151502179055507f5db9ee0a495bf2e6ff9c91a7834c1ba4fdd244a5e8aa4e537bd38aeae4b073aa612387611e4f565b60405161239491906153af565b60405180910390a1565b600073ffffffffffffffffffffffffffffffffffffffff168373ffffffffffffffffffffffffffffffffffffffff160361240d576040517f08c379a00000000000000000000000000000000000000000000000000000000081526004016124049061543c565b60405180910390fd5b8051825114612451576040517f08c379a000000000000000000000000000000000000000000000000000000000815260040161244890615200565b60405180910390fd5b600061245b611e4f565b905061247b81856000868660405180602001604052806000815250613033565b60005b83518110156125c857600084828151811061249c5761249b614dd8565b5b6020026020010151905060008483815181106124bb576124ba614dd8565b5b60200260200101519050600080600084815260200190815260200160002060008973ffffffffffffffffffffffffffffffffffffffff1673ffffffffffffffffffffffffffffffffffffffff1681526020019081526020016000205490508181101561255c576040517f08c379a0000000000000000000000000000000000000000000000000000000008152600401612553906154ce565b60405180910390fd5b81810360008085815260200190815260200160002060008a73ffffffffffffffffffffffffffffffffffffffff1673ffffffffffffffffffffffffffffffffffffffff1681526020019081526020016000208190555050505080806125c090614e36565b91505061247e565b50600073ffffffffffffffffffffffffffffffffffffffff168473ffffffffffffffffffffffffffffffffffffffff168273ffffffffffffffffffffffffffffffffffffffff167f4a39dc06d4c0dbc64b70af90fd698a233a518aa5d07e595d983b8c0526c8f7fb8686604051612640929190615254565b60405180910390a461266681856000868660405180602001604052806000815250613051565b50505050565b600073ffffffffffffffffffffffffffffffffffffffff168473ffffffffffffffffffffffffffffffffffffffff16036126db576040517f08c379a00000000000000000000000000000000000000000000000000000000081526004016126d29061516e565b60405180910390fd5b60006126e5611e4f565b905060006126f285613279565b905060006126ff85613279565b905061271083600089858589613033565b8460008088815260200190815260200160002060008973ffffffffffffffffffffffffffffffffffffffff1673ffffffffffffffffffffffffffffffffffffffff168152602001908152602001600020600082825461276f9190615220565b925050819055508673ffffffffffffffffffffffffffffffffffffffff16600073ffffffffffffffffffffffffffffffffffffffff168473ffffffffffffffffffffffffffffffffffffffff167fc3d58168c5ae7397731d063d5bbf3d657854427343f4c083240f7aacaa2d0f6289896040516127ed9291906154ee565b60405180910390a461280483600089858589613051565b612813836000898989896132f3565b50505050505050565b6128246134ca565b6001600460006101000a81548160ff0219169083151502179055507f62e78cea01bee320cd4e420270b5ea74000d11b0c9f74754ebdbfc544b05a258612868611e4f565b60405161287591906153af565b60405180910390a1565b8173ffffffffffffffffffffffffffffffffffffffff168373ffffffffffffffffffffffffffffffffffffffff16036128ed576040517f08c379a00000000000000000000000000000000000000000000000000000000081526004016128e490615589565b60405180910390fd5b80600160008573ffffffffffffffffffffffffffffffffffffffff1673ffffffffffffffffffffffffffffffffffffffff16815260200190815260200160002060008473ffffffffffffffffffffffffffffffffffffffff1673ffffffffffffffffffffffffffffffffffffffff16815260200190815260200160002060006101000a81548160ff0219169083151502179055508173ffffffffffffffffffffffffffffffffffffffff168373ffffffffffffffffffffffffffffffffffffffff167f17307eab39ab6107e8899845ad3d59bd9653f200f220920489ca2b5937696c31836040516129de9190613b94565b60405180910390a3505050565b600073ffffffffffffffffffffffffffffffffffffffff168473ffffffffffffffffffffffffffffffffffffffff1603612a5a576040517f08c379a0000000000000000000000000000000000000000000000000000000008152600401612a51906152fd565b60405180910390fd5b6000612a64611e4f565b90506000612a7185613279565b90506000612a7e85613279565b9050612a8e838989858589613033565b600080600088815260200190815260200160002060008a73ffffffffffffffffffffffffffffffffffffffff1673ffffffffffffffffffffffffffffffffffffffff16815260200190815260200160002054905085811015612b25576040517f08c379a0000000000000000000000000000000000000000000000000000000008152600401612b1c9061538f565b60405180910390fd5b85810360008089815260200190815260200160002060008b73ffffffffffffffffffffffffffffffffffffffff1673ffffffffffffffffffffffffffffffffffffffff168152602001908152602001600020819055508560008089815260200190815260200160002060008a73ffffffffffffffffffffffffffffffffffffffff1673ffffffffffffffffffffffffffffffffffffffff1681526020019081526020016000206000828254612bda9190615220565b925050819055508773ffffffffffffffffffffffffffffffffffffffff168973ffffffffffffffffffffffffffffffffffffffff168573ffffffffffffffffffffffffffffffffffffffff167fc3d58168c5ae7397731d063d5bbf3d657854427343f4c083240f7aacaa2d0f628a8a604051612c579291906154ee565b60405180910390a4612c6d848a8a86868a613051565b612c7b848a8a8a8a8a6132f3565b505050505050505050565b600073ffffffffffffffffffffffffffffffffffffffff168373ffffffffffffffffffffffffffffffffffffffff1603612cf5576040517f08c379a0000000000000000000000000000000000000000000000000000000008152600401612cec9061543c565b60405180910390fd5b6000612cff611e4f565b90506000612d0c84613279565b90506000612d1984613279565b9050612d3983876000858560405180602001604052806000815250613033565b600080600087815260200190815260200160002060008873ffffffffffffffffffffffffffffffffffffffff1673ffffffffffffffffffffffffffffffffffffffff16815260200190815260200160002054905084811015612dd0576040517f08c379a0000000000000000000000000000000000000000000000000000000008152600401612dc7906154ce565b60405180910390fd5b84810360008088815260200190815260200160002060008973ffffffffffffffffffffffffffffffffffffffff1673ffffffffffffffffffffffffffffffffffffffff16815260200190815260200160002081905550600073ffffffffffffffffffffffffffffffffffffffff168773ffffffffffffffffffffffffffffffffffffffff168573ffffffffffffffffffffffffffffffffffffffff167fc3d58168c5ae7397731d063d5bbf3d657854427343f4c083240f7aacaa2d0f628989604051612e9d9291906154ee565b60405180910390a4612ec384886000868660405180602001604052806000815250613051565b50505050505050565b60007fd9b67a26000000000000000000000000000000000000000000000000000000007bffffffffffffffffffffffffffffffffffffffffffffffffffffffff1916827bffffffffffffffffffffffffffffffffffffffffffffffffffffffff19161480612f9757507f0e89341c000000000000000000000000000000000000000000000000000000007bffffffffffffffffffffffffffffffffffffffffffffffffffffffff1916827bffffffffffffffffffffffffffffffffffffffffffffffffffffffff1916145b80612fa75750612fa682613514565b5b9050919050565b612fb88282611692565b61302f57612fc58161357e565b612fd38360001c60206135ab565b604051602001612fe492919061567d565b6040516020818303038152906040526040517f08c379a00000000000000000000000000000000000000000000000000000000081526004016130269190613eae565b60405180910390fd5b5050565b61303b6134ca565b6130498686868686866137e7565b505050505050565b505050505050565b6130788473ffffffffffffffffffffffffffffffffffffffff166139b7565b15613228578373ffffffffffffffffffffffffffffffffffffffff1663bc197c8187878686866040518663ffffffff1660e01b81526004016130be95949392919061570c565b6020604051808303816000875af19250505080156130fa57506040513d601f19601f820116820180604052508101906130f79190615789565b60015b61319f576131066157c3565b806308c379a003613162575061311a6157e5565b806131255750613164565b806040517f08c379a00000000000000000000000000000000000000000000000000000000081526004016131599190613eae565b60405180910390fd5b505b6040517f08c379a0000000000000000000000000000000000000000000000000000000008152600401613196906158e7565b60405180910390fd5b63bc197c8160e01b7bffffffffffffffffffffffffffffffffffffffffffffffffffffffff1916817bffffffffffffffffffffffffffffffffffffffffffffffffffffffff191614613226576040517f08c379a000000000000000000000000000000000000000000000000000000000815260040161321d90615979565b60405180910390fd5b505b505050505050565b613238611548565b613277576040517f08c379a000000000000000000000000000000000000000000000000000000000815260040161326e906159e5565b60405180910390fd5b565b60606000600167ffffffffffffffff81111561329857613297613d3a565b5b6040519080825280602002602001820160405280156132c65781602001602082028036833780820191505090505b50905082816000815181106132de576132dd614dd8565b5b60200260200101818152505080915050919050565b6133128473ffffffffffffffffffffffffffffffffffffffff166139b7565b156134c2578373ffffffffffffffffffffffffffffffffffffffff1663f23a6e6187878686866040518663ffffffff1660e01b8152600401613358959493929190615a05565b6020604051808303816000875af192505050801561339457506040513d601f19601f820116820180604052508101906133919190615789565b60015b613439576133a06157c3565b806308c379a0036133fc57506133b46157e5565b806133bf57506133fe565b806040517f08c379a00000000000000000000000000000000000000000000000000000000081526004016133f39190613eae565b60405180910390fd5b505b6040517f08c379a0000000000000000000000000000000000000000000000000000000008152600401613430906158e7565b60405180910390fd5b63f23a6e6160e01b7bffffffffffffffffffffffffffffffffffffffffffffffffffffffff1916817bffffffffffffffffffffffffffffffffffffffffffffffffffffffff1916146134c0576040517f08c379a00000000000000000000000000000000000000000000000000000000081526004016134b790615979565b60405180910390fd5b505b505050505050565b6134d2611548565b15613512576040517f08c379a000000000000000000000000000000000000000000000000000000000815260040161350990615aab565b60405180910390fd5b565b60007f01ffc9a7000000000000000000000000000000000000000000000000000000007bffffffffffffffffffffffffffffffffffffffffffffffffffffffff1916827bffffffffffffffffffffffffffffffffffffffffffffffffffffffff1916149050919050565b60606135a48273ffffffffffffffffffffffffffffffffffffffff16601460ff166135ab565b9050919050565b6060600060028360026135be9190615acb565b6135c89190615220565b67ffffffffffffffff8111156135e1576135e0613d3a565b5b6040519080825280601f01601f1916602001820160405280156136135781602001600182028036833780820191505090505b5090507f30000000000000000000000000000000000000000000000000000000000000008160008151811061364b5761364a614dd8565b5b60200101907effffffffffffffffffffffffffffffffffffffffffffffffffffffffffffff1916908160001a9053507f7800000000000000000000000000000000000000000000000000000000000000816001815181106136af576136ae614dd8565b5b60200101907effffffffffffffffffffffffffffffffffffffffffffffffffffffffffffff1916908160001a905350600060018460026136ef9190615acb565b6136f99190615220565b90505b6001811115613799577f3031323334353637383961626364656600000000000000000000000000000000600f86166010811061373b5761373a614dd8565b5b1a60f81b82828151811061375257613751614dd8565b5b60200101907effffffffffffffffffffffffffffffffffffffffffffffffffffffffffffff1916908160001a905350600485901c94508061379290615b0d565b90506136fc565b50600084146137dd576040517f08c379a00000000000000000000000000000000000000000000000000000000081526004016137d490615b82565b60405180910390fd5b8091505092915050565b6137f58686868686866139da565b600073ffffffffffffffffffffffffffffffffffffffff168573ffffffffffffffffffffffffffffffffffffffff16036138a65760005b83518110156138a45782818151811061384857613847614dd8565b5b60200260200101516005600086848151811061386757613866614dd8565b5b60200260200101518152602001908152602001600020600082825461388c9190615220565b925050819055508061389d90614e36565b905061382c565b505b600073ffffffffffffffffffffffffffffffffffffffff168473ffffffffffffffffffffffffffffffffffffffff16036139af5760005b83518110156139ad5760008482815181106138fb576138fa614dd8565b5b60200260200101519050600084838151811061391a57613919614dd8565b5b602002602001015190506000600560008481526020019081526020016000205490508181101561397f576040517f08c379a000000000000000000000000000000000000000000000000000000000815260040161397690615c14565b60405180910390fd5b8181036005600085815260200190815260200160002081905550505050806139a690614e36565b90506138dd565b505b505050505050565b6000808273ffffffffffffffffffffffffffffffffffffffff163b119050919050565b505050505050565b6000604051905090565b600080fd5b600080fd5b600073ffffffffffffffffffffffffffffffffffffffff82169050919050565b6000613a21826139f6565b9050919050565b613a3181613a16565b8114613a3c57600080fd5b50565b600081359050613a4e81613a28565b92915050565b6000819050919050565b613a6781613a54565b8114613a7257600080fd5b50565b600081359050613a8481613a5e565b92915050565b60008060408385031215613aa157613aa06139ec565b5b6000613aaf85828601613a3f565b9250506020613ac085828601613a75565b9150509250929050565b613ad381613a54565b82525050565b6000602082019050613aee6000830184613aca565b92915050565b60007fffffffff0000000000000000000000000000000000000000000000000000000082169050919050565b613b2981613af4565b8114613b3457600080fd5b50565b600081359050613b4681613b20565b92915050565b600060208284031215613b6257613b616139ec565b5b6000613b7084828501613b37565b91505092915050565b60008115159050919050565b613b8e81613b79565b82525050565b6000602082019050613ba96000830184613b85565b92915050565b600060208284031215613bc557613bc46139ec565b5b6000613bd384828501613a75565b91505092915050565b613be581613a16565b82525050565b7f4e487b7100000000000000000000000000000000000000000000000000000000600052602160045260246000fd5b60068110613c2b57613c2a613beb565b5b50565b6000819050613c3c82613c1a565b919050565b6000613c4c82613c2e565b9050919050565b613c5c81613c41565b82525050565b600081519050919050565b600082825260208201905092915050565b60005b83811015613c9c578082015181840152602081019050613c81565b60008484015250505050565b6000601f19601f8301169050919050565b6000613cc482613c62565b613cce8185613c6d565b9350613cde818560208601613c7e565b613ce781613ca8565b840191505092915050565b6000606082019050613d076000830186613bdc565b613d146020830185613c53565b8181036040830152613d268184613cb9565b9050949350505050565b600080fd5b600080fd5b7f4e487b7100000000000000000000000000000000000000000000000000000000600052604160045260246000fd5b613d7282613ca8565b810181811067ffffffffffffffff82111715613d9157613d90613d3a565b5b80604052505050565b6000613da46139e2565b9050613db08282613d69565b919050565b600067ffffffffffffffff821115613dd057613dcf613d3a565b5b613dd982613ca8565b9050602081019050919050565b82818337600083830152505050565b6000613e08613e0384613db5565b613d9a565b905082815260208101848484011115613e2457613e23613d35565b5b613e2f848285613de6565b509392505050565b600082601f830112613e4c57613e4b613d30565b5b8135613e5c848260208601613df5565b91505092915050565b600060208284031215613e7b57613e7a6139ec565b5b600082013567ffffffffffffffff811115613e9957613e986139f1565b5b613ea584828501613e37565b91505092915050565b60006020820190508181036000830152613ec88184613cb9565b905092915050565b600067ffffffffffffffff821115613eeb57613eea613d3a565b5b602082029050602081019050919050565b600080fd5b6000613f14613f0f84613ed0565b613d9a565b90508083825260208201905060208402830185811115613f3757613f36613efc565b5b835b81811015613f605780613f4c8882613a75565b845260208401935050602081019050613f39565b5050509392505050565b600082601f830112613f7f57613f7e613d30565b5b8135613f8f848260208601613f01565b91505092915050565b600067ffffffffffffffff821115613fb357613fb2613d3a565b5b613fbc82613ca8565b9050602081019050919050565b6000613fdc613fd784613f98565b613d9a565b905082815260208101848484011115613ff857613ff7613d35565b5b614003848285613de6565b509392505050565b600082601f8301126140205761401f613d30565b5b8135614030848260208601613fc9565b91505092915050565b60008060008060808587031215614053576140526139ec565b5b600061406187828801613a3f565b945050602085013567ffffffffffffffff811115614082576140816139f1565b5b61408e87828801613f6a565b935050604085013567ffffffffffffffff8111156140af576140ae6139f1565b5b6140bb87828801613f6a565b925050606085013567ffffffffffffffff8111156140dc576140db6139f1565b5b6140e88782880161400b565b91505092959194509250565b6000819050919050565b614107816140f4565b811461411257600080fd5b50565b600081359050614124816140fe565b92915050565b6000602082840312156141405761413f6139ec565b5b600061414e84828501614115565b91505092915050565b614160816140f4565b82525050565b600060208201905061417b6000830184614157565b92915050565b60008060006060848603121561419a576141996139ec565b5b60006141a886828701613a3f565b935050602084013567ffffffffffffffff8111156141c9576141c86139f1565b5b6141d586828701613e37565b925050604084013567ffffffffffffffff8111156141f6576141f56139f1565b5b61420286828701613e37565b9150509250925092565b600080600080600060a08688031215614228576142276139ec565b5b600061423688828901613a3f565b955050602061424788828901613a3f565b945050604086013567ffffffffffffffff811115614268576142676139f1565b5b61427488828901613f6a565b935050606086013567ffffffffffffffff811115614295576142946139f1565b5b6142a188828901613f6a565b925050608086013567ffffffffffffffff8111156142c2576142c16139f1565b5b6142ce8882890161400b565b9150509295509295909350565b600080604083850312156142f2576142f16139ec565b5b600061430085828601614115565b925050602061431185828601613a3f565b9150509250929050565b600067ffffffffffffffff82111561433657614335613d3a565b5b602082029050602081019050919050565b600061435a6143558461431b565b613d9a565b9050808382526020820190506020840283018581111561437d5761437c613efc565b5b835b818110156143a657806143928882613a3f565b84526020840193505060208101905061437f565b5050509392505050565b600082601f8301126143c5576143c4613d30565b5b81356143d5848260208601614347565b91505092915050565b600080604083850312156143f5576143f46139ec565b5b600083013567ffffffffffffffff811115614413576144126139f1565b5b61441f858286016143b0565b925050602083013567ffffffffffffffff8111156144405761443f6139f1565b5b61444c85828601613f6a565b9150509250929050565b600081519050919050565b600082825260208201905092915050565b6000819050602082019050919050565b61448b81613a54565b82525050565b600061449d8383614482565b60208301905092915050565b6000602082019050919050565b60006144c182614456565b6144cb8185614461565b93506144d683614472565b8060005b838110156145075781516144ee8882614491565b97506144f9836144a9565b9250506001810190506144da565b5085935050505092915050565b6000602082019050818103600083015261452e81846144b6565b905092915050565b61453f81613a16565b82525050565b61454e81613c41565b82525050565b600082825260208201905092915050565b600061457082613c62565b61457a8185614554565b935061458a818560208601613c7e565b61459381613ca8565b840191505092915050565b60006060830160008301516145b66000860182614536565b5060208301516145c96020860182614545565b50604083015184820360408601526145e18282614565565b9150508091505092915050565b600581106145ff576145fe613beb565b5b50565b6000819050614610826145ee565b919050565b600061462082614602565b9050919050565b61463081614615565b82525050565b60006101608201905061464c600083018e613bdc565b818103602083015261465e818d613cb9565b90508181036040830152614672818c61459e565b90508181036060830152614686818b61459e565b9050818103608083015261469a818a61459e565b90506146a960a0830189614627565b81810360c08301526146bb818861459e565b905081810360e08301526146cf8187613cb9565b90508181036101008301526146e48186613cb9565b90508181036101208301526146f98185613cb9565b905081810361014083015261470e8184613cb9565b90509c9b505050505050505050505050565b600080600060608486031215614739576147386139ec565b5b600061474786828701613a3f565b935050602084013567ffffffffffffffff811115614768576147676139f1565b5b61477486828701613f6a565b925050604084013567ffffffffffffffff811115614795576147946139f1565b5b6147a186828701613f6a565b9150509250925092565b600080600080608085870312156147c5576147c46139ec565b5b60006147d387828801613a3f565b94505060206147e487828801613a75565b93505060406147f587828801613a75565b925050606085013567ffffffffffffffff811115614816576148156139f1565b5b6148228782880161400b565b91505092959194509250565b60008060008060008060c0878903121561484b5761484a6139ec565b5b600061485989828a01613a3f565b965050602087013567ffffffffffffffff81111561487a576148796139f1565b5b61488689828a01613e37565b955050604061489789828a01613a75565b945050606087013567ffffffffffffffff8111156148b8576148b76139f1565b5b6148c489828a01613e37565b935050608087013567ffffffffffffffff8111156148e5576148e46139f1565b5b6148f189828a01613e37565b92505060a087013567ffffffffffffffff811115614912576149116139f1565b5b61491e89828a01613e37565b9150509295509295509295565b61493481613b79565b811461493f57600080fd5b50565b6000813590506149518161492b565b92915050565b6000806040838503121561496e5761496d6139ec565b5b600061497c85828601613a3f565b925050602061498d85828601614942565b9150509250929050565b6000806000606084860312156149b0576149af6139ec565b5b60006149be86828701613a3f565b935050602084013567ffffffffffffffff8111156149df576149de6139f1565b5b6149eb86828701613e37565b92505060406149fc86828701613a75565b9150509250925092565b60008060408385031215614a1d57614a1c6139ec565b5b6000614a2b85828601613a3f565b9250506020614a3c85828601613a3f565b9150509250929050565b600080600080600060a08688031215614a6257614a616139ec565b5b6000614a7088828901613a3f565b9550506020614a8188828901613a3f565b9450506040614a9288828901613a75565b9350506060614aa388828901613a75565b925050608086013567ffffffffffffffff811115614ac457614ac36139f1565b5b614ad08882890161400b565b9150509295509295909350565b600080600060608486031215614af657614af56139ec565b5b6000614b0486828701613a3f565b9350506020614b1586828701613a75565b9250506040614b2686828701613a75565b9150509250925092565b7f455243313135353a2061646472657373207a65726f206973206e6f742061207660008201527f616c6964206f776e657200000000000000000000000000000000000000000000602082015250565b6000614b8c602a83613c6d565b9150614b9782614b30565b604082019050919050565b60006020820190508181036000830152614bbb81614b7f565b9050919050565b7f4e487b7100000000000000000000000000000000000000000000000000000000600052602260045260246000fd5b60006002820490506001821680614c0957607f821691505b602082108103614c1c57614c1b614bc2565b5b50919050565b7f455243313135353a2063616c6c6572206973206e6f7420746f6b656e206f776e60008201527f6572206f7220617070726f766564000000000000000000000000000000000000602082015250565b6000614c7e602e83613c6d565b9150614c8982614c22565b604082019050919050565b60006020820190508181036000830152614cad81614c71565b9050919050565b7f416363657373436f6e74726f6c3a2063616e206f6e6c792072656e6f756e636560008201527f20726f6c657320666f722073656c660000000000000000000000000000000000602082015250565b6000614d10602f83613c6d565b9150614d1b82614cb4565b604082019050919050565b60006020820190508181036000830152614d3f81614d03565b9050919050565b7f455243313135353a206163636f756e747320616e6420696473206c656e67746860008201527f206d69736d617463680000000000000000000000000000000000000000000000602082015250565b6000614da2602983613c6d565b9150614dad82614d46565b604082019050919050565b60006020820190508181036000830152614dd181614d95565b9050919050565b7f4e487b7100000000000000000000000000000000000000000000000000000000600052603260045260246000fd5b7f4e487b7100000000000000000000000000000000000000000000000000000000600052601160045260246000fd5b6000614e4182613a54565b91507fffffffffffffffffffffffffffffffffffffffffffffffffffffffffffffffff8203614e7357614e72614e07565b5b600182019050919050565b60008190508160005260206000209050919050565b60006020601f8301049050919050565b600082821b905092915050565b600060088302614ee07fffffffffffffffffffffffffffffffffffffffffffffffffffffffffffffffff82614ea3565b614eea8683614ea3565b95508019841693508086168417925050509392505050565b6000819050919050565b6000614f27614f22614f1d84613a54565b614f02565b613a54565b9050919050565b6000819050919050565b614f4183614f0c565b614f55614f4d82614f2e565b848454614eb0565b825550505050565b600090565b614f6a614f5d565b614f75818484614f38565b505050565b5b81811015614f9957614f8e600082614f62565b600181019050614f7b565b5050565b601f821115614fde57614faf81614e7e565b614fb884614e93565b81016020851015614fc7578190505b614fdb614fd385614e93565b830182614f7a565b50505b505050565b600082821c905092915050565b600061500160001984600802614fe3565b1980831691505092915050565b600061501a8383614ff0565b9150826002028217905092915050565b61503382613c62565b67ffffffffffffffff81111561504c5761504b613d3a565b5b6150568254614bf1565b615061828285614f9d565b600060209050601f8311600181146150945760008415615082578287015190505b61508c858261500e565b8655506150f4565b601f1984166150a286614e7e565b60005b828110156150ca578489015182556001820191506020850194506020810190506150a5565b868310156150e757848901516150e3601f891682614ff0565b8355505b6001600288020188555050505b505050505050565b7f455243313135353a206d696e7420746f20746865207a65726f2061646472657360008201527f7300000000000000000000000000000000000000000000000000000000000000602082015250565b6000615158602183613c6d565b9150615163826150fc565b604082019050919050565b600060208201905081810360008301526151878161514b565b9050919050565b7f455243313135353a2069647320616e6420616d6f756e7473206c656e6774682060008201527f6d69736d61746368000000000000000000000000000000000000000000000000602082015250565b60006151ea602883613c6d565b91506151f58261518e565b604082019050919050565b60006020820190508181036000830152615219816151dd565b9050919050565b600061522b82613a54565b915061523683613a54565b925082820190508082111561524e5761524d614e07565b5b92915050565b6000604082019050818103600083015261526e81856144b6565b9050818103602083015261528281846144b6565b90509392505050565b7f455243313135353a207472616e7366657220746f20746865207a65726f20616460008201527f6472657373000000000000000000000000000000000000000000000000000000602082015250565b60006152e7602583613c6d565b91506152f28261528b565b604082019050919050565b60006020820190508181036000830152615316816152da565b9050919050565b7f455243313135353a20696e73756666696369656e742062616c616e636520666f60008201527f72207472616e7366657200000000000000000000000000000000000000000000602082015250565b6000615379602a83613c6d565b91506153848261531d565b604082019050919050565b600060208201905081810360008301526153a88161536c565b9050919050565b60006020820190506153c46000830184613bdc565b92915050565b7f455243313135353a206275726e2066726f6d20746865207a65726f206164647260008201527f6573730000000000000000000000000000000000000000000000000000000000602082015250565b6000615426602383613c6d565b9150615431826153ca565b604082019050919050565b6000602082019050818103600083015261545581615419565b9050919050565b7f455243313135353a206275726e20616d6f756e7420657863656564732062616c60008201527f616e636500000000000000000000000000000000000000000000000000000000602082015250565b60006154b8602483613c6d565b91506154c38261545c565b604082019050919050565b600060208201905081810360008301526154e7816154ab565b9050919050565b60006040820190506155036000830185613aca565b6155106020830184613aca565b9392505050565b7f455243313135353a2073657474696e6720617070726f76616c2073746174757360008201527f20666f722073656c660000000000000000000000000000000000000000000000602082015250565b6000615573602983613c6d565b915061557e82615517565b604082019050919050565b600060208201905081810360008301526155a281615566565b9050919050565b600081905092915050565b7f416363657373436f6e74726f6c3a206163636f756e7420000000000000000000600082015250565b60006155ea6017836155a9565b91506155f5826155b4565b601782019050919050565b600061560b82613c62565b61561581856155a9565b9350615625818560208601613c7e565b80840191505092915050565b7f206973206d697373696e6720726f6c6520000000000000000000000000000000600082015250565b60006156676011836155a9565b915061567282615631565b601182019050919050565b6000615688826155dd565b91506156948285615600565b915061569f8261565a565b91506156ab8284615600565b91508190509392505050565b600081519050919050565b600082825260208201905092915050565b60006156de826156b7565b6156e881856156c2565b93506156f8818560208601613c7e565b61570181613ca8565b840191505092915050565b600060a0820190506157216000830188613bdc565b61572e6020830187613bdc565b818103604083015261574081866144b6565b9050818103606083015261575481856144b6565b9050818103608083015261576881846156d3565b90509695505050505050565b60008151905061578381613b20565b92915050565b60006020828403121561579f5761579e6139ec565b5b60006157ad84828501615774565b91505092915050565b60008160e01c9050919050565b600060033d11156157e25760046000803e6157df6000516157b6565b90505b90565b600060443d10615872576157f76139e2565b60043d036004823e80513d602482011167ffffffffffffffff8211171561581f575050615872565b808201805167ffffffffffffffff81111561583d5750505050615872565b80602083010160043d03850181111561585a575050505050615872565b61586982602001850186613d69565b82955050505050505b90565b7f455243313135353a207472616e7366657220746f206e6f6e2d4552433131353560008201527f526563656976657220696d706c656d656e746572000000000000000000000000602082015250565b60006158d1603483613c6d565b91506158dc82615875565b604082019050919050565b60006020820190508181036000830152615900816158c4565b9050919050565b7f455243313135353a204552433131353552656365697665722072656a6563746560008201527f6420746f6b656e73000000000000000000000000000000000000000000000000602082015250565b6000615963602883613c6d565b915061596e82615907565b604082019050919050565b6000602082019050818103600083015261599281615956565b9050919050565b7f5061757361626c653a206e6f7420706175736564000000000000000000000000600082015250565b60006159cf601483613c6d565b91506159da82615999565b602082019050919050565b600060208201905081810360008301526159fe816159c2565b9050919050565b600060a082019050615a1a6000830188613bdc565b615a276020830187613bdc565b615a346040830186613aca565b615a416060830185613aca565b8181036080830152615a5381846156d3565b90509695505050505050565b7f5061757361626c653a2070617573656400000000000000000000000000000000600082015250565b6000615a95601083613c6d565b9150615aa082615a5f565b602082019050919050565b60006020820190508181036000830152615ac481615a88565b9050919050565b6000615ad682613a54565b9150615ae183613a54565b9250828202615aef81613a54565b91508282048414831517615b0657615b05614e07565b5b5092915050565b6000615b1882613a54565b915060008203615b2b57615b2a614e07565b5b600182039050919050565b7f537472696e67733a20686578206c656e67746820696e73756666696369656e74600082015250565b6000615b6c602083613c6d565b9150615b7782615b36565b602082019050919050565b60006020820190508181036000830152615b9b81615b5f565b9050919050565b7f455243313135353a206275726e20616d6f756e74206578636565647320746f7460008201527f616c537570706c79000000000000000000000000000000000000000000000000602082015250565b6000615bfe602883613c6d565b9150615c0982615ba2565b604082019050919050565b60006020820190508181036000830152615c2d81615bf1565b905091905056fea26469706673582212207aad1a22e5369c4c55fa348ca616402db915b49aff35fdaeabb20b09fd8d053c64736f6c63430008110033",
  "immutableReferences": {},
  "source": "\npragma solidity ^0.8.4;\n// SPDX-License-Identifier: MIT\n\nimport \"@openzeppelin/contracts/token/ERC1155/ERC1155.sol\";\nimport \"@openzeppelin/contracts/access/AccessControl.sol\";\nimport \"@openzeppelin/contracts/security/Pausable.sol\";\nimport \"@openzeppelin/contracts/token/ERC1155/extensions/ERC1155Burnable.sol\";\nimport \"@openzeppelin/contracts/token/ERC1155/extensions/ERC1155Supply.sol\";\n\n\ncontract FpoAggregatorEcosys is ERC1155, AccessControl, Pausable, ERC1155Burnable, ERC1155Supply {\n   \n    enum AgriItemStatus {REGISTERED,FUNDED,BOUGHT,DELIVERING_LOCAL,DELIVERING_INTERNATIONAL }\n    enum RoleType { FPO,FARMER,CERTIFIFYING_ORG,BANK,INSURER,BUYER}\n    //enum ProduceType { RICE,BEANS,WHEAT,REDCHLLIS,A2COWMILK,SPICES}\n\n    bytes32 public constant URI_SETTER_ROLE = keccak256(\"URI_SETTER_ROLE\");\n    bytes32 public constant PAUSER_ROLE = keccak256(\"PAUSER_ROLE\");\n    bytes32 public constant MINTER_ROLE = keccak256(\"MINTER_ROLE\");\n\n    constructor() ERC1155(\"\") {\n        _grantRole(DEFAULT_ADMIN_ROLE, msg.sender);\n        _grantRole(URI_SETTER_ROLE, msg.sender);\n        _grantRole(PAUSER_ROLE, msg.sender);\n        _grantRole(MINTER_ROLE, msg.sender);\n    }\n\n\n    mapping (uint => AgriItem) public agriItems;\n    \n    \n    mapping (uint => RoleEntity) public registeredFPOs;\n    mapping (uint => RoleEntity) public registeredBanks;\n    mapping (uint => RoleEntity) public registeredInsurers;\n    mapping (uint => RoleEntity) public registeredCorpBuyer;\n\n    struct AgriItem {\n\n        address id;\n        //ProduceType itemtype;\n        string itemtype; // tomato/rice etc\n        RoleEntity fpo;\n        RoleEntity farmer;\n        RoleEntity certificate;\n        AgriItemStatus status;\n        RoleEntity buyer;\n        string quantity;\n        string harvestDate;\n        string locLatitude;\n        string locaLongitude;\n\n    }\n    struct RoleEntity {\n        address id;\n        RoleType role;\n        string name;\n        \n    }\n    event NewAgriItemAdded( address indexed itemId , string produceType , string quantity);\n    event NewServiceProviderOnboarded( uint indexed spid, address indexed spaddress , string roleType , string name);\n\n\n    function addAgriItem (address _id, string memory _produceType, uint256  _quantity,string memory _harvestdate, string memory _locLati, \n        string memory _locLongi) public\n    {\n                uint itemId=0;\n               //  itemId= agriItems[msg.sender].length +1;\n\n       // AgriItem memory agriItem = AgriItem(itemId,_id,_produceType, \"fpo\",\"farmer\",\"certOrg\",\"status\",\"buyer\",_quantity,_harvestdate,_locLati,_locLongi);\n        //agriItems.push(itemId,agriItem);\n         _mint(_id, 1, _quantity, \"some notes\");// mint to _id, itemtype-1\n\n       // emit NewAgriItemAdded(itemId, _produceType, _id, _quantity);\n        \n    }\n\n//  function addProduct(Types.FPOProduct memory product, address myAccount)\n//         internal\n//     {\n//         require(myAccount != address(0));\n//         require(users[myAccount].role == Types.UserRole.Fpo, \" Either is not FPO or he is not registered\");\n\n//         fpoProducts[myAccount] = product; \n// //        emit NewFpoProduct(product);\n//     }\n\n\n\n        function buyAgriItem (address _id, string memory _produceType, uint256 _quantity) public\n    {\n                \n        //super._safeTransferFrom( msg.sender, msg.sender, _produceType, _quantity,\"some notes\");\n        //emit TransferSingle;\n        \n    }\n\n    function unmarshalRole (string memory _roletype) private pure returns (RoleEntity memory roleentity) {\n\n        bytes32 encodedMode = keccak256(abi.encodePacked(_roletype));\n        bytes32 FPOROLE = keccak256(abi.encodePacked(\"FPO\"));\n        bytes32 BUYERROLE = keccak256(abi.encodePacked(\"BUYER\"));\n        bytes32 CERTIFIERROLE = keccak256(abi.encodePacked(\"CERTIFIFYING_ORG\"));\n        bytes32 BANKROLE = keccak256(abi.encodePacked(\"BANK\"));\n        bytes32 INSURERROLE = keccak256(abi.encodePacked(\"INSURER\"));\n\n\n            // if(encodedMode == FPOROLE) {\n            //     return RoleType.FPO;\n            // } else if(encodedMode == BUYERROLE) {\n            //     return RoleType.BUYER;\n            // }\n\n            revert (\" invalid role type\");\n    }\n\n    function addEcoSysPrividers ( address _id, string memory _roletype, string memory name) public {\n\n        // RoleType roleType =unmarshalRole(_roletype);\n        // RoleEntity memory serviceProvider = RoleEntity(_id,roleType,name);\n       \n        // bytes32 encodedMode = keccak256(abi.encodePacked(_roletype));\n        // bytes32 FPOROLE = keccak256(abi.encodePacked(\"FPO\"));\n        // bytes32 BUYERROLE = keccak256(abi.encodePacked(\"BUYER\"));\n   \n        // uint spId=0;\n\n        //     if(serviceProvider.RoleType == FPOROLE) {\n        //         spId=registeredFPOs.length+1;\n        //         registeredFPOs.push(serviceProvider);\n        //     } else if(encodedMode == BUYERROLE) {\n        //         spId=registeredCorpBuyer.length+1;\n        //         registeredCorpBuyer.push(serviceProvider);\n        //     }\n\n        // emit NewServiceProviderOnboarded(spId,_id,_roletype,name);\n    }\n    \n\n    function setURI(string memory newuri) public onlyRole(URI_SETTER_ROLE) {\n        _setURI(newuri);\n    }\n\n    function pause() public onlyRole(PAUSER_ROLE) {\n        _pause();\n    }\n\n    function unpause() public onlyRole(PAUSER_ROLE) {\n        _unpause();\n    }\n\n    function mint(address account, uint256 id, uint256 quantity, bytes memory data)\n        public\n        onlyRole(MINTER_ROLE)\n    {\n        _mint(account, id, quantity, data);\n    }\n\n    function mintBatch(address to, uint256[] memory ids, uint256[] memory quantity, bytes memory data)\n        public\n        onlyRole(MINTER_ROLE)\n    {\n        _mintBatch(to, ids, quantity, data);\n    }\n\n    function _beforeTokenTransfer(address operator, address from, address to, uint256[] memory ids, uint256[] memory quantity, bytes memory data)\n        internal\n        whenNotPaused\n        override(ERC1155, ERC1155Supply)\n    {\n        super._beforeTokenTransfer(operator, from, to, ids, quantity, data);\n    }\n\n    // The following functions are overrides required by Solidity.\n\n    function supportsInterface(bytes4 interfaceId)\n        public\n        view\n        override(ERC1155, AccessControl)\n        returns (bool)\n    {\n        return super.supportsInterface(interfaceId);\n    }\n}\n    \n\n",
  "sourcePath": "/Users/nkpaladugu/Library/CloudStorage/OneDrive-Personal/Tech/IIITH/Capstone/fpochain/web/contracts/FpoAggregatorEcosys.sol",
  "compiler": {
    "name": "solc",
    "version": "0.8.17+commit.8df45f5f.Emscripten.clang"
  },
  "schemaVersion": "3.4.10",
  "updatedAt": "2022-09-25T07:45:20.893Z",
  "devdoc": {
    "kind": "dev",
    "methods": {
      "balanceOf(address,uint256)": {
        "details": "See {IERC1155-balanceOf}. Requirements: - `account` cannot be the zero address."
      },
      "balanceOfBatch(address[],uint256[])": {
        "details": "See {IERC1155-balanceOfBatch}. Requirements: - `accounts` and `ids` must have the same length."
      },
      "exists(uint256)": {
        "details": "Indicates whether any token exist with a given id, or not."
      },
      "getRoleAdmin(bytes32)": {
        "details": "Returns the admin role that controls `role`. See {grantRole} and {revokeRole}. To change a role's admin, use {_setRoleAdmin}."
      },
      "grantRole(bytes32,address)": {
        "details": "Grants `role` to `account`. If `account` had not been already granted `role`, emits a {RoleGranted} event. Requirements: - the caller must have ``role``'s admin role. May emit a {RoleGranted} event."
      },
      "hasRole(bytes32,address)": {
        "details": "Returns `true` if `account` has been granted `role`."
      },
      "isApprovedForAll(address,address)": {
        "details": "See {IERC1155-isApprovedForAll}."
      },
      "paused()": {
        "details": "Returns true if the contract is paused, and false otherwise."
      },
      "renounceRole(bytes32,address)": {
        "details": "Revokes `role` from the calling account. Roles are often managed via {grantRole} and {revokeRole}: this function's purpose is to provide a mechanism for accounts to lose their privileges if they are compromised (such as when a trusted device is misplaced). If the calling account had been revoked `role`, emits a {RoleRevoked} event. Requirements: - the caller must be `account`. May emit a {RoleRevoked} event."
      },
      "revokeRole(bytes32,address)": {
        "details": "Revokes `role` from `account`. If `account` had been granted `role`, emits a {RoleRevoked} event. Requirements: - the caller must have ``role``'s admin role. May emit a {RoleRevoked} event."
      },
      "safeBatchTransferFrom(address,address,uint256[],uint256[],bytes)": {
        "details": "See {IERC1155-safeBatchTransferFrom}."
      },
      "safeTransferFrom(address,address,uint256,uint256,bytes)": {
        "details": "See {IERC1155-safeTransferFrom}."
      },
      "setApprovalForAll(address,bool)": {
        "details": "See {IERC1155-setApprovalForAll}."
      },
      "totalSupply(uint256)": {
        "details": "Total amount of tokens in with a given id."
      },
      "uri(uint256)": {
        "details": "See {IERC1155MetadataURI-uri}. This implementation returns the same URI for *all* token types. It relies on the token type ID substitution mechanism https://eips.ethereum.org/EIPS/eip-1155#metadata[defined in the EIP]. Clients calling this function must replace the `\\{id\\}` substring with the actual token type ID."
      }
    },
    "version": 1
  },
  "userdoc": {
    "kind": "user",
    "methods": {},
    "version": 1
  }
}