{
  "contractName": "FpoAggregatorEcosys",
  "abi": [
    {
      "inputs": [],
      "stateMutability": "nonpayable",
      "type": "constructor"
    },
    {
      "anonymous": false,
      "inputs": [
        {
          "indexed": true,
          "internalType": "address",
          "name": "account",
          "type": "address"
        },
        {
          "indexed": true,
          "internalType": "address",
          "name": "operator",
          "type": "address"
        },
        {
          "indexed": false,
          "internalType": "bool",
          "name": "approved",
          "type": "bool"
        }
      ],
      "name": "ApprovalForAll",
      "type": "event"
    },
    {
      "anonymous": false,
      "inputs": [
        {
          "indexed": true,
          "internalType": "address",
          "name": "itemId",
          "type": "address"
        },
        {
          "indexed": false,
          "internalType": "string",
          "name": "produceType",
          "type": "string"
        },
        {
          "indexed": false,
          "internalType": "string",
          "name": "quantity",
          "type": "string"
        }
      ],
      "name": "NewAgriItemAdded",
      "type": "event"
    },
    {
      "anonymous": false,
      "inputs": [
        {
          "indexed": true,
          "internalType": "uint256",
          "name": "spid",
          "type": "uint256"
        },
        {
          "indexed": true,
          "internalType": "address",
          "name": "spaddress",
          "type": "address"
        },
        {
          "indexed": false,
          "internalType": "string",
          "name": "roleType",
          "type": "string"
        },
        {
          "indexed": false,
          "internalType": "string",
          "name": "name",
          "type": "string"
        }
      ],
      "name": "NewServiceProviderOnboarded",
      "type": "event"
    },
    {
      "anonymous": false,
      "inputs": [
        {
          "indexed": false,
          "internalType": "address",
          "name": "account",
          "type": "address"
        }
      ],
      "name": "Paused",
      "type": "event"
    },
    {
      "anonymous": false,
      "inputs": [
        {
          "indexed": true,
          "internalType": "bytes32",
          "name": "role",
          "type": "bytes32"
        },
        {
          "indexed": true,
          "internalType": "bytes32",
          "name": "previousAdminRole",
          "type": "bytes32"
        },
        {
          "indexed": true,
          "internalType": "bytes32",
          "name": "newAdminRole",
          "type": "bytes32"
        }
      ],
      "name": "RoleAdminChanged",
      "type": "event"
    },
    {
      "anonymous": false,
      "inputs": [
        {
          "indexed": true,
          "internalType": "bytes32",
          "name": "role",
          "type": "bytes32"
        },
        {
          "indexed": true,
          "internalType": "address",
          "name": "account",
          "type": "address"
        },
        {
          "indexed": true,
          "internalType": "address",
          "name": "sender",
          "type": "address"
        }
      ],
      "name": "RoleGranted",
      "type": "event"
    },
    {
      "anonymous": false,
      "inputs": [
        {
          "indexed": true,
          "internalType": "bytes32",
          "name": "role",
          "type": "bytes32"
        },
        {
          "indexed": true,
          "internalType": "address",
          "name": "account",
          "type": "address"
        },
        {
          "indexed": true,
          "internalType": "address",
          "name": "sender",
          "type": "address"
        }
      ],
      "name": "RoleRevoked",
      "type": "event"
    },
    {
      "anonymous": false,
      "inputs": [
        {
          "indexed": true,
          "internalType": "address",
          "name": "operator",
          "type": "address"
        },
        {
          "indexed": true,
          "internalType": "address",
          "name": "from",
          "type": "address"
        },
        {
          "indexed": true,
          "internalType": "address",
          "name": "to",
          "type": "address"
        },
        {
          "indexed": false,
          "internalType": "uint256[]",
          "name": "ids",
          "type": "uint256[]"
        },
        {
          "indexed": false,
          "internalType": "uint256[]",
          "name": "values",
          "type": "uint256[]"
        }
      ],
      "name": "TransferBatch",
      "type": "event"
    },
    {
      "anonymous": false,
      "inputs": [
        {
          "indexed": true,
          "internalType": "address",
          "name": "operator",
          "type": "address"
        },
        {
          "indexed": true,
          "internalType": "address",
          "name": "from",
          "type": "address"
        },
        {
          "indexed": true,
          "internalType": "address",
          "name": "to",
          "type": "address"
        },
        {
          "indexed": false,
          "internalType": "uint256",
          "name": "id",
          "type": "uint256"
        },
        {
          "indexed": false,
          "internalType": "uint256",
          "name": "value",
          "type": "uint256"
        }
      ],
      "name": "TransferSingle",
      "type": "event"
    },
    {
      "anonymous": false,
      "inputs": [
        {
          "indexed": false,
          "internalType": "string",
          "name": "value",
          "type": "string"
        },
        {
          "indexed": true,
          "internalType": "uint256",
          "name": "id",
          "type": "uint256"
        }
      ],
      "name": "URI",
      "type": "event"
    },
    {
      "anonymous": false,
      "inputs": [
        {
          "indexed": false,
          "internalType": "address",
          "name": "account",
          "type": "address"
        }
      ],
      "name": "Unpaused",
      "type": "event"
    },
    {
      "inputs": [],
      "name": "DEFAULT_ADMIN_ROLE",
      "outputs": [
        {
          "internalType": "bytes32",
          "name": "",
          "type": "bytes32"
        }
      ],
      "stateMutability": "view",
      "type": "function"
    },
    {
      "inputs": [],
      "name": "MINTER_ROLE",
      "outputs": [
        {
          "internalType": "bytes32",
          "name": "",
          "type": "bytes32"
        }
      ],
      "stateMutability": "view",
      "type": "function"
    },
    {
      "inputs": [],
      "name": "PAUSER_ROLE",
      "outputs": [
        {
          "internalType": "bytes32",
          "name": "",
          "type": "bytes32"
        }
      ],
      "stateMutability": "view",
      "type": "function"
    },
    {
      "inputs": [],
      "name": "URI_SETTER_ROLE",
      "outputs": [
        {
          "internalType": "bytes32",
          "name": "",
          "type": "bytes32"
        }
      ],
      "stateMutability": "view",
      "type": "function"
    },
    {
      "inputs": [
        {
          "internalType": "uint256",
          "name": "",
          "type": "uint256"
        }
      ],
      "name": "agriItems",
      "outputs": [
        {
          "internalType": "address",
          "name": "id",
          "type": "address"
        },
        {
          "internalType": "string",
          "name": "itemtype",
          "type": "string"
        },
        {
          "components": [
            {
              "internalType": "address",
              "name": "id",
              "type": "address"
            },
            {
              "internalType": "enum FpoAggregatorEcosys.RoleType",
              "name": "role",
              "type": "uint8"
            },
            {
              "internalType": "string",
              "name": "name",
              "type": "string"
            }
          ],
          "internalType": "struct FpoAggregatorEcosys.RoleEntity",
          "name": "fpo",
          "type": "tuple"
        },
        {
          "components": [
            {
              "internalType": "address",
              "name": "id",
              "type": "address"
            },
            {
              "internalType": "enum FpoAggregatorEcosys.RoleType",
              "name": "role",
              "type": "uint8"
            },
            {
              "internalType": "string",
              "name": "name",
              "type": "string"
            }
          ],
          "internalType": "struct FpoAggregatorEcosys.RoleEntity",
          "name": "farmer",
          "type": "tuple"
        },
        {
          "components": [
            {
              "internalType": "address",
              "name": "id",
              "type": "address"
            },
            {
              "internalType": "enum FpoAggregatorEcosys.RoleType",
              "name": "role",
              "type": "uint8"
            },
            {
              "internalType": "string",
              "name": "name",
              "type": "string"
            }
          ],
          "internalType": "struct FpoAggregatorEcosys.RoleEntity",
          "name": "certificate",
          "type": "tuple"
        },
        {
          "internalType": "enum FpoAggregatorEcosys.AgriItemStatus",
          "name": "status",
          "type": "uint8"
        },
        {
          "components": [
            {
              "internalType": "address",
              "name": "id",
              "type": "address"
            },
            {
              "internalType": "enum FpoAggregatorEcosys.RoleType",
              "name": "role",
              "type": "uint8"
            },
            {
              "internalType": "string",
              "name": "name",
              "type": "string"
            }
          ],
          "internalType": "struct FpoAggregatorEcosys.RoleEntity",
          "name": "buyer",
          "type": "tuple"
        },
        {
          "internalType": "string",
          "name": "quantity",
          "type": "string"
        },
        {
          "internalType": "string",
          "name": "harvestDate",
          "type": "string"
        },
        {
          "internalType": "string",
          "name": "locLatitude",
          "type": "string"
        },
        {
          "internalType": "string",
          "name": "locaLongitude",
          "type": "string"
        }
      ],
      "stateMutability": "view",
      "type": "function"
    },
    {
      "inputs": [
        {
          "internalType": "address",
          "name": "account",
          "type": "address"
        },
        {
          "internalType": "uint256",
          "name": "id",
          "type": "uint256"
        }
      ],
      "name": "balanceOf",
      "outputs": [
        {
          "internalType": "uint256",
          "name": "",
          "type": "uint256"
        }
      ],
      "stateMutability": "view",
      "type": "function"
    },
    {
      "inputs": [
        {
          "internalType": "address[]",
          "name": "accounts",
          "type": "address[]"
        },
        {
          "internalType": "uint256[]",
          "name": "ids",
          "type": "uint256[]"
        }
      ],
      "name": "balanceOfBatch",
      "outputs": [
        {
          "internalType": "uint256[]",
          "name": "",
          "type": "uint256[]"
        }
      ],
      "stateMutability": "view",
      "type": "function"
    },
    {
      "inputs": [
        {
          "internalType": "address",
          "name": "account",
          "type": "address"
        },
        {
          "internalType": "uint256",
          "name": "id",
          "type": "uint256"
        },
        {
          "internalType": "uint256",
          "name": "value",
          "type": "uint256"
        }
      ],
      "name": "burn",
      "outputs": [],
      "stateMutability": "nonpayable",
      "type": "function"
    },
    {
      "inputs": [
        {
          "internalType": "address",
          "name": "account",
          "type": "address"
        },
        {
          "internalType": "uint256[]",
          "name": "ids",
          "type": "uint256[]"
        },
        {
          "internalType": "uint256[]",
          "name": "values",
          "type": "uint256[]"
        }
      ],
      "name": "burnBatch",
      "outputs": [],
      "stateMutability": "nonpayable",
      "type": "function"
    },
    {
      "inputs": [
        {
          "internalType": "uint256",
          "name": "id",
          "type": "uint256"
        }
      ],
      "name": "exists",
      "outputs": [
        {
          "internalType": "bool",
          "name": "",
          "type": "bool"
        }
      ],
      "stateMutability": "view",
      "type": "function"
    },
    {
      "inputs": [
        {
          "internalType": "bytes32",
          "name": "role",
          "type": "bytes32"
        }
      ],
      "name": "getRoleAdmin",
      "outputs": [
        {
          "internalType": "bytes32",
          "name": "",
          "type": "bytes32"
        }
      ],
      "stateMutability": "view",
      "type": "function"
    },
    {
      "inputs": [
        {
          "internalType": "bytes32",
          "name": "role",
          "type": "bytes32"
        },
        {
          "internalType": "address",
          "name": "account",
          "type": "address"
        }
      ],
      "name": "grantRole",
      "outputs": [],
      "stateMutability": "nonpayable",
      "type": "function"
    },
    {
      "inputs": [
        {
          "internalType": "bytes32",
          "name": "role",
          "type": "bytes32"
        },
        {
          "internalType": "address",
          "name": "account",
          "type": "address"
        }
      ],
      "name": "hasRole",
      "outputs": [
        {
          "internalType": "bool",
          "name": "",
          "type": "bool"
        }
      ],
      "stateMutability": "view",
      "type": "function"
    },
    {
      "inputs": [
        {
          "internalType": "address",
          "name": "account",
          "type": "address"
        },
        {
          "internalType": "address",
          "name": "operator",
          "type": "address"
        }
      ],
      "name": "isApprovedForAll",
      "outputs": [
        {
          "internalType": "bool",
          "name": "",
          "type": "bool"
        }
      ],
      "stateMutability": "view",
      "type": "function"
    },
    {
      "inputs": [],
      "name": "paused",
      "outputs": [
        {
          "internalType": "bool",
          "name": "",
          "type": "bool"
        }
      ],
      "stateMutability": "view",
      "type": "function"
    },
    {
      "inputs": [
        {
          "internalType": "uint256",
          "name": "",
          "type": "uint256"
        }
      ],
      "name": "registeredBanks",
      "outputs": [
        {
          "internalType": "address",
          "name": "id",
          "type": "address"
        },
        {
          "internalType": "enum FpoAggregatorEcosys.RoleType",
          "name": "role",
          "type": "uint8"
        },
        {
          "internalType": "string",
          "name": "name",
          "type": "string"
        }
      ],
      "stateMutability": "view",
      "type": "function"
    },
    {
      "inputs": [
        {
          "internalType": "uint256",
          "name": "",
          "type": "uint256"
        }
      ],
      "name": "registeredCorpBuyer",
      "outputs": [
        {
          "internalType": "address",
          "name": "id",
          "type": "address"
        },
        {
          "internalType": "enum FpoAggregatorEcosys.RoleType",
          "name": "role",
          "type": "uint8"
        },
        {
          "internalType": "string",
          "name": "name",
          "type": "string"
        }
      ],
      "stateMutability": "view",
      "type": "function"
    },
    {
      "inputs": [
        {
          "internalType": "uint256",
          "name": "",
          "type": "uint256"
        }
      ],
      "name": "registeredFPOs",
      "outputs": [
        {
          "internalType": "address",
          "name": "id",
          "type": "address"
        },
        {
          "internalType": "enum FpoAggregatorEcosys.RoleType",
          "name": "role",
          "type": "uint8"
        },
        {
          "internalType": "string",
          "name": "name",
          "type": "string"
        }
      ],
      "stateMutability": "view",
      "type": "function"
    },
    {
      "inputs": [
        {
          "internalType": "uint256",
          "name": "",
          "type": "uint256"
        }
      ],
      "name": "registeredInsurers",
      "outputs": [
        {
          "internalType": "address",
          "name": "id",
          "type": "address"
        },
        {
          "internalType": "enum FpoAggregatorEcosys.RoleType",
          "name": "role",
          "type": "uint8"
        },
        {
          "internalType": "string",
          "name": "name",
          "type": "string"
        }
      ],
      "stateMutability": "view",
      "type": "function"
    },
    {
      "inputs": [
        {
          "internalType": "bytes32",
          "name": "role",
          "type": "bytes32"
        },
        {
          "internalType": "address",
          "name": "account",
          "type": "address"
        }
      ],
      "name": "renounceRole",
      "outputs": [],
      "stateMutability": "nonpayable",
      "type": "function"
    },
    {
      "inputs": [
        {
          "internalType": "bytes32",
          "name": "role",
          "type": "bytes32"
        },
        {
          "internalType": "address",
          "name": "account",
          "type": "address"
        }
      ],
      "name": "revokeRole",
      "outputs": [],
      "stateMutability": "nonpayable",
      "type": "function"
    },
    {
      "inputs": [
        {
          "internalType": "address",
          "name": "from",
          "type": "address"
        },
        {
          "internalType": "address",
          "name": "to",
          "type": "address"
        },
        {
          "internalType": "uint256[]",
          "name": "ids",
          "type": "uint256[]"
        },
        {
          "internalType": "uint256[]",
          "name": "amounts",
          "type": "uint256[]"
        },
        {
          "internalType": "bytes",
          "name": "data",
          "type": "bytes"
        }
      ],
      "name": "safeBatchTransferFrom",
      "outputs": [],
      "stateMutability": "nonpayable",
      "type": "function"
    },
    {
      "inputs": [
        {
          "internalType": "address",
          "name": "from",
          "type": "address"
        },
        {
          "internalType": "address",
          "name": "to",
          "type": "address"
        },
        {
          "internalType": "uint256",
          "name": "id",
          "type": "uint256"
        },
        {
          "internalType": "uint256",
          "name": "amount",
          "type": "uint256"
        },
        {
          "internalType": "bytes",
          "name": "data",
          "type": "bytes"
        }
      ],
      "name": "safeTransferFrom",
      "outputs": [],
      "stateMutability": "nonpayable",
      "type": "function"
    },
    {
      "inputs": [
        {
          "internalType": "address",
          "name": "operator",
          "type": "address"
        },
        {
          "internalType": "bool",
          "name": "approved",
          "type": "bool"
        }
      ],
      "name": "setApprovalForAll",
      "outputs": [],
      "stateMutability": "nonpayable",
      "type": "function"
    },
    {
      "inputs": [
        {
          "internalType": "uint256",
          "name": "id",
          "type": "uint256"
        }
      ],
      "name": "totalSupply",
      "outputs": [
        {
          "internalType": "uint256",
          "name": "",
          "type": "uint256"
        }
      ],
      "stateMutability": "view",
      "type": "function"
    },
    {
      "inputs": [
        {
          "internalType": "uint256",
          "name": "",
          "type": "uint256"
        }
      ],
      "name": "uri",
      "outputs": [
        {
          "internalType": "string",
          "name": "",
          "type": "string"
        }
      ],
      "stateMutability": "view",
      "type": "function"
    },
    {
      "inputs": [
        {
          "internalType": "address",
          "name": "_id",
          "type": "address"
        },
        {
          "internalType": "string",
          "name": "_produceType",
          "type": "string"
        },
        {
          "internalType": "uint256",
          "name": "_quantity",
          "type": "uint256"
        },
        {
          "internalType": "string",
          "name": "_harvestdate",
          "type": "string"
        },
        {
          "internalType": "string",
          "name": "_locLati",
          "type": "string"
        },
        {
          "internalType": "string",
          "name": "_locLongi",
          "type": "string"
        }
      ],
      "name": "addAgriItem",
      "outputs": [],
      "stateMutability": "nonpayable",
      "type": "function"
    },
    {
      "inputs": [
        {
          "internalType": "address",
          "name": "_id",
          "type": "address"
        },
        {
          "internalType": "string",
          "name": "_produceType",
          "type": "string"
        },
        {
          "internalType": "uint256",
          "name": "_quantity",
          "type": "uint256"
        }
      ],
      "name": "buyAgriItem",
      "outputs": [],
      "stateMutability": "nonpayable",
      "type": "function"
    },
    {
      "inputs": [
        {
          "internalType": "string",
          "name": "newuri",
          "type": "string"
        }
      ],
      "name": "setURI",
      "outputs": [],
      "stateMutability": "nonpayable",
      "type": "function"
    },
    {
      "inputs": [],
      "name": "pause",
      "outputs": [],
      "stateMutability": "nonpayable",
      "type": "function"
    },
    {
      "inputs": [],
      "name": "unpause",
      "outputs": [],
      "stateMutability": "nonpayable",
      "type": "function"
    },
    {
      "inputs": [
        {
          "internalType": "address",
          "name": "account",
          "type": "address"
        },
        {
          "internalType": "uint256",
          "name": "id",
          "type": "uint256"
        },
        {
          "internalType": "uint256",
          "name": "quantity",
          "type": "uint256"
        },
        {
          "internalType": "bytes",
          "name": "data",
          "type": "bytes"
        }
      ],
      "name": "mint",
      "outputs": [],
      "stateMutability": "nonpayable",
      "type": "function"
    },
    {
      "inputs": [
        {
          "internalType": "address",
          "name": "to",
          "type": "address"
        },
        {
          "internalType": "uint256[]",
          "name": "ids",
          "type": "uint256[]"
        },
        {
          "internalType": "uint256[]",
          "name": "quantity",
          "type": "uint256[]"
        },
        {
          "internalType": "bytes",
          "name": "data",
          "type": "bytes"
        }
      ],
      "name": "mintBatch",
      "outputs": [],
      "stateMutability": "nonpayable",
      "type": "function"
    },
    {
      "inputs": [
        {
          "internalType": "bytes4",
          "name": "interfaceId",
          "type": "bytes4"
        }
      ],
      "name": "supportsInterface",
      "outputs": [
        {
          "internalType": "bool",
          "name": "",
          "type": "bool"
        }
      ],
      "stateMutability": "view",
      "type": "function"
    }
  ],
  "bytecode": "0x60806040523480156200001157600080fd5b506040518060200160405280600081525062000033816200010060201b60201c565b506000600460006101000a81548160ff021916908315150217905550620000646000801b336200011560201b60201c565b620000967f7804d923f43a17d325d77e781528e0793b2edd9890ab45fc64efd7b4b427744c336200011560201b60201c565b620000c87f65d7a28e3265b37a6474929f336521b332c1681b933f6cb9f3376673440d862a336200011560201b60201c565b620000fa7f9f2df0fed2c77648de5860a4cc508cd0818c85b8b8a1ab4ceeef8d981c8956a6336200011560201b60201c565b620005db565b8060029081620001119190620004f4565b5050565b6200012782826200020760201b60201c565b620002035760016003600084815260200190815260200160002060000160008373ffffffffffffffffffffffffffffffffffffffff1673ffffffffffffffffffffffffffffffffffffffff16815260200190815260200160002060006101000a81548160ff021916908315150217905550620001a86200027260201b60201c565b73ffffffffffffffffffffffffffffffffffffffff168173ffffffffffffffffffffffffffffffffffffffff16837f2f8788117e7eff1d82e926ec794901d17c78024a50270940304540a733656f0d60405160405180910390a45b5050565b60006003600084815260200190815260200160002060000160008373ffffffffffffffffffffffffffffffffffffffff1673ffffffffffffffffffffffffffffffffffffffff16815260200190815260200160002060009054906101000a900460ff16905092915050565b600033905090565b600081519050919050565b7f4e487b7100000000000000000000000000000000000000000000000000000000600052604160045260246000fd5b7f4e487b7100000000000000000000000000000000000000000000000000000000600052602260045260246000fd5b60006002820490506001821680620002fc57607f821691505b602082108103620003125762000311620002b4565b5b50919050565b60008190508160005260206000209050919050565b60006020601f8301049050919050565b600082821b905092915050565b6000600883026200037c7fffffffffffffffffffffffffffffffffffffffffffffffffffffffffffffffff826200033d565b6200038886836200033d565b95508019841693508086168417925050509392505050565b6000819050919050565b6000819050919050565b6000620003d5620003cf620003c984620003a0565b620003aa565b620003a0565b9050919050565b6000819050919050565b620003f183620003b4565b620004096200040082620003dc565b8484546200034a565b825550505050565b600090565b6200042062000411565b6200042d818484620003e6565b505050565b5b8181101562000455576200044960008262000416565b60018101905062000433565b5050565b601f821115620004a4576200046e8162000318565b62000479846200032d565b8101602085101562000489578190505b620004a162000498856200032d565b83018262000432565b50505b505050565b600082821c905092915050565b6000620004c960001984600802620004a9565b1980831691505092915050565b6000620004e48383620004b6565b9150826002028217905092915050565b620004ff826200027a565b67ffffffffffffffff8111156200051b576200051a62000285565b5b620005278254620002e3565b6200053482828562000459565b600060209050601f8311600181146200056c576000841562000557578287015190505b620005638582620004d6565b865550620005d3565b601f1984166200057c8662000318565b60005b82811015620005a6578489015182556001820191506020850194506020810190506200057f565b86831015620005c65784890151620005c2601f891682620004b6565b8355505b6001600288020188555050505b505050505050565b615bf680620005eb6000396000f3fe608060405234801561001057600080fd5b50600436106102055760003560e01c8063731133e91161011a578063bd85b039116100ad578063db893f3c1161007c578063db893f3c1461061a578063e63ab1e91461064c578063e985e9c51461066a578063f242432a1461069a578063f5298aca146106b657610205565b8063bd85b03914610594578063d5391393146105c4578063d547741f146105e2578063da3808bf146105fe57610205565b80639ea03ce7116100e95780639ea03ce71461050c578063a217fddf14610528578063a22cb46514610546578063b8f3c1491461056257610205565b8063731133e9146104985780637f345710146104b45780638456cb59146104d257806391d14854146104dc57610205565b80632f2ff15d1161019d5780634f558e791161016c5780634f558e79146103c2578063526cbdb9146103f25780635c0444371461042c5780635c975abb1461045e5780636b20c4541461047c57610205565b80632f2ff15d1461035057806336568abe1461036c5780633f4ba83a146103885780634e1273f41461039257610205565b80630e89341c116101d95780630e89341c146102b85780631f7fdffa146102e8578063248a9ca3146103045780632eb2c2d61461033457610205565b8062fdd58e1461020a57806301ffc9a71461023a5780630229d9ba1461026a57806302fe53051461029c575b600080fd5b610224600480360381019061021f9190613aa1565b6106d2565b6040516102319190613af0565b60405180910390f35b610254600480360381019061024f9190613b63565b61079a565b6040516102619190613bab565b60405180910390f35b610284600480360381019061027f9190613bc6565b6107ac565b60405161029393929190613d09565b60405180910390f35b6102b660048036038101906102b19190613e7c565b61088b565b005b6102d260048036038101906102cd9190613bc6565b6108c2565b6040516102df9190613ec5565b60405180910390f35b61030260048036038101906102fd9190614050565b610956565b005b61031e60048036038101906103199190614141565b610993565b60405161032b919061417d565b60405180910390f35b61034e60048036038101906103499190614198565b6109b3565b005b61036a60048036038101906103659190614267565b610a54565b005b61038660048036038101906103819190614267565b610a75565b005b610390610af8565b005b6103ac60048036038101906103a7919061436a565b610b2d565b6040516103b991906144a0565b60405180910390f35b6103dc60048036038101906103d79190613bc6565b610c46565b6040516103e99190613bab565b60405180910390f35b61040c60048036038101906104079190613bc6565b610c5a565b6040516104239b9a999897969594939291906145c2565b60405180910390f35b61044660048036038101906104419190613bc6565b61143d565b60405161045593929190613d09565b60405180910390f35b61046661151c565b6040516104739190613bab565b60405180910390f35b610496600480360381019061049191906146ac565b611533565b005b6104b260048036038101906104ad9190614737565b6115d0565b005b6104bc61160d565b6040516104c9919061417d565b60405180910390f35b6104da611631565b005b6104f660048036038101906104f19190614267565b611666565b6040516105039190613bab565b60405180910390f35b610526600480360381019061052191906147ba565b6116d1565b005b61053061171e565b60405161053d919061417d565b60405180910390f35b610560600480360381019061055b91906148e3565b611725565b005b61057c60048036038101906105779190613bc6565b61173b565b60405161058b93929190613d09565b60405180910390f35b6105ae60048036038101906105a99190613bc6565b61181a565b6040516105bb9190613af0565b60405180910390f35b6105cc611837565b6040516105d9919061417d565b60405180910390f35b6105fc60048036038101906105f79190614267565b61185b565b005b61061860048036038101906106139190614923565b61187c565b005b610634600480360381019061062f9190613bc6565b6118c4565b60405161064393929190613d09565b60405180910390f35b6106546119a3565b604051610661919061417d565b60405180910390f35b610684600480360381019061067f9190614992565b6119c7565b6040516106919190613bab565b60405180910390f35b6106b460048036038101906106af91906149d2565b611a5b565b005b6106d060048036038101906106cb9190614a69565b611afc565b005b60008073ffffffffffffffffffffffffffffffffffffffff168373ffffffffffffffffffffffffffffffffffffffff1603610742576040517f08c379a000000000000000000000000000000000000000000000000000000000815260040161073990614b2e565b60405180910390fd5b60008083815260200190815260200160002060008473ffffffffffffffffffffffffffffffffffffffff1673ffffffffffffffffffffffffffffffffffffffff16815260200190815260200160002054905092915050565b60006107a582611b99565b9050919050565b600a6020528060005260406000206000915090508060000160009054906101000a900473ffffffffffffffffffffffffffffffffffffffff16908060000160149054906101000a900460ff169080600101805461080890614b7d565b80601f016020809104026020016040519081016040528092919081815260200182805461083490614b7d565b80156108815780601f1061085657610100808354040283529160200191610881565b820191906000526020600020905b81548152906001019060200180831161086457829003601f168201915b5050505050905083565b7f7804d923f43a17d325d77e781528e0793b2edd9890ab45fc64efd7b4b427744c6108b581611c13565b6108be82611c27565b5050565b6060600280546108d190614b7d565b80601f01602080910402602001604051908101604052809291908181526020018280546108fd90614b7d565b801561094a5780601f1061091f5761010080835404028352916020019161094a565b820191906000526020600020905b81548152906001019060200180831161092d57829003601f168201915b50505050509050919050565b7f9f2df0fed2c77648de5860a4cc508cd0818c85b8b8a1ab4ceeef8d981c8956a661098081611c13565b61098c85858585611c3a565b5050505050565b600060036000838152602001908152602001600020600101549050919050565b6109bb611e66565b73ffffffffffffffffffffffffffffffffffffffff168573ffffffffffffffffffffffffffffffffffffffff161480610a015750610a00856109fb611e66565b6119c7565b5b610a40576040517f08c379a0000000000000000000000000000000000000000000000000000000008152600401610a3790614c20565b60405180910390fd5b610a4d8585858585611e6e565b5050505050565b610a5d82610993565b610a6681611c13565b610a70838361218f565b505050565b610a7d611e66565b73ffffffffffffffffffffffffffffffffffffffff168173ffffffffffffffffffffffffffffffffffffffff1614610aea576040517f08c379a0000000000000000000000000000000000000000000000000000000008152600401610ae190614cb2565b60405180910390fd5b610af48282612270565b5050565b7f65d7a28e3265b37a6474929f336521b332c1681b933f6cb9f3376673440d862a610b2281611c13565b610b2a612352565b50565b60608151835114610b73576040517f08c379a0000000000000000000000000000000000000000000000000000000008152600401610b6a90614d44565b60405180910390fd5b6000835167ffffffffffffffff811115610b9057610b8f613d51565b5b604051908082528060200260200182016040528015610bbe5781602001602082028036833780820191505090505b50905060005b8451811015610c3b57610c0b858281518110610be357610be2614d64565b5b6020026020010151858381518110610bfe57610bfd614d64565b5b60200260200101516106d2565b828281518110610c1e57610c1d614d64565b5b60200260200101818152505080610c3490614dc2565b9050610bc4565b508091505092915050565b600080610c528361181a565b119050919050565b60066020528060005260406000206000915090508060000160009054906101000a900473ffffffffffffffffffffffffffffffffffffffff1690806001018054610ca390614b7d565b80601f0160208091040260200160405190810160405280929190818152602001828054610ccf90614b7d565b8015610d1c5780601f10610cf157610100808354040283529160200191610d1c565b820191906000526020600020905b815481529060010190602001808311610cff57829003601f168201915b505050505090806002016040518060600160405290816000820160009054906101000a900473ffffffffffffffffffffffffffffffffffffffff1673ffffffffffffffffffffffffffffffffffffffff1673ffffffffffffffffffffffffffffffffffffffff1681526020016000820160149054906101000a900460ff166005811115610dac57610dab613c02565b5b6005811115610dbe57610dbd613c02565b5b8152602001600182018054610dd290614b7d565b80601f0160208091040260200160405190810160405280929190818152602001828054610dfe90614b7d565b8015610e4b5780601f10610e2057610100808354040283529160200191610e4b565b820191906000526020600020905b815481529060010190602001808311610e2e57829003601f168201915b50505050508152505090806004016040518060600160405290816000820160009054906101000a900473ffffffffffffffffffffffffffffffffffffffff1673ffffffffffffffffffffffffffffffffffffffff1673ffffffffffffffffffffffffffffffffffffffff1681526020016000820160149054906101000a900460ff166005811115610edf57610ede613c02565b5b6005811115610ef157610ef0613c02565b5b8152602001600182018054610f0590614b7d565b80601f0160208091040260200160405190810160405280929190818152602001828054610f3190614b7d565b8015610f7e5780601f10610f5357610100808354040283529160200191610f7e565b820191906000526020600020905b815481529060010190602001808311610f6157829003601f168201915b50505050508152505090806006016040518060600160405290816000820160009054906101000a900473ffffffffffffffffffffffffffffffffffffffff1673ffffffffffffffffffffffffffffffffffffffff1673ffffffffffffffffffffffffffffffffffffffff1681526020016000820160149054906101000a900460ff16600581111561101257611011613c02565b5b600581111561102457611023613c02565b5b815260200160018201805461103890614b7d565b80601f016020809104026020016040519081016040528092919081815260200182805461106490614b7d565b80156110b15780601f10611086576101008083540402835291602001916110b1565b820191906000526020600020905b81548152906001019060200180831161109457829003601f168201915b505050505081525050908060080160009054906101000a900460ff1690806009016040518060600160405290816000820160009054906101000a900473ffffffffffffffffffffffffffffffffffffffff1673ffffffffffffffffffffffffffffffffffffffff1673ffffffffffffffffffffffffffffffffffffffff1681526020016000820160149054906101000a900460ff16600581111561115857611157613c02565b5b600581111561116a57611169613c02565b5b815260200160018201805461117e90614b7d565b80601f01602080910402602001604051908101604052809291908181526020018280546111aa90614b7d565b80156111f75780601f106111cc576101008083540402835291602001916111f7565b820191906000526020600020905b8154815290600101906020018083116111da57829003601f168201915b5050505050815250509080600b01805461121090614b7d565b80601f016020809104026020016040519081016040528092919081815260200182805461123c90614b7d565b80156112895780601f1061125e57610100808354040283529160200191611289565b820191906000526020600020905b81548152906001019060200180831161126c57829003601f168201915b50505050509080600c01805461129e90614b7d565b80601f01602080910402602001604051908101604052809291908181526020018280546112ca90614b7d565b80156113175780601f106112ec57610100808354040283529160200191611317565b820191906000526020600020905b8154815290600101906020018083116112fa57829003601f168201915b50505050509080600d01805461132c90614b7d565b80601f016020809104026020016040519081016040528092919081815260200182805461135890614b7d565b80156113a55780601f1061137a576101008083540402835291602001916113a5565b820191906000526020600020905b81548152906001019060200180831161138857829003601f168201915b50505050509080600e0180546113ba90614b7d565b80601f01602080910402602001604051908101604052809291908181526020018280546113e690614b7d565b80156114335780601f1061140857610100808354040283529160200191611433565b820191906000526020600020905b81548152906001019060200180831161141657829003601f168201915b505050505090508b565b60096020528060005260406000206000915090508060000160009054906101000a900473ffffffffffffffffffffffffffffffffffffffff16908060000160149054906101000a900460ff169080600101805461149990614b7d565b80601f01602080910402602001604051908101604052809291908181526020018280546114c590614b7d565b80156115125780601f106114e757610100808354040283529160200191611512565b820191906000526020600020905b8154815290600101906020018083116114f557829003601f168201915b5050505050905083565b6000600460009054906101000a900460ff16905090565b61153b611e66565b73ffffffffffffffffffffffffffffffffffffffff168373ffffffffffffffffffffffffffffffffffffffff16148061158157506115808361157b611e66565b6119c7565b5b6115c0576040517f08c379a00000000000000000000000000000000000000000000000000000000081526004016115b790614c20565b60405180910390fd5b6115cb8383836123b5565b505050565b7f9f2df0fed2c77648de5860a4cc508cd0818c85b8b8a1ab4ceeef8d981c8956a66115fa81611c13565b61160685858585612683565b5050505050565b7f7804d923f43a17d325d77e781528e0793b2edd9890ab45fc64efd7b4b427744c81565b7f65d7a28e3265b37a6474929f336521b332c1681b933f6cb9f3376673440d862a61165b81611c13565b611663612833565b50565b60006003600084815260200190815260200160002060000160008373ffffffffffffffffffffffffffffffffffffffff1673ffffffffffffffffffffffffffffffffffffffff16815260200190815260200160002060009054906101000a900460ff16905092915050565b6000611715876001876040518060400160405280600a81526020017f736f6d65206e6f74657300000000000000000000000000000000000000000000815250612683565b50505050505050565b6000801b81565b611737611730611e66565b8383612896565b5050565b60086020528060005260406000206000915090508060000160009054906101000a900473ffffffffffffffffffffffffffffffffffffffff16908060000160149054906101000a900460ff169080600101805461179790614b7d565b80601f01602080910402602001604051908101604052809291908181526020018280546117c390614b7d565b80156118105780601f106117e557610100808354040283529160200191611810565b820191906000526020600020905b8154815290600101906020018083116117f357829003601f168201915b5050505050905083565b600060056000838152602001908152602001600020549050919050565b7f9f2df0fed2c77648de5860a4cc508cd0818c85b8b8a1ab4ceeef8d981c8956a681565b61186482610993565b61186d81611c13565b6118778383612270565b505050565b6118bf33336001846040518060400160405280600a81526020017f736f6d65206e6f74657300000000000000000000000000000000000000000000815250612a02565b505050565b60076020528060005260406000206000915090508060000160009054906101000a900473ffffffffffffffffffffffffffffffffffffffff16908060000160149054906101000a900460ff169080600101805461192090614b7d565b80601f016020809104026020016040519081016040528092919081815260200182805461194c90614b7d565b80156119995780601f1061196e57610100808354040283529160200191611999565b820191906000526020600020905b81548152906001019060200180831161197c57829003601f168201915b5050505050905083565b7f65d7a28e3265b37a6474929f336521b332c1681b933f6cb9f3376673440d862a81565b6000600160008473ffffffffffffffffffffffffffffffffffffffff1673ffffffffffffffffffffffffffffffffffffffff16815260200190815260200160002060008373ffffffffffffffffffffffffffffffffffffffff1673ffffffffffffffffffffffffffffffffffffffff16815260200190815260200160002060009054906101000a900460ff16905092915050565b611a63611e66565b73ffffffffffffffffffffffffffffffffffffffff168573ffffffffffffffffffffffffffffffffffffffff161480611aa95750611aa885611aa3611e66565b6119c7565b5b611ae8576040517f08c379a0000000000000000000000000000000000000000000000000000000008152600401611adf90614c20565b60405180910390fd5b611af58585858585612a02565b5050505050565b611b04611e66565b73ffffffffffffffffffffffffffffffffffffffff168373ffffffffffffffffffffffffffffffffffffffff161480611b4a5750611b4983611b44611e66565b6119c7565b5b611b89576040517f08c379a0000000000000000000000000000000000000000000000000000000008152600401611b8090614c20565b60405180910390fd5b611b94838383612c9d565b505050565b60007f7965db0b000000000000000000000000000000000000000000000000000000007bffffffffffffffffffffffffffffffffffffffffffffffffffffffff1916827bffffffffffffffffffffffffffffffffffffffffffffffffffffffff19161480611c0c5750611c0b82612ee3565b5b9050919050565b611c2481611c1f611e66565b612fc5565b50565b8060029081611c369190614fb6565b5050565b600073ffffffffffffffffffffffffffffffffffffffff168473ffffffffffffffffffffffffffffffffffffffff1603611ca9576040517f08c379a0000000000000000000000000000000000000000000000000000000008152600401611ca0906150fa565b60405180910390fd5b8151835114611ced576040517f08c379a0000000000000000000000000000000000000000000000000000000008152600401611ce49061518c565b60405180910390fd5b6000611cf7611e66565b9050611d088160008787878761304a565b60005b8451811015611dc157838181518110611d2757611d26614d64565b5b6020026020010151600080878481518110611d4557611d44614d64565b5b6020026020010151815260200190815260200160002060008873ffffffffffffffffffffffffffffffffffffffff1673ffffffffffffffffffffffffffffffffffffffff1681526020019081526020016000206000828254611da791906151ac565b925050819055508080611db990614dc2565b915050611d0b565b508473ffffffffffffffffffffffffffffffffffffffff16600073ffffffffffffffffffffffffffffffffffffffff168273ffffffffffffffffffffffffffffffffffffffff167f4a39dc06d4c0dbc64b70af90fd698a233a518aa5d07e595d983b8c0526c8f7fb8787604051611e399291906151e0565b60405180910390a4611e5081600087878787613068565b611e5f81600087878787613070565b5050505050565b600033905090565b8151835114611eb2576040517f08c379a0000000000000000000000000000000000000000000000000000000008152600401611ea99061518c565b60405180910390fd5b600073ffffffffffffffffffffffffffffffffffffffff168473ffffffffffffffffffffffffffffffffffffffff1603611f21576040517f08c379a0000000000000000000000000000000000000000000000000000000008152600401611f1890615289565b60405180910390fd5b6000611f2b611e66565b9050611f3b81878787878761304a565b60005b84518110156120ec576000858281518110611f5c57611f5b614d64565b5b602002602001015190506000858381518110611f7b57611f7a614d64565b5b60200260200101519050600080600084815260200190815260200160002060008b73ffffffffffffffffffffffffffffffffffffffff1673ffffffffffffffffffffffffffffffffffffffff1681526020019081526020016000205490508181101561201c576040517f08c379a00000000000000000000000000000000000000000000000000000000081526004016120139061531b565b60405180910390fd5b81810360008085815260200190815260200160002060008c73ffffffffffffffffffffffffffffffffffffffff1673ffffffffffffffffffffffffffffffffffffffff168152602001908152602001600020819055508160008085815260200190815260200160002060008b73ffffffffffffffffffffffffffffffffffffffff1673ffffffffffffffffffffffffffffffffffffffff16815260200190815260200160002060008282546120d191906151ac565b92505081905550505050806120e590614dc2565b9050611f3e565b508473ffffffffffffffffffffffffffffffffffffffff168673ffffffffffffffffffffffffffffffffffffffff168273ffffffffffffffffffffffffffffffffffffffff167f4a39dc06d4c0dbc64b70af90fd698a233a518aa5d07e595d983b8c0526c8f7fb87876040516121639291906151e0565b60405180910390a4612179818787878787613068565b612187818787878787613070565b505050505050565b6121998282611666565b61226c5760016003600084815260200190815260200160002060000160008373ffffffffffffffffffffffffffffffffffffffff1673ffffffffffffffffffffffffffffffffffffffff16815260200190815260200160002060006101000a81548160ff021916908315150217905550612211611e66565b73ffffffffffffffffffffffffffffffffffffffff168173ffffffffffffffffffffffffffffffffffffffff16837f2f8788117e7eff1d82e926ec794901d17c78024a50270940304540a733656f0d60405160405180910390a45b5050565b61227a8282611666565b1561234e5760006003600084815260200190815260200160002060000160008373ffffffffffffffffffffffffffffffffffffffff1673ffffffffffffffffffffffffffffffffffffffff16815260200190815260200160002060006101000a81548160ff0219169083151502179055506122f3611e66565b73ffffffffffffffffffffffffffffffffffffffff168173ffffffffffffffffffffffffffffffffffffffff16837ff6391f5c32d9c69d2a47ea670b442974b53935d1edc7fd64eb21e047a839171b60405160405180910390a45b5050565b61235a613247565b6000600460006101000a81548160ff0219169083151502179055507f5db9ee0a495bf2e6ff9c91a7834c1ba4fdd244a5e8aa4e537bd38aeae4b073aa61239e611e66565b6040516123ab919061533b565b60405180910390a1565b600073ffffffffffffffffffffffffffffffffffffffff168373ffffffffffffffffffffffffffffffffffffffff1603612424576040517f08c379a000000000000000000000000000000000000000000000000000000000815260040161241b906153c8565b60405180910390fd5b8051825114612468576040517f08c379a000000000000000000000000000000000000000000000000000000000815260040161245f9061518c565b60405180910390fd5b6000612472611e66565b90506124928185600086866040518060200160405280600081525061304a565b60005b83518110156125df5760008482815181106124b3576124b2614d64565b5b6020026020010151905060008483815181106124d2576124d1614d64565b5b60200260200101519050600080600084815260200190815260200160002060008973ffffffffffffffffffffffffffffffffffffffff1673ffffffffffffffffffffffffffffffffffffffff16815260200190815260200160002054905081811015612573576040517f08c379a000000000000000000000000000000000000000000000000000000000815260040161256a9061545a565b60405180910390fd5b81810360008085815260200190815260200160002060008a73ffffffffffffffffffffffffffffffffffffffff1673ffffffffffffffffffffffffffffffffffffffff1681526020019081526020016000208190555050505080806125d790614dc2565b915050612495565b50600073ffffffffffffffffffffffffffffffffffffffff168473ffffffffffffffffffffffffffffffffffffffff168273ffffffffffffffffffffffffffffffffffffffff167f4a39dc06d4c0dbc64b70af90fd698a233a518aa5d07e595d983b8c0526c8f7fb86866040516126579291906151e0565b60405180910390a461267d81856000868660405180602001604052806000815250613068565b50505050565b600073ffffffffffffffffffffffffffffffffffffffff168473ffffffffffffffffffffffffffffffffffffffff16036126f2576040517f08c379a00000000000000000000000000000000000000000000000000000000081526004016126e9906150fa565b60405180910390fd5b60006126fc611e66565b9050600061270985613290565b9050600061271685613290565b90506127278360008985858961304a565b8460008088815260200190815260200160002060008973ffffffffffffffffffffffffffffffffffffffff1673ffffffffffffffffffffffffffffffffffffffff168152602001908152602001600020600082825461278691906151ac565b925050819055508673ffffffffffffffffffffffffffffffffffffffff16600073ffffffffffffffffffffffffffffffffffffffff168473ffffffffffffffffffffffffffffffffffffffff167fc3d58168c5ae7397731d063d5bbf3d657854427343f4c083240f7aacaa2d0f62898960405161280492919061547a565b60405180910390a461281b83600089858589613068565b61282a8360008989898961330a565b50505050505050565b61283b6134e1565b6001600460006101000a81548160ff0219169083151502179055507f62e78cea01bee320cd4e420270b5ea74000d11b0c9f74754ebdbfc544b05a25861287f611e66565b60405161288c919061533b565b60405180910390a1565b8173ffffffffffffffffffffffffffffffffffffffff168373ffffffffffffffffffffffffffffffffffffffff1603612904576040517f08c379a00000000000000000000000000000000000000000000000000000000081526004016128fb90615515565b60405180910390fd5b80600160008573ffffffffffffffffffffffffffffffffffffffff1673ffffffffffffffffffffffffffffffffffffffff16815260200190815260200160002060008473ffffffffffffffffffffffffffffffffffffffff1673ffffffffffffffffffffffffffffffffffffffff16815260200190815260200160002060006101000a81548160ff0219169083151502179055508173ffffffffffffffffffffffffffffffffffffffff168373ffffffffffffffffffffffffffffffffffffffff167f17307eab39ab6107e8899845ad3d59bd9653f200f220920489ca2b5937696c31836040516129f59190613bab565b60405180910390a3505050565b600073ffffffffffffffffffffffffffffffffffffffff168473ffffffffffffffffffffffffffffffffffffffff1603612a71576040517f08c379a0000000000000000000000000000000000000000000000000000000008152600401612a6890615289565b60405180910390fd5b6000612a7b611e66565b90506000612a8885613290565b90506000612a9585613290565b9050612aa583898985858961304a565b600080600088815260200190815260200160002060008a73ffffffffffffffffffffffffffffffffffffffff1673ffffffffffffffffffffffffffffffffffffffff16815260200190815260200160002054905085811015612b3c576040517f08c379a0000000000000000000000000000000000000000000000000000000008152600401612b339061531b565b60405180910390fd5b85810360008089815260200190815260200160002060008b73ffffffffffffffffffffffffffffffffffffffff1673ffffffffffffffffffffffffffffffffffffffff168152602001908152602001600020819055508560008089815260200190815260200160002060008a73ffffffffffffffffffffffffffffffffffffffff1673ffffffffffffffffffffffffffffffffffffffff1681526020019081526020016000206000828254612bf191906151ac565b925050819055508773ffffffffffffffffffffffffffffffffffffffff168973ffffffffffffffffffffffffffffffffffffffff168573ffffffffffffffffffffffffffffffffffffffff167fc3d58168c5ae7397731d063d5bbf3d657854427343f4c083240f7aacaa2d0f628a8a604051612c6e92919061547a565b60405180910390a4612c84848a8a86868a613068565b612c92848a8a8a8a8a61330a565b505050505050505050565b600073ffffffffffffffffffffffffffffffffffffffff168373ffffffffffffffffffffffffffffffffffffffff1603612d0c576040517f08c379a0000000000000000000000000000000000000000000000000000000008152600401612d03906153c8565b60405180910390fd5b6000612d16611e66565b90506000612d2384613290565b90506000612d3084613290565b9050612d508387600085856040518060200160405280600081525061304a565b600080600087815260200190815260200160002060008873ffffffffffffffffffffffffffffffffffffffff1673ffffffffffffffffffffffffffffffffffffffff16815260200190815260200160002054905084811015612de7576040517f08c379a0000000000000000000000000000000000000000000000000000000008152600401612dde9061545a565b60405180910390fd5b84810360008088815260200190815260200160002060008973ffffffffffffffffffffffffffffffffffffffff1673ffffffffffffffffffffffffffffffffffffffff16815260200190815260200160002081905550600073ffffffffffffffffffffffffffffffffffffffff168773ffffffffffffffffffffffffffffffffffffffff168573ffffffffffffffffffffffffffffffffffffffff167fc3d58168c5ae7397731d063d5bbf3d657854427343f4c083240f7aacaa2d0f628989604051612eb492919061547a565b60405180910390a4612eda84886000868660405180602001604052806000815250613068565b50505050505050565b60007fd9b67a26000000000000000000000000000000000000000000000000000000007bffffffffffffffffffffffffffffffffffffffffffffffffffffffff1916827bffffffffffffffffffffffffffffffffffffffffffffffffffffffff19161480612fae57507f0e89341c000000000000000000000000000000000000000000000000000000007bffffffffffffffffffffffffffffffffffffffffffffffffffffffff1916827bffffffffffffffffffffffffffffffffffffffffffffffffffffffff1916145b80612fbe5750612fbd8261352b565b5b9050919050565b612fcf8282611666565b61304657612fdc81613595565b612fea8360001c60206135c2565b604051602001612ffb929190615609565b6040516020818303038152906040526040517f08c379a000000000000000000000000000000000000000000000000000000000815260040161303d9190613ec5565b60405180910390fd5b5050565b6130526134e1565b6130608686868686866137fe565b505050505050565b505050505050565b61308f8473ffffffffffffffffffffffffffffffffffffffff166139ce565b1561323f578373ffffffffffffffffffffffffffffffffffffffff1663bc197c8187878686866040518663ffffffff1660e01b81526004016130d5959493929190615698565b6020604051808303816000875af192505050801561311157506040513d601f19601f8201168201806040525081019061310e9190615715565b60015b6131b65761311d61574f565b806308c379a0036131795750613131615771565b8061313c575061317b565b806040517f08c379a00000000000000000000000000000000000000000000000000000000081526004016131709190613ec5565b60405180910390fd5b505b6040517f08c379a00000000000000000000000000000000000000000000000000000000081526004016131ad90615873565b60405180910390fd5b63bc197c8160e01b7bffffffffffffffffffffffffffffffffffffffffffffffffffffffff1916817bffffffffffffffffffffffffffffffffffffffffffffffffffffffff19161461323d576040517f08c379a000000000000000000000000000000000000000000000000000000000815260040161323490615905565b60405180910390fd5b505b505050505050565b61324f61151c565b61328e576040517f08c379a000000000000000000000000000000000000000000000000000000000815260040161328590615971565b60405180910390fd5b565b60606000600167ffffffffffffffff8111156132af576132ae613d51565b5b6040519080825280602002602001820160405280156132dd5781602001602082028036833780820191505090505b50905082816000815181106132f5576132f4614d64565b5b60200260200101818152505080915050919050565b6133298473ffffffffffffffffffffffffffffffffffffffff166139ce565b156134d9578373ffffffffffffffffffffffffffffffffffffffff1663f23a6e6187878686866040518663ffffffff1660e01b815260040161336f959493929190615991565b6020604051808303816000875af19250505080156133ab57506040513d601f19601f820116820180604052508101906133a89190615715565b60015b613450576133b761574f565b806308c379a00361341357506133cb615771565b806133d65750613415565b806040517f08c379a000000000000000000000000000000000000000000000000000000000815260040161340a9190613ec5565b60405180910390fd5b505b6040517f08c379a000000000000000000000000000000000000000000000000000000000815260040161344790615873565b60405180910390fd5b63f23a6e6160e01b7bffffffffffffffffffffffffffffffffffffffffffffffffffffffff1916817bffffffffffffffffffffffffffffffffffffffffffffffffffffffff1916146134d7576040517f08c379a00000000000000000000000000000000000000000000000000000000081526004016134ce90615905565b60405180910390fd5b505b505050505050565b6134e961151c565b15613529576040517f08c379a000000000000000000000000000000000000000000000000000000000815260040161352090615a37565b60405180910390fd5b565b60007f01ffc9a7000000000000000000000000000000000000000000000000000000007bffffffffffffffffffffffffffffffffffffffffffffffffffffffff1916827bffffffffffffffffffffffffffffffffffffffffffffffffffffffff1916149050919050565b60606135bb8273ffffffffffffffffffffffffffffffffffffffff16601460ff166135c2565b9050919050565b6060600060028360026135d59190615a57565b6135df91906151ac565b67ffffffffffffffff8111156135f8576135f7613d51565b5b6040519080825280601f01601f19166020018201604052801561362a5781602001600182028036833780820191505090505b5090507f30000000000000000000000000000000000000000000000000000000000000008160008151811061366257613661614d64565b5b60200101907effffffffffffffffffffffffffffffffffffffffffffffffffffffffffffff1916908160001a9053507f7800000000000000000000000000000000000000000000000000000000000000816001815181106136c6576136c5614d64565b5b60200101907effffffffffffffffffffffffffffffffffffffffffffffffffffffffffffff1916908160001a905350600060018460026137069190615a57565b61371091906151ac565b90505b60018111156137b0577f3031323334353637383961626364656600000000000000000000000000000000600f86166010811061375257613751614d64565b5b1a60f81b82828151811061376957613768614d64565b5b60200101907effffffffffffffffffffffffffffffffffffffffffffffffffffffffffffff1916908160001a905350600485901c9450806137a990615a99565b9050613713565b50600084146137f4576040517f08c379a00000000000000000000000000000000000000000000000000000000081526004016137eb90615b0e565b60405180910390fd5b8091505092915050565b61380c8686868686866139f1565b600073ffffffffffffffffffffffffffffffffffffffff168573ffffffffffffffffffffffffffffffffffffffff16036138bd5760005b83518110156138bb5782818151811061385f5761385e614d64565b5b60200260200101516005600086848151811061387e5761387d614d64565b5b6020026020010151815260200190815260200160002060008282546138a391906151ac565b92505081905550806138b490614dc2565b9050613843565b505b600073ffffffffffffffffffffffffffffffffffffffff168473ffffffffffffffffffffffffffffffffffffffff16036139c65760005b83518110156139c457600084828151811061391257613911614d64565b5b60200260200101519050600084838151811061393157613930614d64565b5b6020026020010151905060006005600084815260200190815260200160002054905081811015613996576040517f08c379a000000000000000000000000000000000000000000000000000000000815260040161398d90615ba0565b60405180910390fd5b8181036005600085815260200190815260200160002081905550505050806139bd90614dc2565b90506138f4565b505b505050505050565b6000808273ffffffffffffffffffffffffffffffffffffffff163b119050919050565b505050505050565b6000604051905090565b600080fd5b600080fd5b600073ffffffffffffffffffffffffffffffffffffffff82169050919050565b6000613a3882613a0d565b9050919050565b613a4881613a2d565b8114613a5357600080fd5b50565b600081359050613a6581613a3f565b92915050565b6000819050919050565b613a7e81613a6b565b8114613a8957600080fd5b50565b600081359050613a9b81613a75565b92915050565b60008060408385031215613ab857613ab7613a03565b5b6000613ac685828601613a56565b9250506020613ad785828601613a8c565b9150509250929050565b613aea81613a6b565b82525050565b6000602082019050613b056000830184613ae1565b92915050565b60007fffffffff0000000000000000000000000000000000000000000000000000000082169050919050565b613b4081613b0b565b8114613b4b57600080fd5b50565b600081359050613b5d81613b37565b92915050565b600060208284031215613b7957613b78613a03565b5b6000613b8784828501613b4e565b91505092915050565b60008115159050919050565b613ba581613b90565b82525050565b6000602082019050613bc06000830184613b9c565b92915050565b600060208284031215613bdc57613bdb613a03565b5b6000613bea84828501613a8c565b91505092915050565b613bfc81613a2d565b82525050565b7f4e487b7100000000000000000000000000000000000000000000000000000000600052602160045260246000fd5b60068110613c4257613c41613c02565b5b50565b6000819050613c5382613c31565b919050565b6000613c6382613c45565b9050919050565b613c7381613c58565b82525050565b600081519050919050565b600082825260208201905092915050565b60005b83811015613cb3578082015181840152602081019050613c98565b60008484015250505050565b6000601f19601f8301169050919050565b6000613cdb82613c79565b613ce58185613c84565b9350613cf5818560208601613c95565b613cfe81613cbf565b840191505092915050565b6000606082019050613d1e6000830186613bf3565b613d2b6020830185613c6a565b8181036040830152613d3d8184613cd0565b9050949350505050565b600080fd5b600080fd5b7f4e487b7100000000000000000000000000000000000000000000000000000000600052604160045260246000fd5b613d8982613cbf565b810181811067ffffffffffffffff82111715613da857613da7613d51565b5b80604052505050565b6000613dbb6139f9565b9050613dc78282613d80565b919050565b600067ffffffffffffffff821115613de757613de6613d51565b5b613df082613cbf565b9050602081019050919050565b82818337600083830152505050565b6000613e1f613e1a84613dcc565b613db1565b905082815260208101848484011115613e3b57613e3a613d4c565b5b613e46848285613dfd565b509392505050565b600082601f830112613e6357613e62613d47565b5b8135613e73848260208601613e0c565b91505092915050565b600060208284031215613e9257613e91613a03565b5b600082013567ffffffffffffffff811115613eb057613eaf613a08565b5b613ebc84828501613e4e565b91505092915050565b60006020820190508181036000830152613edf8184613cd0565b905092915050565b600067ffffffffffffffff821115613f0257613f01613d51565b5b602082029050602081019050919050565b600080fd5b6000613f2b613f2684613ee7565b613db1565b90508083825260208201905060208402830185811115613f4e57613f4d613f13565b5b835b81811015613f775780613f638882613a8c565b845260208401935050602081019050613f50565b5050509392505050565b600082601f830112613f9657613f95613d47565b5b8135613fa6848260208601613f18565b91505092915050565b600067ffffffffffffffff821115613fca57613fc9613d51565b5b613fd382613cbf565b9050602081019050919050565b6000613ff3613fee84613faf565b613db1565b90508281526020810184848401111561400f5761400e613d4c565b5b61401a848285613dfd565b509392505050565b600082601f83011261403757614036613d47565b5b8135614047848260208601613fe0565b91505092915050565b6000806000806080858703121561406a57614069613a03565b5b600061407887828801613a56565b945050602085013567ffffffffffffffff81111561409957614098613a08565b5b6140a587828801613f81565b935050604085013567ffffffffffffffff8111156140c6576140c5613a08565b5b6140d287828801613f81565b925050606085013567ffffffffffffffff8111156140f3576140f2613a08565b5b6140ff87828801614022565b91505092959194509250565b6000819050919050565b61411e8161410b565b811461412957600080fd5b50565b60008135905061413b81614115565b92915050565b60006020828403121561415757614156613a03565b5b60006141658482850161412c565b91505092915050565b6141778161410b565b82525050565b6000602082019050614192600083018461416e565b92915050565b600080600080600060a086880312156141b4576141b3613a03565b5b60006141c288828901613a56565b95505060206141d388828901613a56565b945050604086013567ffffffffffffffff8111156141f4576141f3613a08565b5b61420088828901613f81565b935050606086013567ffffffffffffffff81111561422157614220613a08565b5b61422d88828901613f81565b925050608086013567ffffffffffffffff81111561424e5761424d613a08565b5b61425a88828901614022565b9150509295509295909350565b6000806040838503121561427e5761427d613a03565b5b600061428c8582860161412c565b925050602061429d85828601613a56565b9150509250929050565b600067ffffffffffffffff8211156142c2576142c1613d51565b5b602082029050602081019050919050565b60006142e66142e1846142a7565b613db1565b9050808382526020820190506020840283018581111561430957614308613f13565b5b835b81811015614332578061431e8882613a56565b84526020840193505060208101905061430b565b5050509392505050565b600082601f83011261435157614350613d47565b5b81356143618482602086016142d3565b91505092915050565b6000806040838503121561438157614380613a03565b5b600083013567ffffffffffffffff81111561439f5761439e613a08565b5b6143ab8582860161433c565b925050602083013567ffffffffffffffff8111156143cc576143cb613a08565b5b6143d885828601613f81565b9150509250929050565b600081519050919050565b600082825260208201905092915050565b6000819050602082019050919050565b61441781613a6b565b82525050565b6000614429838361440e565b60208301905092915050565b6000602082019050919050565b600061444d826143e2565b61445781856143ed565b9350614462836143fe565b8060005b8381101561449357815161447a888261441d565b975061448583614435565b925050600181019050614466565b5085935050505092915050565b600060208201905081810360008301526144ba8184614442565b905092915050565b6144cb81613a2d565b82525050565b6144da81613c58565b82525050565b600082825260208201905092915050565b60006144fc82613c79565b61450681856144e0565b9350614516818560208601613c95565b61451f81613cbf565b840191505092915050565b600060608301600083015161454260008601826144c2565b50602083015161455560208601826144d1565b506040830151848203604086015261456d82826144f1565b9150508091505092915050565b6005811061458b5761458a613c02565b5b50565b600081905061459c8261457a565b919050565b60006145ac8261458e565b9050919050565b6145bc816145a1565b82525050565b6000610160820190506145d8600083018e613bf3565b81810360208301526145ea818d613cd0565b905081810360408301526145fe818c61452a565b90508181036060830152614612818b61452a565b90508181036080830152614626818a61452a565b905061463560a08301896145b3565b81810360c0830152614647818861452a565b905081810360e083015261465b8187613cd0565b90508181036101008301526146708186613cd0565b90508181036101208301526146858185613cd0565b905081810361014083015261469a8184613cd0565b90509c9b505050505050505050505050565b6000806000606084860312156146c5576146c4613a03565b5b60006146d386828701613a56565b935050602084013567ffffffffffffffff8111156146f4576146f3613a08565b5b61470086828701613f81565b925050604084013567ffffffffffffffff81111561472157614720613a08565b5b61472d86828701613f81565b9150509250925092565b6000806000806080858703121561475157614750613a03565b5b600061475f87828801613a56565b945050602061477087828801613a8c565b935050604061478187828801613a8c565b925050606085013567ffffffffffffffff8111156147a2576147a1613a08565b5b6147ae87828801614022565b91505092959194509250565b60008060008060008060c087890312156147d7576147d6613a03565b5b60006147e589828a01613a56565b965050602087013567ffffffffffffffff81111561480657614805613a08565b5b61481289828a01613e4e565b955050604061482389828a01613a8c565b945050606087013567ffffffffffffffff81111561484457614843613a08565b5b61485089828a01613e4e565b935050608087013567ffffffffffffffff81111561487157614870613a08565b5b61487d89828a01613e4e565b92505060a087013567ffffffffffffffff81111561489e5761489d613a08565b5b6148aa89828a01613e4e565b9150509295509295509295565b6148c081613b90565b81146148cb57600080fd5b50565b6000813590506148dd816148b7565b92915050565b600080604083850312156148fa576148f9613a03565b5b600061490885828601613a56565b9250506020614919858286016148ce565b9150509250929050565b60008060006060848603121561493c5761493b613a03565b5b600061494a86828701613a56565b935050602084013567ffffffffffffffff81111561496b5761496a613a08565b5b61497786828701613e4e565b925050604061498886828701613a8c565b9150509250925092565b600080604083850312156149a9576149a8613a03565b5b60006149b785828601613a56565b92505060206149c885828601613a56565b9150509250929050565b600080600080600060a086880312156149ee576149ed613a03565b5b60006149fc88828901613a56565b9550506020614a0d88828901613a56565b9450506040614a1e88828901613a8c565b9350506060614a2f88828901613a8c565b925050608086013567ffffffffffffffff811115614a5057614a4f613a08565b5b614a5c88828901614022565b9150509295509295909350565b600080600060608486031215614a8257614a81613a03565b5b6000614a9086828701613a56565b9350506020614aa186828701613a8c565b9250506040614ab286828701613a8c565b9150509250925092565b7f455243313135353a2061646472657373207a65726f206973206e6f742061207660008201527f616c6964206f776e657200000000000000000000000000000000000000000000602082015250565b6000614b18602a83613c84565b9150614b2382614abc565b604082019050919050565b60006020820190508181036000830152614b4781614b0b565b9050919050565b7f4e487b7100000000000000000000000000000000000000000000000000000000600052602260045260246000fd5b60006002820490506001821680614b9557607f821691505b602082108103614ba857614ba7614b4e565b5b50919050565b7f455243313135353a2063616c6c6572206973206e6f7420746f6b656e206f776e60008201527f6572206f7220617070726f766564000000000000000000000000000000000000602082015250565b6000614c0a602e83613c84565b9150614c1582614bae565b604082019050919050565b60006020820190508181036000830152614c3981614bfd565b9050919050565b7f416363657373436f6e74726f6c3a2063616e206f6e6c792072656e6f756e636560008201527f20726f6c657320666f722073656c660000000000000000000000000000000000602082015250565b6000614c9c602f83613c84565b9150614ca782614c40565b604082019050919050565b60006020820190508181036000830152614ccb81614c8f565b9050919050565b7f455243313135353a206163636f756e747320616e6420696473206c656e67746860008201527f206d69736d617463680000000000000000000000000000000000000000000000602082015250565b6000614d2e602983613c84565b9150614d3982614cd2565b604082019050919050565b60006020820190508181036000830152614d5d81614d21565b9050919050565b7f4e487b7100000000000000000000000000000000000000000000000000000000600052603260045260246000fd5b7f4e487b7100000000000000000000000000000000000000000000000000000000600052601160045260246000fd5b6000614dcd82613a6b565b91507fffffffffffffffffffffffffffffffffffffffffffffffffffffffffffffffff8203614dff57614dfe614d93565b5b600182019050919050565b60008190508160005260206000209050919050565b60006020601f8301049050919050565b600082821b905092915050565b600060088302614e6c7fffffffffffffffffffffffffffffffffffffffffffffffffffffffffffffffff82614e2f565b614e768683614e2f565b95508019841693508086168417925050509392505050565b6000819050919050565b6000614eb3614eae614ea984613a6b565b614e8e565b613a6b565b9050919050565b6000819050919050565b614ecd83614e98565b614ee1614ed982614eba565b848454614e3c565b825550505050565b600090565b614ef6614ee9565b614f01818484614ec4565b505050565b5b81811015614f2557614f1a600082614eee565b600181019050614f07565b5050565b601f821115614f6a57614f3b81614e0a565b614f4484614e1f565b81016020851015614f53578190505b614f67614f5f85614e1f565b830182614f06565b50505b505050565b600082821c905092915050565b6000614f8d60001984600802614f6f565b1980831691505092915050565b6000614fa68383614f7c565b9150826002028217905092915050565b614fbf82613c79565b67ffffffffffffffff811115614fd857614fd7613d51565b5b614fe28254614b7d565b614fed828285614f29565b600060209050601f831160018114615020576000841561500e578287015190505b6150188582614f9a565b865550615080565b601f19841661502e86614e0a565b60005b8281101561505657848901518255600182019150602085019450602081019050615031565b86831015615073578489015161506f601f891682614f7c565b8355505b6001600288020188555050505b505050505050565b7f455243313135353a206d696e7420746f20746865207a65726f2061646472657360008201527f7300000000000000000000000000000000000000000000000000000000000000602082015250565b60006150e4602183613c84565b91506150ef82615088565b604082019050919050565b60006020820190508181036000830152615113816150d7565b9050919050565b7f455243313135353a2069647320616e6420616d6f756e7473206c656e6774682060008201527f6d69736d61746368000000000000000000000000000000000000000000000000602082015250565b6000615176602883613c84565b91506151818261511a565b604082019050919050565b600060208201905081810360008301526151a581615169565b9050919050565b60006151b782613a6b565b91506151c283613a6b565b92508282019050808211156151da576151d9614d93565b5b92915050565b600060408201905081810360008301526151fa8185614442565b9050818103602083015261520e8184614442565b90509392505050565b7f455243313135353a207472616e7366657220746f20746865207a65726f20616460008201527f6472657373000000000000000000000000000000000000000000000000000000602082015250565b6000615273602583613c84565b915061527e82615217565b604082019050919050565b600060208201905081810360008301526152a281615266565b9050919050565b7f455243313135353a20696e73756666696369656e742062616c616e636520666f60008201527f72207472616e7366657200000000000000000000000000000000000000000000602082015250565b6000615305602a83613c84565b9150615310826152a9565b604082019050919050565b60006020820190508181036000830152615334816152f8565b9050919050565b60006020820190506153506000830184613bf3565b92915050565b7f455243313135353a206275726e2066726f6d20746865207a65726f206164647260008201527f6573730000000000000000000000000000000000000000000000000000000000602082015250565b60006153b2602383613c84565b91506153bd82615356565b604082019050919050565b600060208201905081810360008301526153e1816153a5565b9050919050565b7f455243313135353a206275726e20616d6f756e7420657863656564732062616c60008201527f616e636500000000000000000000000000000000000000000000000000000000602082015250565b6000615444602483613c84565b915061544f826153e8565b604082019050919050565b6000602082019050818103600083015261547381615437565b9050919050565b600060408201905061548f6000830185613ae1565b61549c6020830184613ae1565b9392505050565b7f455243313135353a2073657474696e6720617070726f76616c2073746174757360008201527f20666f722073656c660000000000000000000000000000000000000000000000602082015250565b60006154ff602983613c84565b915061550a826154a3565b604082019050919050565b6000602082019050818103600083015261552e816154f2565b9050919050565b600081905092915050565b7f416363657373436f6e74726f6c3a206163636f756e7420000000000000000000600082015250565b6000615576601783615535565b915061558182615540565b601782019050919050565b600061559782613c79565b6155a18185615535565b93506155b1818560208601613c95565b80840191505092915050565b7f206973206d697373696e6720726f6c6520000000000000000000000000000000600082015250565b60006155f3601183615535565b91506155fe826155bd565b601182019050919050565b600061561482615569565b9150615620828561558c565b915061562b826155e6565b9150615637828461558c565b91508190509392505050565b600081519050919050565b600082825260208201905092915050565b600061566a82615643565b615674818561564e565b9350615684818560208601613c95565b61568d81613cbf565b840191505092915050565b600060a0820190506156ad6000830188613bf3565b6156ba6020830187613bf3565b81810360408301526156cc8186614442565b905081810360608301526156e08185614442565b905081810360808301526156f4818461565f565b90509695505050505050565b60008151905061570f81613b37565b92915050565b60006020828403121561572b5761572a613a03565b5b600061573984828501615700565b91505092915050565b60008160e01c9050919050565b600060033d111561576e5760046000803e61576b600051615742565b90505b90565b600060443d106157fe576157836139f9565b60043d036004823e80513d602482011167ffffffffffffffff821117156157ab5750506157fe565b808201805167ffffffffffffffff8111156157c957505050506157fe565b80602083010160043d0385018111156157e65750505050506157fe565b6157f582602001850186613d80565b82955050505050505b90565b7f455243313135353a207472616e7366657220746f206e6f6e2d4552433131353560008201527f526563656976657220696d706c656d656e746572000000000000000000000000602082015250565b600061585d603483613c84565b915061586882615801565b604082019050919050565b6000602082019050818103600083015261588c81615850565b9050919050565b7f455243313135353a204552433131353552656365697665722072656a6563746560008201527f6420746f6b656e73000000000000000000000000000000000000000000000000602082015250565b60006158ef602883613c84565b91506158fa82615893565b604082019050919050565b6000602082019050818103600083015261591e816158e2565b9050919050565b7f5061757361626c653a206e6f7420706175736564000000000000000000000000600082015250565b600061595b601483613c84565b915061596682615925565b602082019050919050565b6000602082019050818103600083015261598a8161594e565b9050919050565b600060a0820190506159a66000830188613bf3565b6159b36020830187613bf3565b6159c06040830186613ae1565b6159cd6060830185613ae1565b81810360808301526159df818461565f565b90509695505050505050565b7f5061757361626c653a2070617573656400000000000000000000000000000000600082015250565b6000615a21601083613c84565b9150615a2c826159eb565b602082019050919050565b60006020820190508181036000830152615a5081615a14565b9050919050565b6000615a6282613a6b565b9150615a6d83613a6b565b9250828202615a7b81613a6b565b91508282048414831517615a9257615a91614d93565b5b5092915050565b6000615aa482613a6b565b915060008203615ab757615ab6614d93565b5b600182039050919050565b7f537472696e67733a20686578206c656e67746820696e73756666696369656e74600082015250565b6000615af8602083613c84565b9150615b0382615ac2565b602082019050919050565b60006020820190508181036000830152615b2781615aeb565b9050919050565b7f455243313135353a206275726e20616d6f756e74206578636565647320746f7460008201527f616c537570706c79000000000000000000000000000000000000000000000000602082015250565b6000615b8a602883613c84565b9150615b9582615b2e565b604082019050919050565b60006020820190508181036000830152615bb981615b7d565b905091905056fea264697066735822122069b161e0f79058a1d698892fadb1852d3e4457203ce1508ac772b528a6a961d864736f6c63430008110033",
  "immutableReferences": {},
  "source": "\npragma solidity ^0.8.4;\n// SPDX-License-Identifier: MIT\n\nimport \"@openzeppelin/contracts/token/ERC1155/ERC1155.sol\";\nimport \"@openzeppelin/contracts/access/AccessControl.sol\";\nimport \"@openzeppelin/contracts/security/Pausable.sol\";\nimport \"@openzeppelin/contracts/token/ERC1155/extensions/ERC1155Burnable.sol\";\nimport \"@openzeppelin/contracts/token/ERC1155/extensions/ERC1155Supply.sol\";\n\n\ncontract FpoAggregatorEcosys is ERC1155, AccessControl, Pausable, ERC1155Burnable, ERC1155Supply {\n   \n    enum AgriItemStatus {REGISTERED,FUNDED,BOUGHT,DELIVERING_LOCAL,DELIVERING_INTERNATIONAL }\n    enum RoleType { FPO,FARMER,CERTIFIFYING_ORG,BANK,INSURER,BUYER}\n    //enum ProduceType { RICE,BEANS,WHEAT,REDCHLLIS,A2COWMILK,SPICES}\n\n    bytes32 public constant URI_SETTER_ROLE = keccak256(\"URI_SETTER_ROLE\");\n    bytes32 public constant PAUSER_ROLE = keccak256(\"PAUSER_ROLE\");\n    bytes32 public constant MINTER_ROLE = keccak256(\"MINTER_ROLE\");\n\n    constructor() ERC1155(\"\") {\n        _grantRole(DEFAULT_ADMIN_ROLE, msg.sender);\n        _grantRole(URI_SETTER_ROLE, msg.sender);\n        _grantRole(PAUSER_ROLE, msg.sender);\n        _grantRole(MINTER_ROLE, msg.sender);\n    }\n\n\n    mapping (uint => AgriItem) public agriItems;\n    \n    \n    mapping (uint => RoleEntity) public registeredFPOs;\n    mapping (uint => RoleEntity) public registeredBanks;\n    mapping (uint => RoleEntity) public registeredInsurers;\n    mapping (uint => RoleEntity) public registeredCorpBuyer;\n\n    struct AgriItem {\n\n        address id;\n        //ProduceType itemtype;\n        string itemtype; // tomato/rice etc\n        RoleEntity fpo;\n        RoleEntity farmer;\n        RoleEntity certificate;\n        AgriItemStatus status;\n        RoleEntity buyer;\n        string quantity;\n        string harvestDate;\n        string locLatitude;\n        string locaLongitude;\n\n    }\n    struct RoleEntity {\n        address id;\n        RoleType role;\n        string name;\n        \n    }\n    event NewAgriItemAdded( address indexed itemId , string produceType , string quantity);\n    event NewServiceProviderOnboarded( uint indexed spid, address indexed spaddress , string roleType , string name);\n\n\n    function addAgriItem (address _id, string memory _produceType, uint256  _quantity,string memory _harvestdate, string memory _locLati, \n        string memory _locLongi) public\n    {\n                uint itemId=0;\n               //  itemId= agriItems[msg.sender].length +1;\n\n       // AgriItem memory agriItem = AgriItem(itemId,_id,_produceType, \"fpo\",\"farmer\",\"certOrg\",\"status\",\"buyer\",_quantity,_harvestdate,_locLati,_locLongi);\n        //agriItems.push(itemId,agriItem);\n         _mint(_id, 1, _quantity, \"some notes\");// mint to _id, itemtype-1\n\n       // emit NewAgriItemAdded(itemId, _produceType, _id, _quantity);\n        \n    }\n\n//  function addProduct(Types.FPOProduct memory product, address myAccount)\n//         internal\n//     {\n//         require(myAccount != address(0));\n//         require(users[myAccount].role == Types.UserRole.Fpo, \" Either is not FPO or he is not registered\");\n\n//         fpoProducts[myAccount] = product; \n// //        emit NewFpoProduct(product);\n//     }\n\n\n\n        function buyAgriItem (address _id, string memory _produceType, uint256 _quantity) public\n    {\n                \n        super._safeTransferFrom( msg.sender, msg.sender ,1,_quantity,\"some notes\");\n        //emit TransferSingle;\n        \n    }\n\n    function unmarshalRole (string memory _roletype) private pure returns (RoleEntity memory roleentity) {\n\n        bytes32 encodedMode = keccak256(abi.encodePacked(_roletype));\n        bytes32 FPOROLE = keccak256(abi.encodePacked(\"FPO\"));\n        bytes32 BUYERROLE = keccak256(abi.encodePacked(\"BUYER\"));\n        bytes32 CERTIFIERROLE = keccak256(abi.encodePacked(\"CERTIFIFYING_ORG\"));\n        bytes32 BANKROLE = keccak256(abi.encodePacked(\"BANK\"));\n        bytes32 INSURERROLE = keccak256(abi.encodePacked(\"INSURER\"));\n\n\n            // if(encodedMode == FPOROLE) {\n            //     return RoleType.FPO;\n            // } else if(encodedMode == BUYERROLE) {\n            //     return RoleType.BUYER;\n            // }\n\n            revert (\" invalid role type\");\n    }\n\n    // function addEcoSysPrividers ( address _id, string memory _roletype, string memory name) public {\n\n    //     RoleType roleType =unmarshalRole(_roletype);\n    //     RoleEntity memory serviceProvider = RoleEntity(_id,roleType,name);\n       \n    //     bytes32 encodedMode = keccak256(abi.encodePacked(_roletype));\n    //     bytes32 FPOROLE = keccak256(abi.encodePacked(\"FPO\"));\n    //     bytes32 BUYERROLE = keccak256(abi.encodePacked(\"BUYER\"));\n   \n    //     uint spId=0;\n\n    //         if(serviceProvider.RoleType == FPOROLE) {\n    //             spId=registeredFPOs.length+1;\n    //             registeredFPOs.push(serviceProvider);\n    //         } else if(encodedMode == BUYERROLE) {\n    //             spId=registeredCorpBuyer.length+1;\n    //             registeredCorpBuyer.push(serviceProvider);\n    //         }\n\n    //     emit NewServiceProviderOnboarded(spId,_id,_roletype,name);\n    // }\n    \n\n    function setURI(string memory newuri) public onlyRole(URI_SETTER_ROLE) {\n        _setURI(newuri);\n    }\n\n    function pause() public onlyRole(PAUSER_ROLE) {\n        _pause();\n    }\n\n    function unpause() public onlyRole(PAUSER_ROLE) {\n        _unpause();\n    }\n\n    function mint(address account, uint256 id, uint256 quantity, bytes memory data)\n        public\n        onlyRole(MINTER_ROLE)\n    {\n        _mint(account, id, quantity, data);\n    }\n\n    function mintBatch(address to, uint256[] memory ids, uint256[] memory quantity, bytes memory data)\n        public\n        onlyRole(MINTER_ROLE)\n    {\n        _mintBatch(to, ids, quantity, data);\n    }\n\n    function _beforeTokenTransfer(address operator, address from, address to, uint256[] memory ids, uint256[] memory quantity, bytes memory data)\n        internal\n        whenNotPaused\n        override(ERC1155, ERC1155Supply)\n    {\n        super._beforeTokenTransfer(operator, from, to, ids, quantity, data);\n    }\n\n    // The following functions are overrides required by Solidity.\n\n    function supportsInterface(bytes4 interfaceId)\n        public\n        view\n        override(ERC1155, AccessControl)\n        returns (bool)\n    {\n        return super.supportsInterface(interfaceId);\n    }\n}\n    \n\n",
  "sourcePath": "/Users/nkpaladugu/Library/CloudStorage/OneDrive-Personal/Tech/IIITH/Capstone/fpochain/web/contracts/FpoAggregatorEcosys.sol",
  "compiler": {
    "name": "solc",
    "version": "0.8.17+commit.8df45f5f.Emscripten.clang"
  },
  "schemaVersion": "3.4.10",
  "updatedAt": "2022-09-25T08:21:25.692Z",
  "devdoc": {
    "kind": "dev",
    "methods": {
      "balanceOf(address,uint256)": {
        "details": "See {IERC1155-balanceOf}. Requirements: - `account` cannot be the zero address."
      },
      "balanceOfBatch(address[],uint256[])": {
        "details": "See {IERC1155-balanceOfBatch}. Requirements: - `accounts` and `ids` must have the same length."
      },
      "exists(uint256)": {
        "details": "Indicates whether any token exist with a given id, or not."
      },
      "getRoleAdmin(bytes32)": {
        "details": "Returns the admin role that controls `role`. See {grantRole} and {revokeRole}. To change a role's admin, use {_setRoleAdmin}."
      },
      "grantRole(bytes32,address)": {
        "details": "Grants `role` to `account`. If `account` had not been already granted `role`, emits a {RoleGranted} event. Requirements: - the caller must have ``role``'s admin role. May emit a {RoleGranted} event."
      },
      "hasRole(bytes32,address)": {
        "details": "Returns `true` if `account` has been granted `role`."
      },
      "isApprovedForAll(address,address)": {
        "details": "See {IERC1155-isApprovedForAll}."
      },
      "paused()": {
        "details": "Returns true if the contract is paused, and false otherwise."
      },
      "renounceRole(bytes32,address)": {
        "details": "Revokes `role` from the calling account. Roles are often managed via {grantRole} and {revokeRole}: this function's purpose is to provide a mechanism for accounts to lose their privileges if they are compromised (such as when a trusted device is misplaced). If the calling account had been revoked `role`, emits a {RoleRevoked} event. Requirements: - the caller must be `account`. May emit a {RoleRevoked} event."
      },
      "revokeRole(bytes32,address)": {
        "details": "Revokes `role` from `account`. If `account` had been granted `role`, emits a {RoleRevoked} event. Requirements: - the caller must have ``role``'s admin role. May emit a {RoleRevoked} event."
      },
      "safeBatchTransferFrom(address,address,uint256[],uint256[],bytes)": {
        "details": "See {IERC1155-safeBatchTransferFrom}."
      },
      "safeTransferFrom(address,address,uint256,uint256,bytes)": {
        "details": "See {IERC1155-safeTransferFrom}."
      },
      "setApprovalForAll(address,bool)": {
        "details": "See {IERC1155-setApprovalForAll}."
      },
      "totalSupply(uint256)": {
        "details": "Total amount of tokens in with a given id."
      },
      "uri(uint256)": {
        "details": "See {IERC1155MetadataURI-uri}. This implementation returns the same URI for *all* token types. It relies on the token type ID substitution mechanism https://eips.ethereum.org/EIPS/eip-1155#metadata[defined in the EIP]. Clients calling this function must replace the `\\{id\\}` substring with the actual token type ID."
      }
    },
    "version": 1
  },
  "userdoc": {
    "kind": "user",
    "methods": {},
    "version": 1
  }
}