{
  "contractName": "FpoChain",
  "abi": [
    {
      "inputs": [],
      "stateMutability": "payable",
      "type": "constructor",
      "payable": true
    },
    {
      "anonymous": false,
      "inputs": [
        {
          "indexed": true,
          "internalType": "address",
          "name": "account",
          "type": "address"
        }
      ],
      "name": "DistributorAdded",
      "type": "event"
    },
    {
      "anonymous": false,
      "inputs": [
        {
          "indexed": true,
          "internalType": "address",
          "name": "account",
          "type": "address"
        }
      ],
      "name": "DistributorRemoved",
      "type": "event"
    },
    {
      "anonymous": false,
      "inputs": [
        {
          "indexed": true,
          "internalType": "address",
          "name": "account",
          "type": "address"
        }
      ],
      "name": "FarmerAdded",
      "type": "event"
    },
    {
      "anonymous": false,
      "inputs": [
        {
          "indexed": true,
          "internalType": "address",
          "name": "account",
          "type": "address"
        }
      ],
      "name": "FarmerRemoved",
      "type": "event"
    },
    {
      "anonymous": false,
      "inputs": [
        {
          "indexed": false,
          "internalType": "uint256",
          "name": "upc",
          "type": "uint256"
        }
      ],
      "name": "ForSale",
      "type": "event"
    },
    {
      "anonymous": false,
      "inputs": [
        {
          "indexed": true,
          "internalType": "address",
          "name": "account",
          "type": "address"
        }
      ],
      "name": "FpoAdded",
      "type": "event"
    },
    {
      "anonymous": false,
      "inputs": [
        {
          "indexed": true,
          "internalType": "address",
          "name": "account",
          "type": "address"
        }
      ],
      "name": "FpoRemoved",
      "type": "event"
    },
    {
      "anonymous": false,
      "inputs": [
        {
          "indexed": false,
          "internalType": "uint256",
          "name": "upc",
          "type": "uint256"
        }
      ],
      "name": "Harvested",
      "type": "event"
    },
    {
      "anonymous": false,
      "inputs": [
        {
          "indexed": false,
          "internalType": "uint256",
          "name": "upc",
          "type": "uint256"
        }
      ],
      "name": "Packed",
      "type": "event"
    },
    {
      "anonymous": false,
      "inputs": [
        {
          "indexed": false,
          "internalType": "uint256",
          "name": "upc",
          "type": "uint256"
        }
      ],
      "name": "Processed",
      "type": "event"
    },
    {
      "anonymous": false,
      "inputs": [
        {
          "indexed": false,
          "internalType": "uint256",
          "name": "upc",
          "type": "uint256"
        }
      ],
      "name": "Purchased",
      "type": "event"
    },
    {
      "anonymous": false,
      "inputs": [
        {
          "indexed": false,
          "internalType": "uint256",
          "name": "upc",
          "type": "uint256"
        }
      ],
      "name": "Received",
      "type": "event"
    },
    {
      "anonymous": false,
      "inputs": [
        {
          "indexed": false,
          "internalType": "uint256",
          "name": "upc",
          "type": "uint256"
        }
      ],
      "name": "Shipped",
      "type": "event"
    },
    {
      "anonymous": false,
      "inputs": [
        {
          "indexed": false,
          "internalType": "uint256",
          "name": "upc",
          "type": "uint256"
        }
      ],
      "name": "Sold",
      "type": "event"
    },
    {
      "inputs": [
        {
          "internalType": "address",
          "name": "account",
          "type": "address"
        }
      ],
      "name": "addDistributor",
      "outputs": [],
      "stateMutability": "nonpayable",
      "type": "function"
    },
    {
      "inputs": [
        {
          "internalType": "address",
          "name": "account",
          "type": "address"
        }
      ],
      "name": "addFarmer",
      "outputs": [],
      "stateMutability": "nonpayable",
      "type": "function"
    },
    {
      "inputs": [
        {
          "internalType": "address",
          "name": "account",
          "type": "address"
        }
      ],
      "name": "addFpo",
      "outputs": [],
      "stateMutability": "nonpayable",
      "type": "function"
    },
    {
      "inputs": [
        {
          "internalType": "address",
          "name": "account",
          "type": "address"
        }
      ],
      "name": "isDistributor",
      "outputs": [
        {
          "internalType": "bool",
          "name": "",
          "type": "bool"
        }
      ],
      "stateMutability": "view",
      "type": "function",
      "constant": true
    },
    {
      "inputs": [
        {
          "internalType": "address",
          "name": "account",
          "type": "address"
        }
      ],
      "name": "isFarmer",
      "outputs": [
        {
          "internalType": "bool",
          "name": "",
          "type": "bool"
        }
      ],
      "stateMutability": "view",
      "type": "function",
      "constant": true
    },
    {
      "inputs": [
        {
          "internalType": "address",
          "name": "account",
          "type": "address"
        }
      ],
      "name": "isFpo",
      "outputs": [
        {
          "internalType": "bool",
          "name": "",
          "type": "bool"
        }
      ],
      "stateMutability": "view",
      "type": "function",
      "constant": true
    },
    {
      "inputs": [],
      "name": "renounceDistributor",
      "outputs": [],
      "stateMutability": "nonpayable",
      "type": "function"
    },
    {
      "inputs": [],
      "name": "renounceFarmer",
      "outputs": [],
      "stateMutability": "nonpayable",
      "type": "function"
    },
    {
      "inputs": [],
      "name": "renounceFpo",
      "outputs": [],
      "stateMutability": "nonpayable",
      "type": "function"
    },
    {
      "inputs": [],
      "name": "kill",
      "outputs": [],
      "stateMutability": "payable",
      "type": "function",
      "payable": true
    },
    {
      "inputs": [
        {
          "internalType": "uint256",
          "name": "_upc",
          "type": "uint256"
        },
        {
          "internalType": "address",
          "name": "_originFarmerID",
          "type": "address"
        },
        {
          "internalType": "string",
          "name": "_originFarmName",
          "type": "string"
        },
        {
          "internalType": "string",
          "name": "_originFarmInformation",
          "type": "string"
        },
        {
          "internalType": "string",
          "name": "_originFarmLatitude",
          "type": "string"
        },
        {
          "internalType": "string",
          "name": "_originFarmLongitude",
          "type": "string"
        },
        {
          "internalType": "string",
          "name": "_productNotes",
          "type": "string"
        }
      ],
      "name": "harvestItem",
      "outputs": [],
      "stateMutability": "nonpayable",
      "type": "function"
    },
    {
      "inputs": [
        {
          "internalType": "uint256",
          "name": "_upc",
          "type": "uint256"
        }
      ],
      "name": "processItem",
      "outputs": [],
      "stateMutability": "nonpayable",
      "type": "function"
    },
    {
      "inputs": [
        {
          "internalType": "uint256",
          "name": "_upc",
          "type": "uint256"
        }
      ],
      "name": "packItem",
      "outputs": [],
      "stateMutability": "nonpayable",
      "type": "function"
    },
    {
      "inputs": [
        {
          "internalType": "uint256",
          "name": "_upc",
          "type": "uint256"
        },
        {
          "internalType": "uint256",
          "name": "_price",
          "type": "uint256"
        }
      ],
      "name": "sellItem",
      "outputs": [],
      "stateMutability": "nonpayable",
      "type": "function"
    },
    {
      "inputs": [
        {
          "internalType": "uint256",
          "name": "_upc",
          "type": "uint256"
        }
      ],
      "name": "buyItem",
      "outputs": [],
      "stateMutability": "payable",
      "type": "function",
      "payable": true
    },
    {
      "inputs": [
        {
          "internalType": "uint256",
          "name": "_upc",
          "type": "uint256"
        }
      ],
      "name": "shipItem",
      "outputs": [],
      "stateMutability": "nonpayable",
      "type": "function"
    },
    {
      "inputs": [
        {
          "internalType": "uint256",
          "name": "_upc",
          "type": "uint256"
        }
      ],
      "name": "fetchItemBufferOne",
      "outputs": [
        {
          "internalType": "uint256",
          "name": "itemSKU",
          "type": "uint256"
        },
        {
          "internalType": "uint256",
          "name": "itemUPC",
          "type": "uint256"
        },
        {
          "internalType": "address",
          "name": "ownerID",
          "type": "address"
        },
        {
          "internalType": "address",
          "name": "originFarmerID",
          "type": "address"
        },
        {
          "internalType": "string",
          "name": "originFarmName",
          "type": "string"
        },
        {
          "internalType": "string",
          "name": "originFarmInformation",
          "type": "string"
        },
        {
          "internalType": "string",
          "name": "originFarmLatitude",
          "type": "string"
        },
        {
          "internalType": "string",
          "name": "originFarmLongitude",
          "type": "string"
        }
      ],
      "stateMutability": "view",
      "type": "function",
      "constant": true
    },
    {
      "inputs": [
        {
          "internalType": "uint256",
          "name": "_upc",
          "type": "uint256"
        }
      ],
      "name": "fetchItemBufferTwo",
      "outputs": [
        {
          "internalType": "uint256",
          "name": "itemSKU",
          "type": "uint256"
        },
        {
          "internalType": "uint256",
          "name": "itemUPC",
          "type": "uint256"
        },
        {
          "internalType": "uint256",
          "name": "productID",
          "type": "uint256"
        },
        {
          "internalType": "string",
          "name": "productNotes",
          "type": "string"
        },
        {
          "internalType": "uint256",
          "name": "productPrice",
          "type": "uint256"
        },
        {
          "internalType": "uint256",
          "name": "itemState",
          "type": "uint256"
        },
        {
          "internalType": "address",
          "name": "distributorID",
          "type": "address"
        },
        {
          "internalType": "address",
          "name": "retailerID",
          "type": "address"
        },
        {
          "internalType": "address",
          "name": "consumerID",
          "type": "address"
        }
      ],
      "stateMutability": "view",
      "type": "function",
      "constant": true
    }
  ],
  "bytecode": "0x608060405262000015336200008e60201b60201c565b6200002633620000ef60201b60201c565b62000037336200015060201b60201c565b33600360006101000a81548173ffffffffffffffffffffffffffffffffffffffff021916908373ffffffffffffffffffffffffffffffffffffffff16021790555060016005819055506001600481905550620002f8565b620000a9816000620001b160201b6200133c1790919060201c565b8073ffffffffffffffffffffffffffffffffffffffff167f2e0ded4123377a3c2bc9a26f1717655a129e2f20752924d42e730ec89c83dbd060405160405180910390a250565b6200010a816001620001b160201b6200133c1790919060201c565b8073ffffffffffffffffffffffffffffffffffffffff167f7152eb9caa7399f470f4d9c37aaefb3e665e073d030e697bb061a75ba3f38b6960405160405180910390a250565b6200016b816002620001b160201b6200133c1790919060201c565b8073ffffffffffffffffffffffffffffffffffffffff167fddbf200aa634dc3fb81cfd68583dd1040d1c751d335e1d86b631bde3e977fea860405160405180910390a250565b600073ffffffffffffffffffffffffffffffffffffffff168173ffffffffffffffffffffffffffffffffffffffff1603620001eb57600080fd5b620001fd82826200026660201b60201c565b156200020857600080fd5b60018260000160008373ffffffffffffffffffffffffffffffffffffffff1673ffffffffffffffffffffffffffffffffffffffff16815260200190815260200160002060006101000a81548160ff0219169083151502179055505050565b60008073ffffffffffffffffffffffffffffffffffffffff168273ffffffffffffffffffffffffffffffffffffffff1603620002a157600080fd5b8260000160008373ffffffffffffffffffffffffffffffffffffffff1673ffffffffffffffffffffffffffffffffffffffff16815260200190815260200160002060009054906101000a900460ff16905092915050565b6120e980620003086000396000f3fe6080604052600436106101095760003560e01c806380c3f96d11610095578063b942906911610064578063b94290691461032d578063bdd8a6a81461036a578063e7fb74c714610393578063f30fc480146103af578063f61c899a146103d857610109565b806380c3f96d1461027357806380fc0ce41461029c5780638cab1a98146102b35780638f0c86fa146102f057610109565b806349dae766116100dc57806349dae76614610181578063644241db146101aa57806366225ff9146101c15780637250e2241461020657806377c459131461022f57610109565b80631ed5d7631461010e578063212154e1146101255780632d9235611461014e57806341c0e1b514610177575b600080fd5b34801561011a57600080fd5b50610123610401565b005b34801561013157600080fd5b5061014c600480360381019061014791906117af565b61040c565b005b34801561015a57600080fd5b5061017560048036038101906101709190611812565b61042a565b005b61017f610527565b005b34801561018d57600080fd5b506101a860048036038101906101a39190611852565b6105be565b005b3480156101b657600080fd5b506101bf61069f565b005b3480156101cd57600080fd5b506101e860048036038101906101e39190611852565b6106aa565b6040516101fd9998979695949392919061192d565b60405180910390f35b34801561021257600080fd5b5061022d600480360381019061022891906117af565b61083c565b005b34801561023b57600080fd5b5061025660048036038101906102519190611852565b61085a565b60405161026a9897969594939291906119c1565b60405180910390f35b34801561027f57600080fd5b5061029a600480360381019061029591906117af565b610b99565b005b3480156102a857600080fd5b506102b1610bb7565b005b3480156102bf57600080fd5b506102da60048036038101906102d591906117af565b610bc2565b6040516102e79190611a76565b60405180910390f35b3480156102fc57600080fd5b50610317600480360381019061031291906117af565b610bdf565b6040516103249190611a76565b60405180910390f35b34801561033957600080fd5b50610354600480360381019061034f91906117af565b610bfc565b6040516103619190611a76565b60405180910390f35b34801561037657600080fd5b50610391600480360381019061038c9190611bc6565b610c19565b005b6103ad60048036038101906103a89190611852565b610f5f565b005b3480156103bb57600080fd5b506103d660048036038101906103d19190611852565b61117a565b005b3480156103e457600080fd5b506103ff60048036038101906103fa9190611852565b61125b565b005b61040a336113e7565b565b61041533610bc2565b61041e57600080fd5b61042781611440565b50565b816002600781111561043f5761043e611cf4565b5b60066000838152602001908152602001600020600b0160009054906101000a900460ff16600781111561047557610474611cf4565b5b1461047f57600080fd5b61048833610bfc565b61049157600080fd5b600360066000858152602001908152602001600020600b0160006101000a81548160ff021916908360078111156104cb576104ca611cf4565b5b02179055508160066000858152602001908152602001600020600a01819055507fa96ae0fc3224ebd79eebfe54bd130cc9cb94416cddd1f2386115e00b725324688360405161051a9190611d23565b60405180910390a1505050565b600360009054906101000a900473ffffffffffffffffffffffffffffffffffffffff1673ffffffffffffffffffffffffffffffffffffffff163373ffffffffffffffffffffffffffffffffffffffff16036105bc576000600360009054906101000a900473ffffffffffffffffffffffffffffffffffffffff1690508073ffffffffffffffffffffffffffffffffffffffff16ff5b565b80600060078111156105d3576105d2611cf4565b5b60066000838152602001908152602001600020600b0160009054906101000a900460ff16600781111561060957610608611cf4565b5b1461061357600080fd5b61061c33610bfc565b61062557600080fd5b600160066000848152602001908152602001600020600b0160006101000a81548160ff0219169083600781111561065f5761065e611cf4565b5b02179055507f5afe3b1bf87069693c075da5c22a98d63d1aef98a30dbbe538d0781a98b77ee5826040516106939190611d23565b60405180910390a15050565b6106a83361149a565b565b600080600060606000806000806000600660008b8152602001908152602001600020600001549850600660008b8152602001908152602001600020600101549750600660008b8152602001908152602001600020600801549650600660008b8152602001908152602001600020600901805461072590611d6d565b80601f016020809104026020016040519081016040528092919081815260200182805461075190611d6d565b801561079e5780601f106107735761010080835404028352916020019161079e565b820191906000526020600020905b81548152906001019060200180831161078157829003601f168201915b50505050509550600660008b8152602001908152602001600020600a01549450600660008b8152602001908152602001600020600b0160009054906101000a900460ff1660078111156107f4576107f3611cf4565b5b9350600660008b8152602001908152602001600020600b0160019054906101000a900473ffffffffffffffffffffffffffffffffffffffff1692509193959799909294969850565b61084533610bdf565b61084e57600080fd5b610857816114f4565b50565b600080600080606080606080600660008a8152602001908152602001600020600001549750600660008a8152602001908152602001600020600101549650600660008a815260200190815260200160002060020160009054906101000a900473ffffffffffffffffffffffffffffffffffffffff169550600660008a815260200190815260200160002060030160009054906101000a900473ffffffffffffffffffffffffffffffffffffffff169450600660008a8152602001908152602001600020600401805461092b90611d6d565b80601f016020809104026020016040519081016040528092919081815260200182805461095790611d6d565b80156109a45780601f10610979576101008083540402835291602001916109a4565b820191906000526020600020905b81548152906001019060200180831161098757829003601f168201915b50505050509350600660008a815260200190815260200160002060050180546109cc90611d6d565b80601f01602080910402602001604051908101604052809291908181526020018280546109f890611d6d565b8015610a455780601f10610a1a57610100808354040283529160200191610a45565b820191906000526020600020905b815481529060010190602001808311610a2857829003601f168201915b50505050509250600660008a81526020019081526020016000206006018054610a6d90611d6d565b80601f0160208091040260200160405190810160405280929190818152602001828054610a9990611d6d565b8015610ae65780601f10610abb57610100808354040283529160200191610ae6565b820191906000526020600020905b815481529060010190602001808311610ac957829003601f168201915b50505050509150600660008a81526020019081526020016000206007018054610b0e90611d6d565b80601f0160208091040260200160405190810160405280929190818152602001828054610b3a90611d6d565b8015610b875780601f10610b5c57610100808354040283529160200191610b87565b820191906000526020600020905b815481529060010190602001808311610b6a57829003601f168201915b50505050509050919395975091939597565b610ba233610bfc565b610bab57600080fd5b610bb48161154e565b50565b610bc0336115a8565b565b6000610bd882600161160290919063ffffffff16565b9050919050565b6000610bf582600261160290919063ffffffff16565b9050919050565b6000610c1282600061160290919063ffffffff16565b9050919050565b610c2233610bfc565b610c2b57600080fd5b6000604051806101c0016040528060055481526020018981526020013373ffffffffffffffffffffffffffffffffffffffff1681526020018873ffffffffffffffffffffffffffffffffffffffff1681526020018781526020018681526020018581526020018481526020016005548a610ca59190611dcd565b81526020018381526020016000815260200160006007811115610ccb57610cca611cf4565b5b8152602001600073ffffffffffffffffffffffffffffffffffffffff168152602001600073ffffffffffffffffffffffffffffffffffffffff16815250905080600660008a8152602001908152602001600020600082015181600001556020820151816001015560408201518160020160006101000a81548173ffffffffffffffffffffffffffffffffffffffff021916908373ffffffffffffffffffffffffffffffffffffffff16021790555060608201518160030160006101000a81548173ffffffffffffffffffffffffffffffffffffffff021916908373ffffffffffffffffffffffffffffffffffffffff1602179055506080820151816004019081610dd59190611fad565b5060a0820151816005019081610deb9190611fad565b5060c0820151816006019081610e019190611fad565b5060e0820151816007019081610e179190611fad565b506101008201518160080155610120820151816009019081610e399190611fad565b5061014082015181600a015561016082015181600b0160006101000a81548160ff02191690836007811115610e7157610e70611cf4565b5b021790555061018082015181600b0160016101000a81548173ffffffffffffffffffffffffffffffffffffffff021916908373ffffffffffffffffffffffffffffffffffffffff1602179055506101a082015181600c0160006101000a81548173ffffffffffffffffffffffffffffffffffffffff021916908373ffffffffffffffffffffffffffffffffffffffff1602179055509050506001600554610f189190611dcd565b6005819055507f8e55ccfc9778ff8eba1646d765cf1982537ce0f9257054a17b48aad74525018388604051610f4d9190611d23565b60405180910390a15050505050505050565b8060036007811115610f7457610f73611cf4565b5b60066000838152602001908152602001600020600b0160009054906101000a900460ff166007811115610faa57610fa9611cf4565b5b14610fb457600080fd5b60066000838152602001908152602001600020600a015480341015610fd857600080fd5b82610fe233610bdf565b610feb57600080fd5b60006006600086815260200190815260200160002060020160009054906101000a900473ffffffffffffffffffffffffffffffffffffffff169050336006600087815260200190815260200160002060020160006101000a81548173ffffffffffffffffffffffffffffffffffffffff021916908373ffffffffffffffffffffffffffffffffffffffff1602179055503360066000878152602001908152602001600020600b0160016101000a81548173ffffffffffffffffffffffffffffffffffffffff021916908373ffffffffffffffffffffffffffffffffffffffff160217905550600460066000878152602001908152602001600020600b0160006101000a81548160ff0219169083600781111561110a57611109611cf4565b5b02179055507f92f64ca637d023f354075a4be751b169c1a8a9ccb6d33cdd0cb35205439957278560405161113e9190611d23565b60405180910390a150600060066000838152602001908152602001600020600a0154905060008134611170919061207f565b9050505050505050565b806001600781111561118f5761118e611cf4565b5b60066000838152602001908152602001600020600b0160009054906101000a900460ff1660078111156111c5576111c4611cf4565b5b146111cf57600080fd5b6111d833610bfc565b6111e157600080fd5b600260066000848152602001908152602001600020600b0160006101000a81548160ff0219169083600781111561121b5761121a611cf4565b5b02179055507f9b3b66e2380b690bae22c73ef1428fb0c91e72fe14a4b6defa13035214187aff8260405161124f9190611d23565b60405180910390a15050565b80600460078111156112705761126f611cf4565b5b60066000838152602001908152602001600020600b0160009054906101000a900460ff1660078111156112a6576112a5611cf4565b5b146112b057600080fd5b6112b933610bdf565b6112c257600080fd5b600560066000848152602001908152602001600020600b0160006101000a81548160ff021916908360078111156112fc576112fb611cf4565b5b02179055507ff00b9a5725b80c54016f42114f6ed7792d22eecb116011c4afac29c57bef6c95826040516113309190611d23565b60405180910390a15050565b600073ffffffffffffffffffffffffffffffffffffffff168173ffffffffffffffffffffffffffffffffffffffff160361137557600080fd5b61137f8282611602565b1561138957600080fd5b60018260000160008373ffffffffffffffffffffffffffffffffffffffff1673ffffffffffffffffffffffffffffffffffffffff16815260200190815260200160002060006101000a81548160ff0219169083151502179055505050565b6113fb81600161169390919063ffffffff16565b8073ffffffffffffffffffffffffffffffffffffffff167ed443292b63ede717f4c39b32b9f20a0a68a5ab53ec3185a9e94817c77423f760405160405180910390a250565b61145481600161133c90919063ffffffff16565b8073ffffffffffffffffffffffffffffffffffffffff167f7152eb9caa7399f470f4d9c37aaefb3e665e073d030e697bb061a75ba3f38b6960405160405180910390a250565b6114ae81600261169390919063ffffffff16565b8073ffffffffffffffffffffffffffffffffffffffff167f126174f6cf49c81cdb4a9214c6b8f037bef55b4ec31e4fc776cea2a1c8a88d5960405160405180910390a250565b61150881600261133c90919063ffffffff16565b8073ffffffffffffffffffffffffffffffffffffffff167fddbf200aa634dc3fb81cfd68583dd1040d1c751d335e1d86b631bde3e977fea860405160405180910390a250565b61156281600061133c90919063ffffffff16565b8073ffffffffffffffffffffffffffffffffffffffff167f2e0ded4123377a3c2bc9a26f1717655a129e2f20752924d42e730ec89c83dbd060405160405180910390a250565b6115bc81600061169390919063ffffffff16565b8073ffffffffffffffffffffffffffffffffffffffff167fa5e0f060af304ab17dd418c7927e3da3ae7868189bf387aee09ab179ccc572f260405160405180910390a250565b60008073ffffffffffffffffffffffffffffffffffffffff168273ffffffffffffffffffffffffffffffffffffffff160361163c57600080fd5b8260000160008373ffffffffffffffffffffffffffffffffffffffff1673ffffffffffffffffffffffffffffffffffffffff16815260200190815260200160002060009054906101000a900460ff16905092915050565b600073ffffffffffffffffffffffffffffffffffffffff168173ffffffffffffffffffffffffffffffffffffffff16036116cc57600080fd5b6116d68282611602565b6116df57600080fd5b60008260000160008373ffffffffffffffffffffffffffffffffffffffff1673ffffffffffffffffffffffffffffffffffffffff16815260200190815260200160002060006101000a81548160ff0219169083151502179055505050565b6000604051905090565b600080fd5b600080fd5b600073ffffffffffffffffffffffffffffffffffffffff82169050919050565b600061177c82611751565b9050919050565b61178c81611771565b811461179757600080fd5b50565b6000813590506117a981611783565b92915050565b6000602082840312156117c5576117c4611747565b5b60006117d38482850161179a565b91505092915050565b6000819050919050565b6117ef816117dc565b81146117fa57600080fd5b50565b60008135905061180c816117e6565b92915050565b6000806040838503121561182957611828611747565b5b6000611837858286016117fd565b9250506020611848858286016117fd565b9150509250929050565b60006020828403121561186857611867611747565b5b6000611876848285016117fd565b91505092915050565b611888816117dc565b82525050565b600081519050919050565b600082825260208201905092915050565b60005b838110156118c85780820151818401526020810190506118ad565b60008484015250505050565b6000601f19601f8301169050919050565b60006118f08261188e565b6118fa8185611899565b935061190a8185602086016118aa565b611913816118d4565b840191505092915050565b61192781611771565b82525050565b600061012082019050611943600083018c61187f565b611950602083018b61187f565b61195d604083018a61187f565b818103606083015261196f81896118e5565b905061197e608083018861187f565b61198b60a083018761187f565b61199860c083018661191e565b6119a560e083018561191e565b6119b361010083018461191e565b9a9950505050505050505050565b6000610100820190506119d7600083018b61187f565b6119e4602083018a61187f565b6119f1604083018961191e565b6119fe606083018861191e565b8181036080830152611a1081876118e5565b905081810360a0830152611a2481866118e5565b905081810360c0830152611a3881856118e5565b905081810360e0830152611a4c81846118e5565b90509998505050505050505050565b60008115159050919050565b611a7081611a5b565b82525050565b6000602082019050611a8b6000830184611a67565b92915050565b600080fd5b600080fd5b7f4e487b7100000000000000000000000000000000000000000000000000000000600052604160045260246000fd5b611ad3826118d4565b810181811067ffffffffffffffff82111715611af257611af1611a9b565b5b80604052505050565b6000611b0561173d565b9050611b118282611aca565b919050565b600067ffffffffffffffff821115611b3157611b30611a9b565b5b611b3a826118d4565b9050602081019050919050565b82818337600083830152505050565b6000611b69611b6484611b16565b611afb565b905082815260208101848484011115611b8557611b84611a96565b5b611b90848285611b47565b509392505050565b600082601f830112611bad57611bac611a91565b5b8135611bbd848260208601611b56565b91505092915050565b600080600080600080600060e0888a031215611be557611be4611747565b5b6000611bf38a828b016117fd565b9750506020611c048a828b0161179a565b965050604088013567ffffffffffffffff811115611c2557611c2461174c565b5b611c318a828b01611b98565b955050606088013567ffffffffffffffff811115611c5257611c5161174c565b5b611c5e8a828b01611b98565b945050608088013567ffffffffffffffff811115611c7f57611c7e61174c565b5b611c8b8a828b01611b98565b93505060a088013567ffffffffffffffff811115611cac57611cab61174c565b5b611cb88a828b01611b98565b92505060c088013567ffffffffffffffff811115611cd957611cd861174c565b5b611ce58a828b01611b98565b91505092959891949750929550565b7f4e487b7100000000000000000000000000000000000000000000000000000000600052602160045260246000fd5b6000602082019050611d38600083018461187f565b92915050565b7f4e487b7100000000000000000000000000000000000000000000000000000000600052602260045260246000fd5b60006002820490506001821680611d8557607f821691505b602082108103611d9857611d97611d3e565b5b50919050565b7f4e487b7100000000000000000000000000000000000000000000000000000000600052601160045260246000fd5b6000611dd8826117dc565b9150611de3836117dc565b9250828201905080821115611dfb57611dfa611d9e565b5b92915050565b60008190508160005260206000209050919050565b60006020601f8301049050919050565b600082821b905092915050565b600060088302611e637fffffffffffffffffffffffffffffffffffffffffffffffffffffffffffffffff82611e26565b611e6d8683611e26565b95508019841693508086168417925050509392505050565b6000819050919050565b6000611eaa611ea5611ea0846117dc565b611e85565b6117dc565b9050919050565b6000819050919050565b611ec483611e8f565b611ed8611ed082611eb1565b848454611e33565b825550505050565b600090565b611eed611ee0565b611ef8818484611ebb565b505050565b5b81811015611f1c57611f11600082611ee5565b600181019050611efe565b5050565b601f821115611f6157611f3281611e01565b611f3b84611e16565b81016020851015611f4a578190505b611f5e611f5685611e16565b830182611efd565b50505b505050565b600082821c905092915050565b6000611f8460001984600802611f66565b1980831691505092915050565b6000611f9d8383611f73565b9150826002028217905092915050565b611fb68261188e565b67ffffffffffffffff811115611fcf57611fce611a9b565b5b611fd98254611d6d565b611fe4828285611f20565b600060209050601f8311600181146120175760008415612005578287015190505b61200f8582611f91565b865550612077565b601f19841661202586611e01565b60005b8281101561204d57848901518255600182019150602085019450602081019050612028565b8683101561206a5784890151612066601f891682611f73565b8355505b6001600288020188555050505b505050505050565b600061208a826117dc565b9150612095836117dc565b92508282039050818111156120ad576120ac611d9e565b5b9291505056fea2646970667358221220a2b8cebc41b2154577544a4c6bbcccfec61aa932892696e40e0b3781a1ae060064736f6c63430008110033",
  "immutableReferences": {},
  "source": "pragma solidity ^0.8.17;\n\nimport \"./rolemanagement/FarmerRole.sol\";\nimport \"./rolemanagement/DistributorRole.sol\";\nimport \"./rolemanagement/FpoRole.sol\";\n\ncontract FpoChain is FarmerRole, FpoRole, DistributorRole {\n\n  address owner;\n  uint  upc; // Universal Product Code (UPC)\n  uint  sku; // Stock Keeping Unit (SKU)\n\n  struct Item {\n    uint    sku;  // Stock Keeping Unit (SKU)\n    uint    upc; // Universal Product Code (UPC), generated by the Farmer, goes on the package, can be verified by the Consumer\n    address ownerID;  // Metamask-Ethereum address of the current owner as the product moves through 8 stages\n    address originFarmerID; // Metamask-Ethereum address of the Farmer\n    string  originFarmName; // Farmer Name\n    string  originFarmInformation;  // Farmer Information\n    string  originFarmLatitude; // Farm Latitude\n    string  originFarmLongitude;  // Farm Longitude\n    uint    productID;  // Product ID potentially a combination of upc + sku\n    string  productNotes; // Product Notes\n    uint    productPrice; // Product Price\n    State   itemState;  // Product State as represented in the enum above\n    address distributorID;  // Metamask-Ethereum address of the Distributor\n    address fpoID; // Metamask-Ethereum address of the Retailer\n  }\n\n  // All the various item states through the supply chain\n  enum State \n  { \n    Harvested,  // 0\n    Processed,  // 1\n    Packed,     // 2\n    ForSale,    // 3\n    Sold,       // 4\n    Shipped,    // 5\n    Received,   // 6\n    Purchased   // 7\n  \n  }\n  State constant defaultState = State.Harvested;\n\n  mapping (uint => Item) items; // maps the UPC to an Item.\n  mapping (uint => string[]) itemsHistory; // maps the UPC to an array of TxHash that track its journey through the supply chain\n  \n  event Harvested(uint upc);\n  event Processed(uint upc);\n  event Packed(uint upc); \n  event ForSale(uint upc);\n  event Sold(uint upc);\n  event Shipped(uint upc);\n  event Received(uint upc);\n  event Purchased(uint upc);\n\n\n  // Checks that caller is the contract's owner\n  modifier onlyOwner() {\n    require(msg.sender == owner);\n    _;\n  }\n\n  // Verifies the caller's address\n  modifier verifyCaller (address _address) {\n    require(msg.sender == _address); \n    _;\n  }\n\n  // Checks if the paid amount is sufficient to cover the price\n  modifier paidEnough(uint _price) { \n    require(msg.value >= _price); \n    _;\n  }\n  \n  // Checks the price and refunds the remaining balance\n  modifier checkValue(uint _upc) {\n    _;\n    uint _price = items[_upc].productPrice;\n    uint amountToReturn = msg.value - _price;\n    //items[_upc].consumerID.transfer(amountToReturn);\n  }\n\n  // Checks if an item.state of a upc is Harvested\n  modifier harvested(uint _upc) {\n    require(items[_upc].itemState == State.Harvested);\n    _;\n  }\n\n  // Checks if an item.state of a upc is Processed\n  modifier processed(uint _upc) {\n    require(items[_upc].itemState == State.Processed);\n    _;\n  }\n  \n  // Checks if an item.state of a upc is Packed\n  modifier packed(uint _upc) {\n    require(items[_upc].itemState == State.Packed);\n    _;\n  }\n\n  // Checks if an item.state of a upc is ForSale\n  modifier forSale(uint _upc) {\n    require(items[_upc].itemState == State.ForSale);\n    _;\n  }\n\n  // Checks if an item.state of a upc is Sold\n  modifier sold(uint _upc) {\n    require(items[_upc].itemState == State.Sold);\n    _;\n  }\n  \n  // Checks if an item.state of a upc is Shipped\n  modifier shipped(uint _upc) {\n    require(items[_upc].itemState == State.Shipped);\n    _;\n  }\n\n  // Checks if an item.state of a upc is Received\n  modifier received(uint _upc) {\n    require(items[_upc].itemState == State.Received);\n    _;\n  }\n\n  // Checks if an item.state of a upc is Purchased\n  modifier purchased(uint _upc) {\n    require(items[_upc].itemState == State.Purchased);\n    _;\n  }\n\n\n  // Initialize the contract's owner and sku/upc values\n  constructor() public payable {\n    owner = msg.sender;\n    sku = 1;\n    upc = 1;\n  }\n\n  // Kills the contract if necessary\n  function kill() public payable {\n    if (msg.sender == owner) {\n      address payable owneraddr = payable(address(owner));\n\n      selfdestruct(owneraddr);\n    }\n  }\n\n\n  function harvestItem(uint _upc, address _originFarmerID, string memory _originFarmName, string memory _originFarmInformation, string  memory _originFarmLatitude, string  memory _originFarmLongitude, string  memory _productNotes) public onlyFarmer\n  {\n    // Add the new item as part of Harvest\n    Item memory newItem = Item(\n      sku,\n      _upc,\n      msg.sender,\n      _originFarmerID,\n      _originFarmName,\n      _originFarmInformation,\n      _originFarmLatitude,\n      _originFarmLongitude,\n      _upc + sku,\n      _productNotes,\n      0,\n      defaultState,\n      address(0),\n      address(0)\n      //address(0)\n    );\n    items[_upc] = newItem;\n    \n    // Increment sku\n    sku = sku + 1;\n\n    emit Harvested(_upc);\n  }\n\n  function processItem(uint _upc) public harvested(_upc) onlyFarmer {\n    items[_upc].itemState = State.Processed;\n    \n    emit Processed(_upc);\n  }\n\n  function packItem(uint _upc) public processed(_upc) onlyFarmer {\n    items[_upc].itemState = State.Packed;\n    \n    emit Packed(_upc);    \n  }\n\n  function sellItem(uint _upc, uint _price) public packed(_upc) onlyFarmer {\n    items[_upc].itemState = State.ForSale;\n    items[_upc].productPrice = _price;\n    \n    emit ForSale(_upc);\n  }\n\n  function buyItem(uint _upc) public payable forSale(_upc) paidEnough(items[_upc].productPrice) checkValue(_upc) onlyDistributor {\n    address farmerId = items[_upc].ownerID;\n\n    items[_upc].ownerID = msg.sender;\n    items[_upc].distributorID = msg.sender;\n    items[_upc].itemState = State.Sold;\n\n\n    //farmerId.transfer(msg.value);\n\n    emit Sold(_upc);\n  }\n\n  function shipItem(uint _upc) public sold(_upc) onlyDistributor {\n    items[_upc].itemState = State.Shipped;\n    \n    emit Shipped(_upc);\n  }\n/*\n  function receiveItem(uint _upc) public shipped(_upc) onlyFpo {\n    items[_upc].ownerID = msg.sender;\n    items[_upc].retailerID = msg.sender;\n    items[_upc].itemState = State.Received;\n    \n    emit Received(_upc);\n  }\n\n  function purchaseItem(uint _upc) public received(_upc) onlyConsumer {\n    items[_upc].ownerID = msg.sender;\n    items[_upc].consumerID = msg.sender;\n    items[_upc].itemState = State.Purchased;\n    \n    emit Purchased(_upc);\n  }\n*/\n  // Fetch a view of the data\n  function fetchItemBufferOne(uint _upc) public view returns \n  (\n    uint    itemSKU,\n    uint    itemUPC,\n    address ownerID,\n    address originFarmerID,\n    string  memory originFarmName,\n    string  memory originFarmInformation,\n    string  memory originFarmLatitude,\n    string  memory originFarmLongitude\n  ) {\n    itemSKU = items[_upc].sku;\n    itemUPC = items[_upc].upc;\n    ownerID = items[_upc].ownerID;\n    originFarmerID = items[_upc].originFarmerID;\n    originFarmName = items[_upc].originFarmName;\n    originFarmInformation = items[_upc].originFarmInformation;\n    originFarmLatitude = items[_upc].originFarmLatitude;\n    originFarmLongitude = items[_upc].originFarmLongitude;\n  \n  return \n  (\n    itemSKU,\n    itemUPC,\n    ownerID,\n    originFarmerID,\n    originFarmName,\n    originFarmInformation,\n    originFarmLatitude,\n    originFarmLongitude\n  );\n  }\n\n  // Fetch a view of the data\n  function fetchItemBufferTwo(uint _upc) public view returns \n  (\n    uint    itemSKU,\n    uint    itemUPC,\n    uint    productID,\n    string  memory productNotes,\n    uint    productPrice,\n    uint    itemState,\n    address distributorID,\n    address retailerID,\n    address consumerID\n  ) {\n    itemSKU = items[_upc].sku;\n    itemUPC = items[_upc].upc;\n    productID = items[_upc].productID;\n    productNotes = items[_upc].productNotes;\n    productPrice = items[_upc].productPrice;\n    itemState = uint(items[_upc].itemState);\n    distributorID = items[_upc].distributorID;\n    //retailerID = items[_upc].retailerID;\n    //consumerID = items[_upc].consumerID;\n  return \n  (\n    itemSKU,\n    itemUPC,\n    productID,\n    productNotes,\n    productPrice,\n    itemState,\n    distributorID,\n    retailerID,\n    consumerID\n  );\n  }\n}",
  "sourcePath": "/Users/nkpaladugu/Library/CloudStorage/OneDrive-Personal/Tech/IIITH/Capstone/fpochain/web/contracts/FpoChain.sol",
  "compiler": {
    "name": "solc",
    "version": "0.8.17+commit.8df45f5f.Emscripten.clang"
  },
  "schemaVersion": "3.4.10",
  "updatedAt": "2022-09-24T01:59:32.563Z",
  "networkType": "ethereum",
  "devdoc": {
    "kind": "dev",
    "methods": {},
    "version": 1
  },
  "userdoc": {
    "kind": "user",
    "methods": {},
    "version": 1
  }
}