{
  "contractName": "FPOEcoToken",
  "abi": [
    {
      "inputs": [],
      "stateMutability": "nonpayable",
      "type": "constructor"
    },
    {
      "anonymous": false,
      "inputs": [
        {
          "indexed": true,
          "internalType": "address",
          "name": "account",
          "type": "address"
        },
        {
          "indexed": true,
          "internalType": "address",
          "name": "operator",
          "type": "address"
        },
        {
          "indexed": false,
          "internalType": "bool",
          "name": "approved",
          "type": "bool"
        }
      ],
      "name": "ApprovalForAll",
      "type": "event"
    },
    {
      "anonymous": false,
      "inputs": [
        {
          "indexed": false,
          "internalType": "address",
          "name": "account",
          "type": "address"
        }
      ],
      "name": "Paused",
      "type": "event"
    },
    {
      "anonymous": false,
      "inputs": [
        {
          "indexed": true,
          "internalType": "bytes32",
          "name": "role",
          "type": "bytes32"
        },
        {
          "indexed": true,
          "internalType": "bytes32",
          "name": "previousAdminRole",
          "type": "bytes32"
        },
        {
          "indexed": true,
          "internalType": "bytes32",
          "name": "newAdminRole",
          "type": "bytes32"
        }
      ],
      "name": "RoleAdminChanged",
      "type": "event"
    },
    {
      "anonymous": false,
      "inputs": [
        {
          "indexed": true,
          "internalType": "bytes32",
          "name": "role",
          "type": "bytes32"
        },
        {
          "indexed": true,
          "internalType": "address",
          "name": "account",
          "type": "address"
        },
        {
          "indexed": true,
          "internalType": "address",
          "name": "sender",
          "type": "address"
        }
      ],
      "name": "RoleGranted",
      "type": "event"
    },
    {
      "anonymous": false,
      "inputs": [
        {
          "indexed": true,
          "internalType": "bytes32",
          "name": "role",
          "type": "bytes32"
        },
        {
          "indexed": true,
          "internalType": "address",
          "name": "account",
          "type": "address"
        },
        {
          "indexed": true,
          "internalType": "address",
          "name": "sender",
          "type": "address"
        }
      ],
      "name": "RoleRevoked",
      "type": "event"
    },
    {
      "anonymous": false,
      "inputs": [
        {
          "indexed": true,
          "internalType": "address",
          "name": "operator",
          "type": "address"
        },
        {
          "indexed": true,
          "internalType": "address",
          "name": "from",
          "type": "address"
        },
        {
          "indexed": true,
          "internalType": "address",
          "name": "to",
          "type": "address"
        },
        {
          "indexed": false,
          "internalType": "uint256[]",
          "name": "ids",
          "type": "uint256[]"
        },
        {
          "indexed": false,
          "internalType": "uint256[]",
          "name": "values",
          "type": "uint256[]"
        }
      ],
      "name": "TransferBatch",
      "type": "event"
    },
    {
      "anonymous": false,
      "inputs": [
        {
          "indexed": true,
          "internalType": "address",
          "name": "operator",
          "type": "address"
        },
        {
          "indexed": true,
          "internalType": "address",
          "name": "from",
          "type": "address"
        },
        {
          "indexed": true,
          "internalType": "address",
          "name": "to",
          "type": "address"
        },
        {
          "indexed": false,
          "internalType": "uint256",
          "name": "id",
          "type": "uint256"
        },
        {
          "indexed": false,
          "internalType": "uint256",
          "name": "value",
          "type": "uint256"
        }
      ],
      "name": "TransferSingle",
      "type": "event"
    },
    {
      "anonymous": false,
      "inputs": [
        {
          "indexed": false,
          "internalType": "string",
          "name": "value",
          "type": "string"
        },
        {
          "indexed": true,
          "internalType": "uint256",
          "name": "id",
          "type": "uint256"
        }
      ],
      "name": "URI",
      "type": "event"
    },
    {
      "anonymous": false,
      "inputs": [
        {
          "indexed": false,
          "internalType": "address",
          "name": "account",
          "type": "address"
        }
      ],
      "name": "Unpaused",
      "type": "event"
    },
    {
      "inputs": [],
      "name": "DEFAULT_ADMIN_ROLE",
      "outputs": [
        {
          "internalType": "bytes32",
          "name": "",
          "type": "bytes32"
        }
      ],
      "stateMutability": "view",
      "type": "function"
    },
    {
      "inputs": [],
      "name": "MINTER_ROLE",
      "outputs": [
        {
          "internalType": "bytes32",
          "name": "",
          "type": "bytes32"
        }
      ],
      "stateMutability": "view",
      "type": "function"
    },
    {
      "inputs": [],
      "name": "PAUSER_ROLE",
      "outputs": [
        {
          "internalType": "bytes32",
          "name": "",
          "type": "bytes32"
        }
      ],
      "stateMutability": "view",
      "type": "function"
    },
    {
      "inputs": [],
      "name": "URI_SETTER_ROLE",
      "outputs": [
        {
          "internalType": "bytes32",
          "name": "",
          "type": "bytes32"
        }
      ],
      "stateMutability": "view",
      "type": "function"
    },
    {
      "inputs": [
        {
          "internalType": "address",
          "name": "account",
          "type": "address"
        },
        {
          "internalType": "uint256",
          "name": "id",
          "type": "uint256"
        }
      ],
      "name": "balanceOf",
      "outputs": [
        {
          "internalType": "uint256",
          "name": "",
          "type": "uint256"
        }
      ],
      "stateMutability": "view",
      "type": "function"
    },
    {
      "inputs": [
        {
          "internalType": "address[]",
          "name": "accounts",
          "type": "address[]"
        },
        {
          "internalType": "uint256[]",
          "name": "ids",
          "type": "uint256[]"
        }
      ],
      "name": "balanceOfBatch",
      "outputs": [
        {
          "internalType": "uint256[]",
          "name": "",
          "type": "uint256[]"
        }
      ],
      "stateMutability": "view",
      "type": "function"
    },
    {
      "inputs": [
        {
          "internalType": "address",
          "name": "account",
          "type": "address"
        },
        {
          "internalType": "uint256",
          "name": "id",
          "type": "uint256"
        },
        {
          "internalType": "uint256",
          "name": "value",
          "type": "uint256"
        }
      ],
      "name": "burn",
      "outputs": [],
      "stateMutability": "nonpayable",
      "type": "function"
    },
    {
      "inputs": [
        {
          "internalType": "address",
          "name": "account",
          "type": "address"
        },
        {
          "internalType": "uint256[]",
          "name": "ids",
          "type": "uint256[]"
        },
        {
          "internalType": "uint256[]",
          "name": "values",
          "type": "uint256[]"
        }
      ],
      "name": "burnBatch",
      "outputs": [],
      "stateMutability": "nonpayable",
      "type": "function"
    },
    {
      "inputs": [
        {
          "internalType": "uint256",
          "name": "id",
          "type": "uint256"
        }
      ],
      "name": "exists",
      "outputs": [
        {
          "internalType": "bool",
          "name": "",
          "type": "bool"
        }
      ],
      "stateMutability": "view",
      "type": "function"
    },
    {
      "inputs": [
        {
          "internalType": "bytes32",
          "name": "role",
          "type": "bytes32"
        }
      ],
      "name": "getRoleAdmin",
      "outputs": [
        {
          "internalType": "bytes32",
          "name": "",
          "type": "bytes32"
        }
      ],
      "stateMutability": "view",
      "type": "function"
    },
    {
      "inputs": [
        {
          "internalType": "bytes32",
          "name": "role",
          "type": "bytes32"
        },
        {
          "internalType": "address",
          "name": "account",
          "type": "address"
        }
      ],
      "name": "grantRole",
      "outputs": [],
      "stateMutability": "nonpayable",
      "type": "function"
    },
    {
      "inputs": [
        {
          "internalType": "bytes32",
          "name": "role",
          "type": "bytes32"
        },
        {
          "internalType": "address",
          "name": "account",
          "type": "address"
        }
      ],
      "name": "hasRole",
      "outputs": [
        {
          "internalType": "bool",
          "name": "",
          "type": "bool"
        }
      ],
      "stateMutability": "view",
      "type": "function"
    },
    {
      "inputs": [
        {
          "internalType": "address",
          "name": "account",
          "type": "address"
        },
        {
          "internalType": "address",
          "name": "operator",
          "type": "address"
        }
      ],
      "name": "isApprovedForAll",
      "outputs": [
        {
          "internalType": "bool",
          "name": "",
          "type": "bool"
        }
      ],
      "stateMutability": "view",
      "type": "function"
    },
    {
      "inputs": [],
      "name": "paused",
      "outputs": [
        {
          "internalType": "bool",
          "name": "",
          "type": "bool"
        }
      ],
      "stateMutability": "view",
      "type": "function"
    },
    {
      "inputs": [
        {
          "internalType": "bytes32",
          "name": "role",
          "type": "bytes32"
        },
        {
          "internalType": "address",
          "name": "account",
          "type": "address"
        }
      ],
      "name": "renounceRole",
      "outputs": [],
      "stateMutability": "nonpayable",
      "type": "function"
    },
    {
      "inputs": [
        {
          "internalType": "bytes32",
          "name": "role",
          "type": "bytes32"
        },
        {
          "internalType": "address",
          "name": "account",
          "type": "address"
        }
      ],
      "name": "revokeRole",
      "outputs": [],
      "stateMutability": "nonpayable",
      "type": "function"
    },
    {
      "inputs": [
        {
          "internalType": "address",
          "name": "from",
          "type": "address"
        },
        {
          "internalType": "address",
          "name": "to",
          "type": "address"
        },
        {
          "internalType": "uint256[]",
          "name": "ids",
          "type": "uint256[]"
        },
        {
          "internalType": "uint256[]",
          "name": "amounts",
          "type": "uint256[]"
        },
        {
          "internalType": "bytes",
          "name": "data",
          "type": "bytes"
        }
      ],
      "name": "safeBatchTransferFrom",
      "outputs": [],
      "stateMutability": "nonpayable",
      "type": "function"
    },
    {
      "inputs": [
        {
          "internalType": "address",
          "name": "from",
          "type": "address"
        },
        {
          "internalType": "address",
          "name": "to",
          "type": "address"
        },
        {
          "internalType": "uint256",
          "name": "id",
          "type": "uint256"
        },
        {
          "internalType": "uint256",
          "name": "amount",
          "type": "uint256"
        },
        {
          "internalType": "bytes",
          "name": "data",
          "type": "bytes"
        }
      ],
      "name": "safeTransferFrom",
      "outputs": [],
      "stateMutability": "nonpayable",
      "type": "function"
    },
    {
      "inputs": [
        {
          "internalType": "address",
          "name": "operator",
          "type": "address"
        },
        {
          "internalType": "bool",
          "name": "approved",
          "type": "bool"
        }
      ],
      "name": "setApprovalForAll",
      "outputs": [],
      "stateMutability": "nonpayable",
      "type": "function"
    },
    {
      "inputs": [
        {
          "internalType": "uint256",
          "name": "id",
          "type": "uint256"
        }
      ],
      "name": "totalSupply",
      "outputs": [
        {
          "internalType": "uint256",
          "name": "",
          "type": "uint256"
        }
      ],
      "stateMutability": "view",
      "type": "function"
    },
    {
      "inputs": [
        {
          "internalType": "uint256",
          "name": "",
          "type": "uint256"
        }
      ],
      "name": "uri",
      "outputs": [
        {
          "internalType": "string",
          "name": "",
          "type": "string"
        }
      ],
      "stateMutability": "view",
      "type": "function"
    },
    {
      "inputs": [
        {
          "internalType": "string",
          "name": "newuri",
          "type": "string"
        }
      ],
      "name": "setURI",
      "outputs": [],
      "stateMutability": "nonpayable",
      "type": "function"
    },
    {
      "inputs": [],
      "name": "pause",
      "outputs": [],
      "stateMutability": "nonpayable",
      "type": "function"
    },
    {
      "inputs": [],
      "name": "unpause",
      "outputs": [],
      "stateMutability": "nonpayable",
      "type": "function"
    },
    {
      "inputs": [
        {
          "internalType": "address",
          "name": "account",
          "type": "address"
        },
        {
          "internalType": "uint256",
          "name": "id",
          "type": "uint256"
        },
        {
          "internalType": "uint256",
          "name": "quantity",
          "type": "uint256"
        },
        {
          "internalType": "bytes",
          "name": "data",
          "type": "bytes"
        }
      ],
      "name": "mint",
      "outputs": [],
      "stateMutability": "nonpayable",
      "type": "function"
    },
    {
      "inputs": [
        {
          "internalType": "address",
          "name": "to",
          "type": "address"
        },
        {
          "internalType": "uint256[]",
          "name": "ids",
          "type": "uint256[]"
        },
        {
          "internalType": "uint256[]",
          "name": "quantity",
          "type": "uint256[]"
        },
        {
          "internalType": "bytes",
          "name": "data",
          "type": "bytes"
        }
      ],
      "name": "mintBatch",
      "outputs": [],
      "stateMutability": "nonpayable",
      "type": "function"
    },
    {
      "inputs": [
        {
          "internalType": "bytes4",
          "name": "interfaceId",
          "type": "bytes4"
        }
      ],
      "name": "supportsInterface",
      "outputs": [
        {
          "internalType": "bool",
          "name": "",
          "type": "bool"
        }
      ],
      "stateMutability": "view",
      "type": "function"
    }
  ],
  "bytecode": "0x60806040523480156200001157600080fd5b506040518060200160405280600081525062000033816200010060201b60201c565b506000600460006101000a81548160ff021916908315150217905550620000646000801b336200011560201b60201c565b620000967f7804d923f43a17d325d77e781528e0793b2edd9890ab45fc64efd7b4b427744c336200011560201b60201c565b620000c87f65d7a28e3265b37a6474929f336521b332c1681b933f6cb9f3376673440d862a336200011560201b60201c565b620000fa7f9f2df0fed2c77648de5860a4cc508cd0818c85b8b8a1ab4ceeef8d981c8956a6336200011560201b60201c565b620005db565b8060029081620001119190620004f4565b5050565b6200012782826200020760201b60201c565b620002035760016003600084815260200190815260200160002060000160008373ffffffffffffffffffffffffffffffffffffffff1673ffffffffffffffffffffffffffffffffffffffff16815260200190815260200160002060006101000a81548160ff021916908315150217905550620001a86200027260201b60201c565b73ffffffffffffffffffffffffffffffffffffffff168173ffffffffffffffffffffffffffffffffffffffff16837f2f8788117e7eff1d82e926ec794901d17c78024a50270940304540a733656f0d60405160405180910390a45b5050565b60006003600084815260200190815260200160002060000160008373ffffffffffffffffffffffffffffffffffffffff1673ffffffffffffffffffffffffffffffffffffffff16815260200190815260200160002060009054906101000a900460ff16905092915050565b600033905090565b600081519050919050565b7f4e487b7100000000000000000000000000000000000000000000000000000000600052604160045260246000fd5b7f4e487b7100000000000000000000000000000000000000000000000000000000600052602260045260246000fd5b60006002820490506001821680620002fc57607f821691505b602082108103620003125762000311620002b4565b5b50919050565b60008190508160005260206000209050919050565b60006020601f8301049050919050565b600082821b905092915050565b6000600883026200037c7fffffffffffffffffffffffffffffffffffffffffffffffffffffffffffffffff826200033d565b6200038886836200033d565b95508019841693508086168417925050509392505050565b6000819050919050565b6000819050919050565b6000620003d5620003cf620003c984620003a0565b620003aa565b620003a0565b9050919050565b6000819050919050565b620003f183620003b4565b620004096200040082620003dc565b8484546200034a565b825550505050565b600090565b6200042062000411565b6200042d818484620003e6565b505050565b5b8181101562000455576200044960008262000416565b60018101905062000433565b5050565b601f821115620004a4576200046e8162000318565b62000479846200032d565b8101602085101562000489578190505b620004a162000498856200032d565b83018262000432565b50505b505050565b600082821c905092915050565b6000620004c960001984600802620004a9565b1980831691505092915050565b6000620004e48383620004b6565b9150826002028217905092915050565b620004ff826200027a565b67ffffffffffffffff8111156200051b576200051a62000285565b5b620005278254620002e3565b6200053482828562000459565b600060209050601f8311600181146200056c576000841562000557578287015190505b620005638582620004d6565b865550620005d3565b601f1984166200057c8662000318565b60005b82811015620005a6578489015182556001820191506020850194506020810190506200057f565b86831015620005c65784890151620005c2601f891682620004b6565b8355505b6001600288020188555050505b505050505050565b614a6080620005eb6000396000f3fe608060405234801561001057600080fd5b50600436106101a85760003560e01c80636b20c454116100f9578063bd85b03911610097578063e63ab1e911610071578063e63ab1e9146104b5578063e985e9c5146104d3578063f242432a14610503578063f5298aca1461051f576101a8565b8063bd85b0391461044b578063d53913931461047b578063d547741f14610499576101a8565b80638456cb59116100d35780638456cb59146103d757806391d14854146103e1578063a217fddf14610411578063a22cb4651461042f576101a8565b80636b20c45414610381578063731133e91461039d5780637f345710146103b9576101a8565b80632eb2c2d6116101665780633f4ba83a116101405780633f4ba83a146102f95780634e1273f4146103035780634f558e79146103335780635c975abb14610363576101a8565b80632eb2c2d6146102a55780632f2ff15d146102c157806336568abe146102dd576101a8565b8062fdd58e146101ad57806301ffc9a7146101dd57806302fe53051461020d5780630e89341c146102295780631f7fdffa14610259578063248a9ca314610275575b600080fd5b6101c760048036038101906101c29190612d16565b61053b565b6040516101d49190612d65565b60405180910390f35b6101f760048036038101906101f29190612dd8565b610603565b6040516102049190612e20565b60405180910390f35b61022760048036038101906102229190612f81565b610615565b005b610243600480360381019061023e9190612fca565b61064c565b6040516102509190613076565b60405180910390f35b610273600480360381019061026e9190613201565b6106e0565b005b61028f600480360381019061028a91906132f2565b61071d565b60405161029c919061332e565b60405180910390f35b6102bf60048036038101906102ba9190613349565b61073d565b005b6102db60048036038101906102d69190613418565b6107de565b005b6102f760048036038101906102f29190613418565b6107ff565b005b610301610882565b005b61031d6004803603810190610318919061351b565b6108b7565b60405161032a9190613651565b60405180910390f35b61034d60048036038101906103489190612fca565b6109d0565b60405161035a9190612e20565b60405180910390f35b61036b6109e4565b6040516103789190612e20565b60405180910390f35b61039b60048036038101906103969190613673565b6109fb565b005b6103b760048036038101906103b291906136fe565b610a98565b005b6103c1610ad5565b6040516103ce919061332e565b60405180910390f35b6103df610af9565b005b6103fb60048036038101906103f69190613418565b610b2e565b6040516104089190612e20565b60405180910390f35b610419610b99565b604051610426919061332e565b60405180910390f35b610449600480360381019061044491906137ad565b610ba0565b005b61046560048036038101906104609190612fca565b610bb6565b6040516104729190612d65565b60405180910390f35b610483610bd3565b604051610490919061332e565b60405180910390f35b6104b360048036038101906104ae9190613418565b610bf7565b005b6104bd610c18565b6040516104ca919061332e565b60405180910390f35b6104ed60048036038101906104e891906137ed565b610c3c565b6040516104fa9190612e20565b60405180910390f35b61051d6004803603810190610518919061382d565b610cd0565b005b610539600480360381019061053491906138c4565b610d71565b005b60008073ffffffffffffffffffffffffffffffffffffffff168373ffffffffffffffffffffffffffffffffffffffff16036105ab576040517f08c379a00000000000000000000000000000000000000000000000000000000081526004016105a290613989565b60405180910390fd5b60008083815260200190815260200160002060008473ffffffffffffffffffffffffffffffffffffffff1673ffffffffffffffffffffffffffffffffffffffff16815260200190815260200160002054905092915050565b600061060e82610e0e565b9050919050565b7f7804d923f43a17d325d77e781528e0793b2edd9890ab45fc64efd7b4b427744c61063f81610e88565b61064882610e9c565b5050565b60606002805461065b906139d8565b80601f0160208091040260200160405190810160405280929190818152602001828054610687906139d8565b80156106d45780601f106106a9576101008083540402835291602001916106d4565b820191906000526020600020905b8154815290600101906020018083116106b757829003601f168201915b50505050509050919050565b7f9f2df0fed2c77648de5860a4cc508cd0818c85b8b8a1ab4ceeef8d981c8956a661070a81610e88565b61071685858585610eaf565b5050505050565b600060036000838152602001908152602001600020600101549050919050565b6107456110db565b73ffffffffffffffffffffffffffffffffffffffff168573ffffffffffffffffffffffffffffffffffffffff16148061078b575061078a856107856110db565b610c3c565b5b6107ca576040517f08c379a00000000000000000000000000000000000000000000000000000000081526004016107c190613a7b565b60405180910390fd5b6107d785858585856110e3565b5050505050565b6107e78261071d565b6107f081610e88565b6107fa8383611404565b505050565b6108076110db565b73ffffffffffffffffffffffffffffffffffffffff168173ffffffffffffffffffffffffffffffffffffffff1614610874576040517f08c379a000000000000000000000000000000000000000000000000000000000815260040161086b90613b0d565b60405180910390fd5b61087e82826114e5565b5050565b7f65d7a28e3265b37a6474929f336521b332c1681b933f6cb9f3376673440d862a6108ac81610e88565b6108b46115c7565b50565b606081518351146108fd576040517f08c379a00000000000000000000000000000000000000000000000000000000081526004016108f490613b9f565b60405180910390fd5b6000835167ffffffffffffffff81111561091a57610919612e56565b5b6040519080825280602002602001820160405280156109485781602001602082028036833780820191505090505b50905060005b84518110156109c55761099585828151811061096d5761096c613bbf565b5b602002602001015185838151811061098857610987613bbf565b5b602002602001015161053b565b8282815181106109a8576109a7613bbf565b5b602002602001018181525050806109be90613c1d565b905061094e565b508091505092915050565b6000806109dc83610bb6565b119050919050565b6000600460009054906101000a900460ff16905090565b610a036110db565b73ffffffffffffffffffffffffffffffffffffffff168373ffffffffffffffffffffffffffffffffffffffff161480610a495750610a4883610a436110db565b610c3c565b5b610a88576040517f08c379a0000000000000000000000000000000000000000000000000000000008152600401610a7f90613a7b565b60405180910390fd5b610a9383838361162a565b505050565b7f9f2df0fed2c77648de5860a4cc508cd0818c85b8b8a1ab4ceeef8d981c8956a6610ac281610e88565b610ace858585856118f8565b5050505050565b7f7804d923f43a17d325d77e781528e0793b2edd9890ab45fc64efd7b4b427744c81565b7f65d7a28e3265b37a6474929f336521b332c1681b933f6cb9f3376673440d862a610b2381610e88565b610b2b611aa8565b50565b60006003600084815260200190815260200160002060000160008373ffffffffffffffffffffffffffffffffffffffff1673ffffffffffffffffffffffffffffffffffffffff16815260200190815260200160002060009054906101000a900460ff16905092915050565b6000801b81565b610bb2610bab6110db565b8383611b0b565b5050565b600060056000838152602001908152602001600020549050919050565b7f9f2df0fed2c77648de5860a4cc508cd0818c85b8b8a1ab4ceeef8d981c8956a681565b610c008261071d565b610c0981610e88565b610c1383836114e5565b505050565b7f65d7a28e3265b37a6474929f336521b332c1681b933f6cb9f3376673440d862a81565b6000600160008473ffffffffffffffffffffffffffffffffffffffff1673ffffffffffffffffffffffffffffffffffffffff16815260200190815260200160002060008373ffffffffffffffffffffffffffffffffffffffff1673ffffffffffffffffffffffffffffffffffffffff16815260200190815260200160002060009054906101000a900460ff16905092915050565b610cd86110db565b73ffffffffffffffffffffffffffffffffffffffff168573ffffffffffffffffffffffffffffffffffffffff161480610d1e5750610d1d85610d186110db565b610c3c565b5b610d5d576040517f08c379a0000000000000000000000000000000000000000000000000000000008152600401610d5490613a7b565b60405180910390fd5b610d6a8585858585611c77565b5050505050565b610d796110db565b73ffffffffffffffffffffffffffffffffffffffff168373ffffffffffffffffffffffffffffffffffffffff161480610dbf5750610dbe83610db96110db565b610c3c565b5b610dfe576040517f08c379a0000000000000000000000000000000000000000000000000000000008152600401610df590613a7b565b60405180910390fd5b610e09838383611f12565b505050565b60007f7965db0b000000000000000000000000000000000000000000000000000000007bffffffffffffffffffffffffffffffffffffffffffffffffffffffff1916827bffffffffffffffffffffffffffffffffffffffffffffffffffffffff19161480610e815750610e8082612158565b5b9050919050565b610e9981610e946110db565b61223a565b50565b8060029081610eab9190613e11565b5050565b600073ffffffffffffffffffffffffffffffffffffffff168473ffffffffffffffffffffffffffffffffffffffff1603610f1e576040517f08c379a0000000000000000000000000000000000000000000000000000000008152600401610f1590613f55565b60405180910390fd5b8151835114610f62576040517f08c379a0000000000000000000000000000000000000000000000000000000008152600401610f5990613fe7565b60405180910390fd5b6000610f6c6110db565b9050610f7d816000878787876122bf565b60005b845181101561103657838181518110610f9c57610f9b613bbf565b5b6020026020010151600080878481518110610fba57610fb9613bbf565b5b6020026020010151815260200190815260200160002060008873ffffffffffffffffffffffffffffffffffffffff1673ffffffffffffffffffffffffffffffffffffffff168152602001908152602001600020600082825461101c9190614007565b92505081905550808061102e90613c1d565b915050610f80565b508473ffffffffffffffffffffffffffffffffffffffff16600073ffffffffffffffffffffffffffffffffffffffff168273ffffffffffffffffffffffffffffffffffffffff167f4a39dc06d4c0dbc64b70af90fd698a233a518aa5d07e595d983b8c0526c8f7fb87876040516110ae92919061403b565b60405180910390a46110c5816000878787876122dd565b6110d4816000878787876122e5565b5050505050565b600033905090565b8151835114611127576040517f08c379a000000000000000000000000000000000000000000000000000000000815260040161111e90613fe7565b60405180910390fd5b600073ffffffffffffffffffffffffffffffffffffffff168473ffffffffffffffffffffffffffffffffffffffff1603611196576040517f08c379a000000000000000000000000000000000000000000000000000000000815260040161118d906140e4565b60405180910390fd5b60006111a06110db565b90506111b08187878787876122bf565b60005b84518110156113615760008582815181106111d1576111d0613bbf565b5b6020026020010151905060008583815181106111f0576111ef613bbf565b5b60200260200101519050600080600084815260200190815260200160002060008b73ffffffffffffffffffffffffffffffffffffffff1673ffffffffffffffffffffffffffffffffffffffff16815260200190815260200160002054905081811015611291576040517f08c379a000000000000000000000000000000000000000000000000000000000815260040161128890614176565b60405180910390fd5b81810360008085815260200190815260200160002060008c73ffffffffffffffffffffffffffffffffffffffff1673ffffffffffffffffffffffffffffffffffffffff168152602001908152602001600020819055508160008085815260200190815260200160002060008b73ffffffffffffffffffffffffffffffffffffffff1673ffffffffffffffffffffffffffffffffffffffff16815260200190815260200160002060008282546113469190614007565b925050819055505050508061135a90613c1d565b90506111b3565b508473ffffffffffffffffffffffffffffffffffffffff168673ffffffffffffffffffffffffffffffffffffffff168273ffffffffffffffffffffffffffffffffffffffff167f4a39dc06d4c0dbc64b70af90fd698a233a518aa5d07e595d983b8c0526c8f7fb87876040516113d892919061403b565b60405180910390a46113ee8187878787876122dd565b6113fc8187878787876122e5565b505050505050565b61140e8282610b2e565b6114e15760016003600084815260200190815260200160002060000160008373ffffffffffffffffffffffffffffffffffffffff1673ffffffffffffffffffffffffffffffffffffffff16815260200190815260200160002060006101000a81548160ff0219169083151502179055506114866110db565b73ffffffffffffffffffffffffffffffffffffffff168173ffffffffffffffffffffffffffffffffffffffff16837f2f8788117e7eff1d82e926ec794901d17c78024a50270940304540a733656f0d60405160405180910390a45b5050565b6114ef8282610b2e565b156115c35760006003600084815260200190815260200160002060000160008373ffffffffffffffffffffffffffffffffffffffff1673ffffffffffffffffffffffffffffffffffffffff16815260200190815260200160002060006101000a81548160ff0219169083151502179055506115686110db565b73ffffffffffffffffffffffffffffffffffffffff168173ffffffffffffffffffffffffffffffffffffffff16837ff6391f5c32d9c69d2a47ea670b442974b53935d1edc7fd64eb21e047a839171b60405160405180910390a45b5050565b6115cf6124bc565b6000600460006101000a81548160ff0219169083151502179055507f5db9ee0a495bf2e6ff9c91a7834c1ba4fdd244a5e8aa4e537bd38aeae4b073aa6116136110db565b60405161162091906141a5565b60405180910390a1565b600073ffffffffffffffffffffffffffffffffffffffff168373ffffffffffffffffffffffffffffffffffffffff1603611699576040517f08c379a000000000000000000000000000000000000000000000000000000000815260040161169090614232565b60405180910390fd5b80518251146116dd576040517f08c379a00000000000000000000000000000000000000000000000000000000081526004016116d490613fe7565b60405180910390fd5b60006116e76110db565b9050611707818560008686604051806020016040528060008152506122bf565b60005b835181101561185457600084828151811061172857611727613bbf565b5b60200260200101519050600084838151811061174757611746613bbf565b5b60200260200101519050600080600084815260200190815260200160002060008973ffffffffffffffffffffffffffffffffffffffff1673ffffffffffffffffffffffffffffffffffffffff168152602001908152602001600020549050818110156117e8576040517f08c379a00000000000000000000000000000000000000000000000000000000081526004016117df906142c4565b60405180910390fd5b81810360008085815260200190815260200160002060008a73ffffffffffffffffffffffffffffffffffffffff1673ffffffffffffffffffffffffffffffffffffffff16815260200190815260200160002081905550505050808061184c90613c1d565b91505061170a565b50600073ffffffffffffffffffffffffffffffffffffffff168473ffffffffffffffffffffffffffffffffffffffff168273ffffffffffffffffffffffffffffffffffffffff167f4a39dc06d4c0dbc64b70af90fd698a233a518aa5d07e595d983b8c0526c8f7fb86866040516118cc92919061403b565b60405180910390a46118f2818560008686604051806020016040528060008152506122dd565b50505050565b600073ffffffffffffffffffffffffffffffffffffffff168473ffffffffffffffffffffffffffffffffffffffff1603611967576040517f08c379a000000000000000000000000000000000000000000000000000000000815260040161195e90613f55565b60405180910390fd5b60006119716110db565b9050600061197e85612505565b9050600061198b85612505565b905061199c836000898585896122bf565b8460008088815260200190815260200160002060008973ffffffffffffffffffffffffffffffffffffffff1673ffffffffffffffffffffffffffffffffffffffff16815260200190815260200160002060008282546119fb9190614007565b925050819055508673ffffffffffffffffffffffffffffffffffffffff16600073ffffffffffffffffffffffffffffffffffffffff168473ffffffffffffffffffffffffffffffffffffffff167fc3d58168c5ae7397731d063d5bbf3d657854427343f4c083240f7aacaa2d0f628989604051611a799291906142e4565b60405180910390a4611a90836000898585896122dd565b611a9f8360008989898961257f565b50505050505050565b611ab0612756565b6001600460006101000a81548160ff0219169083151502179055507f62e78cea01bee320cd4e420270b5ea74000d11b0c9f74754ebdbfc544b05a258611af46110db565b604051611b0191906141a5565b60405180910390a1565b8173ffffffffffffffffffffffffffffffffffffffff168373ffffffffffffffffffffffffffffffffffffffff1603611b79576040517f08c379a0000000000000000000000000000000000000000000000000000000008152600401611b709061437f565b60405180910390fd5b80600160008573ffffffffffffffffffffffffffffffffffffffff1673ffffffffffffffffffffffffffffffffffffffff16815260200190815260200160002060008473ffffffffffffffffffffffffffffffffffffffff1673ffffffffffffffffffffffffffffffffffffffff16815260200190815260200160002060006101000a81548160ff0219169083151502179055508173ffffffffffffffffffffffffffffffffffffffff168373ffffffffffffffffffffffffffffffffffffffff167f17307eab39ab6107e8899845ad3d59bd9653f200f220920489ca2b5937696c3183604051611c6a9190612e20565b60405180910390a3505050565b600073ffffffffffffffffffffffffffffffffffffffff168473ffffffffffffffffffffffffffffffffffffffff1603611ce6576040517f08c379a0000000000000000000000000000000000000000000000000000000008152600401611cdd906140e4565b60405180910390fd5b6000611cf06110db565b90506000611cfd85612505565b90506000611d0a85612505565b9050611d1a8389898585896122bf565b600080600088815260200190815260200160002060008a73ffffffffffffffffffffffffffffffffffffffff1673ffffffffffffffffffffffffffffffffffffffff16815260200190815260200160002054905085811015611db1576040517f08c379a0000000000000000000000000000000000000000000000000000000008152600401611da890614176565b60405180910390fd5b85810360008089815260200190815260200160002060008b73ffffffffffffffffffffffffffffffffffffffff1673ffffffffffffffffffffffffffffffffffffffff168152602001908152602001600020819055508560008089815260200190815260200160002060008a73ffffffffffffffffffffffffffffffffffffffff1673ffffffffffffffffffffffffffffffffffffffff1681526020019081526020016000206000828254611e669190614007565b925050819055508773ffffffffffffffffffffffffffffffffffffffff168973ffffffffffffffffffffffffffffffffffffffff168573ffffffffffffffffffffffffffffffffffffffff167fc3d58168c5ae7397731d063d5bbf3d657854427343f4c083240f7aacaa2d0f628a8a604051611ee39291906142e4565b60405180910390a4611ef9848a8a86868a6122dd565b611f07848a8a8a8a8a61257f565b505050505050505050565b600073ffffffffffffffffffffffffffffffffffffffff168373ffffffffffffffffffffffffffffffffffffffff1603611f81576040517f08c379a0000000000000000000000000000000000000000000000000000000008152600401611f7890614232565b60405180910390fd5b6000611f8b6110db565b90506000611f9884612505565b90506000611fa584612505565b9050611fc5838760008585604051806020016040528060008152506122bf565b600080600087815260200190815260200160002060008873ffffffffffffffffffffffffffffffffffffffff1673ffffffffffffffffffffffffffffffffffffffff1681526020019081526020016000205490508481101561205c576040517f08c379a0000000000000000000000000000000000000000000000000000000008152600401612053906142c4565b60405180910390fd5b84810360008088815260200190815260200160002060008973ffffffffffffffffffffffffffffffffffffffff1673ffffffffffffffffffffffffffffffffffffffff16815260200190815260200160002081905550600073ffffffffffffffffffffffffffffffffffffffff168773ffffffffffffffffffffffffffffffffffffffff168573ffffffffffffffffffffffffffffffffffffffff167fc3d58168c5ae7397731d063d5bbf3d657854427343f4c083240f7aacaa2d0f6289896040516121299291906142e4565b60405180910390a461214f848860008686604051806020016040528060008152506122dd565b50505050505050565b60007fd9b67a26000000000000000000000000000000000000000000000000000000007bffffffffffffffffffffffffffffffffffffffffffffffffffffffff1916827bffffffffffffffffffffffffffffffffffffffffffffffffffffffff1916148061222357507f0e89341c000000000000000000000000000000000000000000000000000000007bffffffffffffffffffffffffffffffffffffffffffffffffffffffff1916827bffffffffffffffffffffffffffffffffffffffffffffffffffffffff1916145b806122335750612232826127a0565b5b9050919050565b6122448282610b2e565b6122bb576122518161280a565b61225f8360001c6020612837565b604051602001612270929190614473565b6040516020818303038152906040526040517f08c379a00000000000000000000000000000000000000000000000000000000081526004016122b29190613076565b60405180910390fd5b5050565b6122c7612756565b6122d5868686868686612a73565b505050505050565b505050505050565b6123048473ffffffffffffffffffffffffffffffffffffffff16612c43565b156124b4578373ffffffffffffffffffffffffffffffffffffffff1663bc197c8187878686866040518663ffffffff1660e01b815260040161234a959493929190614502565b6020604051808303816000875af192505050801561238657506040513d601f19601f82011682018060405250810190612383919061457f565b60015b61242b576123926145b9565b806308c379a0036123ee57506123a66145db565b806123b157506123f0565b806040517f08c379a00000000000000000000000000000000000000000000000000000000081526004016123e59190613076565b60405180910390fd5b505b6040517f08c379a0000000000000000000000000000000000000000000000000000000008152600401612422906146dd565b60405180910390fd5b63bc197c8160e01b7bffffffffffffffffffffffffffffffffffffffffffffffffffffffff1916817bffffffffffffffffffffffffffffffffffffffffffffffffffffffff1916146124b2576040517f08c379a00000000000000000000000000000000000000000000000000000000081526004016124a99061476f565b60405180910390fd5b505b505050505050565b6124c46109e4565b612503576040517f08c379a00000000000000000000000000000000000000000000000000000000081526004016124fa906147db565b60405180910390fd5b565b60606000600167ffffffffffffffff81111561252457612523612e56565b5b6040519080825280602002602001820160405280156125525781602001602082028036833780820191505090505b509050828160008151811061256a57612569613bbf565b5b60200260200101818152505080915050919050565b61259e8473ffffffffffffffffffffffffffffffffffffffff16612c43565b1561274e578373ffffffffffffffffffffffffffffffffffffffff1663f23a6e6187878686866040518663ffffffff1660e01b81526004016125e49594939291906147fb565b6020604051808303816000875af192505050801561262057506040513d601f19601f8201168201806040525081019061261d919061457f565b60015b6126c55761262c6145b9565b806308c379a00361268857506126406145db565b8061264b575061268a565b806040517f08c379a000000000000000000000000000000000000000000000000000000000815260040161267f9190613076565b60405180910390fd5b505b6040517f08c379a00000000000000000000000000000000000000000000000000000000081526004016126bc906146dd565b60405180910390fd5b63f23a6e6160e01b7bffffffffffffffffffffffffffffffffffffffffffffffffffffffff1916817bffffffffffffffffffffffffffffffffffffffffffffffffffffffff19161461274c576040517f08c379a00000000000000000000000000000000000000000000000000000000081526004016127439061476f565b60405180910390fd5b505b505050505050565b61275e6109e4565b1561279e576040517f08c379a0000000000000000000000000000000000000000000000000000000008152600401612795906148a1565b60405180910390fd5b565b60007f01ffc9a7000000000000000000000000000000000000000000000000000000007bffffffffffffffffffffffffffffffffffffffffffffffffffffffff1916827bffffffffffffffffffffffffffffffffffffffffffffffffffffffff1916149050919050565b60606128308273ffffffffffffffffffffffffffffffffffffffff16601460ff16612837565b9050919050565b60606000600283600261284a91906148c1565b6128549190614007565b67ffffffffffffffff81111561286d5761286c612e56565b5b6040519080825280601f01601f19166020018201604052801561289f5781602001600182028036833780820191505090505b5090507f3000000000000000000000000000000000000000000000000000000000000000816000815181106128d7576128d6613bbf565b5b60200101907effffffffffffffffffffffffffffffffffffffffffffffffffffffffffffff1916908160001a9053507f78000000000000000000000000000000000000000000000000000000000000008160018151811061293b5761293a613bbf565b5b60200101907effffffffffffffffffffffffffffffffffffffffffffffffffffffffffffff1916908160001a9053506000600184600261297b91906148c1565b6129859190614007565b90505b6001811115612a25577f3031323334353637383961626364656600000000000000000000000000000000600f8616601081106129c7576129c6613bbf565b5b1a60f81b8282815181106129de576129dd613bbf565b5b60200101907effffffffffffffffffffffffffffffffffffffffffffffffffffffffffffff1916908160001a905350600485901c945080612a1e90614903565b9050612988565b5060008414612a69576040517f08c379a0000000000000000000000000000000000000000000000000000000008152600401612a6090614978565b60405180910390fd5b8091505092915050565b612a81868686868686612c66565b600073ffffffffffffffffffffffffffffffffffffffff168573ffffffffffffffffffffffffffffffffffffffff1603612b325760005b8351811015612b3057828181518110612ad457612ad3613bbf565b5b602002602001015160056000868481518110612af357612af2613bbf565b5b602002602001015181526020019081526020016000206000828254612b189190614007565b9250508190555080612b2990613c1d565b9050612ab8565b505b600073ffffffffffffffffffffffffffffffffffffffff168473ffffffffffffffffffffffffffffffffffffffff1603612c3b5760005b8351811015612c39576000848281518110612b8757612b86613bbf565b5b602002602001015190506000848381518110612ba657612ba5613bbf565b5b6020026020010151905060006005600084815260200190815260200160002054905081811015612c0b576040517f08c379a0000000000000000000000000000000000000000000000000000000008152600401612c0290614a0a565b60405180910390fd5b818103600560008581526020019081526020016000208190555050505080612c3290613c1d565b9050612b69565b505b505050505050565b6000808273ffffffffffffffffffffffffffffffffffffffff163b119050919050565b505050505050565b6000604051905090565b600080fd5b600080fd5b600073ffffffffffffffffffffffffffffffffffffffff82169050919050565b6000612cad82612c82565b9050919050565b612cbd81612ca2565b8114612cc857600080fd5b50565b600081359050612cda81612cb4565b92915050565b6000819050919050565b612cf381612ce0565b8114612cfe57600080fd5b50565b600081359050612d1081612cea565b92915050565b60008060408385031215612d2d57612d2c612c78565b5b6000612d3b85828601612ccb565b9250506020612d4c85828601612d01565b9150509250929050565b612d5f81612ce0565b82525050565b6000602082019050612d7a6000830184612d56565b92915050565b60007fffffffff0000000000000000000000000000000000000000000000000000000082169050919050565b612db581612d80565b8114612dc057600080fd5b50565b600081359050612dd281612dac565b92915050565b600060208284031215612dee57612ded612c78565b5b6000612dfc84828501612dc3565b91505092915050565b60008115159050919050565b612e1a81612e05565b82525050565b6000602082019050612e356000830184612e11565b92915050565b600080fd5b600080fd5b6000601f19601f8301169050919050565b7f4e487b7100000000000000000000000000000000000000000000000000000000600052604160045260246000fd5b612e8e82612e45565b810181811067ffffffffffffffff82111715612ead57612eac612e56565b5b80604052505050565b6000612ec0612c6e565b9050612ecc8282612e85565b919050565b600067ffffffffffffffff821115612eec57612eeb612e56565b5b612ef582612e45565b9050602081019050919050565b82818337600083830152505050565b6000612f24612f1f84612ed1565b612eb6565b905082815260208101848484011115612f4057612f3f612e40565b5b612f4b848285612f02565b509392505050565b600082601f830112612f6857612f67612e3b565b5b8135612f78848260208601612f11565b91505092915050565b600060208284031215612f9757612f96612c78565b5b600082013567ffffffffffffffff811115612fb557612fb4612c7d565b5b612fc184828501612f53565b91505092915050565b600060208284031215612fe057612fdf612c78565b5b6000612fee84828501612d01565b91505092915050565b600081519050919050565b600082825260208201905092915050565b60005b83811015613031578082015181840152602081019050613016565b60008484015250505050565b600061304882612ff7565b6130528185613002565b9350613062818560208601613013565b61306b81612e45565b840191505092915050565b60006020820190508181036000830152613090818461303d565b905092915050565b600067ffffffffffffffff8211156130b3576130b2612e56565b5b602082029050602081019050919050565b600080fd5b60006130dc6130d784613098565b612eb6565b905080838252602082019050602084028301858111156130ff576130fe6130c4565b5b835b8181101561312857806131148882612d01565b845260208401935050602081019050613101565b5050509392505050565b600082601f83011261314757613146612e3b565b5b81356131578482602086016130c9565b91505092915050565b600067ffffffffffffffff82111561317b5761317a612e56565b5b61318482612e45565b9050602081019050919050565b60006131a461319f84613160565b612eb6565b9050828152602081018484840111156131c0576131bf612e40565b5b6131cb848285612f02565b509392505050565b600082601f8301126131e8576131e7612e3b565b5b81356131f8848260208601613191565b91505092915050565b6000806000806080858703121561321b5761321a612c78565b5b600061322987828801612ccb565b945050602085013567ffffffffffffffff81111561324a57613249612c7d565b5b61325687828801613132565b935050604085013567ffffffffffffffff81111561327757613276612c7d565b5b61328387828801613132565b925050606085013567ffffffffffffffff8111156132a4576132a3612c7d565b5b6132b0878288016131d3565b91505092959194509250565b6000819050919050565b6132cf816132bc565b81146132da57600080fd5b50565b6000813590506132ec816132c6565b92915050565b60006020828403121561330857613307612c78565b5b6000613316848285016132dd565b91505092915050565b613328816132bc565b82525050565b6000602082019050613343600083018461331f565b92915050565b600080600080600060a0868803121561336557613364612c78565b5b600061337388828901612ccb565b955050602061338488828901612ccb565b945050604086013567ffffffffffffffff8111156133a5576133a4612c7d565b5b6133b188828901613132565b935050606086013567ffffffffffffffff8111156133d2576133d1612c7d565b5b6133de88828901613132565b925050608086013567ffffffffffffffff8111156133ff576133fe612c7d565b5b61340b888289016131d3565b9150509295509295909350565b6000806040838503121561342f5761342e612c78565b5b600061343d858286016132dd565b925050602061344e85828601612ccb565b9150509250929050565b600067ffffffffffffffff82111561347357613472612e56565b5b602082029050602081019050919050565b600061349761349284613458565b612eb6565b905080838252602082019050602084028301858111156134ba576134b96130c4565b5b835b818110156134e357806134cf8882612ccb565b8452602084019350506020810190506134bc565b5050509392505050565b600082601f83011261350257613501612e3b565b5b8135613512848260208601613484565b91505092915050565b6000806040838503121561353257613531612c78565b5b600083013567ffffffffffffffff8111156135505761354f612c7d565b5b61355c858286016134ed565b925050602083013567ffffffffffffffff81111561357d5761357c612c7d565b5b61358985828601613132565b9150509250929050565b600081519050919050565b600082825260208201905092915050565b6000819050602082019050919050565b6135c881612ce0565b82525050565b60006135da83836135bf565b60208301905092915050565b6000602082019050919050565b60006135fe82613593565b613608818561359e565b9350613613836135af565b8060005b8381101561364457815161362b88826135ce565b9750613636836135e6565b925050600181019050613617565b5085935050505092915050565b6000602082019050818103600083015261366b81846135f3565b905092915050565b60008060006060848603121561368c5761368b612c78565b5b600061369a86828701612ccb565b935050602084013567ffffffffffffffff8111156136bb576136ba612c7d565b5b6136c786828701613132565b925050604084013567ffffffffffffffff8111156136e8576136e7612c7d565b5b6136f486828701613132565b9150509250925092565b6000806000806080858703121561371857613717612c78565b5b600061372687828801612ccb565b945050602061373787828801612d01565b935050604061374887828801612d01565b925050606085013567ffffffffffffffff81111561376957613768612c7d565b5b613775878288016131d3565b91505092959194509250565b61378a81612e05565b811461379557600080fd5b50565b6000813590506137a781613781565b92915050565b600080604083850312156137c4576137c3612c78565b5b60006137d285828601612ccb565b92505060206137e385828601613798565b9150509250929050565b6000806040838503121561380457613803612c78565b5b600061381285828601612ccb565b925050602061382385828601612ccb565b9150509250929050565b600080600080600060a0868803121561384957613848612c78565b5b600061385788828901612ccb565b955050602061386888828901612ccb565b945050604061387988828901612d01565b935050606061388a88828901612d01565b925050608086013567ffffffffffffffff8111156138ab576138aa612c7d565b5b6138b7888289016131d3565b9150509295509295909350565b6000806000606084860312156138dd576138dc612c78565b5b60006138eb86828701612ccb565b93505060206138fc86828701612d01565b925050604061390d86828701612d01565b9150509250925092565b7f455243313135353a2061646472657373207a65726f206973206e6f742061207660008201527f616c6964206f776e657200000000000000000000000000000000000000000000602082015250565b6000613973602a83613002565b915061397e82613917565b604082019050919050565b600060208201905081810360008301526139a281613966565b9050919050565b7f4e487b7100000000000000000000000000000000000000000000000000000000600052602260045260246000fd5b600060028204905060018216806139f057607f821691505b602082108103613a0357613a026139a9565b5b50919050565b7f455243313135353a2063616c6c6572206973206e6f7420746f6b656e206f776e60008201527f6572206f7220617070726f766564000000000000000000000000000000000000602082015250565b6000613a65602e83613002565b9150613a7082613a09565b604082019050919050565b60006020820190508181036000830152613a9481613a58565b9050919050565b7f416363657373436f6e74726f6c3a2063616e206f6e6c792072656e6f756e636560008201527f20726f6c657320666f722073656c660000000000000000000000000000000000602082015250565b6000613af7602f83613002565b9150613b0282613a9b565b604082019050919050565b60006020820190508181036000830152613b2681613aea565b9050919050565b7f455243313135353a206163636f756e747320616e6420696473206c656e67746860008201527f206d69736d617463680000000000000000000000000000000000000000000000602082015250565b6000613b89602983613002565b9150613b9482613b2d565b604082019050919050565b60006020820190508181036000830152613bb881613b7c565b9050919050565b7f4e487b7100000000000000000000000000000000000000000000000000000000600052603260045260246000fd5b7f4e487b7100000000000000000000000000000000000000000000000000000000600052601160045260246000fd5b6000613c2882612ce0565b91507fffffffffffffffffffffffffffffffffffffffffffffffffffffffffffffffff8203613c5a57613c59613bee565b5b600182019050919050565b60008190508160005260206000209050919050565b60006020601f8301049050919050565b600082821b905092915050565b600060088302613cc77fffffffffffffffffffffffffffffffffffffffffffffffffffffffffffffffff82613c8a565b613cd18683613c8a565b95508019841693508086168417925050509392505050565b6000819050919050565b6000613d0e613d09613d0484612ce0565b613ce9565b612ce0565b9050919050565b6000819050919050565b613d2883613cf3565b613d3c613d3482613d15565b848454613c97565b825550505050565b600090565b613d51613d44565b613d5c818484613d1f565b505050565b5b81811015613d8057613d75600082613d49565b600181019050613d62565b5050565b601f821115613dc557613d9681613c65565b613d9f84613c7a565b81016020851015613dae578190505b613dc2613dba85613c7a565b830182613d61565b50505b505050565b600082821c905092915050565b6000613de860001984600802613dca565b1980831691505092915050565b6000613e018383613dd7565b9150826002028217905092915050565b613e1a82612ff7565b67ffffffffffffffff811115613e3357613e32612e56565b5b613e3d82546139d8565b613e48828285613d84565b600060209050601f831160018114613e7b5760008415613e69578287015190505b613e738582613df5565b865550613edb565b601f198416613e8986613c65565b60005b82811015613eb157848901518255600182019150602085019450602081019050613e8c565b86831015613ece5784890151613eca601f891682613dd7565b8355505b6001600288020188555050505b505050505050565b7f455243313135353a206d696e7420746f20746865207a65726f2061646472657360008201527f7300000000000000000000000000000000000000000000000000000000000000602082015250565b6000613f3f602183613002565b9150613f4a82613ee3565b604082019050919050565b60006020820190508181036000830152613f6e81613f32565b9050919050565b7f455243313135353a2069647320616e6420616d6f756e7473206c656e6774682060008201527f6d69736d61746368000000000000000000000000000000000000000000000000602082015250565b6000613fd1602883613002565b9150613fdc82613f75565b604082019050919050565b6000602082019050818103600083015261400081613fc4565b9050919050565b600061401282612ce0565b915061401d83612ce0565b925082820190508082111561403557614034613bee565b5b92915050565b6000604082019050818103600083015261405581856135f3565b9050818103602083015261406981846135f3565b90509392505050565b7f455243313135353a207472616e7366657220746f20746865207a65726f20616460008201527f6472657373000000000000000000000000000000000000000000000000000000602082015250565b60006140ce602583613002565b91506140d982614072565b604082019050919050565b600060208201905081810360008301526140fd816140c1565b9050919050565b7f455243313135353a20696e73756666696369656e742062616c616e636520666f60008201527f72207472616e7366657200000000000000000000000000000000000000000000602082015250565b6000614160602a83613002565b915061416b82614104565b604082019050919050565b6000602082019050818103600083015261418f81614153565b9050919050565b61419f81612ca2565b82525050565b60006020820190506141ba6000830184614196565b92915050565b7f455243313135353a206275726e2066726f6d20746865207a65726f206164647260008201527f6573730000000000000000000000000000000000000000000000000000000000602082015250565b600061421c602383613002565b9150614227826141c0565b604082019050919050565b6000602082019050818103600083015261424b8161420f565b9050919050565b7f455243313135353a206275726e20616d6f756e7420657863656564732062616c60008201527f616e636500000000000000000000000000000000000000000000000000000000602082015250565b60006142ae602483613002565b91506142b982614252565b604082019050919050565b600060208201905081810360008301526142dd816142a1565b9050919050565b60006040820190506142f96000830185612d56565b6143066020830184612d56565b9392505050565b7f455243313135353a2073657474696e6720617070726f76616c2073746174757360008201527f20666f722073656c660000000000000000000000000000000000000000000000602082015250565b6000614369602983613002565b91506143748261430d565b604082019050919050565b600060208201905081810360008301526143988161435c565b9050919050565b600081905092915050565b7f416363657373436f6e74726f6c3a206163636f756e7420000000000000000000600082015250565b60006143e060178361439f565b91506143eb826143aa565b601782019050919050565b600061440182612ff7565b61440b818561439f565b935061441b818560208601613013565b80840191505092915050565b7f206973206d697373696e6720726f6c6520000000000000000000000000000000600082015250565b600061445d60118361439f565b915061446882614427565b601182019050919050565b600061447e826143d3565b915061448a82856143f6565b915061449582614450565b91506144a182846143f6565b91508190509392505050565b600081519050919050565b600082825260208201905092915050565b60006144d4826144ad565b6144de81856144b8565b93506144ee818560208601613013565b6144f781612e45565b840191505092915050565b600060a0820190506145176000830188614196565b6145246020830187614196565b818103604083015261453681866135f3565b9050818103606083015261454a81856135f3565b9050818103608083015261455e81846144c9565b90509695505050505050565b60008151905061457981612dac565b92915050565b60006020828403121561459557614594612c78565b5b60006145a38482850161456a565b91505092915050565b60008160e01c9050919050565b600060033d11156145d85760046000803e6145d56000516145ac565b90505b90565b600060443d10614668576145ed612c6e565b60043d036004823e80513d602482011167ffffffffffffffff82111715614615575050614668565b808201805167ffffffffffffffff8111156146335750505050614668565b80602083010160043d038501811115614650575050505050614668565b61465f82602001850186612e85565b82955050505050505b90565b7f455243313135353a207472616e7366657220746f206e6f6e2d4552433131353560008201527f526563656976657220696d706c656d656e746572000000000000000000000000602082015250565b60006146c7603483613002565b91506146d28261466b565b604082019050919050565b600060208201905081810360008301526146f6816146ba565b9050919050565b7f455243313135353a204552433131353552656365697665722072656a6563746560008201527f6420746f6b656e73000000000000000000000000000000000000000000000000602082015250565b6000614759602883613002565b9150614764826146fd565b604082019050919050565b600060208201905081810360008301526147888161474c565b9050919050565b7f5061757361626c653a206e6f7420706175736564000000000000000000000000600082015250565b60006147c5601483613002565b91506147d08261478f565b602082019050919050565b600060208201905081810360008301526147f4816147b8565b9050919050565b600060a0820190506148106000830188614196565b61481d6020830187614196565b61482a6040830186612d56565b6148376060830185612d56565b818103608083015261484981846144c9565b90509695505050505050565b7f5061757361626c653a2070617573656400000000000000000000000000000000600082015250565b600061488b601083613002565b915061489682614855565b602082019050919050565b600060208201905081810360008301526148ba8161487e565b9050919050565b60006148cc82612ce0565b91506148d783612ce0565b92508282026148e581612ce0565b915082820484148315176148fc576148fb613bee565b5b5092915050565b600061490e82612ce0565b91506000820361492157614920613bee565b5b600182039050919050565b7f537472696e67733a20686578206c656e67746820696e73756666696369656e74600082015250565b6000614962602083613002565b915061496d8261492c565b602082019050919050565b6000602082019050818103600083015261499181614955565b9050919050565b7f455243313135353a206275726e20616d6f756e74206578636565647320746f7460008201527f616c537570706c79000000000000000000000000000000000000000000000000602082015250565b60006149f4602883613002565b91506149ff82614998565b604082019050919050565b60006020820190508181036000830152614a23816149e7565b905091905056fea26469706673582212202fb304c2d3438c467478105e7190505d0ead7e356e600021bf63199c12f43f7a64736f6c63430008110033",
  "immutableReferences": {},
  "source": "// SPDX-License-Identifier: MIT\npragma solidity ^0.8.4;\n\nimport \"@openzeppelin/contracts/token/ERC1155/ERC1155.sol\";\nimport \"@openzeppelin/contracts/access/AccessControl.sol\";\nimport \"@openzeppelin/contracts/security/Pausable.sol\";\nimport \"@openzeppelin/contracts/token/ERC1155/extensions/ERC1155Burnable.sol\";\nimport \"@openzeppelin/contracts/token/ERC1155/extensions/ERC1155Supply.sol\";\n\ncontract FPOEcoToken is ERC1155, AccessControl, Pausable, ERC1155Burnable, ERC1155Supply {\n    bytes32 public constant URI_SETTER_ROLE = keccak256(\"URI_SETTER_ROLE\");\n    bytes32 public constant PAUSER_ROLE = keccak256(\"PAUSER_ROLE\");\n    bytes32 public constant MINTER_ROLE = keccak256(\"MINTER_ROLE\");\n\n    constructor() ERC1155(\"\") {\n        _grantRole(DEFAULT_ADMIN_ROLE, msg.sender);\n        _grantRole(URI_SETTER_ROLE, msg.sender);\n        _grantRole(PAUSER_ROLE, msg.sender);\n        _grantRole(MINTER_ROLE, msg.sender);\n    }\n\n    function setURI(string memory newuri) public onlyRole(URI_SETTER_ROLE) {\n        _setURI(newuri);\n    }\n\n    function pause() public onlyRole(PAUSER_ROLE) {\n        _pause();\n    }\n\n    function unpause() public onlyRole(PAUSER_ROLE) {\n        _unpause();\n    }\n\n    function mint(address account, uint256 id, uint256 quantity, bytes memory data)\n        public\n        onlyRole(MINTER_ROLE)\n    {\n        _mint(account, id, quantity, data);\n    }\n\n    function mintBatch(address to, uint256[] memory ids, uint256[] memory quantity, bytes memory data)\n        public\n        onlyRole(MINTER_ROLE)\n    {\n        _mintBatch(to, ids, quantity, data);\n    }\n\n    function _beforeTokenTransfer(address operator, address from, address to, uint256[] memory ids, uint256[] memory quantity, bytes memory data)\n        internal\n        whenNotPaused\n        override(ERC1155, ERC1155Supply)\n    {\n        super._beforeTokenTransfer(operator, from, to, ids, quantity, data);\n    }\n\n    // The following functions are overrides required by Solidity.\n\n    function supportsInterface(bytes4 interfaceId)\n        public\n        view\n        override(ERC1155, AccessControl)\n        returns (bool)\n    {\n        return super.supportsInterface(interfaceId);\n    }\n}",
  "sourcePath": "/Users/nkpaladugu/Library/CloudStorage/OneDrive-Personal/Tech/IIITH/Capstone/fpochain/web/contracts/Fpoagriproducts.sol",
  "compiler": {
    "name": "solc",
    "version": "0.8.17+commit.8df45f5f.Emscripten.clang"
  },
  "schemaVersion": "3.4.10",
  "updatedAt": "2022-09-24T12:02:33.585Z",
  "devdoc": {
    "kind": "dev",
    "methods": {
      "balanceOf(address,uint256)": {
        "details": "See {IERC1155-balanceOf}. Requirements: - `account` cannot be the zero address."
      },
      "balanceOfBatch(address[],uint256[])": {
        "details": "See {IERC1155-balanceOfBatch}. Requirements: - `accounts` and `ids` must have the same length."
      },
      "exists(uint256)": {
        "details": "Indicates whether any token exist with a given id, or not."
      },
      "getRoleAdmin(bytes32)": {
        "details": "Returns the admin role that controls `role`. See {grantRole} and {revokeRole}. To change a role's admin, use {_setRoleAdmin}."
      },
      "grantRole(bytes32,address)": {
        "details": "Grants `role` to `account`. If `account` had not been already granted `role`, emits a {RoleGranted} event. Requirements: - the caller must have ``role``'s admin role. May emit a {RoleGranted} event."
      },
      "hasRole(bytes32,address)": {
        "details": "Returns `true` if `account` has been granted `role`."
      },
      "isApprovedForAll(address,address)": {
        "details": "See {IERC1155-isApprovedForAll}."
      },
      "paused()": {
        "details": "Returns true if the contract is paused, and false otherwise."
      },
      "renounceRole(bytes32,address)": {
        "details": "Revokes `role` from the calling account. Roles are often managed via {grantRole} and {revokeRole}: this function's purpose is to provide a mechanism for accounts to lose their privileges if they are compromised (such as when a trusted device is misplaced). If the calling account had been revoked `role`, emits a {RoleRevoked} event. Requirements: - the caller must be `account`. May emit a {RoleRevoked} event."
      },
      "revokeRole(bytes32,address)": {
        "details": "Revokes `role` from `account`. If `account` had been granted `role`, emits a {RoleRevoked} event. Requirements: - the caller must have ``role``'s admin role. May emit a {RoleRevoked} event."
      },
      "safeBatchTransferFrom(address,address,uint256[],uint256[],bytes)": {
        "details": "See {IERC1155-safeBatchTransferFrom}."
      },
      "safeTransferFrom(address,address,uint256,uint256,bytes)": {
        "details": "See {IERC1155-safeTransferFrom}."
      },
      "setApprovalForAll(address,bool)": {
        "details": "See {IERC1155-setApprovalForAll}."
      },
      "totalSupply(uint256)": {
        "details": "Total amount of tokens in with a given id."
      },
      "uri(uint256)": {
        "details": "See {IERC1155MetadataURI-uri}. This implementation returns the same URI for *all* token types. It relies on the token type ID substitution mechanism https://eips.ethereum.org/EIPS/eip-1155#metadata[defined in the EIP]. Clients calling this function must replace the `\\{id\\}` substring with the actual token type ID."
      }
    },
    "version": 1
  },
  "userdoc": {
    "kind": "user",
    "methods": {},
    "version": 1
  }
}