{
  "contractName": "FPOProduceTokens",
  "abi": [
    {
      "inputs": [
        {
          "internalType": "address",
          "name": "governance_",
          "type": "address"
        }
      ],
      "stateMutability": "nonpayable",
      "type": "constructor"
    },
    {
      "anonymous": false,
      "inputs": [
        {
          "indexed": true,
          "internalType": "address",
          "name": "account",
          "type": "address"
        },
        {
          "indexed": true,
          "internalType": "address",
          "name": "operator",
          "type": "address"
        },
        {
          "indexed": false,
          "internalType": "bool",
          "name": "approved",
          "type": "bool"
        }
      ],
      "name": "ApprovalForAll",
      "type": "event"
    },
    {
      "anonymous": false,
      "inputs": [
        {
          "indexed": true,
          "internalType": "address",
          "name": "operator",
          "type": "address"
        },
        {
          "indexed": true,
          "internalType": "address",
          "name": "from",
          "type": "address"
        },
        {
          "indexed": true,
          "internalType": "address",
          "name": "to",
          "type": "address"
        },
        {
          "indexed": false,
          "internalType": "uint256[]",
          "name": "ids",
          "type": "uint256[]"
        },
        {
          "indexed": false,
          "internalType": "uint256[]",
          "name": "values",
          "type": "uint256[]"
        }
      ],
      "name": "TransferBatch",
      "type": "event"
    },
    {
      "anonymous": false,
      "inputs": [
        {
          "indexed": true,
          "internalType": "address",
          "name": "operator",
          "type": "address"
        },
        {
          "indexed": true,
          "internalType": "address",
          "name": "from",
          "type": "address"
        },
        {
          "indexed": true,
          "internalType": "address",
          "name": "to",
          "type": "address"
        },
        {
          "indexed": false,
          "internalType": "uint256",
          "name": "id",
          "type": "uint256"
        },
        {
          "indexed": false,
          "internalType": "uint256",
          "name": "value",
          "type": "uint256"
        }
      ],
      "name": "TransferSingle",
      "type": "event"
    },
    {
      "anonymous": false,
      "inputs": [
        {
          "indexed": false,
          "internalType": "string",
          "name": "value",
          "type": "string"
        },
        {
          "indexed": true,
          "internalType": "uint256",
          "name": "id",
          "type": "uint256"
        }
      ],
      "name": "URI",
      "type": "event"
    },
    {
      "inputs": [],
      "name": "FPOProduceCount",
      "outputs": [
        {
          "internalType": "uint256",
          "name": "",
          "type": "uint256"
        }
      ],
      "stateMutability": "view",
      "type": "function"
    },
    {
      "inputs": [
        {
          "internalType": "address",
          "name": "account",
          "type": "address"
        },
        {
          "internalType": "uint256",
          "name": "id",
          "type": "uint256"
        }
      ],
      "name": "balanceOf",
      "outputs": [
        {
          "internalType": "uint256",
          "name": "",
          "type": "uint256"
        }
      ],
      "stateMutability": "view",
      "type": "function"
    },
    {
      "inputs": [
        {
          "internalType": "address[]",
          "name": "accounts",
          "type": "address[]"
        },
        {
          "internalType": "uint256[]",
          "name": "ids",
          "type": "uint256[]"
        }
      ],
      "name": "balanceOfBatch",
      "outputs": [
        {
          "internalType": "uint256[]",
          "name": "",
          "type": "uint256[]"
        }
      ],
      "stateMutability": "view",
      "type": "function"
    },
    {
      "inputs": [],
      "name": "governance",
      "outputs": [
        {
          "internalType": "address",
          "name": "",
          "type": "address"
        }
      ],
      "stateMutability": "view",
      "type": "function"
    },
    {
      "inputs": [
        {
          "internalType": "address",
          "name": "account",
          "type": "address"
        },
        {
          "internalType": "address",
          "name": "operator",
          "type": "address"
        }
      ],
      "name": "isApprovedForAll",
      "outputs": [
        {
          "internalType": "bool",
          "name": "",
          "type": "bool"
        }
      ],
      "stateMutability": "view",
      "type": "function"
    },
    {
      "inputs": [
        {
          "internalType": "address",
          "name": "from",
          "type": "address"
        },
        {
          "internalType": "address",
          "name": "to",
          "type": "address"
        },
        {
          "internalType": "uint256[]",
          "name": "ids",
          "type": "uint256[]"
        },
        {
          "internalType": "uint256[]",
          "name": "amounts",
          "type": "uint256[]"
        },
        {
          "internalType": "bytes",
          "name": "data",
          "type": "bytes"
        }
      ],
      "name": "safeBatchTransferFrom",
      "outputs": [],
      "stateMutability": "nonpayable",
      "type": "function"
    },
    {
      "inputs": [
        {
          "internalType": "address",
          "name": "from",
          "type": "address"
        },
        {
          "internalType": "address",
          "name": "to",
          "type": "address"
        },
        {
          "internalType": "uint256",
          "name": "id",
          "type": "uint256"
        },
        {
          "internalType": "uint256",
          "name": "amount",
          "type": "uint256"
        },
        {
          "internalType": "bytes",
          "name": "data",
          "type": "bytes"
        }
      ],
      "name": "safeTransferFrom",
      "outputs": [],
      "stateMutability": "nonpayable",
      "type": "function"
    },
    {
      "inputs": [
        {
          "internalType": "address",
          "name": "operator",
          "type": "address"
        },
        {
          "internalType": "bool",
          "name": "approved",
          "type": "bool"
        }
      ],
      "name": "setApprovalForAll",
      "outputs": [],
      "stateMutability": "nonpayable",
      "type": "function"
    },
    {
      "inputs": [
        {
          "internalType": "bytes4",
          "name": "interfaceId",
          "type": "bytes4"
        }
      ],
      "name": "supportsInterface",
      "outputs": [
        {
          "internalType": "bool",
          "name": "",
          "type": "bool"
        }
      ],
      "stateMutability": "view",
      "type": "function"
    },
    {
      "inputs": [
        {
          "internalType": "uint256",
          "name": "",
          "type": "uint256"
        }
      ],
      "name": "uri",
      "outputs": [
        {
          "internalType": "string",
          "name": "",
          "type": "string"
        }
      ],
      "stateMutability": "view",
      "type": "function"
    },
    {
      "inputs": [
        {
          "internalType": "uint256",
          "name": "initialSupply",
          "type": "uint256"
        }
      ],
      "name": "addNewProduceItem",
      "outputs": [],
      "stateMutability": "nonpayable",
      "type": "function"
    }
  ],
  "bytecode": "0x60806040523480156200001157600080fd5b5060405162002dfe38038062002dfe833981810160405281019062000037919062000128565b604051806020016040528060008152506200005881620000a960201b60201c565b5080600360006101000a81548173ffffffffffffffffffffffffffffffffffffffff021916908373ffffffffffffffffffffffffffffffffffffffff160217905550600060048190555050620004bb565b8060029081620000ba9190620003d4565b5050565b600080fd5b600073ffffffffffffffffffffffffffffffffffffffff82169050919050565b6000620000f082620000c3565b9050919050565b6200010281620000e3565b81146200010e57600080fd5b50565b6000815190506200012281620000f7565b92915050565b600060208284031215620001415762000140620000be565b5b6000620001518482850162000111565b91505092915050565b600081519050919050565b7f4e487b7100000000000000000000000000000000000000000000000000000000600052604160045260246000fd5b7f4e487b7100000000000000000000000000000000000000000000000000000000600052602260045260246000fd5b60006002820490506001821680620001dc57607f821691505b602082108103620001f257620001f162000194565b5b50919050565b60008190508160005260206000209050919050565b60006020601f8301049050919050565b600082821b905092915050565b6000600883026200025c7fffffffffffffffffffffffffffffffffffffffffffffffffffffffffffffffff826200021d565b6200026886836200021d565b95508019841693508086168417925050509392505050565b6000819050919050565b6000819050919050565b6000620002b5620002af620002a98462000280565b6200028a565b62000280565b9050919050565b6000819050919050565b620002d18362000294565b620002e9620002e082620002bc565b8484546200022a565b825550505050565b600090565b62000300620002f1565b6200030d818484620002c6565b505050565b5b81811015620003355762000329600082620002f6565b60018101905062000313565b5050565b601f82111562000384576200034e81620001f8565b62000359846200020d565b8101602085101562000369578190505b6200038162000378856200020d565b83018262000312565b50505b505050565b600082821c905092915050565b6000620003a96000198460080262000389565b1980831691505092915050565b6000620003c4838362000396565b9150826002028217905092915050565b620003df826200015a565b67ffffffffffffffff811115620003fb57620003fa62000165565b5b620004078254620001c3565b6200041482828562000339565b600060209050601f8311600181146200044c576000841562000437578287015190505b620004438582620003b6565b865550620004b3565b601f1984166200045c86620001f8565b60005b8281101562000486578489015182556001820191506020850194506020810190506200045f565b86831015620004a65784890151620004a2601f89168262000396565b8355505b6001600288020188555050505b505050505050565b61293380620004cb6000396000f3fe608060405234801561001057600080fd5b50600436106100a85760003560e01c80634e1273f4116100715780634e1273f4146101775780635aa6e675146101a7578063a22cb465146101c5578063c8e85acb146101e1578063e985e9c5146101fd578063f242432a1461022d576100a8565b8062fdd58e146100ad57806301ffc9a7146100dd5780630e89341c1461010d5780632eb2c2d61461013d57806341d94fd414610159575b600080fd5b6100c760048036038101906100c291906116d3565b610249565b6040516100d49190611722565b60405180910390f35b6100f760048036038101906100f29190611795565b610311565b60405161010491906117dd565b60405180910390f35b610127600480360381019061012291906117f8565b6103f3565b60405161013491906118b5565b60405180910390f35b61015760048036038101906101529190611ad4565b610487565b005b610161610528565b60405161016e9190611722565b60405180910390f35b610191600480360381019061018c9190611c66565b61052e565b60405161019e9190611d9c565b60405180910390f35b6101af610647565b6040516101bc9190611dcd565b60405180910390f35b6101df60048036038101906101da9190611e14565b61066d565b005b6101fb60048036038101906101f691906117f8565b610683565b005b61021760048036038101906102129190611e54565b610751565b60405161022491906117dd565b60405180910390f35b61024760048036038101906102429190611e94565b6107e5565b005b60008073ffffffffffffffffffffffffffffffffffffffff168373ffffffffffffffffffffffffffffffffffffffff16036102b9576040517f08c379a00000000000000000000000000000000000000000000000000000000081526004016102b090611f9d565b60405180910390fd5b60008083815260200190815260200160002060008473ffffffffffffffffffffffffffffffffffffffff1673ffffffffffffffffffffffffffffffffffffffff16815260200190815260200160002054905092915050565b60007fd9b67a26000000000000000000000000000000000000000000000000000000007bffffffffffffffffffffffffffffffffffffffffffffffffffffffff1916827bffffffffffffffffffffffffffffffffffffffffffffffffffffffff191614806103dc57507f0e89341c000000000000000000000000000000000000000000000000000000007bffffffffffffffffffffffffffffffffffffffffffffffffffffffff1916827bffffffffffffffffffffffffffffffffffffffffffffffffffffffff1916145b806103ec57506103eb82610886565b5b9050919050565b60606002805461040290611fec565b80601f016020809104026020016040519081016040528092919081815260200182805461042e90611fec565b801561047b5780601f106104505761010080835404028352916020019161047b565b820191906000526020600020905b81548152906001019060200180831161045e57829003601f168201915b50505050509050919050565b61048f6108f0565b73ffffffffffffffffffffffffffffffffffffffff168573ffffffffffffffffffffffffffffffffffffffff1614806104d557506104d4856104cf6108f0565b610751565b5b610514576040517f08c379a000000000000000000000000000000000000000000000000000000000815260040161050b9061208f565b60405180910390fd5b61052185858585856108f8565b5050505050565b60045481565b60608151835114610574576040517f08c379a000000000000000000000000000000000000000000000000000000000815260040161056b90612121565b60405180910390fd5b6000835167ffffffffffffffff811115610591576105906118dc565b5b6040519080825280602002602001820160405280156105bf5781602001602082028036833780820191505090505b50905060005b845181101561063c5761060c8582815181106105e4576105e3612141565b5b60200260200101518583815181106105ff576105fe612141565b5b6020026020010151610249565b82828151811061061f5761061e612141565b5b602002602001018181525050806106359061219f565b90506105c5565b508091505092915050565b600360009054906101000a900473ffffffffffffffffffffffffffffffffffffffff1681565b61067f6106786108f0565b8383610c19565b5050565b600360009054906101000a900473ffffffffffffffffffffffffffffffffffffffff1673ffffffffffffffffffffffffffffffffffffffff163373ffffffffffffffffffffffffffffffffffffffff1614610713576040517f08c379a000000000000000000000000000000000000000000000000000000000815260040161070a90612233565b60405180910390fd5b600460008154809291906107269061219f565b91905055506000600454905061074d33828460405180602001604052806000815250610d85565b5050565b6000600160008473ffffffffffffffffffffffffffffffffffffffff1673ffffffffffffffffffffffffffffffffffffffff16815260200190815260200160002060008373ffffffffffffffffffffffffffffffffffffffff1673ffffffffffffffffffffffffffffffffffffffff16815260200190815260200160002060009054906101000a900460ff16905092915050565b6107ed6108f0565b73ffffffffffffffffffffffffffffffffffffffff168573ffffffffffffffffffffffffffffffffffffffff16148061083357506108328561082d6108f0565b610751565b5b610872576040517f08c379a00000000000000000000000000000000000000000000000000000000081526004016108699061208f565b60405180910390fd5b61087f8585858585610f35565b5050505050565b60007f01ffc9a7000000000000000000000000000000000000000000000000000000007bffffffffffffffffffffffffffffffffffffffffffffffffffffffff1916827bffffffffffffffffffffffffffffffffffffffffffffffffffffffff1916149050919050565b600033905090565b815183511461093c576040517f08c379a0000000000000000000000000000000000000000000000000000000008152600401610933906122c5565b60405180910390fd5b600073ffffffffffffffffffffffffffffffffffffffff168473ffffffffffffffffffffffffffffffffffffffff16036109ab576040517f08c379a00000000000000000000000000000000000000000000000000000000081526004016109a290612357565b60405180910390fd5b60006109b56108f0565b90506109c58187878787876111d0565b60005b8451811015610b765760008582815181106109e6576109e5612141565b5b602002602001015190506000858381518110610a0557610a04612141565b5b60200260200101519050600080600084815260200190815260200160002060008b73ffffffffffffffffffffffffffffffffffffffff1673ffffffffffffffffffffffffffffffffffffffff16815260200190815260200160002054905081811015610aa6576040517f08c379a0000000000000000000000000000000000000000000000000000000008152600401610a9d906123e9565b60405180910390fd5b81810360008085815260200190815260200160002060008c73ffffffffffffffffffffffffffffffffffffffff1673ffffffffffffffffffffffffffffffffffffffff168152602001908152602001600020819055508160008085815260200190815260200160002060008b73ffffffffffffffffffffffffffffffffffffffff1673ffffffffffffffffffffffffffffffffffffffff1681526020019081526020016000206000828254610b5b9190612409565b9250508190555050505080610b6f9061219f565b90506109c8565b508473ffffffffffffffffffffffffffffffffffffffff168673ffffffffffffffffffffffffffffffffffffffff168273ffffffffffffffffffffffffffffffffffffffff167f4a39dc06d4c0dbc64b70af90fd698a233a518aa5d07e595d983b8c0526c8f7fb8787604051610bed92919061243d565b60405180910390a4610c038187878787876111d8565b610c118187878787876111e0565b505050505050565b8173ffffffffffffffffffffffffffffffffffffffff168373ffffffffffffffffffffffffffffffffffffffff1603610c87576040517f08c379a0000000000000000000000000000000000000000000000000000000008152600401610c7e906124e6565b60405180910390fd5b80600160008573ffffffffffffffffffffffffffffffffffffffff1673ffffffffffffffffffffffffffffffffffffffff16815260200190815260200160002060008473ffffffffffffffffffffffffffffffffffffffff1673ffffffffffffffffffffffffffffffffffffffff16815260200190815260200160002060006101000a81548160ff0219169083151502179055508173ffffffffffffffffffffffffffffffffffffffff168373ffffffffffffffffffffffffffffffffffffffff167f17307eab39ab6107e8899845ad3d59bd9653f200f220920489ca2b5937696c3183604051610d7891906117dd565b60405180910390a3505050565b600073ffffffffffffffffffffffffffffffffffffffff168473ffffffffffffffffffffffffffffffffffffffff1603610df4576040517f08c379a0000000000000000000000000000000000000000000000000000000008152600401610deb90612578565b60405180910390fd5b6000610dfe6108f0565b90506000610e0b856113b7565b90506000610e18856113b7565b9050610e29836000898585896111d0565b8460008088815260200190815260200160002060008973ffffffffffffffffffffffffffffffffffffffff1673ffffffffffffffffffffffffffffffffffffffff1681526020019081526020016000206000828254610e889190612409565b925050819055508673ffffffffffffffffffffffffffffffffffffffff16600073ffffffffffffffffffffffffffffffffffffffff168473ffffffffffffffffffffffffffffffffffffffff167fc3d58168c5ae7397731d063d5bbf3d657854427343f4c083240f7aacaa2d0f628989604051610f06929190612598565b60405180910390a4610f1d836000898585896111d8565b610f2c83600089898989611431565b50505050505050565b600073ffffffffffffffffffffffffffffffffffffffff168473ffffffffffffffffffffffffffffffffffffffff1603610fa4576040517f08c379a0000000000000000000000000000000000000000000000000000000008152600401610f9b90612357565b60405180910390fd5b6000610fae6108f0565b90506000610fbb856113b7565b90506000610fc8856113b7565b9050610fd88389898585896111d0565b600080600088815260200190815260200160002060008a73ffffffffffffffffffffffffffffffffffffffff1673ffffffffffffffffffffffffffffffffffffffff1681526020019081526020016000205490508581101561106f576040517f08c379a0000000000000000000000000000000000000000000000000000000008152600401611066906123e9565b60405180910390fd5b85810360008089815260200190815260200160002060008b73ffffffffffffffffffffffffffffffffffffffff1673ffffffffffffffffffffffffffffffffffffffff168152602001908152602001600020819055508560008089815260200190815260200160002060008a73ffffffffffffffffffffffffffffffffffffffff1673ffffffffffffffffffffffffffffffffffffffff16815260200190815260200160002060008282546111249190612409565b925050819055508773ffffffffffffffffffffffffffffffffffffffff168973ffffffffffffffffffffffffffffffffffffffff168573ffffffffffffffffffffffffffffffffffffffff167fc3d58168c5ae7397731d063d5bbf3d657854427343f4c083240f7aacaa2d0f628a8a6040516111a1929190612598565b60405180910390a46111b7848a8a86868a6111d8565b6111c5848a8a8a8a8a611431565b505050505050505050565b505050505050565b505050505050565b6111ff8473ffffffffffffffffffffffffffffffffffffffff16611608565b156113af578373ffffffffffffffffffffffffffffffffffffffff1663bc197c8187878686866040518663ffffffff1660e01b8152600401611245959493929190612616565b6020604051808303816000875af192505050801561128157506040513d601f19601f8201168201806040525081019061127e9190612693565b60015b6113265761128d6126cd565b806308c379a0036112e957506112a16126ef565b806112ac57506112eb565b806040517f08c379a00000000000000000000000000000000000000000000000000000000081526004016112e091906118b5565b60405180910390fd5b505b6040517f08c379a000000000000000000000000000000000000000000000000000000000815260040161131d906127f1565b60405180910390fd5b63bc197c8160e01b7bffffffffffffffffffffffffffffffffffffffffffffffffffffffff1916817bffffffffffffffffffffffffffffffffffffffffffffffffffffffff1916146113ad576040517f08c379a00000000000000000000000000000000000000000000000000000000081526004016113a490612883565b60405180910390fd5b505b505050505050565b60606000600167ffffffffffffffff8111156113d6576113d56118dc565b5b6040519080825280602002602001820160405280156114045781602001602082028036833780820191505090505b509050828160008151811061141c5761141b612141565b5b60200260200101818152505080915050919050565b6114508473ffffffffffffffffffffffffffffffffffffffff16611608565b15611600578373ffffffffffffffffffffffffffffffffffffffff1663f23a6e6187878686866040518663ffffffff1660e01b81526004016114969594939291906128a3565b6020604051808303816000875af19250505080156114d257506040513d601f19601f820116820180604052508101906114cf9190612693565b60015b611577576114de6126cd565b806308c379a00361153a57506114f26126ef565b806114fd575061153c565b806040517f08c379a000000000000000000000000000000000000000000000000000000000815260040161153191906118b5565b60405180910390fd5b505b6040517f08c379a000000000000000000000000000000000000000000000000000000000815260040161156e906127f1565b60405180910390fd5b63f23a6e6160e01b7bffffffffffffffffffffffffffffffffffffffffffffffffffffffff1916817bffffffffffffffffffffffffffffffffffffffffffffffffffffffff1916146115fe576040517f08c379a00000000000000000000000000000000000000000000000000000000081526004016115f590612883565b60405180910390fd5b505b505050505050565b6000808273ffffffffffffffffffffffffffffffffffffffff163b119050919050565b6000604051905090565b600080fd5b600080fd5b600073ffffffffffffffffffffffffffffffffffffffff82169050919050565b600061166a8261163f565b9050919050565b61167a8161165f565b811461168557600080fd5b50565b60008135905061169781611671565b92915050565b6000819050919050565b6116b08161169d565b81146116bb57600080fd5b50565b6000813590506116cd816116a7565b92915050565b600080604083850312156116ea576116e9611635565b5b60006116f885828601611688565b9250506020611709858286016116be565b9150509250929050565b61171c8161169d565b82525050565b60006020820190506117376000830184611713565b92915050565b60007fffffffff0000000000000000000000000000000000000000000000000000000082169050919050565b6117728161173d565b811461177d57600080fd5b50565b60008135905061178f81611769565b92915050565b6000602082840312156117ab576117aa611635565b5b60006117b984828501611780565b91505092915050565b60008115159050919050565b6117d7816117c2565b82525050565b60006020820190506117f260008301846117ce565b92915050565b60006020828403121561180e5761180d611635565b5b600061181c848285016116be565b91505092915050565b600081519050919050565b600082825260208201905092915050565b60005b8381101561185f578082015181840152602081019050611844565b60008484015250505050565b6000601f19601f8301169050919050565b600061188782611825565b6118918185611830565b93506118a1818560208601611841565b6118aa8161186b565b840191505092915050565b600060208201905081810360008301526118cf818461187c565b905092915050565b600080fd5b7f4e487b7100000000000000000000000000000000000000000000000000000000600052604160045260246000fd5b6119148261186b565b810181811067ffffffffffffffff82111715611933576119326118dc565b5b80604052505050565b600061194661162b565b9050611952828261190b565b919050565b600067ffffffffffffffff821115611972576119716118dc565b5b602082029050602081019050919050565b600080fd5b600061199b61199684611957565b61193c565b905080838252602082019050602084028301858111156119be576119bd611983565b5b835b818110156119e757806119d388826116be565b8452602084019350506020810190506119c0565b5050509392505050565b600082601f830112611a0657611a056118d7565b5b8135611a16848260208601611988565b91505092915050565b600080fd5b600067ffffffffffffffff821115611a3f57611a3e6118dc565b5b611a488261186b565b9050602081019050919050565b82818337600083830152505050565b6000611a77611a7284611a24565b61193c565b905082815260208101848484011115611a9357611a92611a1f565b5b611a9e848285611a55565b509392505050565b600082601f830112611abb57611aba6118d7565b5b8135611acb848260208601611a64565b91505092915050565b600080600080600060a08688031215611af057611aef611635565b5b6000611afe88828901611688565b9550506020611b0f88828901611688565b945050604086013567ffffffffffffffff811115611b3057611b2f61163a565b5b611b3c888289016119f1565b935050606086013567ffffffffffffffff811115611b5d57611b5c61163a565b5b611b69888289016119f1565b925050608086013567ffffffffffffffff811115611b8a57611b8961163a565b5b611b9688828901611aa6565b9150509295509295909350565b600067ffffffffffffffff821115611bbe57611bbd6118dc565b5b602082029050602081019050919050565b6000611be2611bdd84611ba3565b61193c565b90508083825260208201905060208402830185811115611c0557611c04611983565b5b835b81811015611c2e5780611c1a8882611688565b845260208401935050602081019050611c07565b5050509392505050565b600082601f830112611c4d57611c4c6118d7565b5b8135611c5d848260208601611bcf565b91505092915050565b60008060408385031215611c7d57611c7c611635565b5b600083013567ffffffffffffffff811115611c9b57611c9a61163a565b5b611ca785828601611c38565b925050602083013567ffffffffffffffff811115611cc857611cc761163a565b5b611cd4858286016119f1565b9150509250929050565b600081519050919050565b600082825260208201905092915050565b6000819050602082019050919050565b611d138161169d565b82525050565b6000611d258383611d0a565b60208301905092915050565b6000602082019050919050565b6000611d4982611cde565b611d538185611ce9565b9350611d5e83611cfa565b8060005b83811015611d8f578151611d768882611d19565b9750611d8183611d31565b925050600181019050611d62565b5085935050505092915050565b60006020820190508181036000830152611db68184611d3e565b905092915050565b611dc78161165f565b82525050565b6000602082019050611de26000830184611dbe565b92915050565b611df1816117c2565b8114611dfc57600080fd5b50565b600081359050611e0e81611de8565b92915050565b60008060408385031215611e2b57611e2a611635565b5b6000611e3985828601611688565b9250506020611e4a85828601611dff565b9150509250929050565b60008060408385031215611e6b57611e6a611635565b5b6000611e7985828601611688565b9250506020611e8a85828601611688565b9150509250929050565b600080600080600060a08688031215611eb057611eaf611635565b5b6000611ebe88828901611688565b9550506020611ecf88828901611688565b9450506040611ee0888289016116be565b9350506060611ef1888289016116be565b925050608086013567ffffffffffffffff811115611f1257611f1161163a565b5b611f1e88828901611aa6565b9150509295509295909350565b7f455243313135353a2061646472657373207a65726f206973206e6f742061207660008201527f616c6964206f776e657200000000000000000000000000000000000000000000602082015250565b6000611f87602a83611830565b9150611f9282611f2b565b604082019050919050565b60006020820190508181036000830152611fb681611f7a565b9050919050565b7f4e487b7100000000000000000000000000000000000000000000000000000000600052602260045260246000fd5b6000600282049050600182168061200457607f821691505b60208210810361201757612016611fbd565b5b50919050565b7f455243313135353a2063616c6c6572206973206e6f7420746f6b656e206f776e60008201527f6572206f7220617070726f766564000000000000000000000000000000000000602082015250565b6000612079602e83611830565b91506120848261201d565b604082019050919050565b600060208201905081810360008301526120a88161206c565b9050919050565b7f455243313135353a206163636f756e747320616e6420696473206c656e67746860008201527f206d69736d617463680000000000000000000000000000000000000000000000602082015250565b600061210b602983611830565b9150612116826120af565b604082019050919050565b6000602082019050818103600083015261213a816120fe565b9050919050565b7f4e487b7100000000000000000000000000000000000000000000000000000000600052603260045260246000fd5b7f4e487b7100000000000000000000000000000000000000000000000000000000600052601160045260246000fd5b60006121aa8261169d565b91507fffffffffffffffffffffffffffffffffffffffffffffffffffffffffffffffff82036121dc576121db612170565b5b600182019050919050565b7f6f6e6c7920676f7665726e616e63652063616e2063616c6c2074686973000000600082015250565b600061221d601d83611830565b9150612228826121e7565b602082019050919050565b6000602082019050818103600083015261224c81612210565b9050919050565b7f455243313135353a2069647320616e6420616d6f756e7473206c656e6774682060008201527f6d69736d61746368000000000000000000000000000000000000000000000000602082015250565b60006122af602883611830565b91506122ba82612253565b604082019050919050565b600060208201905081810360008301526122de816122a2565b9050919050565b7f455243313135353a207472616e7366657220746f20746865207a65726f20616460008201527f6472657373000000000000000000000000000000000000000000000000000000602082015250565b6000612341602583611830565b915061234c826122e5565b604082019050919050565b6000602082019050818103600083015261237081612334565b9050919050565b7f455243313135353a20696e73756666696369656e742062616c616e636520666f60008201527f72207472616e7366657200000000000000000000000000000000000000000000602082015250565b60006123d3602a83611830565b91506123de82612377565b604082019050919050565b60006020820190508181036000830152612402816123c6565b9050919050565b60006124148261169d565b915061241f8361169d565b925082820190508082111561243757612436612170565b5b92915050565b600060408201905081810360008301526124578185611d3e565b9050818103602083015261246b8184611d3e565b90509392505050565b7f455243313135353a2073657474696e6720617070726f76616c2073746174757360008201527f20666f722073656c660000000000000000000000000000000000000000000000602082015250565b60006124d0602983611830565b91506124db82612474565b604082019050919050565b600060208201905081810360008301526124ff816124c3565b9050919050565b7f455243313135353a206d696e7420746f20746865207a65726f2061646472657360008201527f7300000000000000000000000000000000000000000000000000000000000000602082015250565b6000612562602183611830565b915061256d82612506565b604082019050919050565b6000602082019050818103600083015261259181612555565b9050919050565b60006040820190506125ad6000830185611713565b6125ba6020830184611713565b9392505050565b600081519050919050565b600082825260208201905092915050565b60006125e8826125c1565b6125f281856125cc565b9350612602818560208601611841565b61260b8161186b565b840191505092915050565b600060a08201905061262b6000830188611dbe565b6126386020830187611dbe565b818103604083015261264a8186611d3e565b9050818103606083015261265e8185611d3e565b9050818103608083015261267281846125dd565b90509695505050505050565b60008151905061268d81611769565b92915050565b6000602082840312156126a9576126a8611635565b5b60006126b78482850161267e565b91505092915050565b60008160e01c9050919050565b600060033d11156126ec5760046000803e6126e96000516126c0565b90505b90565b600060443d1061277c5761270161162b565b60043d036004823e80513d602482011167ffffffffffffffff8211171561272957505061277c565b808201805167ffffffffffffffff811115612747575050505061277c565b80602083010160043d03850181111561276457505050505061277c565b6127738260200185018661190b565b82955050505050505b90565b7f455243313135353a207472616e7366657220746f206e6f6e2d4552433131353560008201527f526563656976657220696d706c656d656e746572000000000000000000000000602082015250565b60006127db603483611830565b91506127e68261277f565b604082019050919050565b6000602082019050818103600083015261280a816127ce565b9050919050565b7f455243313135353a204552433131353552656365697665722072656a6563746560008201527f6420746f6b656e73000000000000000000000000000000000000000000000000602082015250565b600061286d602883611830565b915061287882612811565b604082019050919050565b6000602082019050818103600083015261289c81612860565b9050919050565b600060a0820190506128b86000830188611dbe565b6128c56020830187611dbe565b6128d26040830186611713565b6128df6060830185611713565b81810360808301526128f181846125dd565b9050969550505050505056fea26469706673582212203fc900f4cbff4fc0fe52f1b6f10b86af1c8e4f4a143a720087cbe57870805ae864736f6c63430008110033",
  "immutableReferences": {},
  "source": "// contracts/GameItems.sol\n// SPDX-License-Identifier: MIT\npragma solidity ^0.8.17;\n\nimport \"@openzeppelin/contracts/token/ERC1155/ERC1155.sol\";\n\ncontract FPOProduceTokens is ERC1155 {\n    address public governance;\n    uint256 public FPOProduceCount;\n    \n    modifier onlyGovernance() {\n        require(msg.sender == governance, \"only governance can call this\");\n    \n        _;\n    }\n\n    constructor(address governance_) public ERC1155(\"\") {\n        governance = governance_;\n        FPOProduceCount = 0;\n    }\n    \n    function addNewProduceItem(uint256 initialSupply) external onlyGovernance {\n        FPOProduceCount++;\n        uint256 FPOProduceClassId = FPOProduceCount;\n\n        _mint(msg.sender, FPOProduceClassId, initialSupply, \"\");        \n    }\n}",
  "sourcePath": "/Users/nkpaladugu/Library/CloudStorage/OneDrive-Personal/Tech/IIITH/Capstone/fpochain/web/contracts/Fpoagriproducts.sol",
  "compiler": {
    "name": "solc",
    "version": "0.8.17+commit.8df45f5f.Emscripten.clang"
  },
  "schemaVersion": "3.4.10",
  "updatedAt": "2022-09-24T06:45:28.509Z",
  "devdoc": {
    "kind": "dev",
    "methods": {
      "balanceOf(address,uint256)": {
        "details": "See {IERC1155-balanceOf}. Requirements: - `account` cannot be the zero address."
      },
      "balanceOfBatch(address[],uint256[])": {
        "details": "See {IERC1155-balanceOfBatch}. Requirements: - `accounts` and `ids` must have the same length."
      },
      "isApprovedForAll(address,address)": {
        "details": "See {IERC1155-isApprovedForAll}."
      },
      "safeBatchTransferFrom(address,address,uint256[],uint256[],bytes)": {
        "details": "See {IERC1155-safeBatchTransferFrom}."
      },
      "safeTransferFrom(address,address,uint256,uint256,bytes)": {
        "details": "See {IERC1155-safeTransferFrom}."
      },
      "setApprovalForAll(address,bool)": {
        "details": "See {IERC1155-setApprovalForAll}."
      },
      "supportsInterface(bytes4)": {
        "details": "See {IERC165-supportsInterface}."
      },
      "uri(uint256)": {
        "details": "See {IERC1155MetadataURI-uri}. This implementation returns the same URI for *all* token types. It relies on the token type ID substitution mechanism https://eips.ethereum.org/EIPS/eip-1155#metadata[defined in the EIP]. Clients calling this function must replace the `\\{id\\}` substring with the actual token type ID."
      }
    },
    "version": 1
  },
  "userdoc": {
    "kind": "user",
    "methods": {},
    "version": 1
  }
}