{
  "contractName": "FpoRole",
  "abi": [
    {
      "inputs": [],
      "stateMutability": "nonpayable",
      "type": "constructor"
    },
    {
      "anonymous": false,
      "inputs": [
        {
          "indexed": true,
          "internalType": "address",
          "name": "account",
          "type": "address"
        }
      ],
      "name": "FpoAdded",
      "type": "event"
    },
    {
      "anonymous": false,
      "inputs": [
        {
          "indexed": true,
          "internalType": "address",
          "name": "account",
          "type": "address"
        }
      ],
      "name": "FpoRemoved",
      "type": "event"
    },
    {
      "inputs": [
        {
          "internalType": "address",
          "name": "account",
          "type": "address"
        }
      ],
      "name": "isFpo",
      "outputs": [
        {
          "internalType": "bool",
          "name": "",
          "type": "bool"
        }
      ],
      "stateMutability": "view",
      "type": "function",
      "constant": true
    },
    {
      "inputs": [
        {
          "internalType": "address",
          "name": "account",
          "type": "address"
        }
      ],
      "name": "addFpo",
      "outputs": [],
      "stateMutability": "nonpayable",
      "type": "function"
    },
    {
      "inputs": [],
      "name": "renounceFpo",
      "outputs": [],
      "stateMutability": "nonpayable",
      "type": "function"
    }
  ],
  "bytecode": "0x608060405234801561001057600080fd5b506100203361002560201b60201c565b6101c5565b61003d81600061008360201b6100e21790919060201c565b8073ffffffffffffffffffffffffffffffffffffffff167f7152eb9caa7399f470f4d9c37aaefb3e665e073d030e697bb061a75ba3f38b6960405160405180910390a250565b600073ffffffffffffffffffffffffffffffffffffffff168173ffffffffffffffffffffffffffffffffffffffff16036100bc57600080fd5b6100cc828261013460201b60201c565b156100d657600080fd5b60018260000160008373ffffffffffffffffffffffffffffffffffffffff1673ffffffffffffffffffffffffffffffffffffffff16815260200190815260200160002060006101000a81548160ff0219169083151502179055505050565b60008073ffffffffffffffffffffffffffffffffffffffff168273ffffffffffffffffffffffffffffffffffffffff160361016e57600080fd5b8260000160008373ffffffffffffffffffffffffffffffffffffffff1673ffffffffffffffffffffffffffffffffffffffff16815260200190815260200160002060009054906101000a900460ff16905092915050565b610477806101d46000396000f3fe608060405234801561001057600080fd5b50600436106100415760003560e01c80631ed5d76314610046578063212154e1146100505780638cab1a981461006c575b600080fd5b61004e61009c565b005b61006a600480360381019061006591906103de565b6100a7565b005b610086600480360381019061008191906103de565b6100c5565b6040516100939190610426565b60405180910390f35b6100a53361018d565b565b6100b0336100c5565b6100b957600080fd5b6100c2816101e6565b50565b60006100db82600061024090919063ffffffff16565b9050919050565b600073ffffffffffffffffffffffffffffffffffffffff168173ffffffffffffffffffffffffffffffffffffffff160361011b57600080fd5b6101258282610240565b1561012f57600080fd5b60018260000160008373ffffffffffffffffffffffffffffffffffffffff1673ffffffffffffffffffffffffffffffffffffffff16815260200190815260200160002060006101000a81548160ff0219169083151502179055505050565b6101a18160006102d190919063ffffffff16565b8073ffffffffffffffffffffffffffffffffffffffff167ed443292b63ede717f4c39b32b9f20a0a68a5ab53ec3185a9e94817c77423f760405160405180910390a250565b6101fa8160006100e290919063ffffffff16565b8073ffffffffffffffffffffffffffffffffffffffff167f7152eb9caa7399f470f4d9c37aaefb3e665e073d030e697bb061a75ba3f38b6960405160405180910390a250565b60008073ffffffffffffffffffffffffffffffffffffffff168273ffffffffffffffffffffffffffffffffffffffff160361027a57600080fd5b8260000160008373ffffffffffffffffffffffffffffffffffffffff1673ffffffffffffffffffffffffffffffffffffffff16815260200190815260200160002060009054906101000a900460ff16905092915050565b600073ffffffffffffffffffffffffffffffffffffffff168173ffffffffffffffffffffffffffffffffffffffff160361030a57600080fd5b6103148282610240565b61031d57600080fd5b60008260000160008373ffffffffffffffffffffffffffffffffffffffff1673ffffffffffffffffffffffffffffffffffffffff16815260200190815260200160002060006101000a81548160ff0219169083151502179055505050565b600080fd5b600073ffffffffffffffffffffffffffffffffffffffff82169050919050565b60006103ab82610380565b9050919050565b6103bb816103a0565b81146103c657600080fd5b50565b6000813590506103d8816103b2565b92915050565b6000602082840312156103f4576103f361037b565b5b6000610402848285016103c9565b91505092915050565b60008115159050919050565b6104208161040b565b82525050565b600060208201905061043b6000830184610417565b9291505056fea264697066735822122047799bb648e46df4c572637807c179a41c168b66e7a58b33b2cbad4ab78c126f64736f6c63430008110033",
  "immutableReferences": {},
  "source": "pragma solidity ^0.8.17;\n\nimport \"./Roles.sol\";\n\ncontract FpoRole {\n\n  using Roles for Roles.Role;\n\n  event FpoAdded(address indexed account);\n  event FpoRemoved(address indexed account);\n  \n  // Define a struct 'Fpos' by inheriting from 'Roles' library, struct Role\n  Roles.Role private fpos;\n\n  // In the constructor make the address that deploys this contract the 1st Fpo\n  constructor() public {\n    _addFpo(msg.sender);\n  }\n\n  // Checks to see if msg.sender has the appropriate role\n  modifier onlyFpo() {\n    require(isFpo(msg.sender));\n    _;\n  }\n\n  function isFpo(address account) public view returns (bool) {\n    return fpos.has(account);\n  }\n\n  function addFpo(address account) public onlyFpo {\n    _addFpo(account);\n  }\n\n  function renounceFpo() public {\n    _removeFpo(msg.sender);\n  }\n\n  function _addFpo(address account) internal {\n    fpos.add(account);\n    emit FpoAdded(account);\n  }\n\n  function _removeFpo(address account) internal {\n    fpos.remove(account);\n    emit FpoRemoved(account);\n  }\n}",
  "sourcePath": "/Users/nkpaladugu/Library/CloudStorage/OneDrive-Personal/Tech/IIITH/Capstone/fpochain/web/contracts/rolemanagement/FpoRole.sol",
  "compiler": {
    "name": "solc",
    "version": "0.8.17+commit.8df45f5f.Emscripten.clang"
  },
  "schemaVersion": "3.4.10",
  "updatedAt": "2022-09-24T01:53:20.879Z",
  "networkType": "ethereum",
  "devdoc": {
    "kind": "dev",
    "methods": {},
    "version": 1
  },
  "userdoc": {
    "kind": "user",
    "methods": {},
    "version": 1
  }
}