{
  "contractName": "Main",
  "abi": [
    {
      "inputs": [
        {
          "internalType": "contract Farmer",
          "name": "_farmer",
          "type": "address"
        },
        {
          "internalType": "contract Manufacturer",
          "name": "_manufacturer",
          "type": "address"
        },
        {
          "internalType": "contract Stakeholder",
          "name": "_stakeholder",
          "type": "address"
        }
      ],
      "stateMutability": "nonpayable",
      "type": "constructor"
    },
    {
      "inputs": [],
      "name": "farmer",
      "outputs": [
        {
          "internalType": "contract Farmer",
          "name": "",
          "type": "address"
        }
      ],
      "stateMutability": "view",
      "type": "function"
    },
    {
      "inputs": [],
      "name": "manufacturer",
      "outputs": [
        {
          "internalType": "contract Manufacturer",
          "name": "",
          "type": "address"
        }
      ],
      "stateMutability": "view",
      "type": "function"
    },
    {
      "inputs": [],
      "name": "stakeholder",
      "outputs": [
        {
          "internalType": "contract Stakeholder",
          "name": "",
          "type": "address"
        }
      ],
      "stateMutability": "view",
      "type": "function"
    },
    {
      "inputs": [
        {
          "internalType": "address",
          "name": "_id",
          "type": "address"
        }
      ],
      "name": "getRole",
      "outputs": [
        {
          "internalType": "string",
          "name": "",
          "type": "string"
        }
      ],
      "stateMutability": "view",
      "type": "function"
    }
  ],
  "bytecode": "0x60806040523480156200001157600080fd5b5060405162000eab38038062000eab83398181016040528101906200003791906200020a565b826000806101000a81548173ffffffffffffffffffffffffffffffffffffffff021916908373ffffffffffffffffffffffffffffffffffffffff16021790555081600160006101000a81548173ffffffffffffffffffffffffffffffffffffffff021916908373ffffffffffffffffffffffffffffffffffffffff16021790555080600260006101000a81548173ffffffffffffffffffffffffffffffffffffffff021916908373ffffffffffffffffffffffffffffffffffffffff16021790555050505062000266565b600080fd5b600073ffffffffffffffffffffffffffffffffffffffff82169050919050565b6000620001348262000107565b9050919050565b6000620001488262000127565b9050919050565b6200015a816200013b565b81146200016657600080fd5b50565b6000815190506200017a816200014f565b92915050565b60006200018d8262000127565b9050919050565b6200019f8162000180565b8114620001ab57600080fd5b50565b600081519050620001bf8162000194565b92915050565b6000620001d28262000127565b9050919050565b620001e481620001c5565b8114620001f057600080fd5b50565b6000815190506200020481620001d9565b92915050565b60008060006060848603121562000226576200022562000102565b5b6000620002368682870162000169565b93505060206200024986828701620001ae565b92505060406200025c86828701620001f3565b9150509250925092565b610c3580620002766000396000f3fe608060405234801561001057600080fd5b506004361061004c5760003560e01c806344276733146100515780637475428214610081578063d811fcf01461009f578063f0331393146100bd575b600080fd5b61006b600480360381019061006691906107a2565b6100db565b604051610078919061085f565b60405180910390f35b6100896106c0565b60405161009691906108e0565b60405180910390f35b6100a76106e6565b6040516100b4919061091c565b60405180910390f35b6100c561070a565b6040516100d29190610958565b60405180910390f35b60606040516020016100ec906109a4565b6040516020818303038152906040528051906020012060008054906101000a900473ffffffffffffffffffffffffffffffffffffffff1673ffffffffffffffffffffffffffffffffffffffff166344276733846040518263ffffffff1660e01b815260040161015b91906109c8565b600060405180830381865afa158015610178573d6000803e3d6000fd5b505050506040513d6000823e3d601f19601f820116820180604052508101906101a19190610b09565b6040516020016101b19190610b83565b60405160208183030381529060405280519060200120146102725760008054906101000a900473ffffffffffffffffffffffffffffffffffffffff1673ffffffffffffffffffffffffffffffffffffffff166344276733836040518263ffffffff1660e01b815260040161022591906109c8565b600060405180830381865afa158015610242573d6000803e3d6000fd5b505050506040513d6000823e3d601f19601f8201168201806040525081019061026b9190610b09565b90506106bb565b604051602001610281906109a4565b60405160208183030381529060405280519060200120600160009054906101000a900473ffffffffffffffffffffffffffffffffffffffff1673ffffffffffffffffffffffffffffffffffffffff166344276733846040518263ffffffff1660e01b81526004016102f291906109c8565b600060405180830381865afa15801561030f573d6000803e3d6000fd5b505050506040513d6000823e3d601f19601f820116820180604052508101906103389190610b09565b6040516020016103489190610b83565b604051602081830303815290604052805190602001201461040b57600160009054906101000a900473ffffffffffffffffffffffffffffffffffffffff1673ffffffffffffffffffffffffffffffffffffffff166344276733836040518263ffffffff1660e01b81526004016103be91906109c8565b600060405180830381865afa1580156103db573d6000803e3d6000fd5b505050506040513d6000823e3d601f19601f820116820180604052508101906104049190610b09565b90506106bb565b60405160200161041a906109a4565b60405160208183030381529060405280519060200120600260009054906101000a900473ffffffffffffffffffffffffffffffffffffffff1673ffffffffffffffffffffffffffffffffffffffff166344276733846040518263ffffffff1660e01b815260040161048b91906109c8565b600060405180830381865afa1580156104a8573d6000803e3d6000fd5b505050506040513d6000823e3d601f19601f820116820180604052508101906104d19190610b09565b6040516020016104e19190610b83565b60405160208183030381529060405280519060200120146105a457600260009054906101000a900473ffffffffffffffffffffffffffffffffffffffff1673ffffffffffffffffffffffffffffffffffffffff166344276733836040518263ffffffff1660e01b815260040161055791906109c8565b600060405180830381865afa158015610574573d6000803e3d6000fd5b505050506040513d6000823e3d601f19601f8201168201806040525081019061059d9190610b09565b90506106bb565b600260009054906101000a900473ffffffffffffffffffffffffffffffffffffffff1673ffffffffffffffffffffffffffffffffffffffff166324d7806c836040518263ffffffff1660e01b81526004016105ff91906109c8565b602060405180830381865afa15801561061c573d6000803e3d6000fd5b505050506040513d601f19601f820116820180604052508101906106409190610bd2565b15610682576040518060400160405280600581526020017f61646d696e00000000000000000000000000000000000000000000000000000081525090506106bb565b6040518060400160405280600381526020017f6e6577000000000000000000000000000000000000000000000000000000000081525090505b919050565b600160009054906101000a900473ffffffffffffffffffffffffffffffffffffffff1681565b60008054906101000a900473ffffffffffffffffffffffffffffffffffffffff1681565b600260009054906101000a900473ffffffffffffffffffffffffffffffffffffffff1681565b6000604051905090565b600080fd5b600080fd5b600073ffffffffffffffffffffffffffffffffffffffff82169050919050565b600061076f82610744565b9050919050565b61077f81610764565b811461078a57600080fd5b50565b60008135905061079c81610776565b92915050565b6000602082840312156107b8576107b761073a565b5b60006107c68482850161078d565b91505092915050565b600081519050919050565b600082825260208201905092915050565b60005b838110156108095780820151818401526020810190506107ee565b60008484015250505050565b6000601f19601f8301169050919050565b6000610831826107cf565b61083b81856107da565b935061084b8185602086016107eb565b61085481610815565b840191505092915050565b600060208201905081810360008301526108798184610826565b905092915050565b6000819050919050565b60006108a66108a161089c84610744565b610881565b610744565b9050919050565b60006108b88261088b565b9050919050565b60006108ca826108ad565b9050919050565b6108da816108bf565b82525050565b60006020820190506108f560008301846108d1565b92915050565b6000610906826108ad565b9050919050565b610916816108fb565b82525050565b6000602082019050610931600083018461090d565b92915050565b6000610942826108ad565b9050919050565b61095281610937565b82525050565b600060208201905061096d6000830184610949565b92915050565b600081905092915050565b50565b600061098e600083610973565b91506109998261097e565b600082019050919050565b60006109af82610981565b9150819050919050565b6109c281610764565b82525050565b60006020820190506109dd60008301846109b9565b92915050565b600080fd5b600080fd5b7f4e487b7100000000000000000000000000000000000000000000000000000000600052604160045260246000fd5b610a2582610815565b810181811067ffffffffffffffff82111715610a4457610a436109ed565b5b80604052505050565b6000610a57610730565b9050610a638282610a1c565b919050565b600067ffffffffffffffff821115610a8357610a826109ed565b5b610a8c82610815565b9050602081019050919050565b6000610aac610aa784610a68565b610a4d565b905082815260208101848484011115610ac857610ac76109e8565b5b610ad38482856107eb565b509392505050565b600082601f830112610af057610aef6109e3565b5b8151610b00848260208601610a99565b91505092915050565b600060208284031215610b1f57610b1e61073a565b5b600082015167ffffffffffffffff811115610b3d57610b3c61073f565b5b610b4984828501610adb565b91505092915050565b6000610b5d826107cf565b610b678185610973565b9350610b778185602086016107eb565b80840191505092915050565b6000610b8f8284610b52565b915081905092915050565b60008115159050919050565b610baf81610b9a565b8114610bba57600080fd5b50565b600081519050610bcc81610ba6565b92915050565b600060208284031215610be857610be761073a565b5b6000610bf684828501610bbd565b9150509291505056fea264697066735822122030c849664b058209fac0553356d0aa7f400a62f35d54366475004c6c72d0758464736f6c63430008110033",
  "immutableReferences": {},
  "source": "// SPDX-License-Identifier: MIT\npragma solidity ^0.8.0;\nimport './Farmer.sol';\nimport './Manufacturer.sol';\nimport './Stakeholder.sol';\nimport './Product.sol';\n\ncontract Main{\n  Farmer public farmer;\n  Manufacturer public manufacturer;\n  Stakeholder public stakeholder;\n\n  constructor(Farmer _farmer, Manufacturer _manufacturer, Stakeholder _stakeholder) {\n    farmer = _farmer;\n    manufacturer = _manufacturer;\n    stakeholder = _stakeholder;\n  }\n\n  function getRole(address _id) public view returns(string memory){\n    if(keccak256(abi.encodePacked((farmer.getRole(_id)))) != keccak256(abi.encodePacked((\"\")))){\n      return farmer.getRole(_id);\n    }\n    else if(keccak256(abi.encodePacked((manufacturer.getRole(_id)))) != keccak256(abi.encodePacked((\"\")))){\n      return manufacturer.getRole(_id);\n    }\n    else if(keccak256(abi.encodePacked((stakeholder.getRole(_id)))) != keccak256(abi.encodePacked((\"\")))){\n      return stakeholder.getRole(_id);\n    }\n    else if(stakeholder.isAdmin(_id)){\n      return \"admin\";\n    }\n    else{\n      return \"new\";\n    }\n  }\n}",
  "sourcePath": "/Users/nkpaladugu/Library/CloudStorage/OneDrive-Personal/Tech/IIITH/Capstone/fpochain/web/contracts/Main.sol",
  "compiler": {
    "name": "solc",
    "version": "0.8.17+commit.8df45f5f.Emscripten.clang"
  },
  "schemaVersion": "3.4.10",
  "updatedAt": "2022-09-25T07:45:21.062Z",
  "devdoc": {
    "kind": "dev",
    "methods": {},
    "version": 1
  },
  "userdoc": {
    "kind": "user",
    "methods": {},
    "version": 1
  }
}