{
  "contractName": "Manufacturer",
  "abi": [
    {
      "inputs": [],
      "stateMutability": "nonpayable",
      "type": "constructor"
    },
    {
      "inputs": [
        {
          "internalType": "address",
          "name": "",
          "type": "address"
        }
      ],
      "name": "_isRenewableUsed",
      "outputs": [
        {
          "internalType": "bool",
          "name": "",
          "type": "bool"
        }
      ],
      "stateMutability": "view",
      "type": "function"
    },
    {
      "inputs": [
        {
          "internalType": "address",
          "name": "",
          "type": "address"
        },
        {
          "internalType": "uint256",
          "name": "",
          "type": "uint256"
        }
      ],
      "name": "_launchedProducts",
      "outputs": [
        {
          "internalType": "uint256",
          "name": "",
          "type": "uint256"
        }
      ],
      "stateMutability": "view",
      "type": "function"
    },
    {
      "inputs": [
        {
          "internalType": "address",
          "name": "",
          "type": "address"
        },
        {
          "internalType": "string",
          "name": "",
          "type": "string"
        },
        {
          "internalType": "uint256",
          "name": "",
          "type": "uint256"
        }
      ],
      "name": "_rawProductSuppliers",
      "outputs": [
        {
          "internalType": "address",
          "name": "",
          "type": "address"
        }
      ],
      "stateMutability": "view",
      "type": "function"
    },
    {
      "inputs": [
        {
          "internalType": "address",
          "name": "",
          "type": "address"
        },
        {
          "internalType": "string",
          "name": "",
          "type": "string"
        }
      ],
      "name": "_rawProductVerified",
      "outputs": [
        {
          "internalType": "bool",
          "name": "",
          "type": "bool"
        }
      ],
      "stateMutability": "view",
      "type": "function"
    },
    {
      "inputs": [
        {
          "internalType": "address",
          "name": "",
          "type": "address"
        },
        {
          "internalType": "uint256",
          "name": "",
          "type": "uint256"
        }
      ],
      "name": "_rawProducts",
      "outputs": [
        {
          "internalType": "string",
          "name": "",
          "type": "string"
        }
      ],
      "stateMutability": "view",
      "type": "function"
    },
    {
      "inputs": [],
      "name": "admin",
      "outputs": [
        {
          "internalType": "address",
          "name": "",
          "type": "address"
        }
      ],
      "stateMutability": "view",
      "type": "function"
    },
    {
      "inputs": [
        {
          "internalType": "address",
          "name": "_id",
          "type": "address"
        }
      ],
      "name": "get",
      "outputs": [
        {
          "components": [
            {
              "internalType": "address",
              "name": "id",
              "type": "address"
            },
            {
              "internalType": "string",
              "name": "name",
              "type": "string"
            },
            {
              "internalType": "string",
              "name": "location",
              "type": "string"
            },
            {
              "internalType": "string",
              "name": "role",
              "type": "string"
            },
            {
              "internalType": "bool",
              "name": "isVerified",
              "type": "bool"
            }
          ],
          "internalType": "struct Stakeholder.stakeholder",
          "name": "",
          "type": "tuple"
        }
      ],
      "stateMutability": "view",
      "type": "function"
    },
    {
      "inputs": [],
      "name": "getAddresses",
      "outputs": [
        {
          "internalType": "address[]",
          "name": "",
          "type": "address[]"
        }
      ],
      "stateMutability": "view",
      "type": "function"
    },
    {
      "inputs": [
        {
          "internalType": "address",
          "name": "_id",
          "type": "address"
        }
      ],
      "name": "getRole",
      "outputs": [
        {
          "internalType": "string",
          "name": "",
          "type": "string"
        }
      ],
      "stateMutability": "view",
      "type": "function"
    },
    {
      "inputs": [
        {
          "internalType": "address",
          "name": "_account",
          "type": "address"
        }
      ],
      "name": "isAdmin",
      "outputs": [
        {
          "internalType": "bool",
          "name": "",
          "type": "bool"
        }
      ],
      "stateMutability": "view",
      "type": "function"
    },
    {
      "inputs": [
        {
          "internalType": "address",
          "name": "_owner",
          "type": "address"
        },
        {
          "internalType": "address",
          "name": "_operator",
          "type": "address"
        }
      ],
      "name": "isApprovedForAll",
      "outputs": [
        {
          "internalType": "bool",
          "name": "",
          "type": "bool"
        }
      ],
      "stateMutability": "view",
      "type": "function"
    },
    {
      "inputs": [
        {
          "internalType": "address",
          "name": "_id",
          "type": "address"
        }
      ],
      "name": "isVerified",
      "outputs": [
        {
          "internalType": "bool",
          "name": "",
          "type": "bool"
        }
      ],
      "stateMutability": "view",
      "type": "function"
    },
    {
      "inputs": [
        {
          "internalType": "address",
          "name": "_operator",
          "type": "address"
        },
        {
          "internalType": "bool",
          "name": "_approved",
          "type": "bool"
        }
      ],
      "name": "setApprovalForAll",
      "outputs": [
        {
          "internalType": "bool",
          "name": "",
          "type": "bool"
        }
      ],
      "stateMutability": "nonpayable",
      "type": "function"
    },
    {
      "inputs": [
        {
          "internalType": "address",
          "name": "_from",
          "type": "address"
        },
        {
          "internalType": "address",
          "name": "_to",
          "type": "address"
        },
        {
          "internalType": "uint256",
          "name": "_productId",
          "type": "uint256"
        }
      ],
      "name": "transferFrom",
      "outputs": [
        {
          "internalType": "bool",
          "name": "",
          "type": "bool"
        }
      ],
      "stateMutability": "nonpayable",
      "type": "function"
    },
    {
      "inputs": [
        {
          "internalType": "address",
          "name": "_id",
          "type": "address"
        }
      ],
      "name": "verify",
      "outputs": [
        {
          "internalType": "bool",
          "name": "",
          "type": "bool"
        }
      ],
      "stateMutability": "nonpayable",
      "type": "function"
    },
    {
      "inputs": [
        {
          "internalType": "string",
          "name": "_name",
          "type": "string"
        },
        {
          "internalType": "string",
          "name": "_location",
          "type": "string"
        },
        {
          "internalType": "string",
          "name": "_role",
          "type": "string"
        }
      ],
      "name": "register",
      "outputs": [
        {
          "internalType": "bool",
          "name": "",
          "type": "bool"
        }
      ],
      "stateMutability": "nonpayable",
      "type": "function"
    },
    {
      "inputs": [
        {
          "internalType": "string",
          "name": "_name",
          "type": "string"
        },
        {
          "components": [
            {
              "internalType": "address",
              "name": "id",
              "type": "address"
            },
            {
              "internalType": "bool",
              "name": "isVerified",
              "type": "bool"
            }
          ],
          "internalType": "struct Manufacturer.supplier[]",
          "name": "_suppliers",
          "type": "tuple[]"
        }
      ],
      "name": "addRawProduct",
      "outputs": [
        {
          "internalType": "bool",
          "name": "",
          "type": "bool"
        }
      ],
      "stateMutability": "nonpayable",
      "type": "function"
    },
    {
      "inputs": [
        {
          "internalType": "address",
          "name": "_id",
          "type": "address"
        }
      ],
      "name": "getManufacturerRawProductDetails",
      "outputs": [
        {
          "components": [
            {
              "internalType": "string",
              "name": "name",
              "type": "string"
            },
            {
              "internalType": "address[]",
              "name": "boughtFromIds",
              "type": "address[]"
            },
            {
              "internalType": "bool",
              "name": "isVerified",
              "type": "bool"
            }
          ],
          "internalType": "struct Manufacturer.rawProduct[]",
          "name": "",
          "type": "tuple[]"
        }
      ],
      "stateMutability": "view",
      "type": "function"
    },
    {
      "inputs": [
        {
          "internalType": "address",
          "name": "id",
          "type": "address"
        }
      ],
      "name": "getManufacturer",
      "outputs": [
        {
          "components": [
            {
              "internalType": "address",
              "name": "id",
              "type": "address"
            },
            {
              "internalType": "string",
              "name": "name",
              "type": "string"
            },
            {
              "internalType": "string",
              "name": "location",
              "type": "string"
            },
            {
              "internalType": "string",
              "name": "role",
              "type": "string"
            },
            {
              "internalType": "bool",
              "name": "isVerified",
              "type": "bool"
            }
          ],
          "internalType": "struct Stakeholder.stakeholder",
          "name": "manufacturer",
          "type": "tuple"
        },
        {
          "internalType": "bool",
          "name": "isRenewableUsed",
          "type": "bool"
        },
        {
          "components": [
            {
              "internalType": "string",
              "name": "name",
              "type": "string"
            },
            {
              "internalType": "address[]",
              "name": "boughtFromIds",
              "type": "address[]"
            },
            {
              "internalType": "bool",
              "name": "isVerified",
              "type": "bool"
            }
          ],
          "internalType": "struct Manufacturer.rawProduct[]",
          "name": "rawProducts",
          "type": "tuple[]"
        },
        {
          "internalType": "uint256[]",
          "name": "launchedProductIds",
          "type": "uint256[]"
        }
      ],
      "stateMutability": "view",
      "type": "function"
    },
    {
      "inputs": [
        {
          "internalType": "uint256",
          "name": "_id",
          "type": "uint256"
        }
      ],
      "name": "launchProduct",
      "outputs": [
        {
          "internalType": "bool",
          "name": "",
          "type": "bool"
        }
      ],
      "stateMutability": "nonpayable",
      "type": "function"
    },
    {
      "inputs": [
        {
          "internalType": "address",
          "name": "id",
          "type": "address"
        }
      ],
      "name": "updateEnergy",
      "outputs": [
        {
          "internalType": "bool",
          "name": "",
          "type": "bool"
        }
      ],
      "stateMutability": "nonpayable",
      "type": "function"
    }
  ],
  "bytecode": "0x608060405234801561001057600080fd5b5033806000806101000a81548173ffffffffffffffffffffffffffffffffffffffff021916908373ffffffffffffffffffffffffffffffffffffffff160217905550506138c9806100626000396000f3fe608060405234801561001057600080fd5b50600436106101375760003560e01c806363a9c3d7116100b8578063c2bc2efc1161007c578063c2bc2efc146103fd578063ca9840b21461042d578063dfcb137d1461045d578063e985e9c51461048d578063eff5cebf146104bd578063f851a440146104ed57610137565b806363a9c3d71461031f578063a22cb4651461034f578063a39fac121461037f578063ae48e5da1461039d578063b9209e33146103cd57610137565b806344276733116100ff578063442767331461022f57806344a9c5c61461025f5780634afada0a1461028f5780634cd08d03146102bf5780636330a4a8146102ef57610137565b8063191bcef61461013c57806323b872dd1461016f57806324d7806c1461019f5780632cfe63fb146101cf57806340d1a208146101ff575b600080fd5b610156600480360381019061015191906123f0565b61050b565b60405161016694939291906127fa565b60405180910390f35b61018960048036038101906101849190612880565b6108f7565b60405161019691906128d3565b60405180910390f35b6101b960048036038101906101b491906123f0565b610ba8565b6040516101c691906128d3565b60405180910390f35b6101e960048036038101906101e49190612a23565b610c01565b6040516101f69190612aa1565b60405180910390f35b61021960048036038101906102149190612abc565b610c72565b6040516102269190612b46565b60405180910390f35b610249600480360381019061024491906123f0565b610d2b565b6040516102569190612b46565b60405180910390f35b61027960048036038101906102749190612cb1565b610dff565b60405161028691906128d3565b60405180910390f35b6102a960048036038101906102a49190612d29565b61120c565b6040516102b691906128d3565b60405180910390f35b6102d960048036038101906102d49190612d85565b611251565b6040516102e691906128d3565b60405180910390f35b610309600480360381019061030491906123f0565b611514565b60405161031691906128d3565b60405180910390f35b610339600480360381019061033491906123f0565b611534565b60405161034691906128d3565b60405180910390f35b61036960048036038101906103649190612e2c565b6115f2565b60405161037691906128d3565b60405180910390f35b61038761176f565b6040516103949190612edb565b60405180910390f35b6103b760048036038101906103b291906123f0565b6117fd565b6040516103c491906128d3565b60405180910390f35b6103e760048036038101906103e291906123f0565b6118b9565b6040516103f491906128d3565b60405180910390f35b610417600480360381019061041291906123f0565b611912565b6040516104249190612efd565b60405180910390f35b61044760048036038101906104429190612f1f565b611cfd565b60405161045491906128d3565b60405180910390f35b61047760048036038101906104729190612abc565b611dd7565b6040516104849190612f5b565b60405180910390f35b6104a760048036038101906104a29190612f76565b611e08565b6040516104b491906128d3565b60405180910390f35b6104d760048036038101906104d291906123f0565b611e9c565b6040516104e49190612fb6565b60405180910390f35b6104f56122f0565b6040516105029190612aa1565b60405180910390f35b610513612314565b60006060806040518060a001604052808673ffffffffffffffffffffffffffffffffffffffff168152602001600160008873ffffffffffffffffffffffffffffffffffffffff1673ffffffffffffffffffffffffffffffffffffffff168152602001908152602001600020600101805461058c90613007565b80601f01602080910402602001604051908101604052809291908181526020018280546105b890613007565b80156106055780601f106105da57610100808354040283529160200191610605565b820191906000526020600020905b8154815290600101906020018083116105e857829003601f168201915b50505050508152602001600160008873ffffffffffffffffffffffffffffffffffffffff1673ffffffffffffffffffffffffffffffffffffffff168152602001908152602001600020600201805461065c90613007565b80601f016020809104026020016040519081016040528092919081815260200182805461068890613007565b80156106d55780601f106106aa576101008083540402835291602001916106d5565b820191906000526020600020905b8154815290600101906020018083116106b857829003601f168201915b50505050508152602001600160008873ffffffffffffffffffffffffffffffffffffffff1673ffffffffffffffffffffffffffffffffffffffff168152602001908152602001600020600301805461072c90613007565b80601f016020809104026020016040519081016040528092919081815260200182805461075890613007565b80156107a55780601f1061077a576101008083540402835291602001916107a5565b820191906000526020600020905b81548152906001019060200180831161078857829003601f168201915b50505050508152602001600160008873ffffffffffffffffffffffffffffffffffffffff1673ffffffffffffffffffffffffffffffffffffffff16815260200190815260200160002060040160009054906101000a900460ff1615158152509350600560008673ffffffffffffffffffffffffffffffffffffffff1673ffffffffffffffffffffffffffffffffffffffff16815260200190815260200160002060009054906101000a900460ff16925061085e85611e9c565b9150600960008673ffffffffffffffffffffffffffffffffffffffff1673ffffffffffffffffffffffffffffffffffffffff1681526020019081526020016000208054806020026020016040519081016040528092919081815260200182805480156108e957602002820191906000526020600020905b8154815260200190600101908083116108d5575b505050505090509193509193565b600083826000600260008473ffffffffffffffffffffffffffffffffffffffff1673ffffffffffffffffffffffffffffffffffffffff168152602001908152602001600020600083815260200190815260200160002060009054906101000a900460ff16905060006109698433611e08565b8061099f57508373ffffffffffffffffffffffffffffffffffffffff163373ffffffffffffffffffffffffffffffffffffffff16145b90508180156109ab5750805b6109ea576040517f08c379a00000000000000000000000000000000000000000000000000000000081526004016109e1906130aa565b60405180910390fd5b8673ffffffffffffffffffffffffffffffffffffffff168873ffffffffffffffffffffffffffffffffffffffff1603610a58576040517f08c379a0000000000000000000000000000000000000000000000000000000008152600401610a4f9061313c565b60405180910390fd5b600073ffffffffffffffffffffffffffffffffffffffff168773ffffffffffffffffffffffffffffffffffffffff1603610ac7576040517f08c379a0000000000000000000000000000000000000000000000000000000008152600401610abe906131ce565b60405180910390fd5b6000600260008a73ffffffffffffffffffffffffffffffffffffffff1673ffffffffffffffffffffffffffffffffffffffff168152602001908152602001600020600088815260200190815260200160002060006101000a81548160ff0219169083151502179055506001600260008973ffffffffffffffffffffffffffffffffffffffff1673ffffffffffffffffffffffffffffffffffffffff168152602001908152602001600020600088815260200190815260200160002060006101000a81548160ff02191690831515021790555060019450505050509392505050565b60008060009054906101000a900473ffffffffffffffffffffffffffffffffffffffff1673ffffffffffffffffffffffffffffffffffffffff168273ffffffffffffffffffffffffffffffffffffffff16149050919050565b6007602052826000526040600020828051602081018201805184825260208301602085012081835280955050505050508181548110610c3f57600080fd5b90600052602060002001600092509250509054906101000a900473ffffffffffffffffffffffffffffffffffffffff1681565b60066020528160005260406000208181548110610c8e57600080fd5b90600052602060002001600091509150508054610caa90613007565b80601f0160208091040260200160405190810160405280929190818152602001828054610cd690613007565b8015610d235780601f10610cf857610100808354040283529160200191610d23565b820191906000526020600020905b815481529060010190602001808311610d0657829003601f168201915b505050505081565b6060600160008373ffffffffffffffffffffffffffffffffffffffff1673ffffffffffffffffffffffffffffffffffffffff1681526020019081526020016000206003018054610d7a90613007565b80601f0160208091040260200160405190810160405280929190818152602001828054610da690613007565b8015610df35780601f10610dc857610100808354040283529160200191610df3565b820191906000526020600020905b815481529060010190602001808311610dd657829003601f168201915b50505050509050919050565b6000806000905060005b600660003373ffffffffffffffffffffffffffffffffffffffff1673ffffffffffffffffffffffffffffffffffffffff16815260200190815260200160002080549050811015610f185784604051602001610e64919061322a565b60405160208183030381529060405280519060200120600660003373ffffffffffffffffffffffffffffffffffffffff1673ffffffffffffffffffffffffffffffffffffffff1681526020019081526020016000208281548110610ecb57610eca613241565b5b90600052602060002001604051602001610ee59190613308565b6040516020818303038152906040528051906020012003610f0557600191505b8080610f109061334e565b915050610e09565b5080610f9157600660003373ffffffffffffffffffffffffffffffffffffffff1673ffffffffffffffffffffffffffffffffffffffff16815260200190815260200160002084908060018154018082558091505060019003906000526020600020016000909190919091509081610f8f919061352d565b505b6001600860003373ffffffffffffffffffffffffffffffffffffffff1673ffffffffffffffffffffffffffffffffffffffff16815260200190815260200160002085604051610fe0919061322a565b908152602001604051809103902060006101000a81548160ff02191690831515021790555060005b835181101561120057600760003373ffffffffffffffffffffffffffffffffffffffff1673ffffffffffffffffffffffffffffffffffffffff1681526020019081526020016000208560405161105e919061322a565b908152602001604051809103902084828151811061107f5761107e613241565b5b6020026020010151600001519080600181540180825580915050600190039060005260206000200160009091909190916101000a81548173ffffffffffffffffffffffffffffffffffffffff021916908373ffffffffffffffffffffffffffffffffffffffff160217905550600860003373ffffffffffffffffffffffffffffffffffffffff1673ffffffffffffffffffffffffffffffffffffffff16815260200190815260200160002085604051611138919061322a565b908152602001604051809103902060009054906101000a900460ff16801561117b575083818151811061116e5761116d613241565b5b6020026020010151602001515b600860003373ffffffffffffffffffffffffffffffffffffffff1673ffffffffffffffffffffffffffffffffffffffff168152602001908152602001600020866040516111c8919061322a565b908152602001604051809103902060006101000a81548160ff02191690831515021790555080806111f89061334e565b915050611008565b50600191505092915050565b6008602052816000526040600020818051602081018201805184825260208301602085012081835280955050505050506000915091509054906101000a900460ff1681565b60008073ffffffffffffffffffffffffffffffffffffffff16600160003373ffffffffffffffffffffffffffffffffffffffff1673ffffffffffffffffffffffffffffffffffffffff16815260200190815260200160002060000160009054906101000a900473ffffffffffffffffffffffffffffffffffffffff1673ffffffffffffffffffffffffffffffffffffffff1614611323576040517f08c379a000000000000000000000000000000000000000000000000000000000815260040161131a90613697565b60405180910390fd5b6040518060a001604052803373ffffffffffffffffffffffffffffffffffffffff16815260200185815260200184815260200183815260200160001515815250600160003373ffffffffffffffffffffffffffffffffffffffff1673ffffffffffffffffffffffffffffffffffffffff16815260200190815260200160002060008201518160000160006101000a81548173ffffffffffffffffffffffffffffffffffffffff021916908373ffffffffffffffffffffffffffffffffffffffff16021790555060208201518160010190816113fe919061352d565b506040820151816002019081611414919061352d565b50606082015181600301908161142a919061352d565b5060808201518160040160006101000a81548160ff0219169083151502179055509050506000600560003373ffffffffffffffffffffffffffffffffffffffff1673ffffffffffffffffffffffffffffffffffffffff16815260200190815260200160002060006101000a81548160ff0219169083151502179055506004339080600181540180825580915050600190039060005260206000200160009091909190916101000a81548173ffffffffffffffffffffffffffffffffffffffff021916908373ffffffffffffffffffffffffffffffffffffffff160217905550600190509392505050565b60056020528060005260406000206000915054906101000a900460ff1681565b60008060009054906101000a900473ffffffffffffffffffffffffffffffffffffffff1673ffffffffffffffffffffffffffffffffffffffff163373ffffffffffffffffffffffffffffffffffffffff161461158f57600080fd5b60018060008473ffffffffffffffffffffffffffffffffffffffff1673ffffffffffffffffffffffffffffffffffffffff16815260200190815260200160002060040160006101000a81548160ff02191690831515021790555060019050919050565b60008273ffffffffffffffffffffffffffffffffffffffff163373ffffffffffffffffffffffffffffffffffffffff1603611662576040517f08c379a000000000000000000000000000000000000000000000000000000000815260040161165990613729565b60405180910390fd5b600073ffffffffffffffffffffffffffffffffffffffff168373ffffffffffffffffffffffffffffffffffffffff16036116d1576040517f08c379a00000000000000000000000000000000000000000000000000000000081526004016116c8906137e1565b60405180910390fd5b81600360003373ffffffffffffffffffffffffffffffffffffffff1673ffffffffffffffffffffffffffffffffffffffff16815260200190815260200160002060008573ffffffffffffffffffffffffffffffffffffffff1673ffffffffffffffffffffffffffffffffffffffff16815260200190815260200160002060006101000a81548160ff0219169083151502179055506001905092915050565b606060048054806020026020016040519081016040528092919081815260200182805480156117f357602002820191906000526020600020905b8160009054906101000a900473ffffffffffffffffffffffffffffffffffffffff1673ffffffffffffffffffffffffffffffffffffffff16815260200190600101908083116117a9575b5050505050905090565b60008060009054906101000a900473ffffffffffffffffffffffffffffffffffffffff1673ffffffffffffffffffffffffffffffffffffffff163373ffffffffffffffffffffffffffffffffffffffff161461185857600080fd5b6001600560008473ffffffffffffffffffffffffffffffffffffffff1673ffffffffffffffffffffffffffffffffffffffff16815260200190815260200160002060006101000a81548160ff02191690831515021790555060019050919050565b6000600160008373ffffffffffffffffffffffffffffffffffffffff1673ffffffffffffffffffffffffffffffffffffffff16815260200190815260200160002060040160009054906101000a900460ff169050919050565b61191a612314565b81600160003373ffffffffffffffffffffffffffffffffffffffff1673ffffffffffffffffffffffffffffffffffffffff16815260200190815260200160002060000160009054906101000a900473ffffffffffffffffffffffffffffffffffffffff1673ffffffffffffffffffffffffffffffffffffffff168173ffffffffffffffffffffffffffffffffffffffff161480611a455750600073ffffffffffffffffffffffffffffffffffffffff16600160003373ffffffffffffffffffffffffffffffffffffffff1673ffffffffffffffffffffffffffffffffffffffff16815260200190815260200160002060000160009054906101000a900473ffffffffffffffffffffffffffffffffffffffff1673ffffffffffffffffffffffffffffffffffffffff16145b611a84576040517f08c379a0000000000000000000000000000000000000000000000000000000008152600401611a7b90613873565b60405180910390fd5b600160008473ffffffffffffffffffffffffffffffffffffffff1673ffffffffffffffffffffffffffffffffffffffff1681526020019081526020016000206040518060a00160405290816000820160009054906101000a900473ffffffffffffffffffffffffffffffffffffffff1673ffffffffffffffffffffffffffffffffffffffff1673ffffffffffffffffffffffffffffffffffffffff168152602001600182018054611b3490613007565b80601f0160208091040260200160405190810160405280929190818152602001828054611b6090613007565b8015611bad5780601f10611b8257610100808354040283529160200191611bad565b820191906000526020600020905b815481529060010190602001808311611b9057829003601f168201915b50505050508152602001600282018054611bc690613007565b80601f0160208091040260200160405190810160405280929190818152602001828054611bf290613007565b8015611c3f5780601f10611c1457610100808354040283529160200191611c3f565b820191906000526020600020905b815481529060010190602001808311611c2257829003601f168201915b50505050508152602001600382018054611c5890613007565b80601f0160208091040260200160405190810160405280929190818152602001828054611c8490613007565b8015611cd15780601f10611ca657610100808354040283529160200191611cd1565b820191906000526020600020905b815481529060010190602001808311611cb457829003601f168201915b505050505081526020016004820160009054906101000a900460ff161515151581525050915050919050565b6000600960003373ffffffffffffffffffffffffffffffffffffffff1673ffffffffffffffffffffffffffffffffffffffff1681526020019081526020016000208290806001815401808255809150506001900390600052602060002001600090919091909150556001600260003373ffffffffffffffffffffffffffffffffffffffff1673ffffffffffffffffffffffffffffffffffffffff168152602001908152602001600020600084815260200190815260200160002060006101000a81548160ff02191690831515021790555060019050919050565b60096020528160005260406000208181548110611df357600080fd5b90600052602060002001600091509150505481565b6000600360008473ffffffffffffffffffffffffffffffffffffffff1673ffffffffffffffffffffffffffffffffffffffff16815260200190815260200160002060008373ffffffffffffffffffffffffffffffffffffffff1673ffffffffffffffffffffffffffffffffffffffff16815260200190815260200160002060009054906101000a900460ff16905092915050565b60606000600660008473ffffffffffffffffffffffffffffffffffffffff1673ffffffffffffffffffffffffffffffffffffffff1681526020019081526020016000208054905067ffffffffffffffff811115611efc57611efb6128f8565b5b604051908082528060200260200182016040528015611f3557816020015b611f2261235b565b815260200190600190039081611f1a5790505b50905060005b600660008573ffffffffffffffffffffffffffffffffffffffff1673ffffffffffffffffffffffffffffffffffffffff168152602001908152602001600020805490508110156122e657600660008573ffffffffffffffffffffffffffffffffffffffff1673ffffffffffffffffffffffffffffffffffffffff1681526020019081526020016000208181548110611fd657611fd5613241565b5b906000526020600020018054611feb90613007565b80601f016020809104026020016040519081016040528092919081815260200182805461201790613007565b80156120645780601f1061203957610100808354040283529160200191612064565b820191906000526020600020905b81548152906001019060200180831161204757829003601f168201915b505050505082828151811061207c5761207b613241565b5b602002602001015160000181905250600760008573ffffffffffffffffffffffffffffffffffffffff1673ffffffffffffffffffffffffffffffffffffffff168152602001908152602001600020600660008673ffffffffffffffffffffffffffffffffffffffff1673ffffffffffffffffffffffffffffffffffffffff168152602001908152602001600020828154811061211b5761211a613241565b5b906000526020600020016040516121329190613308565b90815260200160405180910390208054806020026020016040519081016040528092919081815260200182805480156121c057602002820191906000526020600020905b8160009054906101000a900473ffffffffffffffffffffffffffffffffffffffff1673ffffffffffffffffffffffffffffffffffffffff1681526020019060010190808311612176575b50505050508282815181106121d8576121d7613241565b5b602002602001015160200181905250600860008573ffffffffffffffffffffffffffffffffffffffff1673ffffffffffffffffffffffffffffffffffffffff168152602001908152602001600020600660008673ffffffffffffffffffffffffffffffffffffffff1673ffffffffffffffffffffffffffffffffffffffff168152602001908152602001600020828154811061227757612276613241565b5b9060005260206000200160405161228e9190613308565b908152602001604051809103902060009054906101000a900460ff168282815181106122bd576122bc613241565b5b6020026020010151604001901515908115158152505080806122de9061334e565b915050611f3b565b5080915050919050565b60008054906101000a900473ffffffffffffffffffffffffffffffffffffffff1681565b6040518060a00160405280600073ffffffffffffffffffffffffffffffffffffffff1681526020016060815260200160608152602001606081526020016000151581525090565b604051806060016040528060608152602001606081526020016000151581525090565b6000604051905090565b600080fd5b600080fd5b600073ffffffffffffffffffffffffffffffffffffffff82169050919050565b60006123bd82612392565b9050919050565b6123cd816123b2565b81146123d857600080fd5b50565b6000813590506123ea816123c4565b92915050565b60006020828403121561240657612405612388565b5b6000612414848285016123db565b91505092915050565b612426816123b2565b82525050565b600081519050919050565b600082825260208201905092915050565b60005b8381101561246657808201518184015260208101905061244b565b60008484015250505050565b6000601f19601f8301169050919050565b600061248e8261242c565b6124988185612437565b93506124a8818560208601612448565b6124b181612472565b840191505092915050565b60008115159050919050565b6124d1816124bc565b82525050565b600060a0830160008301516124ef600086018261241d565b50602083015184820360208601526125078282612483565b915050604083015184820360408601526125218282612483565b9150506060830151848203606086015261253b8282612483565b915050608083015161255060808601826124c8565b508091505092915050565b612564816124bc565b82525050565b600081519050919050565b600082825260208201905092915050565b6000819050602082019050919050565b600081519050919050565b600082825260208201905092915050565b6000819050602082019050919050565b60006125ce838361241d565b60208301905092915050565b6000602082019050919050565b60006125f282612596565b6125fc81856125a1565b9350612607836125b2565b8060005b8381101561263857815161261f88826125c2565b975061262a836125da565b92505060018101905061260b565b5085935050505092915050565b600060608301600083015184820360008601526126628282612483565b9150506020830151848203602086015261267c82826125e7565b915050604083015161269160408601826124c8565b508091505092915050565b60006126a88383612645565b905092915050565b6000602082019050919050565b60006126c88261256a565b6126d28185612575565b9350836020820285016126e485612586565b8060005b858110156127205784840389528151612701858261269c565b945061270c836126b0565b925060208a019950506001810190506126e8565b50829750879550505050505092915050565b600081519050919050565b600082825260208201905092915050565b6000819050602082019050919050565b6000819050919050565b6127718161275e565b82525050565b60006127838383612768565b60208301905092915050565b6000602082019050919050565b60006127a782612732565b6127b1818561273d565b93506127bc8361274e565b8060005b838110156127ed5781516127d48882612777565b97506127df8361278f565b9250506001810190506127c0565b5085935050505092915050565b6000608082019050818103600083015261281481876124d7565b9050612823602083018661255b565b818103604083015261283581856126bd565b90508181036060830152612849818461279c565b905095945050505050565b61285d8161275e565b811461286857600080fd5b50565b60008135905061287a81612854565b92915050565b60008060006060848603121561289957612898612388565b5b60006128a7868287016123db565b93505060206128b8868287016123db565b92505060406128c98682870161286b565b9150509250925092565b60006020820190506128e8600083018461255b565b92915050565b600080fd5b600080fd5b7f4e487b7100000000000000000000000000000000000000000000000000000000600052604160045260246000fd5b61293082612472565b810181811067ffffffffffffffff8211171561294f5761294e6128f8565b5b80604052505050565b600061296261237e565b905061296e8282612927565b919050565b600067ffffffffffffffff82111561298e5761298d6128f8565b5b61299782612472565b9050602081019050919050565b82818337600083830152505050565b60006129c66129c184612973565b612958565b9050828152602081018484840111156129e2576129e16128f3565b5b6129ed8482856129a4565b509392505050565b600082601f830112612a0a57612a096128ee565b5b8135612a1a8482602086016129b3565b91505092915050565b600080600060608486031215612a3c57612a3b612388565b5b6000612a4a868287016123db565b935050602084013567ffffffffffffffff811115612a6b57612a6a61238d565b5b612a77868287016129f5565b9250506040612a888682870161286b565b9150509250925092565b612a9b816123b2565b82525050565b6000602082019050612ab66000830184612a92565b92915050565b60008060408385031215612ad357612ad2612388565b5b6000612ae1858286016123db565b9250506020612af28582860161286b565b9150509250929050565b600082825260208201905092915050565b6000612b188261242c565b612b228185612afc565b9350612b32818560208601612448565b612b3b81612472565b840191505092915050565b60006020820190508181036000830152612b608184612b0d565b905092915050565b600067ffffffffffffffff821115612b8357612b826128f8565b5b602082029050602081019050919050565b600080fd5b600080fd5b612ba7816124bc565b8114612bb257600080fd5b50565b600081359050612bc481612b9e565b92915050565b600060408284031215612be057612bdf612b99565b5b612bea6040612958565b90506000612bfa848285016123db565b6000830152506020612c0e84828501612bb5565b60208301525092915050565b6000612c2d612c2884612b68565b612958565b90508083825260208201905060408402830185811115612c5057612c4f612b94565b5b835b81811015612c795780612c658882612bca565b845260208401935050604081019050612c52565b5050509392505050565b600082601f830112612c9857612c976128ee565b5b8135612ca8848260208601612c1a565b91505092915050565b60008060408385031215612cc857612cc7612388565b5b600083013567ffffffffffffffff811115612ce657612ce561238d565b5b612cf2858286016129f5565b925050602083013567ffffffffffffffff811115612d1357612d1261238d565b5b612d1f85828601612c83565b9150509250929050565b60008060408385031215612d4057612d3f612388565b5b6000612d4e858286016123db565b925050602083013567ffffffffffffffff811115612d6f57612d6e61238d565b5b612d7b858286016129f5565b9150509250929050565b600080600060608486031215612d9e57612d9d612388565b5b600084013567ffffffffffffffff811115612dbc57612dbb61238d565b5b612dc8868287016129f5565b935050602084013567ffffffffffffffff811115612de957612de861238d565b5b612df5868287016129f5565b925050604084013567ffffffffffffffff811115612e1657612e1561238d565b5b612e22868287016129f5565b9150509250925092565b60008060408385031215612e4357612e42612388565b5b6000612e51858286016123db565b9250506020612e6285828601612bb5565b9150509250929050565b600082825260208201905092915050565b6000612e8882612596565b612e928185612e6c565b9350612e9d836125b2565b8060005b83811015612ece578151612eb588826125c2565b9750612ec0836125da565b925050600181019050612ea1565b5085935050505092915050565b60006020820190508181036000830152612ef58184612e7d565b905092915050565b60006020820190508181036000830152612f1781846124d7565b905092915050565b600060208284031215612f3557612f34612388565b5b6000612f438482850161286b565b91505092915050565b612f558161275e565b82525050565b6000602082019050612f706000830184612f4c565b92915050565b60008060408385031215612f8d57612f8c612388565b5b6000612f9b858286016123db565b9250506020612fac858286016123db565b9150509250929050565b60006020820190508181036000830152612fd081846126bd565b905092915050565b7f4e487b7100000000000000000000000000000000000000000000000000000000600052602260045260246000fd5b6000600282049050600182168061301f57607f821691505b60208210810361303257613031612fd8565b5b50919050565b7f4f6e6c79206f776e6572206f7220617070726f7665642063616e20616363657360008201527f7320746869732066756e6374696f6e0000000000000000000000000000000000602082015250565b6000613094602f83612afc565b915061309f82613038565b604082019050919050565b600060208201905081810360008301526130c381613087565b9050919050565b7f5374616b65686f6c6465723a3a7472616e7366657246726f6d3a2043616e6e6f60008201527f74207472616e7366657220746f2073656c660000000000000000000000000000602082015250565b6000613126603283612afc565b9150613131826130ca565b604082019050919050565b6000602082019050818103600083015261315581613119565b9050919050565b7f5374616b65686f6c6465723a3a7472616e7366657246726f6d3a2043616e6e6f60008201527f74207472616e7366657220746f206e756c6c2061646472657373000000000000602082015250565b60006131b8603a83612afc565b91506131c38261315c565b604082019050919050565b600060208201905081810360008301526131e7816131ab565b9050919050565b600081905092915050565b60006132048261242c565b61320e81856131ee565b935061321e818560208601612448565b80840191505092915050565b600061323682846131f9565b915081905092915050565b7f4e487b7100000000000000000000000000000000000000000000000000000000600052603260045260246000fd5b60008190508160005260206000209050919050565b6000815461329281613007565b61329c81866131ee565b945060018216600081146132b757600181146132cc576132ff565b60ff19831686528115158202860193506132ff565b6132d585613270565b60005b838110156132f7578154818901526001820191506020810190506132d8565b838801955050505b50505092915050565b60006133148284613285565b915081905092915050565b7f4e487b7100000000000000000000000000000000000000000000000000000000600052601160045260246000fd5b60006133598261275e565b91507fffffffffffffffffffffffffffffffffffffffffffffffffffffffffffffffff820361338b5761338a61331f565b5b600182019050919050565b60006020601f8301049050919050565b600082821b905092915050565b6000600883026133e37fffffffffffffffffffffffffffffffffffffffffffffffffffffffffffffffff826133a6565b6133ed86836133a6565b95508019841693508086168417925050509392505050565b6000819050919050565b600061342a6134256134208461275e565b613405565b61275e565b9050919050565b6000819050919050565b6134448361340f565b61345861345082613431565b8484546133b3565b825550505050565b600090565b61346d613460565b61347881848461343b565b505050565b5b8181101561349c57613491600082613465565b60018101905061347e565b5050565b601f8211156134e1576134b281613270565b6134bb84613396565b810160208510156134ca578190505b6134de6134d685613396565b83018261347d565b50505b505050565b600082821c905092915050565b6000613504600019846008026134e6565b1980831691505092915050565b600061351d83836134f3565b9150826002028217905092915050565b6135368261242c565b67ffffffffffffffff81111561354f5761354e6128f8565b5b6135598254613007565b6135648282856134a0565b600060209050601f8311600181146135975760008415613585578287015190505b61358f8582613511565b8655506135f7565b601f1984166135a586613270565b60005b828110156135cd578489015182556001820191506020850194506020810190506135a8565b868310156135ea57848901516135e6601f8916826134f3565b8355505b6001600288020188555050505b505050505050565b7f4d616e7566616374757265723a3a72656769737465724d616e7566616374757260008201527f65723a204d616e75666163747572657220616c7265616479207265676973746560208201527f7265640000000000000000000000000000000000000000000000000000000000604082015250565b6000613681604383612afc565b915061368c826135ff565b606082019050919050565b600060208201905081810360008301526136b081613674565b9050919050565b7f5374616b65686f6c6465723a3a736574417070726f76616c466f72416c6c3a2060008201527f43616e6e6f742073657420617070726f76616c20666f722073656c6600000000602082015250565b6000613713603c83612afc565b915061371e826136b7565b604082019050919050565b6000602082019050818103600083015261374281613706565b9050919050565b7f5374616b65686f6c6465723a3a736574417070726f76616c466f72416c6c3a2060008201527f43616e6e6f742073657420617070726f76616c20666f72206e756c6c2061646460208201527f7265737300000000000000000000000000000000000000000000000000000000604082015250565b60006137cb604483612afc565b91506137d682613749565b606082019050919050565b600060208201905081810360008301526137fa816137be565b9050919050565b7f4f6e6c79207374616b65686f6c6465722063616e20616363657373207468697360008201527f2066756e6374696f6e0000000000000000000000000000000000000000000000602082015250565b600061385d602983612afc565b915061386882613801565b604082019050919050565b6000602082019050818103600083015261388c81613850565b905091905056fea26469706673582212203c397e2f77733846875fd1d21bbd1dffef27a82aeb2d9286c99e4d137410c25464736f6c63430008110033",
  "immutableReferences": {},
  "source": "// SPDX-License-Identifier: MIT\npragma solidity ^0.8.0;\nimport './Stakeholder.sol';\nimport './Farmer.sol';\n\ncontract Manufacturer is Stakeholder {\n\n  struct rawProduct{\n    string name;\n    address[] boughtFromIds;\n    bool isVerified;\n  }\n\n  struct supplier{\n    address id;\n    bool isVerified;\n  }\n\n  mapping(address => bool) public _isRenewableUsed;\n  mapping(address => string[]) public _rawProducts;\n  mapping(address => mapping(string => address[])) public _rawProductSuppliers;\n  mapping(address => mapping(string => bool)) public _rawProductVerified;\n  mapping(address => uint256[]) public _launchedProducts;\n\n  constructor() Stakeholder() {}\n\n  function register(\n    string memory _name, \n    string memory _location,\n    string memory _role\n  ) public override returns (bool) {\n    require (_stakeholders[msg.sender].id ==  address(0), \"Manufacturer::registerManufacturer: Manufacturer already registered\");\n    _stakeholders[msg.sender] = stakeholder(msg.sender, _name, _location, _role, false);\n    _isRenewableUsed[msg.sender] = false;\n    _stakeholderAddresses.push(msg.sender);\n    return true;\n  }\n\n  function addRawProduct(string memory _name, supplier[] memory _suppliers) public returns (bool){\n    bool productAlreadyAdded = false;\n    for (uint i = 0; i < _rawProducts[msg.sender].length; i++) {\n      if (keccak256(abi.encodePacked((_rawProducts[msg.sender][i]))) == keccak256(abi.encodePacked((_name)))) {\n        productAlreadyAdded = true;\n      }\n    }\n    if(!productAlreadyAdded){\n      _rawProducts[msg.sender].push(_name);\n    }\n    _rawProductVerified[msg.sender][_name] = true;\n    for(uint i =0; i < _suppliers.length; i++){\n      _rawProductSuppliers[msg.sender][_name].push(_suppliers[i].id);\n      _rawProductVerified[msg.sender][_name] = _rawProductVerified[msg.sender][_name] && _suppliers[i].isVerified;\n    }\n    return true;\n  }\n\n  function getManufacturerRawProductDetails(address _id) public view returns (rawProduct[] memory){\n    rawProduct[] memory rawProducts = new rawProduct[](_rawProducts[_id].length);\n    for (uint i = 0; i < _rawProducts[_id].length; i++) {\n      rawProducts[i].name = _rawProducts[_id][i];\n      rawProducts[i].boughtFromIds = _rawProductSuppliers[_id][_rawProducts[_id][i]];\n      rawProducts[i].isVerified = _rawProductVerified[_id][_rawProducts[_id][i]];\n    }\n    return rawProducts;\n  }\n\n  function getManufacturer(address id) public view returns (\n    stakeholder memory manufacturer,\n    bool isRenewableUsed,\n    rawProduct[] memory rawProducts,\n    uint256[] memory launchedProductIds\n  ){\n    manufacturer = stakeholder(id, _stakeholders[id].name, _stakeholders[id].location, _stakeholders[id].role, _stakeholders[id].isVerified);\n    isRenewableUsed = _isRenewableUsed[id];\n    rawProducts = getManufacturerRawProductDetails(id);\n    launchedProductIds = _launchedProducts[id];\n  }\n\n  function launchProduct(uint256 _id) public returns (bool) {\n    _launchedProducts[msg.sender].push(_id);\n    _stakeholderProductOwnership[msg.sender][_id] = true;\n    return true;\n  }\n\n  function updateEnergy(address id) public onlyAdmin returns (bool) {\n    _isRenewableUsed[id] = true;\n    return true;\n  }\n\n}",
  "sourcePath": "/Users/nkpaladugu/Library/CloudStorage/OneDrive-Personal/Tech/IIITH/Capstone/fpochain/web/contracts/Manufacturer.sol",
  "compiler": {
    "name": "solc",
    "version": "0.8.17+commit.8df45f5f.Emscripten.clang"
  },
  "schemaVersion": "3.4.10",
  "updatedAt": "2022-09-25T07:43:28.782Z",
  "devdoc": {
    "kind": "dev",
    "methods": {},
    "version": 1
  },
  "userdoc": {
    "kind": "user",
    "methods": {},
    "version": 1
  }
}