{
  "contractName": "Product",
  "abi": [
    {
      "inputs": [],
      "stateMutability": "nonpayable",
      "type": "constructor"
    },
    {
      "inputs": [
        {
          "internalType": "uint256",
          "name": "",
          "type": "uint256"
        }
      ],
      "name": "_itemIds",
      "outputs": [
        {
          "internalType": "uint256",
          "name": "",
          "type": "uint256"
        }
      ],
      "stateMutability": "view",
      "type": "function"
    },
    {
      "inputs": [
        {
          "internalType": "uint256",
          "name": "",
          "type": "uint256"
        }
      ],
      "name": "_items",
      "outputs": [
        {
          "internalType": "uint256",
          "name": "id",
          "type": "uint256"
        },
        {
          "internalType": "string",
          "name": "title",
          "type": "string"
        },
        {
          "internalType": "address",
          "name": "manufacturer",
          "type": "address"
        },
        {
          "internalType": "address",
          "name": "currentOwner",
          "type": "address"
        },
        {
          "internalType": "address",
          "name": "lastOwner",
          "type": "address"
        },
        {
          "internalType": "uint256",
          "name": "rating",
          "type": "uint256"
        },
        {
          "internalType": "uint256",
          "name": "launchDate",
          "type": "uint256"
        },
        {
          "internalType": "string",
          "name": "image_url",
          "type": "string"
        }
      ],
      "stateMutability": "view",
      "type": "function"
    },
    {
      "inputs": [
        {
          "internalType": "uint256",
          "name": "_id",
          "type": "uint256"
        },
        {
          "internalType": "string",
          "name": "_title",
          "type": "string"
        },
        {
          "components": [
            {
              "internalType": "string",
              "name": "name",
              "type": "string"
            },
            {
              "internalType": "bool",
              "name": "isVerified",
              "type": "bool"
            }
          ],
          "internalType": "struct Product.RawProduct[]",
          "name": "_rawProducts",
          "type": "tuple[]"
        },
        {
          "internalType": "string",
          "name": "image_url",
          "type": "string"
        }
      ],
      "name": "add",
      "outputs": [
        {
          "internalType": "bool",
          "name": "",
          "type": "bool"
        }
      ],
      "stateMutability": "nonpayable",
      "type": "function"
    },
    {
      "inputs": [
        {
          "internalType": "uint256",
          "name": "_id",
          "type": "uint256"
        }
      ],
      "name": "get",
      "outputs": [
        {
          "components": [
            {
              "internalType": "uint256",
              "name": "id",
              "type": "uint256"
            },
            {
              "internalType": "string",
              "name": "title",
              "type": "string"
            },
            {
              "internalType": "address",
              "name": "manufacturer",
              "type": "address"
            },
            {
              "internalType": "address",
              "name": "currentOwner",
              "type": "address"
            },
            {
              "internalType": "address",
              "name": "lastOwner",
              "type": "address"
            },
            {
              "internalType": "uint256",
              "name": "rating",
              "type": "uint256"
            },
            {
              "internalType": "uint256",
              "name": "launchDate",
              "type": "uint256"
            },
            {
              "internalType": "string",
              "name": "image_url",
              "type": "string"
            }
          ],
          "internalType": "struct Product.Item",
          "name": "item",
          "type": "tuple"
        },
        {
          "components": [
            {
              "internalType": "uint256",
              "name": "txId",
              "type": "uint256"
            },
            {
              "internalType": "address",
              "name": "from",
              "type": "address"
            },
            {
              "internalType": "address",
              "name": "to",
              "type": "address"
            },
            {
              "internalType": "uint256",
              "name": "date",
              "type": "uint256"
            }
          ],
          "internalType": "struct Product.Transaction[]",
          "name": "transactions",
          "type": "tuple[]"
        },
        {
          "components": [
            {
              "internalType": "uint256",
              "name": "id",
              "type": "uint256"
            },
            {
              "internalType": "uint256",
              "name": "date",
              "type": "uint256"
            },
            {
              "internalType": "uint256",
              "name": "rating",
              "type": "uint256"
            },
            {
              "internalType": "string",
              "name": "comment",
              "type": "string"
            },
            {
              "internalType": "address",
              "name": "reviewer",
              "type": "address"
            }
          ],
          "internalType": "struct Product.Review[]",
          "name": "reviews",
          "type": "tuple[]"
        },
        {
          "components": [
            {
              "internalType": "string",
              "name": "name",
              "type": "string"
            },
            {
              "internalType": "bool",
              "name": "isVerified",
              "type": "bool"
            }
          ],
          "internalType": "struct Product.RawProduct[]",
          "name": "rawProducts",
          "type": "tuple[]"
        }
      ],
      "stateMutability": "view",
      "type": "function"
    },
    {
      "inputs": [
        {
          "internalType": "address",
          "name": "_to",
          "type": "address"
        },
        {
          "internalType": "uint256",
          "name": "_id",
          "type": "uint256"
        }
      ],
      "name": "transfer",
      "outputs": [
        {
          "internalType": "bool",
          "name": "",
          "type": "bool"
        }
      ],
      "stateMutability": "nonpayable",
      "type": "function"
    },
    {
      "inputs": [
        {
          "internalType": "uint256",
          "name": "_id",
          "type": "uint256"
        },
        {
          "internalType": "uint256",
          "name": "_rating",
          "type": "uint256"
        },
        {
          "internalType": "string",
          "name": "_comment",
          "type": "string"
        }
      ],
      "name": "addReview",
      "outputs": [
        {
          "internalType": "bool",
          "name": "",
          "type": "bool"
        }
      ],
      "stateMutability": "nonpayable",
      "type": "function"
    },
    {
      "inputs": [],
      "name": "getItemIds",
      "outputs": [
        {
          "internalType": "uint256[]",
          "name": "",
          "type": "uint256[]"
        }
      ],
      "stateMutability": "view",
      "type": "function"
    },
    {
      "inputs": [],
      "name": "getProductsCount",
      "outputs": [
        {
          "internalType": "uint256",
          "name": "",
          "type": "uint256"
        }
      ],
      "stateMutability": "view",
      "type": "function"
    },
    {
      "inputs": [],
      "name": "getTransactionsCount",
      "outputs": [
        {
          "internalType": "uint256",
          "name": "",
          "type": "uint256"
        }
      ],
      "stateMutability": "view",
      "type": "function"
    },
    {
      "inputs": [],
      "name": "getReviewsCount",
      "outputs": [
        {
          "internalType": "uint256",
          "name": "",
          "type": "uint256"
        }
      ],
      "stateMutability": "view",
      "type": "function"
    }
  ],
  "bytecode": "0x608060405234801561001057600080fd5b5060006007819055506000600881905550612a8e806100306000396000f3fe608060405234801561001057600080fd5b506004361061009e5760003560e01c80637967c929116100665780637967c929146101645780639507d39a14610194578063a9059cbb146101c7578063ef0614b9146101f7578063f8e7284a146102155761009e565b80631435ba3c146100a35780633e9e27aa146100c157806344029410146100f15780635786fd4014610128578063578cb8f914610146575b600080fd5b6100ab610245565b6040516100b8919061171b565b60405180910390f35b6100db60048036038101906100d691906118bc565b61024f565b6040516100e89190611946565b60405180910390f35b61010b60048036038101906101069190611961565b6104b0565b60405161011f989796959493929190611a4e565b60405180910390f35b610130610668565b60405161013d919061171b565b60405180910390f35b61014e610674565b60405161015b919061171b565b60405180910390f35b61017e60048036038101906101799190611c62565b61067e565b60405161018b9190611946565b60405180910390f35b6101ae60048036038101906101a99190611961565b61098b565b6040516101be9493929190612186565b60405180910390f35b6101e160048036038101906101dc9190612213565b6110fa565b6040516101ee9190611946565b60405180910390f35b6101ff611566565b60405161020c9190612302565b60405180910390f35b61022f600480360381019061022a9190611961565b6115be565b60405161023c919061171b565b60405180910390f35b6000600854905090565b60003373ffffffffffffffffffffffffffffffffffffffff166001600086815260200190815260200160002060030160009054906101000a900473ffffffffffffffffffffffffffffffffffffffff1673ffffffffffffffffffffffffffffffffffffffff16146102f5576040517f08c379a00000000000000000000000000000000000000000000000000000000081526004016102ec90612396565b60405180910390fd5b6040518060a0016040528060085481526020014281526020018481526020018381526020013373ffffffffffffffffffffffffffffffffffffffff16815250600260006008548152602001908152602001600020600082015181600001556020820151816001015560408201518160020155606082015181600301908161037c91906125c2565b5060808201518160040160006101000a81548173ffffffffffffffffffffffffffffffffffffffff021916908373ffffffffffffffffffffffffffffffffffffffff160217905550905050600160056000868152602001908152602001600020805490506103ea91906126c3565b836005600087815260200190815260200160002080549050600160008881526020019081526020016000206005015461042391906126f7565b61042d91906126c3565b6104379190612768565b6001600086815260200190815260200160002060050181905550600560008581526020019081526020016000206008549080600181540180825580915050600190039060005260206000200160009091909190915055600860008154809291906104a090612799565b9190505550600190509392505050565b60016020528060005260406000206000915090508060000154908060010180546104d9906123e5565b80601f0160208091040260200160405190810160405280929190818152602001828054610505906123e5565b80156105525780601f1061052757610100808354040283529160200191610552565b820191906000526020600020905b81548152906001019060200180831161053557829003601f168201915b5050505050908060020160009054906101000a900473ffffffffffffffffffffffffffffffffffffffff16908060030160009054906101000a900473ffffffffffffffffffffffffffffffffffffffff16908060040160009054906101000a900473ffffffffffffffffffffffffffffffffffffffff16908060050154908060060154908060070180546105e5906123e5565b80601f0160208091040260200160405190810160405280929190818152602001828054610611906123e5565b801561065e5780601f106106335761010080835404028352916020019161065e565b820191906000526020600020905b81548152906001019060200180831161064157829003601f168201915b5050505050905088565b60008080549050905090565b6000600754905090565b600080339050600073ffffffffffffffffffffffffffffffffffffffff168173ffffffffffffffffffffffffffffffffffffffff16036106f3576040517f08c379a00000000000000000000000000000000000000000000000000000000081526004016106ea90612853565b60405180910390fd5b6040518061010001604052808781526020018681526020018273ffffffffffffffffffffffffffffffffffffffff1681526020018273ffffffffffffffffffffffffffffffffffffffff168152602001600073ffffffffffffffffffffffffffffffffffffffff1681526020016000815260200142815260200184815250600160008881526020019081526020016000206000820151816000015560208201518160010190816107a391906125c2565b5060408201518160020160006101000a81548173ffffffffffffffffffffffffffffffffffffffff021916908373ffffffffffffffffffffffffffffffffffffffff16021790555060608201518160030160006101000a81548173ffffffffffffffffffffffffffffffffffffffff021916908373ffffffffffffffffffffffffffffffffffffffff16021790555060808201518160040160006101000a81548173ffffffffffffffffffffffffffffffffffffffff021916908373ffffffffffffffffffffffffffffffffffffffff16021790555060a0820151816005015560c0820151816006015560e08201518160070190816108a291906125c2565b5090505060005b845181101561095457600660008881526020019081526020016000208582815181106108d8576108d7612873565b5b60200260200101519080600181540180825580915050600190039060005260206000209060020201600090919091909150600082015181600001908161091e91906125c2565b5060208201518160010160006101000a81548160ff0219169083151502179055505050808061094c90612799565b9150506108a9565b5060008690806001815401808255809150506001900390600052602060002001600090919091909150556001915050949350505050565b6109936115e2565b60608060606001600086815260200190815260200160002060405180610100016040529081600082015481526020016001820180546109d1906123e5565b80601f01602080910402602001604051908101604052809291908181526020018280546109fd906123e5565b8015610a4a5780601f10610a1f57610100808354040283529160200191610a4a565b820191906000526020600020905b815481529060010190602001808311610a2d57829003601f168201915b505050505081526020016002820160009054906101000a900473ffffffffffffffffffffffffffffffffffffffff1673ffffffffffffffffffffffffffffffffffffffff1673ffffffffffffffffffffffffffffffffffffffff1681526020016003820160009054906101000a900473ffffffffffffffffffffffffffffffffffffffff1673ffffffffffffffffffffffffffffffffffffffff1673ffffffffffffffffffffffffffffffffffffffff1681526020016004820160009054906101000a900473ffffffffffffffffffffffffffffffffffffffff1673ffffffffffffffffffffffffffffffffffffffff1673ffffffffffffffffffffffffffffffffffffffff1681526020016005820154815260200160068201548152602001600782018054610b79906123e5565b80601f0160208091040260200160405190810160405280929190818152602001828054610ba5906123e5565b8015610bf25780601f10610bc757610100808354040283529160200191610bf2565b820191906000526020600020905b815481529060010190602001808311610bd557829003601f168201915b5050505050815250509350600460008681526020019081526020016000208054905067ffffffffffffffff811115610c2d57610c2c611791565b5b604051908082528060200260200182016040528015610c6657816020015b610c53611669565b815260200190600190039081610c4b5790505b50925060005b6004600087815260200190815260200160002080549050811015610dc85760036000600460008981526020019081526020016000208381548110610cb357610cb2612873565b5b90600052602060002001548152602001908152602001600020604051806080016040529081600082015481526020016001820160009054906101000a900473ffffffffffffffffffffffffffffffffffffffff1673ffffffffffffffffffffffffffffffffffffffff1673ffffffffffffffffffffffffffffffffffffffff1681526020016002820160009054906101000a900473ffffffffffffffffffffffffffffffffffffffff1673ffffffffffffffffffffffffffffffffffffffff1673ffffffffffffffffffffffffffffffffffffffff168152602001600382015481525050848281518110610daa57610da9612873565b5b60200260200101819052508080610dc090612799565b915050610c6c565b50600560008681526020019081526020016000208054905067ffffffffffffffff811115610df957610df8611791565b5b604051908082528060200260200182016040528015610e3257816020015b610e1f6116bd565b815260200190600190039081610e175790505b50915060005b6005600087815260200190815260200160002080549050811015610fda5760026000600560008981526020019081526020016000208381548110610e7f57610e7e612873565b5b906000526020600020015481526020019081526020016000206040518060a0016040529081600082015481526020016001820154815260200160028201548152602001600382018054610ed1906123e5565b80601f0160208091040260200160405190810160405280929190818152602001828054610efd906123e5565b8015610f4a5780601f10610f1f57610100808354040283529160200191610f4a565b820191906000526020600020905b815481529060010190602001808311610f2d57829003601f168201915b505050505081526020016004820160009054906101000a900473ffffffffffffffffffffffffffffffffffffffff1673ffffffffffffffffffffffffffffffffffffffff1673ffffffffffffffffffffffffffffffffffffffff1681525050838281518110610fbc57610fbb612873565b5b60200260200101819052508080610fd290612799565b915050610e38565b5060066000868152602001908152602001600020805480602002602001604051908101604052809291908181526020016000905b828210156110ed5783829060005260206000209060020201604051806040016040529081600082018054611041906123e5565b80601f016020809104026020016040519081016040528092919081815260200182805461106d906123e5565b80156110ba5780601f1061108f576101008083540402835291602001916110ba565b820191906000526020600020905b81548152906001019060200180831161109d57829003601f168201915b505050505081526020016001820160009054906101000a900460ff1615151515815250508152602001906001019061100e565b5050505090509193509193565b60008073ffffffffffffffffffffffffffffffffffffffff166001600084815260200190815260200160002060030160009054906101000a900473ffffffffffffffffffffffffffffffffffffffff1673ffffffffffffffffffffffffffffffffffffffff16036111a0576040517f08c379a000000000000000000000000000000000000000000000000000000000815260040161119790612914565b60405180910390fd5b8273ffffffffffffffffffffffffffffffffffffffff166001600084815260200190815260200160002060030160009054906101000a900473ffffffffffffffffffffffffffffffffffffffff1673ffffffffffffffffffffffffffffffffffffffff1603611244576040517f08c379a000000000000000000000000000000000000000000000000000000000815260040161123b906129a6565b60405180910390fd5b600073ffffffffffffffffffffffffffffffffffffffff168373ffffffffffffffffffffffffffffffffffffffff16036112b3576040517f08c379a00000000000000000000000000000000000000000000000000000000081526004016112aa90612a38565b60405180910390fd5b6001600083815260200190815260200160002060030160009054906101000a900473ffffffffffffffffffffffffffffffffffffffff166001600084815260200190815260200160002060040160006101000a81548173ffffffffffffffffffffffffffffffffffffffff021916908373ffffffffffffffffffffffffffffffffffffffff160217905550826001600084815260200190815260200160002060030160006101000a81548173ffffffffffffffffffffffffffffffffffffffff021916908373ffffffffffffffffffffffffffffffffffffffff160217905550604051806080016040528060075481526020016001600085815260200190815260200160002060040160009054906101000a900473ffffffffffffffffffffffffffffffffffffffff1673ffffffffffffffffffffffffffffffffffffffff1681526020016001600085815260200190815260200160002060030160009054906101000a900473ffffffffffffffffffffffffffffffffffffffff1673ffffffffffffffffffffffffffffffffffffffff168152602001428152506003600060075481526020019081526020016000206000820151816000015560208201518160010160006101000a81548173ffffffffffffffffffffffffffffffffffffffff021916908373ffffffffffffffffffffffffffffffffffffffff16021790555060408201518160020160006101000a81548173ffffffffffffffffffffffffffffffffffffffff021916908373ffffffffffffffffffffffffffffffffffffffff160217905550606082015181600301559050506004600083815260200190815260200160002060075490806001815401808255809150506001900390600052602060002001600090919091909150556007600081548092919061155790612799565b91905055506001905092915050565b606060008054806020026020016040519081016040528092919081815260200182805480156115b457602002820191906000526020600020905b8154815260200190600101908083116115a0575b5050505050905090565b600081815481106115ce57600080fd5b906000526020600020016000915090505481565b6040518061010001604052806000815260200160608152602001600073ffffffffffffffffffffffffffffffffffffffff168152602001600073ffffffffffffffffffffffffffffffffffffffff168152602001600073ffffffffffffffffffffffffffffffffffffffff1681526020016000815260200160008152602001606081525090565b604051806080016040528060008152602001600073ffffffffffffffffffffffffffffffffffffffff168152602001600073ffffffffffffffffffffffffffffffffffffffff168152602001600081525090565b6040518060a0016040528060008152602001600081526020016000815260200160608152602001600073ffffffffffffffffffffffffffffffffffffffff1681525090565b6000819050919050565b61171581611702565b82525050565b6000602082019050611730600083018461170c565b92915050565b6000604051905090565b600080fd5b600080fd5b61175381611702565b811461175e57600080fd5b50565b6000813590506117708161174a565b92915050565b600080fd5b600080fd5b6000601f19601f8301169050919050565b7f4e487b7100000000000000000000000000000000000000000000000000000000600052604160045260246000fd5b6117c982611780565b810181811067ffffffffffffffff821117156117e8576117e7611791565b5b80604052505050565b60006117fb611736565b905061180782826117c0565b919050565b600067ffffffffffffffff82111561182757611826611791565b5b61183082611780565b9050602081019050919050565b82818337600083830152505050565b600061185f61185a8461180c565b6117f1565b90508281526020810184848401111561187b5761187a61177b565b5b61188684828561183d565b509392505050565b600082601f8301126118a3576118a2611776565b5b81356118b384826020860161184c565b91505092915050565b6000806000606084860312156118d5576118d4611740565b5b60006118e386828701611761565b93505060206118f486828701611761565b925050604084013567ffffffffffffffff81111561191557611914611745565b5b6119218682870161188e565b9150509250925092565b60008115159050919050565b6119408161192b565b82525050565b600060208201905061195b6000830184611937565b92915050565b60006020828403121561197757611976611740565b5b600061198584828501611761565b91505092915050565b600081519050919050565b600082825260208201905092915050565b60005b838110156119c85780820151818401526020810190506119ad565b60008484015250505050565b60006119df8261198e565b6119e98185611999565b93506119f98185602086016119aa565b611a0281611780565b840191505092915050565b600073ffffffffffffffffffffffffffffffffffffffff82169050919050565b6000611a3882611a0d565b9050919050565b611a4881611a2d565b82525050565b600061010082019050611a64600083018b61170c565b8181036020830152611a76818a6119d4565b9050611a856040830189611a3f565b611a926060830188611a3f565b611a9f6080830187611a3f565b611aac60a083018661170c565b611ab960c083018561170c565b81810360e0830152611acb81846119d4565b90509998505050505050505050565b600067ffffffffffffffff821115611af557611af4611791565b5b602082029050602081019050919050565b600080fd5b600080fd5b600080fd5b611b1e8161192b565b8114611b2957600080fd5b50565b600081359050611b3b81611b15565b92915050565b600060408284031215611b5757611b56611b0b565b5b611b6160406117f1565b9050600082013567ffffffffffffffff811115611b8157611b80611b10565b5b611b8d8482850161188e565b6000830152506020611ba184828501611b2c565b60208301525092915050565b6000611bc0611bbb84611ada565b6117f1565b90508083825260208201905060208402830185811115611be357611be2611b06565b5b835b81811015611c2a57803567ffffffffffffffff811115611c0857611c07611776565b5b808601611c158982611b41565b85526020850194505050602081019050611be5565b5050509392505050565b600082601f830112611c4957611c48611776565b5b8135611c59848260208601611bad565b91505092915050565b60008060008060808587031215611c7c57611c7b611740565b5b6000611c8a87828801611761565b945050602085013567ffffffffffffffff811115611cab57611caa611745565b5b611cb78782880161188e565b935050604085013567ffffffffffffffff811115611cd857611cd7611745565b5b611ce487828801611c34565b925050606085013567ffffffffffffffff811115611d0557611d04611745565b5b611d118782880161188e565b91505092959194509250565b611d2681611702565b82525050565b600082825260208201905092915050565b6000611d488261198e565b611d528185611d2c565b9350611d628185602086016119aa565b611d6b81611780565b840191505092915050565b611d7f81611a2d565b82525050565b600061010083016000830151611d9e6000860182611d1d565b5060208301518482036020860152611db68282611d3d565b9150506040830151611dcb6040860182611d76565b506060830151611dde6060860182611d76565b506080830151611df16080860182611d76565b5060a0830151611e0460a0860182611d1d565b5060c0830151611e1760c0860182611d1d565b5060e083015184820360e0860152611e2f8282611d3d565b9150508091505092915050565b600081519050919050565b600082825260208201905092915050565b6000819050602082019050919050565b608082016000820151611e7e6000850182611d1d565b506020820151611e916020850182611d76565b506040820151611ea46040850182611d76565b506060820151611eb76060850182611d1d565b50505050565b6000611ec98383611e68565b60808301905092915050565b6000602082019050919050565b6000611eed82611e3c565b611ef78185611e47565b9350611f0283611e58565b8060005b83811015611f33578151611f1a8882611ebd565b9750611f2583611ed5565b925050600181019050611f06565b5085935050505092915050565b600081519050919050565b600082825260208201905092915050565b6000819050602082019050919050565b600060a083016000830151611f846000860182611d1d565b506020830151611f976020860182611d1d565b506040830151611faa6040860182611d1d565b5060608301518482036060860152611fc28282611d3d565b9150506080830151611fd76080860182611d76565b508091505092915050565b6000611fee8383611f6c565b905092915050565b6000602082019050919050565b600061200e82611f40565b6120188185611f4b565b93508360208202850161202a85611f5c565b8060005b8581101561206657848403895281516120478582611fe2565b945061205283611ff6565b925060208a0199505060018101905061202e565b50829750879550505050505092915050565b600081519050919050565b600082825260208201905092915050565b6000819050602082019050919050565b6120ad8161192b565b82525050565b600060408301600083015184820360008601526120d08282611d3d565b91505060208301516120e560208601826120a4565b508091505092915050565b60006120fc83836120b3565b905092915050565b6000602082019050919050565b600061211c82612078565b6121268185612083565b93508360208202850161213885612094565b8060005b85811015612174578484038952815161215585826120f0565b945061216083612104565b925060208a0199505060018101905061213c565b50829750879550505050505092915050565b600060808201905081810360008301526121a08187611d85565b905081810360208301526121b48186611ee2565b905081810360408301526121c88185612003565b905081810360608301526121dc8184612111565b905095945050505050565b6121f081611a2d565b81146121fb57600080fd5b50565b60008135905061220d816121e7565b92915050565b6000806040838503121561222a57612229611740565b5b6000612238858286016121fe565b925050602061224985828601611761565b9150509250929050565b600081519050919050565b600082825260208201905092915050565b6000819050602082019050919050565b600061228b8383611d1d565b60208301905092915050565b6000602082019050919050565b60006122af82612253565b6122b9818561225e565b93506122c48361226f565b8060005b838110156122f55781516122dc888261227f565b97506122e783612297565b9250506001810190506122c8565b5085935050505092915050565b6000602082019050818103600083015261231c81846122a4565b905092915050565b7f50726f647563743a3a6164645265766965773a204f6e6c792063757272656e7460008201527f206f776e65722063616e20616464207265766965770000000000000000000000602082015250565b6000612380603583611999565b915061238b82612324565b604082019050919050565b600060208201905081810360008301526123af81612373565b9050919050565b7f4e487b7100000000000000000000000000000000000000000000000000000000600052602260045260246000fd5b600060028204905060018216806123fd57607f821691505b6020821081036124105761240f6123b6565b5b50919050565b60008190508160005260206000209050919050565b60006020601f8301049050919050565b600082821b905092915050565b6000600883026124787fffffffffffffffffffffffffffffffffffffffffffffffffffffffffffffffff8261243b565b612482868361243b565b95508019841693508086168417925050509392505050565b6000819050919050565b60006124bf6124ba6124b584611702565b61249a565b611702565b9050919050565b6000819050919050565b6124d9836124a4565b6124ed6124e5826124c6565b848454612448565b825550505050565b600090565b6125026124f5565b61250d8184846124d0565b505050565b5b81811015612531576125266000826124fa565b600181019050612513565b5050565b601f8211156125765761254781612416565b6125508461242b565b8101602085101561255f578190505b61257361256b8561242b565b830182612512565b50505b505050565b600082821c905092915050565b60006125996000198460080261257b565b1980831691505092915050565b60006125b28383612588565b9150826002028217905092915050565b6125cb8261198e565b67ffffffffffffffff8111156125e4576125e3611791565b5b6125ee82546123e5565b6125f9828285612535565b600060209050601f83116001811461262c576000841561261a578287015190505b61262485826125a6565b86555061268c565b601f19841661263a86612416565b60005b828110156126625784890151825560018201915060208501945060208101905061263d565b8683101561267f578489015161267b601f891682612588565b8355505b6001600288020188555050505b505050505050565b7f4e487b7100000000000000000000000000000000000000000000000000000000600052601160045260246000fd5b60006126ce82611702565b91506126d983611702565b92508282019050808211156126f1576126f0612694565b5b92915050565b600061270282611702565b915061270d83611702565b925082820261271b81611702565b9150828204841483151761273257612731612694565b5b5092915050565b7f4e487b7100000000000000000000000000000000000000000000000000000000600052601260045260246000fd5b600061277382611702565b915061277e83611702565b92508261278e5761278d612739565b5b828204905092915050565b60006127a482611702565b91507fffffffffffffffffffffffffffffffffffffffffffffffffffffffffffffffff82036127d6576127d5612694565b5b600182019050919050565b7f50726f647563743a3a6164643a204d616e7566616374757265722063616e6e6f60008201527f74206265206e756c6c0000000000000000000000000000000000000000000000602082015250565b600061283d602983611999565b9150612848826127e1565b604082019050919050565b6000602082019050818103600083015261286c81612830565b9050919050565b7f4e487b7100000000000000000000000000000000000000000000000000000000600052603260045260246000fd5b7f50726f647563743a3a7472616e736665723a2050726f6475637420646f65732060008201527f6e6f742065786973740000000000000000000000000000000000000000000000602082015250565b60006128fe602983611999565b9150612909826128a2565b604082019050919050565b6000602082019050818103600083015261292d816128f1565b9050919050565b7f50726f647563743a3a7472616e736665723a2043616e6e6f74207472616e736660008201527f657220746f2073656c6600000000000000000000000000000000000000000000602082015250565b6000612990602a83611999565b915061299b82612934565b604082019050919050565b600060208201905081810360008301526129bf81612983565b9050919050565b7f50726f647563743a3a7472616e736665723a2043616e6e6f74207472616e736660008201527f657220746f206e756c6c20616464726573730000000000000000000000000000602082015250565b6000612a22603283611999565b9150612a2d826129c6565b604082019050919050565b60006020820190508181036000830152612a5181612a15565b905091905056fea2646970667358221220f16934542bb1d894a352f6023f24f3b51d71bc0e89389b76ba8e5c56bad198c064736f6c63430008110033",
  "immutableReferences": {},
  "source": "// SPDX-License-Identifier: MIT\npragma solidity ^0.8.0;\ncontract Product {\n\n  struct Transaction{\n    uint256 txId;\n    address from;\n    address to;\n    uint date;\n  }\n\n  struct Review{\n    uint256 id;\n    uint date;\n    uint256 rating;\n    string comment;\n    address reviewer;\n  }\n\n  struct RawProduct{\n    string name;\n    bool isVerified;\n  }\n\n  struct Item{\n    uint256 id;\n    string title;\n    address manufacturer;\n    address currentOwner;\n    address lastOwner;\n    uint256 rating;\n    uint launchDate;\n    string image_url;\n  }\n\n  uint256[] public _itemIds;\n  mapping(uint256 => Item) public _items;\n  mapping(uint256 => Review) _reviews;\n  mapping(uint256 => Transaction) _transactions;\n\n  mapping(uint256 => uint256[]) _itemTransactions;\n  mapping(uint256 => uint256[]) _itemReviews;\n  mapping(uint256 => RawProduct[]) _itemRawProducts;\n\n  uint256 _nextTransactionId;\n  uint256 _nextReviewId;\n\n  constructor() {\n    _nextTransactionId = 0;\n    _nextReviewId = 0;\n  }\n\n  function add(uint256 _id, string memory _title, RawProduct[] memory _rawProducts, string memory image_url) public returns (bool){\n    address _manufacturer = msg.sender;\n    require (_manufacturer != address(0), \"Product::add: Manufacturer cannot be null\");\n    _items[_id] = Item({\n      id: _id,\n      title: _title,\n      manufacturer: _manufacturer,\n      currentOwner: _manufacturer,\n      lastOwner: address(0),\n      rating: 0,\n      launchDate: block.timestamp,\n      image_url: image_url\n    });\n    for(uint i = 0; i < _rawProducts.length; i++){\n      _itemRawProducts[_id].push(_rawProducts[i]);\n    }\n    _itemIds.push(_id);\n    return true;\n  }\n\n  function get(uint256 _id) public view returns (\n    Item memory item, \n    Transaction[] memory transactions, \n    Review[] memory reviews,\n    RawProduct[] memory rawProducts\n  ){\n    item = _items[_id];\n    transactions = new Transaction[](_itemTransactions[_id].length);\n    for (uint256 i = 0; i < _itemTransactions[_id].length; i++){\n      transactions[i] = _transactions[_itemTransactions[_id][i]];\n    }\n    reviews = new Review[](_itemReviews[_id].length);\n    for (uint256 i = 0; i < _itemReviews[_id].length; i++){\n      reviews[i] = _reviews[_itemReviews[_id][i]];\n    }\n    rawProducts = _itemRawProducts[_id];\n  }\n\n  function transfer(address _to, uint256 _id) public returns (bool){\n    require (_items[_id].currentOwner != address(0), \"Product::transfer: Product does not exist\");\n    require (_items[_id].currentOwner != _to, \"Product::transfer: Cannot transfer to self\");\n    require (_to != address(0), \"Product::transfer: Cannot transfer to null address\");\n    \n    _items[_id].lastOwner = _items[_id].currentOwner;\n    _items[_id].currentOwner = _to;\n    \n    _transactions[_nextTransactionId] = Transaction({ \n      txId: _nextTransactionId,\n      from: _items[_id].lastOwner,\n      to: _items[_id].currentOwner,\n      date: block.timestamp\n    });\n    _itemTransactions[_id].push(_nextTransactionId);\n    _nextTransactionId++;\n    return true;\n  }\n\n  function addReview(uint256 _id, uint256 _rating, string memory _comment) public returns (bool){\n    require (_items[_id].currentOwner == msg.sender, \"Product::addReview: Only current owner can add review\");\n    _reviews[_nextReviewId] = Review({\n      id: _nextReviewId,\n      date: block.timestamp,\n      rating: _rating,\n      comment: _comment,\n      reviewer: msg.sender\n    });\n    _items[_id].rating = (_items[_id].rating * _itemReviews[_id].length + _rating) / (_itemReviews[_id].length + 1);\n    _itemReviews[_id].push(_nextReviewId);\n    _nextReviewId++;\n    return true;\n  }\n\n  function getItemIds() public view returns (uint256[] memory){\n    return _itemIds;\n  }\n\n  function getProductsCount() public view returns (uint256){\n    return _itemIds.length;\n  }\n\n  function getTransactionsCount() public view returns (uint256){\n    return _nextTransactionId;\n  }\n\n  function getReviewsCount() public view returns (uint256){\n    return _nextReviewId;\n  }\n\n}",
  "sourcePath": "/Users/nkpaladugu/Library/CloudStorage/OneDrive-Personal/Tech/IIITH/Capstone/fpochain/web/contracts/Product.sol",
  "compiler": {
    "name": "solc",
    "version": "0.8.17+commit.8df45f5f.Emscripten.clang"
  },
  "schemaVersion": "3.4.10",
  "updatedAt": "2022-09-25T08:21:25.736Z",
  "devdoc": {
    "kind": "dev",
    "methods": {},
    "version": 1
  },
  "userdoc": {
    "kind": "user",
    "methods": {},
    "version": 1
  }
}