{
  "contractName": "Product",
  "abi": [
    {
      "inputs": [],
      "stateMutability": "nonpayable",
      "type": "constructor"
    },
    {
      "inputs": [
        {
          "internalType": "uint256",
          "name": "",
          "type": "uint256"
        }
      ],
      "name": "_itemIds",
      "outputs": [
        {
          "internalType": "uint256",
          "name": "",
          "type": "uint256"
        }
      ],
      "stateMutability": "view",
      "type": "function"
    },
    {
      "inputs": [
        {
          "internalType": "uint256",
          "name": "",
          "type": "uint256"
        }
      ],
      "name": "_items",
      "outputs": [
        {
          "internalType": "uint256",
          "name": "id",
          "type": "uint256"
        },
        {
          "internalType": "string",
          "name": "title",
          "type": "string"
        },
        {
          "internalType": "address",
          "name": "manufacturer",
          "type": "address"
        },
        {
          "internalType": "address",
          "name": "currentOwner",
          "type": "address"
        },
        {
          "internalType": "address",
          "name": "lastOwner",
          "type": "address"
        },
        {
          "internalType": "uint256",
          "name": "rating",
          "type": "uint256"
        },
        {
          "internalType": "uint256",
          "name": "launchDate",
          "type": "uint256"
        },
        {
          "internalType": "string",
          "name": "image_url",
          "type": "string"
        }
      ],
      "stateMutability": "view",
      "type": "function"
    },
    {
      "inputs": [
        {
          "internalType": "uint256",
          "name": "_id",
          "type": "uint256"
        },
        {
          "internalType": "string",
          "name": "_title",
          "type": "string"
        },
        {
          "components": [
            {
              "internalType": "string",
              "name": "name",
              "type": "string"
            },
            {
              "internalType": "bool",
              "name": "isVerified",
              "type": "bool"
            }
          ],
          "internalType": "struct Product.RawProduct[]",
          "name": "_rawProducts",
          "type": "tuple[]"
        },
        {
          "internalType": "string",
          "name": "image_url",
          "type": "string"
        }
      ],
      "name": "add",
      "outputs": [
        {
          "internalType": "bool",
          "name": "",
          "type": "bool"
        }
      ],
      "stateMutability": "nonpayable",
      "type": "function"
    },
    {
      "inputs": [
        {
          "internalType": "uint256",
          "name": "_id",
          "type": "uint256"
        }
      ],
      "name": "get",
      "outputs": [
        {
          "components": [
            {
              "internalType": "uint256",
              "name": "id",
              "type": "uint256"
            },
            {
              "internalType": "string",
              "name": "title",
              "type": "string"
            },
            {
              "internalType": "address",
              "name": "manufacturer",
              "type": "address"
            },
            {
              "internalType": "address",
              "name": "currentOwner",
              "type": "address"
            },
            {
              "internalType": "address",
              "name": "lastOwner",
              "type": "address"
            },
            {
              "internalType": "uint256",
              "name": "rating",
              "type": "uint256"
            },
            {
              "internalType": "uint256",
              "name": "launchDate",
              "type": "uint256"
            },
            {
              "internalType": "string",
              "name": "image_url",
              "type": "string"
            }
          ],
          "internalType": "struct Product.Item",
          "name": "item",
          "type": "tuple"
        },
        {
          "components": [
            {
              "internalType": "uint256",
              "name": "txId",
              "type": "uint256"
            },
            {
              "internalType": "address",
              "name": "from",
              "type": "address"
            },
            {
              "internalType": "address",
              "name": "to",
              "type": "address"
            },
            {
              "internalType": "uint256",
              "name": "date",
              "type": "uint256"
            }
          ],
          "internalType": "struct Product.Transaction[]",
          "name": "transactions",
          "type": "tuple[]"
        },
        {
          "components": [
            {
              "internalType": "uint256",
              "name": "id",
              "type": "uint256"
            },
            {
              "internalType": "uint256",
              "name": "date",
              "type": "uint256"
            },
            {
              "internalType": "uint256",
              "name": "rating",
              "type": "uint256"
            },
            {
              "internalType": "string",
              "name": "comment",
              "type": "string"
            },
            {
              "internalType": "address",
              "name": "reviewer",
              "type": "address"
            }
          ],
          "internalType": "struct Product.Review[]",
          "name": "reviews",
          "type": "tuple[]"
        },
        {
          "components": [
            {
              "internalType": "string",
              "name": "name",
              "type": "string"
            },
            {
              "internalType": "bool",
              "name": "isVerified",
              "type": "bool"
            }
          ],
          "internalType": "struct Product.RawProduct[]",
          "name": "rawProducts",
          "type": "tuple[]"
        }
      ],
      "stateMutability": "view",
      "type": "function"
    },
    {
      "inputs": [
        {
          "internalType": "address",
          "name": "_to",
          "type": "address"
        },
        {
          "internalType": "uint256",
          "name": "_id",
          "type": "uint256"
        }
      ],
      "name": "transfer",
      "outputs": [
        {
          "internalType": "bool",
          "name": "",
          "type": "bool"
        }
      ],
      "stateMutability": "nonpayable",
      "type": "function"
    },
    {
      "inputs": [
        {
          "internalType": "uint256",
          "name": "_id",
          "type": "uint256"
        },
        {
          "internalType": "uint256",
          "name": "_rating",
          "type": "uint256"
        },
        {
          "internalType": "string",
          "name": "_comment",
          "type": "string"
        }
      ],
      "name": "addReview",
      "outputs": [
        {
          "internalType": "bool",
          "name": "",
          "type": "bool"
        }
      ],
      "stateMutability": "nonpayable",
      "type": "function"
    },
    {
      "inputs": [],
      "name": "getItemIds",
      "outputs": [
        {
          "internalType": "uint256[]",
          "name": "",
          "type": "uint256[]"
        }
      ],
      "stateMutability": "view",
      "type": "function"
    },
    {
      "inputs": [],
      "name": "getProductsCount",
      "outputs": [
        {
          "internalType": "uint256",
          "name": "",
          "type": "uint256"
        }
      ],
      "stateMutability": "view",
      "type": "function"
    },
    {
      "inputs": [],
      "name": "getTransactionsCount",
      "outputs": [
        {
          "internalType": "uint256",
          "name": "",
          "type": "uint256"
        }
      ],
      "stateMutability": "view",
      "type": "function"
    },
    {
      "inputs": [],
      "name": "getReviewsCount",
      "outputs": [
        {
          "internalType": "uint256",
          "name": "",
          "type": "uint256"
        }
      ],
      "stateMutability": "view",
      "type": "function"
    }
  ],
  "bytecode": "0x608060405234801561001057600080fd5b5060006007819055506000600881905550612cde806100306000396000f3fe608060405234801561001057600080fd5b506004361061009e5760003560e01c80637967c929116100665780637967c929146101645780639507d39a14610194578063a9059cbb146101c7578063ef0614b9146101f7578063f8e7284a146102155761009e565b80631435ba3c146100a35780633e9e27aa146100c157806344029410146100f15780635786fd4014610128578063578cb8f914610146575b600080fd5b6100ab610245565b6040516100b8919061178b565b60405180910390f35b6100db60048036038101906100d6919061192c565b61024f565b6040516100e891906119b6565b60405180910390f35b61010b600480360381019061010691906119d1565b6104b0565b60405161011f989796959493929190611abe565b60405180910390f35b610130610668565b60405161013d919061178b565b60405180910390f35b61014e610674565b60405161015b919061178b565b60405180910390f35b61017e60048036038101906101799190611cd2565b61067e565b60405161018b91906119b6565b60405180910390f35b6101ae60048036038101906101a991906119d1565b6109fb565b6040516101be94939291906121f6565b60405180910390f35b6101e160048036038101906101dc9190612283565b61116a565b6040516101ee91906119b6565b60405180910390f35b6101ff6115d6565b60405161020c9190612372565b60405180910390f35b61022f600480360381019061022a91906119d1565b61162e565b60405161023c919061178b565b60405180910390f35b6000600854905090565b60003373ffffffffffffffffffffffffffffffffffffffff166001600086815260200190815260200160002060030160009054906101000a900473ffffffffffffffffffffffffffffffffffffffff1673ffffffffffffffffffffffffffffffffffffffff16146102f5576040517f08c379a00000000000000000000000000000000000000000000000000000000081526004016102ec90612406565b60405180910390fd5b6040518060a0016040528060085481526020014281526020018481526020018381526020013373ffffffffffffffffffffffffffffffffffffffff16815250600260006008548152602001908152602001600020600082015181600001556020820151816001015560408201518160020155606082015181600301908161037c9190612632565b5060808201518160040160006101000a81548173ffffffffffffffffffffffffffffffffffffffff021916908373ffffffffffffffffffffffffffffffffffffffff160217905550905050600160056000868152602001908152602001600020805490506103ea9190612733565b83600560008781526020019081526020016000208054905060016000888152602001908152602001600020600501546104239190612767565b61042d9190612733565b61043791906127d8565b6001600086815260200190815260200160002060050181905550600560008581526020019081526020016000206008549080600181540180825580915050600190039060005260206000200160009091909190915055600860008154809291906104a090612809565b9190505550600190509392505050565b60016020528060005260406000206000915090508060000154908060010180546104d990612455565b80601f016020809104026020016040519081016040528092919081815260200182805461050590612455565b80156105525780601f1061052757610100808354040283529160200191610552565b820191906000526020600020905b81548152906001019060200180831161053557829003601f168201915b5050505050908060020160009054906101000a900473ffffffffffffffffffffffffffffffffffffffff16908060030160009054906101000a900473ffffffffffffffffffffffffffffffffffffffff16908060040160009054906101000a900473ffffffffffffffffffffffffffffffffffffffff16908060050154908060060154908060070180546105e590612455565b80601f016020809104026020016040519081016040528092919081815260200182805461061190612455565b801561065e5780601f106106335761010080835404028352916020019161065e565b820191906000526020600020905b81548152906001019060200180831161064157829003601f168201915b5050505050905088565b60008080549050905090565b6000600754905090565b60008033905060008073ffffffffffffffffffffffffffffffffffffffff168273ffffffffffffffffffffffffffffffffffffffff16036106f4576040517f08c379a00000000000000000000000000000000000000000000000000000000081526004016106eb906128c3565b60405180910390fd5b6040518061010001604052808881526020018781526020018373ffffffffffffffffffffffffffffffffffffffff1681526020018373ffffffffffffffffffffffffffffffffffffffff168152602001600073ffffffffffffffffffffffffffffffffffffffff1681526020016000815260200142815260200185815250600160008981526020019081526020016000206000820151816000015560208201518160010190816107a49190612632565b5060408201518160020160006101000a81548173ffffffffffffffffffffffffffffffffffffffff021916908373ffffffffffffffffffffffffffffffffffffffff16021790555060608201518160030160006101000a81548173ffffffffffffffffffffffffffffffffffffffff021916908373ffffffffffffffffffffffffffffffffffffffff16021790555060808201518160040160006101000a81548173ffffffffffffffffffffffffffffffffffffffff021916908373ffffffffffffffffffffffffffffffffffffffff16021790555060a0820151816005015560c0820151816006015560e08201518160070190816108a39190612632565b5090505060005b855181101561095557600660008981526020019081526020016000208682815181106108d9576108d86128e3565b5b60200260200101519080600181540180825580915050600190039060005260206000209060020201600090919091909150600082015181600001908161091f9190612632565b5060208201518160010160006101000a81548160ff0219169083151502179055505050808061094d90612809565b9150506108aa565b5060008790806001815401808255809150506001900390600052602060002001600090919091909150558073ffffffffffffffffffffffffffffffffffffffff16639ea03ce73360646040518363ffffffff1660e01b81526004016109bb929190612a7d565b600060405180830381600087803b1580156109d557600080fd5b505af11580156109e9573d6000803e3d6000fd5b50505050600192505050949350505050565b610a03611652565b6060806060600160008681526020019081526020016000206040518061010001604052908160008201548152602001600182018054610a4190612455565b80601f0160208091040260200160405190810160405280929190818152602001828054610a6d90612455565b8015610aba5780601f10610a8f57610100808354040283529160200191610aba565b820191906000526020600020905b815481529060010190602001808311610a9d57829003601f168201915b505050505081526020016002820160009054906101000a900473ffffffffffffffffffffffffffffffffffffffff1673ffffffffffffffffffffffffffffffffffffffff1673ffffffffffffffffffffffffffffffffffffffff1681526020016003820160009054906101000a900473ffffffffffffffffffffffffffffffffffffffff1673ffffffffffffffffffffffffffffffffffffffff1673ffffffffffffffffffffffffffffffffffffffff1681526020016004820160009054906101000a900473ffffffffffffffffffffffffffffffffffffffff1673ffffffffffffffffffffffffffffffffffffffff1673ffffffffffffffffffffffffffffffffffffffff1681526020016005820154815260200160068201548152602001600782018054610be990612455565b80601f0160208091040260200160405190810160405280929190818152602001828054610c1590612455565b8015610c625780601f10610c3757610100808354040283529160200191610c62565b820191906000526020600020905b815481529060010190602001808311610c4557829003601f168201915b5050505050815250509350600460008681526020019081526020016000208054905067ffffffffffffffff811115610c9d57610c9c611801565b5b604051908082528060200260200182016040528015610cd657816020015b610cc36116d9565b815260200190600190039081610cbb5790505b50925060005b6004600087815260200190815260200160002080549050811015610e385760036000600460008981526020019081526020016000208381548110610d2357610d226128e3565b5b90600052602060002001548152602001908152602001600020604051806080016040529081600082015481526020016001820160009054906101000a900473ffffffffffffffffffffffffffffffffffffffff1673ffffffffffffffffffffffffffffffffffffffff1673ffffffffffffffffffffffffffffffffffffffff1681526020016002820160009054906101000a900473ffffffffffffffffffffffffffffffffffffffff1673ffffffffffffffffffffffffffffffffffffffff1673ffffffffffffffffffffffffffffffffffffffff168152602001600382015481525050848281518110610e1a57610e196128e3565b5b60200260200101819052508080610e3090612809565b915050610cdc565b50600560008681526020019081526020016000208054905067ffffffffffffffff811115610e6957610e68611801565b5b604051908082528060200260200182016040528015610ea257816020015b610e8f61172d565b815260200190600190039081610e875790505b50915060005b600560008781526020019081526020016000208054905081101561104a5760026000600560008981526020019081526020016000208381548110610eef57610eee6128e3565b5b906000526020600020015481526020019081526020016000206040518060a0016040529081600082015481526020016001820154815260200160028201548152602001600382018054610f4190612455565b80601f0160208091040260200160405190810160405280929190818152602001828054610f6d90612455565b8015610fba5780601f10610f8f57610100808354040283529160200191610fba565b820191906000526020600020905b815481529060010190602001808311610f9d57829003601f168201915b505050505081526020016004820160009054906101000a900473ffffffffffffffffffffffffffffffffffffffff1673ffffffffffffffffffffffffffffffffffffffff1673ffffffffffffffffffffffffffffffffffffffff168152505083828151811061102c5761102b6128e3565b5b6020026020010181905250808061104290612809565b915050610ea8565b5060066000868152602001908152602001600020805480602002602001604051908101604052809291908181526020016000905b8282101561115d57838290600052602060002090600202016040518060400160405290816000820180546110b190612455565b80601f01602080910402602001604051908101604052809291908181526020018280546110dd90612455565b801561112a5780601f106110ff5761010080835404028352916020019161112a565b820191906000526020600020905b81548152906001019060200180831161110d57829003601f168201915b505050505081526020016001820160009054906101000a900460ff1615151515815250508152602001906001019061107e565b5050505090509193509193565b60008073ffffffffffffffffffffffffffffffffffffffff166001600084815260200190815260200160002060030160009054906101000a900473ffffffffffffffffffffffffffffffffffffffff1673ffffffffffffffffffffffffffffffffffffffff1603611210576040517f08c379a000000000000000000000000000000000000000000000000000000000815260040161120790612b64565b60405180910390fd5b8273ffffffffffffffffffffffffffffffffffffffff166001600084815260200190815260200160002060030160009054906101000a900473ffffffffffffffffffffffffffffffffffffffff1673ffffffffffffffffffffffffffffffffffffffff16036112b4576040517f08c379a00000000000000000000000000000000000000000000000000000000081526004016112ab90612bf6565b60405180910390fd5b600073ffffffffffffffffffffffffffffffffffffffff168373ffffffffffffffffffffffffffffffffffffffff1603611323576040517f08c379a000000000000000000000000000000000000000000000000000000000815260040161131a90612c88565b60405180910390fd5b6001600083815260200190815260200160002060030160009054906101000a900473ffffffffffffffffffffffffffffffffffffffff166001600084815260200190815260200160002060040160006101000a81548173ffffffffffffffffffffffffffffffffffffffff021916908373ffffffffffffffffffffffffffffffffffffffff160217905550826001600084815260200190815260200160002060030160006101000a81548173ffffffffffffffffffffffffffffffffffffffff021916908373ffffffffffffffffffffffffffffffffffffffff160217905550604051806080016040528060075481526020016001600085815260200190815260200160002060040160009054906101000a900473ffffffffffffffffffffffffffffffffffffffff1673ffffffffffffffffffffffffffffffffffffffff1681526020016001600085815260200190815260200160002060030160009054906101000a900473ffffffffffffffffffffffffffffffffffffffff1673ffffffffffffffffffffffffffffffffffffffff168152602001428152506003600060075481526020019081526020016000206000820151816000015560208201518160010160006101000a81548173ffffffffffffffffffffffffffffffffffffffff021916908373ffffffffffffffffffffffffffffffffffffffff16021790555060408201518160020160006101000a81548173ffffffffffffffffffffffffffffffffffffffff021916908373ffffffffffffffffffffffffffffffffffffffff16021790555060608201518160030155905050600460008381526020019081526020016000206007549080600181540180825580915050600190039060005260206000200160009091909190915055600760008154809291906115c790612809565b91905055506001905092915050565b6060600080548060200260200160405190810160405280929190818152602001828054801561162457602002820191906000526020600020905b815481526020019060010190808311611610575b5050505050905090565b6000818154811061163e57600080fd5b906000526020600020016000915090505481565b6040518061010001604052806000815260200160608152602001600073ffffffffffffffffffffffffffffffffffffffff168152602001600073ffffffffffffffffffffffffffffffffffffffff168152602001600073ffffffffffffffffffffffffffffffffffffffff1681526020016000815260200160008152602001606081525090565b604051806080016040528060008152602001600073ffffffffffffffffffffffffffffffffffffffff168152602001600073ffffffffffffffffffffffffffffffffffffffff168152602001600081525090565b6040518060a0016040528060008152602001600081526020016000815260200160608152602001600073ffffffffffffffffffffffffffffffffffffffff1681525090565b6000819050919050565b61178581611772565b82525050565b60006020820190506117a0600083018461177c565b92915050565b6000604051905090565b600080fd5b600080fd5b6117c381611772565b81146117ce57600080fd5b50565b6000813590506117e0816117ba565b92915050565b600080fd5b600080fd5b6000601f19601f8301169050919050565b7f4e487b7100000000000000000000000000000000000000000000000000000000600052604160045260246000fd5b611839826117f0565b810181811067ffffffffffffffff8211171561185857611857611801565b5b80604052505050565b600061186b6117a6565b90506118778282611830565b919050565b600067ffffffffffffffff82111561189757611896611801565b5b6118a0826117f0565b9050602081019050919050565b82818337600083830152505050565b60006118cf6118ca8461187c565b611861565b9050828152602081018484840111156118eb576118ea6117eb565b5b6118f68482856118ad565b509392505050565b600082601f830112611913576119126117e6565b5b81356119238482602086016118bc565b91505092915050565b600080600060608486031215611945576119446117b0565b5b6000611953868287016117d1565b9350506020611964868287016117d1565b925050604084013567ffffffffffffffff811115611985576119846117b5565b5b611991868287016118fe565b9150509250925092565b60008115159050919050565b6119b08161199b565b82525050565b60006020820190506119cb60008301846119a7565b92915050565b6000602082840312156119e7576119e66117b0565b5b60006119f5848285016117d1565b91505092915050565b600081519050919050565b600082825260208201905092915050565b60005b83811015611a38578082015181840152602081019050611a1d565b60008484015250505050565b6000611a4f826119fe565b611a598185611a09565b9350611a69818560208601611a1a565b611a72816117f0565b840191505092915050565b600073ffffffffffffffffffffffffffffffffffffffff82169050919050565b6000611aa882611a7d565b9050919050565b611ab881611a9d565b82525050565b600061010082019050611ad4600083018b61177c565b8181036020830152611ae6818a611a44565b9050611af56040830189611aaf565b611b026060830188611aaf565b611b0f6080830187611aaf565b611b1c60a083018661177c565b611b2960c083018561177c565b81810360e0830152611b3b8184611a44565b90509998505050505050505050565b600067ffffffffffffffff821115611b6557611b64611801565b5b602082029050602081019050919050565b600080fd5b600080fd5b600080fd5b611b8e8161199b565b8114611b9957600080fd5b50565b600081359050611bab81611b85565b92915050565b600060408284031215611bc757611bc6611b7b565b5b611bd16040611861565b9050600082013567ffffffffffffffff811115611bf157611bf0611b80565b5b611bfd848285016118fe565b6000830152506020611c1184828501611b9c565b60208301525092915050565b6000611c30611c2b84611b4a565b611861565b90508083825260208201905060208402830185811115611c5357611c52611b76565b5b835b81811015611c9a57803567ffffffffffffffff811115611c7857611c776117e6565b5b808601611c858982611bb1565b85526020850194505050602081019050611c55565b5050509392505050565b600082601f830112611cb957611cb86117e6565b5b8135611cc9848260208601611c1d565b91505092915050565b60008060008060808587031215611cec57611ceb6117b0565b5b6000611cfa878288016117d1565b945050602085013567ffffffffffffffff811115611d1b57611d1a6117b5565b5b611d27878288016118fe565b935050604085013567ffffffffffffffff811115611d4857611d476117b5565b5b611d5487828801611ca4565b925050606085013567ffffffffffffffff811115611d7557611d746117b5565b5b611d81878288016118fe565b91505092959194509250565b611d9681611772565b82525050565b600082825260208201905092915050565b6000611db8826119fe565b611dc28185611d9c565b9350611dd2818560208601611a1a565b611ddb816117f0565b840191505092915050565b611def81611a9d565b82525050565b600061010083016000830151611e0e6000860182611d8d565b5060208301518482036020860152611e268282611dad565b9150506040830151611e3b6040860182611de6565b506060830151611e4e6060860182611de6565b506080830151611e616080860182611de6565b5060a0830151611e7460a0860182611d8d565b5060c0830151611e8760c0860182611d8d565b5060e083015184820360e0860152611e9f8282611dad565b9150508091505092915050565b600081519050919050565b600082825260208201905092915050565b6000819050602082019050919050565b608082016000820151611eee6000850182611d8d565b506020820151611f016020850182611de6565b506040820151611f146040850182611de6565b506060820151611f276060850182611d8d565b50505050565b6000611f398383611ed8565b60808301905092915050565b6000602082019050919050565b6000611f5d82611eac565b611f678185611eb7565b9350611f7283611ec8565b8060005b83811015611fa3578151611f8a8882611f2d565b9750611f9583611f45565b925050600181019050611f76565b5085935050505092915050565b600081519050919050565b600082825260208201905092915050565b6000819050602082019050919050565b600060a083016000830151611ff46000860182611d8d565b5060208301516120076020860182611d8d565b50604083015161201a6040860182611d8d565b50606083015184820360608601526120328282611dad565b91505060808301516120476080860182611de6565b508091505092915050565b600061205e8383611fdc565b905092915050565b6000602082019050919050565b600061207e82611fb0565b6120888185611fbb565b93508360208202850161209a85611fcc565b8060005b858110156120d657848403895281516120b78582612052565b94506120c283612066565b925060208a0199505060018101905061209e565b50829750879550505050505092915050565b600081519050919050565b600082825260208201905092915050565b6000819050602082019050919050565b61211d8161199b565b82525050565b600060408301600083015184820360008601526121408282611dad565b91505060208301516121556020860182612114565b508091505092915050565b600061216c8383612123565b905092915050565b6000602082019050919050565b600061218c826120e8565b61219681856120f3565b9350836020820285016121a885612104565b8060005b858110156121e457848403895281516121c58582612160565b94506121d083612174565b925060208a019950506001810190506121ac565b50829750879550505050505092915050565b600060808201905081810360008301526122108187611df5565b905081810360208301526122248186611f52565b905081810360408301526122388185612073565b9050818103606083015261224c8184612181565b905095945050505050565b61226081611a9d565b811461226b57600080fd5b50565b60008135905061227d81612257565b92915050565b6000806040838503121561229a576122996117b0565b5b60006122a88582860161226e565b92505060206122b9858286016117d1565b9150509250929050565b600081519050919050565b600082825260208201905092915050565b6000819050602082019050919050565b60006122fb8383611d8d565b60208301905092915050565b6000602082019050919050565b600061231f826122c3565b61232981856122ce565b9350612334836122df565b8060005b8381101561236557815161234c88826122ef565b975061235783612307565b925050600181019050612338565b5085935050505092915050565b6000602082019050818103600083015261238c8184612314565b905092915050565b7f50726f647563743a3a6164645265766965773a204f6e6c792063757272656e7460008201527f206f776e65722063616e20616464207265766965770000000000000000000000602082015250565b60006123f0603583611a09565b91506123fb82612394565b604082019050919050565b6000602082019050818103600083015261241f816123e3565b9050919050565b7f4e487b7100000000000000000000000000000000000000000000000000000000600052602260045260246000fd5b6000600282049050600182168061246d57607f821691505b6020821081036124805761247f612426565b5b50919050565b60008190508160005260206000209050919050565b60006020601f8301049050919050565b600082821b905092915050565b6000600883026124e87fffffffffffffffffffffffffffffffffffffffffffffffffffffffffffffffff826124ab565b6124f286836124ab565b95508019841693508086168417925050509392505050565b6000819050919050565b600061252f61252a61252584611772565b61250a565b611772565b9050919050565b6000819050919050565b61254983612514565b61255d61255582612536565b8484546124b8565b825550505050565b600090565b612572612565565b61257d818484612540565b505050565b5b818110156125a15761259660008261256a565b600181019050612583565b5050565b601f8211156125e6576125b781612486565b6125c08461249b565b810160208510156125cf578190505b6125e36125db8561249b565b830182612582565b50505b505050565b600082821c905092915050565b6000612609600019846008026125eb565b1980831691505092915050565b600061262283836125f8565b9150826002028217905092915050565b61263b826119fe565b67ffffffffffffffff81111561265457612653611801565b5b61265e8254612455565b6126698282856125a5565b600060209050601f83116001811461269c576000841561268a578287015190505b6126948582612616565b8655506126fc565b601f1984166126aa86612486565b60005b828110156126d2578489015182556001820191506020850194506020810190506126ad565b868310156126ef57848901516126eb601f8916826125f8565b8355505b6001600288020188555050505b505050505050565b7f4e487b7100000000000000000000000000000000000000000000000000000000600052601160045260246000fd5b600061273e82611772565b915061274983611772565b925082820190508082111561276157612760612704565b5b92915050565b600061277282611772565b915061277d83611772565b925082820261278b81611772565b915082820484148315176127a2576127a1612704565b5b5092915050565b7f4e487b7100000000000000000000000000000000000000000000000000000000600052601260045260246000fd5b60006127e382611772565b91506127ee83611772565b9250826127fe576127fd6127a9565b5b828204905092915050565b600061281482611772565b91507fffffffffffffffffffffffffffffffffffffffffffffffffffffffffffffffff820361284657612845612704565b5b600182019050919050565b7f50726f647563743a3a6164643a204d616e7566616374757265722063616e6e6f60008201527f74206265206e756c6c0000000000000000000000000000000000000000000000602082015250565b60006128ad602983611a09565b91506128b882612851565b604082019050919050565b600060208201905081810360008301526128dc816128a0565b9050919050565b7f4e487b7100000000000000000000000000000000000000000000000000000000600052603260045260246000fd5b7f544f4d41544f0000000000000000000000000000000000000000000000000000600082015250565b6000612948600683611a09565b915061295382612912565b602082019050919050565b6000819050919050565b600061298361297e6129798461295e565b61250a565b611772565b9050919050565b61299381612968565b82525050565b7f6461746500000000000000000000000000000000000000000000000000000000600082015250565b60006129cf600483611a09565b91506129da82612999565b602082019050919050565b7f6c61746900000000000000000000000000000000000000000000000000000000600082015250565b6000612a1b600483611a09565b9150612a26826129e5565b602082019050919050565b7f6c6f6e6769000000000000000000000000000000000000000000000000000000600082015250565b6000612a67600583611a09565b9150612a7282612a31565b602082019050919050565b600060c082019050612a926000830185611aaf565b8181036020830152612aa38161293b565b9050612ab2604083018461298a565b8181036060830152612ac3816129c2565b90508181036080830152612ad681612a0e565b905081810360a0830152612ae981612a5a565b90509392505050565b7f50726f647563743a3a7472616e736665723a2050726f6475637420646f65732060008201527f6e6f742065786973740000000000000000000000000000000000000000000000602082015250565b6000612b4e602983611a09565b9150612b5982612af2565b604082019050919050565b60006020820190508181036000830152612b7d81612b41565b9050919050565b7f50726f647563743a3a7472616e736665723a2043616e6e6f74207472616e736660008201527f657220746f2073656c6600000000000000000000000000000000000000000000602082015250565b6000612be0602a83611a09565b9150612beb82612b84565b604082019050919050565b60006020820190508181036000830152612c0f81612bd3565b9050919050565b7f50726f647563743a3a7472616e736665723a2043616e6e6f74207472616e736660008201527f657220746f206e756c6c20616464726573730000000000000000000000000000602082015250565b6000612c72603283611a09565b9150612c7d82612c16565b604082019050919050565b60006020820190508181036000830152612ca181612c65565b905091905056fea26469706673582212209604532a09009a2106c3f4a51e0bee529406a9969e3855c3a745cf43e50a019b64736f6c63430008110033",
  "immutableReferences": {},
  "source": "// SPDX-License-Identifier: MIT\npragma solidity ^0.8.0;\nimport \"./FpoAggregatorEcosys.sol\";\ncontract Product {\n\n  struct Transaction{\n    uint256 txId;\n    address from;\n    address to;\n    uint date;\n  }\n\n  struct Review{\n    uint256 id;\n    uint date;\n    uint256 rating;\n    string comment;\n    address reviewer;\n  }\n\n  struct RawProduct{\n    string name;\n    bool isVerified;\n  }\n\n  struct Item{\n    uint256 id;\n    string title;\n    address manufacturer;\n    address currentOwner;\n    address lastOwner;\n    uint256 rating;\n    uint launchDate;\n    string image_url;\n  }\n\n  uint256[] public _itemIds;\n  mapping(uint256 => Item) public _items;\n  mapping(uint256 => Review) _reviews;\n  mapping(uint256 => Transaction) _transactions;\n\n  mapping(uint256 => uint256[]) _itemTransactions;\n  mapping(uint256 => uint256[]) _itemReviews;\n  mapping(uint256 => RawProduct[]) _itemRawProducts;\n\n  uint256 _nextTransactionId;\n  uint256 _nextReviewId;\n\n  constructor() {\n    _nextTransactionId = 0;\n    _nextReviewId = 0;\n  }\n\n  function add(uint256 _id, string memory _title, RawProduct[] memory _rawProducts, string memory image_url) public returns (bool){\n    address _manufacturer = msg.sender;\n    FpoAggregatorEcosys tokenContract;\n    require (_manufacturer != address(0), \"Product::add: Manufacturer cannot be null\");\n    _items[_id] = Item({\n      id: _id,\n      title: _title,\n      manufacturer: _manufacturer,\n      currentOwner: _manufacturer,\n      lastOwner: address(0),\n      rating: 0,\n      launchDate: block.timestamp,\n      image_url: image_url\n    });\n    for(uint i = 0; i < _rawProducts.length; i++){\n      _itemRawProducts[_id].push(_rawProducts[i]);\n    }\n    _itemIds.push(_id);\n\n    tokenContract.addAgriItem(msg.sender,\"TOMATO\",100,\"date\",\"lati\",\"longi\");\n    return true;\n  }\n\n  function get(uint256 _id) public view returns (\n    Item memory item, \n    Transaction[] memory transactions, \n    Review[] memory reviews,\n    RawProduct[] memory rawProducts\n  ){\n    item = _items[_id];\n    transactions = new Transaction[](_itemTransactions[_id].length);\n    for (uint256 i = 0; i < _itemTransactions[_id].length; i++){\n      transactions[i] = _transactions[_itemTransactions[_id][i]];\n    }\n    reviews = new Review[](_itemReviews[_id].length);\n    for (uint256 i = 0; i < _itemReviews[_id].length; i++){\n      reviews[i] = _reviews[_itemReviews[_id][i]];\n    }\n    rawProducts = _itemRawProducts[_id];\n  }\n\n  function transfer(address _to, uint256 _id) public returns (bool){\n    require (_items[_id].currentOwner != address(0), \"Product::transfer: Product does not exist\");\n    require (_items[_id].currentOwner != _to, \"Product::transfer: Cannot transfer to self\");\n    require (_to != address(0), \"Product::transfer: Cannot transfer to null address\");\n    \n    _items[_id].lastOwner = _items[_id].currentOwner;\n    _items[_id].currentOwner = _to;\n    \n    _transactions[_nextTransactionId] = Transaction({ \n      txId: _nextTransactionId,\n      from: _items[_id].lastOwner,\n      to: _items[_id].currentOwner,\n      date: block.timestamp\n    });\n    _itemTransactions[_id].push(_nextTransactionId);\n    _nextTransactionId++;\n    return true;\n  }\n\n  function addReview(uint256 _id, uint256 _rating, string memory _comment) public returns (bool){\n    require (_items[_id].currentOwner == msg.sender, \"Product::addReview: Only current owner can add review\");\n    _reviews[_nextReviewId] = Review({\n      id: _nextReviewId,\n      date: block.timestamp,\n      rating: _rating,\n      comment: _comment,\n      reviewer: msg.sender\n    });\n    _items[_id].rating = (_items[_id].rating * _itemReviews[_id].length + _rating) / (_itemReviews[_id].length + 1);\n    _itemReviews[_id].push(_nextReviewId);\n    _nextReviewId++;\n    return true;\n  }\n\n  function getItemIds() public view returns (uint256[] memory){\n    return _itemIds;\n  }\n\n  function getProductsCount() public view returns (uint256){\n    return _itemIds.length;\n  }\n\n  function getTransactionsCount() public view returns (uint256){\n    return _nextTransactionId;\n  }\n\n  function getReviewsCount() public view returns (uint256){\n    return _nextReviewId;\n  }\n\n}",
  "sourcePath": "/Users/nkpaladugu/Library/CloudStorage/OneDrive-Personal/Tech/IIITH/Capstone/fpochain/web/contracts/Product.sol",
  "compiler": {
    "name": "solc",
    "version": "0.8.17+commit.8df45f5f.Emscripten.clang"
  },
  "schemaVersion": "3.4.10",
  "updatedAt": "2022-09-25T07:45:21.092Z",
  "devdoc": {
    "kind": "dev",
    "methods": {},
    "version": 1
  },
  "userdoc": {
    "kind": "user",
    "methods": {},
    "version": 1
  }
}