{
  "contractName": "Stakeholder",
  "abi": [
    {
      "inputs": [],
      "stateMutability": "nonpayable",
      "type": "constructor"
    },
    {
      "inputs": [],
      "name": "admin",
      "outputs": [
        {
          "internalType": "address",
          "name": "",
          "type": "address"
        }
      ],
      "stateMutability": "view",
      "type": "function"
    },
    {
      "inputs": [
        {
          "internalType": "address",
          "name": "_account",
          "type": "address"
        }
      ],
      "name": "isAdmin",
      "outputs": [
        {
          "internalType": "bool",
          "name": "",
          "type": "bool"
        }
      ],
      "stateMutability": "view",
      "type": "function"
    },
    {
      "inputs": [
        {
          "internalType": "string",
          "name": "_name",
          "type": "string"
        },
        {
          "internalType": "string",
          "name": "_location",
          "type": "string"
        },
        {
          "internalType": "string",
          "name": "_role",
          "type": "string"
        }
      ],
      "name": "register",
      "outputs": [
        {
          "internalType": "bool",
          "name": "",
          "type": "bool"
        }
      ],
      "stateMutability": "nonpayable",
      "type": "function"
    },
    {
      "inputs": [
        {
          "internalType": "address",
          "name": "_id",
          "type": "address"
        }
      ],
      "name": "get",
      "outputs": [
        {
          "components": [
            {
              "internalType": "address",
              "name": "id",
              "type": "address"
            },
            {
              "internalType": "string",
              "name": "name",
              "type": "string"
            },
            {
              "internalType": "string",
              "name": "location",
              "type": "string"
            },
            {
              "internalType": "string",
              "name": "role",
              "type": "string"
            },
            {
              "internalType": "bool",
              "name": "isVerified",
              "type": "bool"
            }
          ],
          "internalType": "struct Stakeholder.stakeholder",
          "name": "",
          "type": "tuple"
        }
      ],
      "stateMutability": "view",
      "type": "function"
    },
    {
      "inputs": [
        {
          "internalType": "address",
          "name": "_operator",
          "type": "address"
        },
        {
          "internalType": "bool",
          "name": "_approved",
          "type": "bool"
        }
      ],
      "name": "setApprovalForAll",
      "outputs": [
        {
          "internalType": "bool",
          "name": "",
          "type": "bool"
        }
      ],
      "stateMutability": "nonpayable",
      "type": "function"
    },
    {
      "inputs": [
        {
          "internalType": "address",
          "name": "_owner",
          "type": "address"
        },
        {
          "internalType": "address",
          "name": "_operator",
          "type": "address"
        }
      ],
      "name": "isApprovedForAll",
      "outputs": [
        {
          "internalType": "bool",
          "name": "",
          "type": "bool"
        }
      ],
      "stateMutability": "view",
      "type": "function"
    },
    {
      "inputs": [
        {
          "internalType": "address",
          "name": "_from",
          "type": "address"
        },
        {
          "internalType": "address",
          "name": "_to",
          "type": "address"
        },
        {
          "internalType": "uint256",
          "name": "_productId",
          "type": "uint256"
        }
      ],
      "name": "transferFrom",
      "outputs": [
        {
          "internalType": "bool",
          "name": "",
          "type": "bool"
        }
      ],
      "stateMutability": "nonpayable",
      "type": "function"
    },
    {
      "inputs": [
        {
          "internalType": "address",
          "name": "_id",
          "type": "address"
        }
      ],
      "name": "verify",
      "outputs": [
        {
          "internalType": "bool",
          "name": "",
          "type": "bool"
        }
      ],
      "stateMutability": "nonpayable",
      "type": "function"
    },
    {
      "inputs": [
        {
          "internalType": "address",
          "name": "_id",
          "type": "address"
        }
      ],
      "name": "isVerified",
      "outputs": [
        {
          "internalType": "bool",
          "name": "",
          "type": "bool"
        }
      ],
      "stateMutability": "view",
      "type": "function"
    },
    {
      "inputs": [
        {
          "internalType": "address",
          "name": "_id",
          "type": "address"
        }
      ],
      "name": "getRole",
      "outputs": [
        {
          "internalType": "string",
          "name": "",
          "type": "string"
        }
      ],
      "stateMutability": "view",
      "type": "function"
    },
    {
      "inputs": [],
      "name": "getAddresses",
      "outputs": [
        {
          "internalType": "address[]",
          "name": "",
          "type": "address[]"
        }
      ],
      "stateMutability": "view",
      "type": "function"
    }
  ],
  "bytecode": "0x608060405234801561001057600080fd5b5033806000806101000a81548173ffffffffffffffffffffffffffffffffffffffff021916908373ffffffffffffffffffffffffffffffffffffffff16021790555050611ec8806100626000396000f3fe608060405234801561001057600080fd5b50600436106100a95760003560e01c8063a22cb46511610071578063a22cb4651461019e578063a39fac12146101ce578063b9209e33146101ec578063c2bc2efc1461021c578063e985e9c51461024c578063f851a4401461027c576100a9565b806323b872dd146100ae57806324d7806c146100de578063442767331461010e5780634cd08d031461013e57806363a9c3d71461016e575b600080fd5b6100c860048036038101906100c39190611197565b61029a565b6040516100d59190611205565b60405180910390f35b6100f860048036038101906100f39190611220565b61054b565b6040516101059190611205565b60405180910390f35b61012860048036038101906101239190611220565b6105a4565b60405161013591906112dd565b60405180910390f35b61015860048036038101906101539190611434565b610678565b6040516101659190611205565b60405180910390f35b61018860048036038101906101839190611220565b6108e3565b6040516101959190611205565b60405180910390f35b6101b860048036038101906101b39190611507565b6109a1565b6040516101c59190611205565b60405180910390f35b6101d6610b1e565b6040516101e39190611605565b60405180910390f35b61020660048036038101906102019190611220565b610bac565b6040516102139190611205565b60405180910390f35b61023660048036038101906102319190611220565b610c05565b6040516102439190611704565b60405180910390f35b61026660048036038101906102619190611726565b610ff0565b6040516102739190611205565b60405180910390f35b610284611084565b6040516102919190611775565b60405180910390f35b600083826000600260008473ffffffffffffffffffffffffffffffffffffffff1673ffffffffffffffffffffffffffffffffffffffff168152602001908152602001600020600083815260200190815260200160002060009054906101000a900460ff169050600061030c8433610ff0565b8061034257508373ffffffffffffffffffffffffffffffffffffffff163373ffffffffffffffffffffffffffffffffffffffff16145b905081801561034e5750805b61038d576040517f08c379a000000000000000000000000000000000000000000000000000000000815260040161038490611802565b60405180910390fd5b8673ffffffffffffffffffffffffffffffffffffffff168873ffffffffffffffffffffffffffffffffffffffff16036103fb576040517f08c379a00000000000000000000000000000000000000000000000000000000081526004016103f290611894565b60405180910390fd5b600073ffffffffffffffffffffffffffffffffffffffff168773ffffffffffffffffffffffffffffffffffffffff160361046a576040517f08c379a000000000000000000000000000000000000000000000000000000000815260040161046190611926565b60405180910390fd5b6000600260008a73ffffffffffffffffffffffffffffffffffffffff1673ffffffffffffffffffffffffffffffffffffffff168152602001908152602001600020600088815260200190815260200160002060006101000a81548160ff0219169083151502179055506001600260008973ffffffffffffffffffffffffffffffffffffffff1673ffffffffffffffffffffffffffffffffffffffff168152602001908152602001600020600088815260200190815260200160002060006101000a81548160ff02191690831515021790555060019450505050509392505050565b60008060009054906101000a900473ffffffffffffffffffffffffffffffffffffffff1673ffffffffffffffffffffffffffffffffffffffff168273ffffffffffffffffffffffffffffffffffffffff16149050919050565b6060600160008373ffffffffffffffffffffffffffffffffffffffff1673ffffffffffffffffffffffffffffffffffffffff16815260200190815260200160002060030180546105f390611975565b80601f016020809104026020016040519081016040528092919081815260200182805461061f90611975565b801561066c5780601f106106415761010080835404028352916020019161066c565b820191906000526020600020905b81548152906001019060200180831161064f57829003601f168201915b50505050509050919050565b60008073ffffffffffffffffffffffffffffffffffffffff16600160003373ffffffffffffffffffffffffffffffffffffffff1673ffffffffffffffffffffffffffffffffffffffff16815260200190815260200160002060000160009054906101000a900473ffffffffffffffffffffffffffffffffffffffff1673ffffffffffffffffffffffffffffffffffffffff161461074a576040517f08c379a000000000000000000000000000000000000000000000000000000000815260040161074190611a18565b60405180910390fd5b6040518060a001604052803373ffffffffffffffffffffffffffffffffffffffff16815260200185815260200184815260200183815260200160001515815250600160003373ffffffffffffffffffffffffffffffffffffffff1673ffffffffffffffffffffffffffffffffffffffff16815260200190815260200160002060008201518160000160006101000a81548173ffffffffffffffffffffffffffffffffffffffff021916908373ffffffffffffffffffffffffffffffffffffffff16021790555060208201518160010190816108259190611be4565b50604082015181600201908161083b9190611be4565b5060608201518160030190816108519190611be4565b5060808201518160040160006101000a81548160ff0219169083151502179055509050506004339080600181540180825580915050600190039060005260206000200160009091909190916101000a81548173ffffffffffffffffffffffffffffffffffffffff021916908373ffffffffffffffffffffffffffffffffffffffff160217905550600190509392505050565b60008060009054906101000a900473ffffffffffffffffffffffffffffffffffffffff1673ffffffffffffffffffffffffffffffffffffffff163373ffffffffffffffffffffffffffffffffffffffff161461093e57600080fd5b60018060008473ffffffffffffffffffffffffffffffffffffffff1673ffffffffffffffffffffffffffffffffffffffff16815260200190815260200160002060040160006101000a81548160ff02191690831515021790555060019050919050565b60008273ffffffffffffffffffffffffffffffffffffffff163373ffffffffffffffffffffffffffffffffffffffff1603610a11576040517f08c379a0000000000000000000000000000000000000000000000000000000008152600401610a0890611d28565b60405180910390fd5b600073ffffffffffffffffffffffffffffffffffffffff168373ffffffffffffffffffffffffffffffffffffffff1603610a80576040517f08c379a0000000000000000000000000000000000000000000000000000000008152600401610a7790611de0565b60405180910390fd5b81600360003373ffffffffffffffffffffffffffffffffffffffff1673ffffffffffffffffffffffffffffffffffffffff16815260200190815260200160002060008573ffffffffffffffffffffffffffffffffffffffff1673ffffffffffffffffffffffffffffffffffffffff16815260200190815260200160002060006101000a81548160ff0219169083151502179055506001905092915050565b60606004805480602002602001604051908101604052809291908181526020018280548015610ba257602002820191906000526020600020905b8160009054906101000a900473ffffffffffffffffffffffffffffffffffffffff1673ffffffffffffffffffffffffffffffffffffffff1681526020019060010190808311610b58575b5050505050905090565b6000600160008373ffffffffffffffffffffffffffffffffffffffff1673ffffffffffffffffffffffffffffffffffffffff16815260200190815260200160002060040160009054906101000a900460ff169050919050565b610c0d6110a8565b81600160003373ffffffffffffffffffffffffffffffffffffffff1673ffffffffffffffffffffffffffffffffffffffff16815260200190815260200160002060000160009054906101000a900473ffffffffffffffffffffffffffffffffffffffff1673ffffffffffffffffffffffffffffffffffffffff168173ffffffffffffffffffffffffffffffffffffffff161480610d385750600073ffffffffffffffffffffffffffffffffffffffff16600160003373ffffffffffffffffffffffffffffffffffffffff1673ffffffffffffffffffffffffffffffffffffffff16815260200190815260200160002060000160009054906101000a900473ffffffffffffffffffffffffffffffffffffffff1673ffffffffffffffffffffffffffffffffffffffff16145b610d77576040517f08c379a0000000000000000000000000000000000000000000000000000000008152600401610d6e90611e72565b60405180910390fd5b600160008473ffffffffffffffffffffffffffffffffffffffff1673ffffffffffffffffffffffffffffffffffffffff1681526020019081526020016000206040518060a00160405290816000820160009054906101000a900473ffffffffffffffffffffffffffffffffffffffff1673ffffffffffffffffffffffffffffffffffffffff1673ffffffffffffffffffffffffffffffffffffffff168152602001600182018054610e2790611975565b80601f0160208091040260200160405190810160405280929190818152602001828054610e5390611975565b8015610ea05780601f10610e7557610100808354040283529160200191610ea0565b820191906000526020600020905b815481529060010190602001808311610e8357829003601f168201915b50505050508152602001600282018054610eb990611975565b80601f0160208091040260200160405190810160405280929190818152602001828054610ee590611975565b8015610f325780601f10610f0757610100808354040283529160200191610f32565b820191906000526020600020905b815481529060010190602001808311610f1557829003601f168201915b50505050508152602001600382018054610f4b90611975565b80601f0160208091040260200160405190810160405280929190818152602001828054610f7790611975565b8015610fc45780601f10610f9957610100808354040283529160200191610fc4565b820191906000526020600020905b815481529060010190602001808311610fa757829003601f168201915b505050505081526020016004820160009054906101000a900460ff161515151581525050915050919050565b6000600360008473ffffffffffffffffffffffffffffffffffffffff1673ffffffffffffffffffffffffffffffffffffffff16815260200190815260200160002060008373ffffffffffffffffffffffffffffffffffffffff1673ffffffffffffffffffffffffffffffffffffffff16815260200190815260200160002060009054906101000a900460ff16905092915050565b60008054906101000a900473ffffffffffffffffffffffffffffffffffffffff1681565b6040518060a00160405280600073ffffffffffffffffffffffffffffffffffffffff1681526020016060815260200160608152602001606081526020016000151581525090565b6000604051905090565b600080fd5b600080fd5b600073ffffffffffffffffffffffffffffffffffffffff82169050919050565b600061112e82611103565b9050919050565b61113e81611123565b811461114957600080fd5b50565b60008135905061115b81611135565b92915050565b6000819050919050565b61117481611161565b811461117f57600080fd5b50565b6000813590506111918161116b565b92915050565b6000806000606084860312156111b0576111af6110f9565b5b60006111be8682870161114c565b93505060206111cf8682870161114c565b92505060406111e086828701611182565b9150509250925092565b60008115159050919050565b6111ff816111ea565b82525050565b600060208201905061121a60008301846111f6565b92915050565b600060208284031215611236576112356110f9565b5b60006112448482850161114c565b91505092915050565b600081519050919050565b600082825260208201905092915050565b60005b8381101561128757808201518184015260208101905061126c565b60008484015250505050565b6000601f19601f8301169050919050565b60006112af8261124d565b6112b98185611258565b93506112c9818560208601611269565b6112d281611293565b840191505092915050565b600060208201905081810360008301526112f781846112a4565b905092915050565b600080fd5b600080fd5b7f4e487b7100000000000000000000000000000000000000000000000000000000600052604160045260246000fd5b61134182611293565b810181811067ffffffffffffffff821117156113605761135f611309565b5b80604052505050565b60006113736110ef565b905061137f8282611338565b919050565b600067ffffffffffffffff82111561139f5761139e611309565b5b6113a882611293565b9050602081019050919050565b82818337600083830152505050565b60006113d76113d284611384565b611369565b9050828152602081018484840111156113f3576113f2611304565b5b6113fe8482856113b5565b509392505050565b600082601f83011261141b5761141a6112ff565b5b813561142b8482602086016113c4565b91505092915050565b60008060006060848603121561144d5761144c6110f9565b5b600084013567ffffffffffffffff81111561146b5761146a6110fe565b5b61147786828701611406565b935050602084013567ffffffffffffffff811115611498576114976110fe565b5b6114a486828701611406565b925050604084013567ffffffffffffffff8111156114c5576114c46110fe565b5b6114d186828701611406565b9150509250925092565b6114e4816111ea565b81146114ef57600080fd5b50565b600081359050611501816114db565b92915050565b6000806040838503121561151e5761151d6110f9565b5b600061152c8582860161114c565b925050602061153d858286016114f2565b9150509250929050565b600081519050919050565b600082825260208201905092915050565b6000819050602082019050919050565b61157c81611123565b82525050565b600061158e8383611573565b60208301905092915050565b6000602082019050919050565b60006115b282611547565b6115bc8185611552565b93506115c783611563565b8060005b838110156115f85781516115df8882611582565b97506115ea8361159a565b9250506001810190506115cb565b5085935050505092915050565b6000602082019050818103600083015261161f81846115a7565b905092915050565b600082825260208201905092915050565b60006116438261124d565b61164d8185611627565b935061165d818560208601611269565b61166681611293565b840191505092915050565b61167a816111ea565b82525050565b600060a0830160008301516116986000860182611573565b50602083015184820360208601526116b08282611638565b915050604083015184820360408601526116ca8282611638565b915050606083015184820360608601526116e48282611638565b91505060808301516116f96080860182611671565b508091505092915050565b6000602082019050818103600083015261171e8184611680565b905092915050565b6000806040838503121561173d5761173c6110f9565b5b600061174b8582860161114c565b925050602061175c8582860161114c565b9150509250929050565b61176f81611123565b82525050565b600060208201905061178a6000830184611766565b92915050565b7f4f6e6c79206f776e6572206f7220617070726f7665642063616e20616363657360008201527f7320746869732066756e6374696f6e0000000000000000000000000000000000602082015250565b60006117ec602f83611258565b91506117f782611790565b604082019050919050565b6000602082019050818103600083015261181b816117df565b9050919050565b7f5374616b65686f6c6465723a3a7472616e7366657246726f6d3a2043616e6e6f60008201527f74207472616e7366657220746f2073656c660000000000000000000000000000602082015250565b600061187e603283611258565b915061188982611822565b604082019050919050565b600060208201905081810360008301526118ad81611871565b9050919050565b7f5374616b65686f6c6465723a3a7472616e7366657246726f6d3a2043616e6e6f60008201527f74207472616e7366657220746f206e756c6c2061646472657373000000000000602082015250565b6000611910603a83611258565b915061191b826118b4565b604082019050919050565b6000602082019050818103600083015261193f81611903565b9050919050565b7f4e487b7100000000000000000000000000000000000000000000000000000000600052602260045260246000fd5b6000600282049050600182168061198d57607f821691505b6020821081036119a05761199f611946565b5b50919050565b7f5374616b65686f6c6465723a3a72656769737465723a205374616b65686f6c6460008201527f657220616c726561647920726567697374657265640000000000000000000000602082015250565b6000611a02603583611258565b9150611a0d826119a6565b604082019050919050565b60006020820190508181036000830152611a31816119f5565b9050919050565b60008190508160005260206000209050919050565b60006020601f8301049050919050565b600082821b905092915050565b600060088302611a9a7fffffffffffffffffffffffffffffffffffffffffffffffffffffffffffffffff82611a5d565b611aa48683611a5d565b95508019841693508086168417925050509392505050565b6000819050919050565b6000611ae1611adc611ad784611161565b611abc565b611161565b9050919050565b6000819050919050565b611afb83611ac6565b611b0f611b0782611ae8565b848454611a6a565b825550505050565b600090565b611b24611b17565b611b2f818484611af2565b505050565b5b81811015611b5357611b48600082611b1c565b600181019050611b35565b5050565b601f821115611b9857611b6981611a38565b611b7284611a4d565b81016020851015611b81578190505b611b95611b8d85611a4d565b830182611b34565b50505b505050565b600082821c905092915050565b6000611bbb60001984600802611b9d565b1980831691505092915050565b6000611bd48383611baa565b9150826002028217905092915050565b611bed8261124d565b67ffffffffffffffff811115611c0657611c05611309565b5b611c108254611975565b611c1b828285611b57565b600060209050601f831160018114611c4e5760008415611c3c578287015190505b611c468582611bc8565b865550611cae565b601f198416611c5c86611a38565b60005b82811015611c8457848901518255600182019150602085019450602081019050611c5f565b86831015611ca15784890151611c9d601f891682611baa565b8355505b6001600288020188555050505b505050505050565b7f5374616b65686f6c6465723a3a736574417070726f76616c466f72416c6c3a2060008201527f43616e6e6f742073657420617070726f76616c20666f722073656c6600000000602082015250565b6000611d12603c83611258565b9150611d1d82611cb6565b604082019050919050565b60006020820190508181036000830152611d4181611d05565b9050919050565b7f5374616b65686f6c6465723a3a736574417070726f76616c466f72416c6c3a2060008201527f43616e6e6f742073657420617070726f76616c20666f72206e756c6c2061646460208201527f7265737300000000000000000000000000000000000000000000000000000000604082015250565b6000611dca604483611258565b9150611dd582611d48565b606082019050919050565b60006020820190508181036000830152611df981611dbd565b9050919050565b7f4f6e6c79207374616b65686f6c6465722063616e20616363657373207468697360008201527f2066756e6374696f6e0000000000000000000000000000000000000000000000602082015250565b6000611e5c602983611258565b9150611e6782611e00565b604082019050919050565b60006020820190508181036000830152611e8b81611e4f565b905091905056fea264697066735822122092cb6ece9eb189bbaa81d272b237692404f202cb3538e171767c78dd24c6709164736f6c63430008110033",
  "immutableReferences": {},
  "source": "// SPDX-License-Identifier: MIT\npragma solidity ^0.8.0;\nimport './Admin.sol';\ncontract Stakeholder is Admin{\n  \n  struct stakeholder{\n    address id;\n    string name;\n    string location;\n    string role;\n    bool isVerified;\n  }\n\n  mapping(address => stakeholder) _stakeholders;\n  mapping(address => mapping(uint256 => bool)) _stakeholderProductOwnership;\n  mapping(address => mapping(address => bool)) _operatorApprovals;\n  address[] _stakeholderAddresses;\n\n  constructor() Admin(msg.sender){}\n\n  function register(\n    string memory _name,\n    string memory _location,\n    string memory _role\n  ) public virtual returns (bool) {\n    require (_stakeholders[msg.sender].id ==  address(0), \"Stakeholder::register: Stakeholder already registered\");\n    _stakeholders[msg.sender] = stakeholder(msg.sender, _name, _location, _role, false);\n    _stakeholderAddresses.push(msg.sender);\n    return true;\n  }\n  \n  function get(address _id) public view onlyStakeholder(_id) returns(stakeholder memory){\n    return _stakeholders[_id];\n  }\n\n  function setApprovalForAll(\n    address _operator,\n    bool _approved\n  ) public virtual returns (bool){\n    require (msg.sender != _operator, \"Stakeholder::setApprovalForAll: Cannot set approval for self\");\n    require (_operator != address(0), \"Stakeholder::setApprovalForAll: Cannot set approval for null address\");\n    _operatorApprovals[msg.sender][_operator] = _approved;\n    return true;\n  }\n\n  function isApprovedForAll(\n    address _owner,\n    address _operator\n  ) public view virtual returns (bool){\n    return _operatorApprovals[_owner][_operator];\n  }\n\n  function transferFrom(\n    address _from,\n    address _to,\n    uint256 _productId\n  ) public virtual onlyOwnerOrApproved(_from, _productId) returns (bool){\n    require (_from != _to, \"Stakeholder::transferFrom: Cannot transfer to self\");\n    require (_to != address(0), \"Stakeholder::transferFrom: Cannot transfer to null address\");\n    _stakeholderProductOwnership[_from][_productId] = false;\n    _stakeholderProductOwnership[_to][_productId] = true;\n    return true;\n  }\n\n  function verify(address _id) public onlyAdmin returns (bool){\n    _stakeholders[_id].isVerified = true;\n    return true;\n  }\n\n  function isVerified(address _id) public view returns (bool){\n    return _stakeholders[_id].isVerified;\n  }\n\n  function getRole(address _id) public view returns (string memory){\n    return _stakeholders[_id].role;\n  }\n\n  function getAddresses() public view returns (address[] memory){\n    return _stakeholderAddresses;\n  }\n\n  modifier onlyStakeholder(address _id){\n    require(\n      _id == _stakeholders[msg.sender].id || _stakeholders[msg.sender].id == address(0), \n      \"Only stakeholder can access this function\"\n    );\n    _;\n  }\n\n  modifier onlyOwnerOrApproved(address _from, uint256 _productId){\n    bool _from_the_product_owner = _stakeholderProductOwnership[_from][_productId];\n    bool _approved_or_product_owner = isApprovedForAll(_from, msg.sender) || msg.sender == _from;\n\n    require( _from_the_product_owner && _approved_or_product_owner, \"Only owner or approved can access this function\");\n    _;\n  }\n\n}",
  "sourcePath": "/Users/nkpaladugu/Library/CloudStorage/OneDrive-Personal/Tech/IIITH/Capstone/fpochain/web/contracts/Stakeholder.sol",
  "compiler": {
    "name": "solc",
    "version": "0.8.17+commit.8df45f5f.Emscripten.clang"
  },
  "schemaVersion": "3.4.10",
  "updatedAt": "2022-09-25T07:43:28.820Z",
  "devdoc": {
    "kind": "dev",
    "methods": {},
    "version": 1
  },
  "userdoc": {
    "kind": "user",
    "methods": {},
    "version": 1
  }
}